:100000000C943A040C945A040C945A040C945A0418
:100010000C945A040C945A040C945A040C945A04E8
:100020000C945A040C945A040C945A040C945A04D8
:100030000C945A040C94E3140C945A040C942C154C
:100040000C945A040C945A040C945A040C945A04B8
:100050000C945A040C945A040C945A040C945A04A8
:100060000C94BC1D0C9403170C94A7160C94D51675
:100070000C945A040C94561D0C94D1170C945A04E9
:100080000C945A040C945A040C945A040C945A0478
:100090000C9491170C9435170C9463170C94E91C6D
:1000A0000C945A040C945A040C9428160C949FB582
:1000B0000C945A040C945A040C945A040C945A0448
:1000C0000C945A040C945A040C945A040C945A0438
:1000D0000C945A040C945A040C945A040C945A0428
:1000E0000C945A040C945A040C945A040C945A0418
:1000F0000C94FCB50C945A040C945A040C9424B639
:100100000C945A040C945A040C945A040C945A04F7
:100110000C945A040C945A040C945A040C945A04E7
:10012000030A160019009804BD001700B60A020061
:100130001300BF0A01001400310B08001500850AE6
:1001400001001600650A080000007F0A0100010096
:10015000AC0A080002001A0A040003002B0B01007D
:100160000400220B010005008F0A01000600900A1E
:1001700001000700910A010008009B0A1100090014
:10018000800A02000A00860A01000B002D0B020003
:100190000C00250B01000D003B0B01000E00B50A01
:1001A00001000F00810611002300A30614002200A5
:1001B000CB0617002100F90602002000FD0604000E
:1001C0001F00050710001E00E52B8E2C522D6C2DF4
:1001D000852DA82ED52EAC32AC32AC32AC32AC323E
:1001E000AC32AC32AC32AC322E2E3C2EAC32772B51
:1001F000602E3F2D0333103332332C332933323307
:100200003C33353535353535353535353535353599
:10021000353535352C333233353500332F332033F4
:10022000664F774EAB4FAB4FAB4F7D4E874EAB4FCC
:10023000AB4F904E964EBF4EC84EAB4FCE4ED74EA4
:10024000E24EAB4FEB4EF14EAB4FFA4E374F4C4FA9
:10025000AB4F3D4F464F664F664F664F584F584F16
:10026000584F584F584F584F584F584F584F584F56
:10027000584F584F584F584F584F584F584F0E4F90
:10028000584FAB4FAB4FAB4FAB4FAB4FAB4FAB4FF1
:10029000AB4FAB4FAB4FAB4FAB4FAB4FAB4F584FE1
:1002A000524F664F584F094F1D517D506D516D5142
:1002B0006D518350885034516D518B508E50A750E2
:1002C000AC506D51AF50B250B5506D51BA50BD5099
:1002D0003451C250115126516D5114511751815052
:1002E0001A511A513451345134513451345134511A
:1002F00034513451345134513451345134513451D6
:10030000345134513451F75034516D516D516D5158
:100310006D516D516D516D516D516D516D516D51ED
:100320006D516D516D51345129512C513451F05052
:100330008B52905295529A529F52A452A952A9524E
:10034000B752BA52D352BD52C052C352C652D35200
:10035000C952CC52D352CF52C956055705570557EB
:10036000CF56E856DB56E1561557D556EE56EE56A3
:10037000F45605570C571057605763576657665722
:10038000695775576F57725785576C5778577B5712
:100390007E5781574459485970594C595059705992
:1003A00054597059625966596D59AD5D6C5E7E5EE7
:1003B000675DC45EC45E795E7E5E815EAF5E985EA0
:1003C000C45EC45EAF5E9B5DB25E427C4A7CD67BFF
:1003D000977C977C1D7C2A7C977C977C977C547CAF
:1003E000637CF67B027C977CD37B357C4D814D8191
:1003F000DA80E180E180ED80ED80FE80FE80248166
:10040000248124819D814D81EA97F797249836981D
:100410003D984A98579862986A988898B2987498C4
:10042000CAACD2ACE4ACEDACEFACF1ACF3ACF6AC36
:10043000C7AD40AE40AEEFADF5AD04AE0AAE0DAE09
:1004400010AE13AE19AE650A08006E0A01007B0AF1
:1004500004007F0A0100290B01002A0B0100310B67
:1004600008002D0B0200B60A0200BF0A0100250B8E
:1004700001003B0B01002B0B0100820A0100830AE3
:100480000100840A0100850A0100800A0200860A30
:100490000100270B0100260B0100440A0100460A57
:1004A0000100AC0A08001A0A0400920A0400870A34
:1004B00004008B0A04008F0A0100900A0100910ACF
:1004C00001009B0A1100220B0100960A0100970A05
:1004D0000400B40A0100470A0200B50A0100000046
:1004E0000000760502007A050100780502007C050F
:1004F00001007D0501007E0501007F0501008005EA
:1005000001008105010082050100830501007B05D2
:10051000010084050100850501008E0502008605A5
:10052000010087050100880501008A05040089058E
:1005300001007903000098040000FE030000550547
:100540000000000000007805000000000000D10954
:1005500000000000000054080000000000008B08AC
:100560000000B30800006F09000000000000000058
:100570000000030A000085000000070507060205C9
:1005800002040000000802020A0135000E011410E6
:10059000C8320000003412010303000010270000DD
:1005A00010270000010001E803000004E803000038
:1005B0001041746D656C20202020202020202020F8
:1005C0002000000000000000000300020000010005
:1005D000000000000000000000000000000000001B
:1005E000000000000000000000000000000000000B
:1005F0000000000000000500FF00000000000000F7
:1006000000000000000000000000000000000000EA
:1006100000000000000000000000000000000000DA
:1006200000000000000000000000000000000000CA
:1006300000000000000000000000000000000000BA
:1006400000000000000000000000000000000000AA
:10065000000000000000000000000000000000009A
:100660000000000000000001020100020205050870
:100670000000FFFF34120000000000000000020430
:10068000010000010002000300040005000600074D
:1006900000080009000A000B000C000D000E000FFE
:1006A000001800000001000200030004000500061D
:1006B000000700080009000A000B000C000D000EE6
:1006C000000F0013001400150016000000010002C6
:1006D0000003000400050006000700080009000AE6
:1006E000000B000C000D000E000F0013001400158D
:1006F0000016001700180019001A001B0013001440
:1007000000150016000000010002000300040005AF
:100710000006000700080009000A000B000C000D8D
:10072000000E000F00B70EA60FBB0EBF0EA20FC328
:100730000EBB41E546000000000000000000000084
:1007400000987FCD7FA593F9A0997341860E7FA96C
:1007500078946F9B7C79919A72DD9C3E6F788FCDF7
:100760006E00000000000000000000000002020314
:100770000202020101010101010102020101010263
:100780000202020202020202020202020303020247
:1007900003028B766B720107AC9AE6810101AC9A79
:1007A000E681010141766E790101C975FB9D010168
:1007B000C975D49D01078175777F01012875929DC8
:1007C000010100000000010700000000010100001D
:1007D0000000010300006C6B010400006C6B01055C
:1007E00000000000010600000000010C00000000F5
:1007F0000101AC9A0000000100000000010D0000A2
:1008000000000107000000000109000000000100D5
:1008100000000000010100000000010100000000D4
:10082000000000001F70000700001F70000B000098
:100830001F70000000001F70004168B56C8968637C
:100840006882680000486856687B684F68AB6C2215
:1008500068236B2A6B9C6B156B90680000756D1993
:10086000A0539FF593199E00009B95D1790B7400BE
:100870000000000011241FBECFEFD1E4DEBFCDBFCA
:1008800012E0A0E0B2E0E4E4FFE601E00BBF02C04A
:1008900007900D92A038B107D9F712E1A0E8B2E0B5
:1008A00001C01D92AA32B107E1F70E94D61F0E9433
:1008B000981FFDCF0C9400007F937FB7F8949D9A0A
:1008C000A5988AEF0E94BB048AEF0E94BB049D9802
:1008D00086E40E94BB0481E0959980E08F9380EFCD
:1008E0000E94BB048F917FBF7F9108957F937FB754
:1008F000F8949D9AA59886E00E94BB049D988AE092
:100900000E94BB04889495990894881F8F9384E66D
:100910000E94BB048F917FBF7F9108959F937F9327
:1009200098E00E947604879577959A959923C9F760
:10093000872F7F919F9108957F937FB7F894A59813
:100940009D9A8F9386E00E94BB048F91879508F44F
:100950009D988F9384E60E94BB048F919D987FBFE2
:100960007F9108959F9398E00E949C049A95992303
:10097000D9F79F91089500000000000000008A95BB
:100980008823C9F708955F937F937FB7F894CF9337
:10099000DF93C0E0D0E07F935091B2007091B2003D
:1009A0007517E1F3739521965091B2005717D9F757
:1009B0007F91CE01DF91CF917FBF7F915F910895AD
:1009C000CF92DF92EF92FF920F93CF93DF93CDB749
:1009D000DEB760970FB6F894DEBF0FBECDBF002321
:1009E00009F45AC029873A874B875C876D877E87D1
:1009F0008F87988B80E2801B49855A856B857C8523
:100A00001816B4F019821A821B821C82992787FD5E
:100A10009095909581959F4F04C0440F551F661F78
:100A2000771F8A95D2F74D835E836F8378872CC0BA
:100A30006A017B01002E04C0CC0CDD1CEE1CFF1CE7
:100A40000A94D2F7C982DA82EB82FC826A017B01C6
:100A500004C0F694E794D794C7948A95D2F7D70147
:100A6000C6014D855E856F85788904C0440F551F8A
:100A7000661F771F0A95D2F7842B952BA62BB72BD1
:100A80008D839E83AF83B88729813A814B815C81B6
:100A90006D817E818F81988560960FB6F894DEBF58
:100AA0000FBECDBFDF91CF910F91FF90EF90DF9000
:100AB000CF90089595B180E1892785B908950F9366
:100AC0001F93CF93DF930F92CDB7DEB708E513E006
:100AD000C801BE016F5F7F4F41E050E00E94B50F3B
:100AE000C801BE016F5F7F4F41E050E00E941810C7
:100AF0000F90DF91CF911F910F91089580EC80931B
:100B000063031092640383E390E090936603809301
:100B1000650386E08093670310926803109269036F
:100B200080E892E090936D0380936C038AE090E0FC
:100B300090936F0380936E03109271031092700371
:100B400010927303109272038FE595E090937503F2
:100B500080937403109277031092760310927803B7
:100B600088E593E00E9496100895249A2C980E949C
:100B70007E0588E593E060E072E045E050E00E9489
:100B8000181088EE93E0A0E0B0E08093900290937C
:100B90009102A0939202B0939302109294028AE57C
:100BA00095E090939602809395028AE892E00E94E5
:100BB000AD0D08950895089508950895089591E05C
:100BC000873208F090E0892F0895CF93DF9300D00B
:100BD00000D0CDB7DEB7682F70E0660F771F660FC5
:100BE000771F6A5B7B4FCE01019644E050E00E9484
:100BF0004FB769817A818B819C810F900F900F9004
:100C00000F90DF91CF9108950E9462060E940C0818
:100C10000895DF92EF92FF920F931F93CF93DF938C
:100C2000182FEB012097D9F00E94E505062FF72E2B
:100C3000E82ED92E812F0E94DF05882341F4CE01B2
:100C4000602F7F2D4E2D5D2D0E944FB708C08C2F39
:100C50009D2F602F7F2D4E2D5D2D0E9465B7DF915A
:100C6000CF911F910F91FF90EF90DF9008951F9308
:100C7000CF93DF93182FEB01209791F00E94DF05AF
:100C8000813071F4812F0E94E505482F592F4115BD
:100C9000510531F0862F972F6C2F7D2F0E9465B75D
:100CA000DF91CF911F910895CF93DF93EB010E94C5
:100CB000E505DC01CB01109711F499838883DF915E
:100CC000CF91089582E3E9E4FAE0DF011D928A956D
:100CD000E9F785E080936E0A86EB9AE06BEF75E0AA
:100CE00046E850E00E944FB78AE19AE06CEC75E06C
:100CF0004FE250E00E944FB789E19AE06BEC75E05B
:100D000041E050E00E944FB78BE79AE060E975E060
:100D10004BE350E00E944FB780EA96E0E9E7F3E04A
:100D2000DF019C011D9221503040E1F708954115EB
:100D3000510559F0E62FF72F20E030E09191890F0F
:100D40002F5F3F4F24173507C9F70895AF92BF9221
:100D5000CF92DF92EF92FF920F931F93CF93DF9387
:100D6000CDB7DEB72C970FB6F894DEBF0FBECDBF60
:100D70008C017B01CE0102969A87898785E090E0FD
:100D80009C878B87FB0180819181059798878F8352
:100D9000CE01079666ED7BE00E94230C8D819E813B
:100DA0008017910709F040C0F701248135818B81BC
:100DB0009C8128173907D1F5CE0101969A8789873A
:100DC00081E090E09C878B87C901009739F1CC24A2
:100DD000DD2400E00F2EF6EDAF2EFBE0BF2EF02D50
:100DE000F701808191818C0D9D1D98878F83CE01A5
:100DF0000796B5010E94230C69857A85802F41E012
:100E000050E00E949706082F0894C11CD11CF701DE
:100E100084819581C816D90618F301C000E08A8143
:100E2000801731F082E005C082E003C082E001C09B
:100E300080E02C960FB6F894DEBF0FBECDBFDF91D9
:100E4000CF911F910F91FF90EF90DF90CF90BF90C7
:100E5000AF900895EF92FF920F931F93CF93DF937C
:100E6000CDB7DEB72E970FB6F894DEBF0FBECDBF5D
:100E70008C01CE010796B8010E94A40B86E0F80110
:100E800011928A95E9F7EE24FF24E39420C08D8522
:100E90009E85BE016F5F7F4F0E94A6068823B9F42E
:100EA0008D859E85FC01F695E795F695E795F69577
:100EB000E795E00FF11F87709070970102C0220F35
:100EC000331F8A95E2F7C9019081892B8083CE0177
:100ED0000796BE016F5F7F4F0E94620A8823B9F6B2
:100EE0002E960FB6F894DEBF0FBECDBFDF91CF9127
:100EF0001F910F91FF90EF900895882319F0813092
:100F0000C9F40FC0A4E5BBE0E62FF72FCD0106968C
:100F10002D91308123232193A817B907C9F791E0B8
:100F20000AC0862F972F0E942A0791E0882319F084
:100F300090E001C090E0892F08950E94D70B809126
:100F4000690B81FD02C00E94630C81E008950F933C
:100F50001F93CF93DF9300D000D000D0CDB7DEB782
:100F60008E010F5F1F4F26E0F80111922A95E9F7D5
:100F7000FC01F695E795F695E795F695E795E00F70
:100F8000F11F9C012770307081E090E002C0880F53
:100F9000991F2A95E2F78083C8010E94E20A80E047
:100FA000B8010E947D078981882361F4FE01329691
:100FB000CE0107962191222329F4E817F907D1F7EA
:100FC00080E01FC0E8E4FBE0DE011196CF01069649
:100FD00021913C9123232D93E817F907C9F78981C3
:100FE000882361F4FE013296CE01079621912223D7
:100FF00039F4E817F907D1F780E003C081E001C0B8
:1010000081E026960FB6F894DEBF0FBECDBFDF910C
:10101000CF911F910F9108956F927F928F929F921F
:10102000AF92BF92CF92DF92EF92FF920F931F93F6
:10103000CF93DF93CDB7DEB768970FB6F894DEBFD6
:101040000FBECDBF80E291E090933D0B80933C0BAF
:1010500084EA91E090933F0B80933E0B26E030E0D2
:1010600084EA91E080529140B9010E9477B6809164
:10107000400B9091410B682B792B7093410B60933F
:10108000400B88EC91E0845A9140B9010E9477B6F8
:101090008091420B9091430B682B792B7093430BFB
:1010A0006093420B1092440B1092450B1092460B2A
:1010B0001092470B86E0E4E5FBE0DF011D928A9584
:1010C000E9F78091400B9091410B009709F45FC0C4
:1010D00000E00F2EF0E2CF2EF1E0DF2EF02D0F2EEC
:1010E000F4E4AF2EFBE0BF2EF02D0F2EF8EF6F2EA5
:1010F000FFEF7F2EF02D6A0C7B1C882499248394AB
:10110000EE24FF246894E2F8E60CF71CCE01439627
:10111000B60146E050E00E944FB78D899E89059642
:10112000A0E0B0E0F5014081518162817381840FBC
:10113000951FA61FB71F80839183A283B3832F8936
:10114000388DC9019695879596958795969587953B
:10115000F301E80FF91FC90187709070940102C074
:10116000220F331F8A95E2F7C901908D892B808F5A
:1011700046E050E0C40ED51E0F5FD7018D919C91C3
:101180001197202F30E02817390708F4BFCF9C01B2
:10119000220F331F820F931F880F991F04966C0133
:1011A000EE24FF24CE010D969E8B8D8B86E090E081
:1011B000988F8F8BAA24BB2400E010E00F2EFCE355
:1011C0008F2EFBE09F2EF02D0F2EF6ED6F2EFBE005
:1011D0007F2EF02DF801F695E795F695E795F695B3
:1011E000E795E80DF91D208D30E0C80187709070FB
:1011F000F90102C0F695E7958A95E2F7E0FF3EC057
:10120000C501880F991F8A0D9B1D880F991F049691
:101210009C8B8B8BCE014396B3010E94230C898952
:101220009A890817190749F48D859E85AF85B88975
:101230008C159D05AE05BF0559F01A8B098BCD861F
:10124000DE86EF86F88ACE014396B3010E94430CF6
:10125000C8010E945F09BC01CE01079646E050E03C
:101260000E944FB789859A850596A0E0B0E0C80E28
:10127000D91EEA1EFB1E0894A11CB11C0F5F1F4F54
:101280000D32110509F0A6CF0E94CD0BCE010196BB
:101290000E942A0768960FB6F894DEBF0FBECDBF36
:1012A000DF91CF911F910F91FF90EF90DF90CF9042
:1012B000BF90AF909F908F907F906F9008958F9286
:1012C0009F92AF92BF92CF92DF92EF92FF920F93D5
:1012D0001F93CF93DF9300D0CDB7DEB75C01309181
:1012E0003C0B20913D0B8091400B9091410B00975E
:1012F00039F1032F122FEE24FF240F2EF0E48F2E4E
:10130000FBE09F2EF02D6801B8016C5F7F4FCE018E
:10131000019642E050E00E944FB789819A818A1578
:101320009B0581F00894E11CF11C0A5F1F4FF4013A
:1013300080819181E816F90630F3CC24DD2402C0C7
:10134000CC24DD248C2D9D2D0F900F90DF91CF911B
:101350001F910F91FF90EF90DF90CF90BF90AF90D3
:101360009F908F900895CF92DF92EF92FF920F930C
:101370001F93CF93DF93CDB7DEB762970FB6F89484
:10138000DEBF0FBECDBF8C016B01BC0176956795AA
:101390007695679576956795FB01E45CF44F208D13
:1013A00030E087709070A90102C0569547958A95E4
:1013B000E2F740FF58C0FE013D96A4E5BBE086E0A1
:1013C0000D9001928150E1F76115710539F140E00E
:1013D00050E020E0EDE0F0E0EC0FFD1FE20FF11D2A
:1013E0009081892F869585759575890F382F36954B
:1013F000369533738373380F3083832F90E08F706B
:10140000907032953F70830F911D480F591F2F5FC9
:10141000822F90E086179707E8F202C040E050E084
:10142000077010700115110501F16C0F7D1FDB01B4
:101430001D96EC91F0E060E0A1E0B0E0EE24FF2426
:101440009F01062E02C0369527950A94E2F7CD013A
:1014500020FFC701480F591F6F5F862F90E080174C
:10146000910770F302C04FEF5FEFCE0107969C83A8
:101470008B83CA01880F991F480F591F440F551FAE
:101480004C5F5F4F5A83498386E090E09E838D8353
:10149000CE01019666ED7BE00E94230C8F8198853A
:1014A000F6019183808362960FB6F894DEBF0FBE7B
:1014B000CDBFDF91CF911F910F91FF90EF90DF9003
:1014C000CF900895EF92FF920F931F93CF93DF93E6
:1014D00000D000D000D0CDB7DEB78C017B01FC017D
:1014E000408140FD1BC021E030E0B9017695679551
:1014F0007695679576956795F801E60FF71F408119
:10150000F901E770F070842F90E00E2E02C09695DE
:1015100087950A94E2F780FF1BC006C0E0E0F0E088
:1015200060E070E020E030E0600F711F81E090E04B
:1015300002C0880F991FEA95E2F780954823FB01C6
:101540004083C9010E945F09BC01009739F427C09C
:101550002F5F3F4F2D32310541F621C0CE0101965C
:1015600046E050E00E944FB789819A81F70193834A
:1015700082838D819E81B7010E94B309F70180812A
:1015800091810596918380838B819C81958384834F
:101590008D819E81F8019783868381E006C08FEF5D
:1015A0009FEFF8019783868380E026960FB6F89424
:1015B000DEBF0FBECDBFDF91CF911F910F91FF9086
:1015C000EF9008954F925F926F927F928F929F92C9
:1015D000AF92BF92CF92DF92EF92FF920F931F9341
:1015E000CF93DF93CDB7DEB728970FB6F894DEBF61
:1015F0000FBECDBF6C0130913E0B20913F0BFC0123
:10160000858186FD07C08091420B9091430B009726
:1016100049F483C0C6016FEF70E046E050E00E94DD
:1016200080B77BC0A32EB22E88249924EE24FF24F9
:10163000E3944424552400E00F2EF2E46F2EFBE0E7
:101640007F2EF02DCE010196B50146E050E00E94BC
:101650004FB72D813E81C9019695879596958795BF
:1016600096958795F601E80FF91F40812770307035
:10167000842F90E0022E02C0969587950A94E2F797
:1016800080FF3DC0C70102C0880F991F2A95E2F76D
:101690008095482340838B819C81009781F1B20122
:1016A000102FCB01880F991F69817A81680F791FEC
:1016B000CE01079642E050E00E944FB72F81388557
:1016C000C901969587959695879596958795F60184
:1016D000E80FF91FC90187709070970102C0220FAF
:1016E000331F8A95E2F7C9019081892B80831F5FA0
:1016F000612F70E08B819C816817790790F20894C4
:10170000811C911C86E090E0A80EB91EF301808137
:1017100091818816990608F495CF28960FB6F8940B
:10172000DEBF0FBECDBFDF91CF911F910F91FF9014
:10173000EF90DF90CF90BF90AF909F908F907F9071
:101740006F905F904F900895CF93DF93EC018FEFF0
:101750009FEF9F838E838C2F9D2FAC2FBD2FE62F65
:10176000F72F26E001900D922150E1F70E94E20A46
:10177000E4E5FBE0CF0106962191388123232993EC
:10178000E817F907C9F7DF91CF9108958091670BAA
:101790009091680B0E949D0708951092640B86EC4F
:1017A0009BE09093660B8093650B089508950F93CB
:1017B0001F93CF93DF9300D000D000D0CDB7DEB71A
:1017C0008E010F5F1F4F26E0F80111922A95E9F76D
:1017D000FC01F695E795F695E795F695E795E00F08
:1017E000F11F9C012770307081E090E002C0880FEB
:1017F000991F2A95E2F78083C8010E94E20AD80166
:10180000EEE4FBE0CE0107962D913081232B21934E
:10181000A817B907C9F78091690B84608093690B99
:1018200026960FB6F894DEBF0FBECDBFDF91CF91E5
:101830001F910F91089502C00E94D31F0E94B811FA
:101840008823D1F708950F931F93CF93DF938C01D3
:10185000EB010E941B0CC801BE010E94DF102FEF9C
:101860008F3F920741F08BE0C63DD80731F40E94CC
:101870001B0C80E003C081E001C080E0DF91CF91CC
:101880001F910F9108950F931F93CF93DF938C01B6
:10189000EB010E941B0CC801BE010E9443112FEFF7
:1018A0008F3F920741F08BE0C63DD80731F40E948C
:1018B0001B0C80E003C081E001C080E0DF91CF918C
:1018C0001F910F9108952F923F924F925F926F92C6
:1018D0007F928F929F92AF92BF92CF92DF92EF92C0
:1018E000FF921F93CF93DF93CDB7DEB762970FB60A
:1018F000F894DEBF0FBECDBF8091690B82608093EC
:10190000690B82FF9FC087E992E06EE47BE00E9452
:10191000A40B8091690B8B7F8093690B93C0F201BC
:10192000E080F180C7019695879596958795969565
:101930008795F101E80FF91FC70187709070950135
:1019400002C0220F331F8A95E2F7C9018095928960
:101950008923828B6F85788949895A8980E00E9422
:101960009706182F82E090E08C0F9D1F9A87898739
:10197000E5E0F0E0FC87EB878D859E8505979887ED
:101980008F83CE010796B4010E94230C8A81181719
:10199000C1F58D819E81E816F90699F589899A89A4
:1019A0002B813C818217930761F521E030E02C0FF9
:1019B0003D1F3A872987BC86AB86009709F45DC036
:1019C000CC24DD248D859E858C0D9D1D98878F836D
:1019D000CE010796B4010E94230CA985BA858F8594
:1019E0009889FC01EC0DFD1D8C919081891749F4BB
:1019F0000894C11CD11C89899A89C816D90610F38C
:101A00003CC01A83FE82ED8289899A899C838B83EC
:101A1000CE0102969A87898785E090E09C878B8724
:101A20008D859E85059798878F83CE01079666EDF5
:101A30007BE00E94430CCE010D9663E67CE00E94A1
:101A4000430C2EC00F2EF7E96F2EF2E07F2EF02D03
:101A50000F2EFDE94F2EF2E05F2EF02D0F2EFCE34E
:101A60002F2EFBE03F2EF02DAA24BB24A3940F2E93
:101A7000F6ED8F2EFBE09F2EF02DC301BE01635FBC
:101A80007F4F0E94620A882309F049CF8091690B39
:101A90008D7F8093690B8FE060E070E00E94EE1E06
:101AA00062960FB6F894DEBF0FBECDBFDF91CF9127
:101AB0001F91FF90EF90DF90CF90BF90AF909F90DD
:101AC0008F907F906F905F904F903F902F900895F0
:101AD000EF92FF920F931F93CF93DF9318C08FE97C
:101AE00092E060E070E0AE010E94A7138A8588232F
:101AF00059F4EA82FB820C831D838FE992E0BE01D8
:101B0000A80197010E94EF11EB85FC850995809152
:101B10009F029091A0020097D9F00E941D167B01B0
:101B20008C01C0919F02D091A0028A819B81AC81DF
:101B3000BD81A8019701281B390B4A0B5B0B8E81D5
:101B40009F81A885B985281739074A075B0738F6AA
:101B5000CDB7DEB7E6E00C94D5B6CF93DF93EC01BA
:101B6000009771F0E0919F02F091A00206C0EC177F
:101B7000FD0749F00190F081E02D3097C1F709C0D1
:101B80002FEF3FEF02C020E030E0C901DF91CF919D
:101B900008950E941D169B01AC01198218826A8368
:101BA0007B838C839D838FE992E0BE010E94EF11BD
:101BB000EACFCF93DF93EC010097D1F080919F02A1
:101BC0009091A0028C179D0749F08FE992E0BE0129
:101BD0000E94C613BC01009719F40AC060E070E0CF
:101BE0008FE992E0AE010E94A71320E030E002C02E
:101BF0002FEF3FEFC901DF91CF9108958F929F9210
:101C0000AF92BF92CF92DF92EF92FF920F930E941A
:101C10004F144B015C012091AA0230E040E050E0FB
:101C200060E070E080E090E000E20E94E00428299B
:101C300039294A295B290F91FF90EF90DF90CF90CF
:101C4000BF90AF909F908F900895CF93DF93E82F30
:101C5000F0E0DF01A05CB04093E0B595A7959A95C0
:101C6000E1F7B0E0AA0FBB1FAF55BD4F6D917C915E
:101C700011976115710599F14FB7F894EB012A811D
:101C80003B81888199814FBF2817390729F12D9110
:101C90003C911197E901288D398D280F391FE901F1
:101CA0003881019620812064208336830D90BC9179
:101CB000A02D5A962D913C915B978217930711F4B2
:101CC00080E090E02181206221832FB7F894FB010E
:101CD000918380832FBF03C0818180648183DF91E2
:101CE000CF91089590E0805C904033E09595879582
:101CF0003A95E1F7E82FF0E0EE0FFF1FEF55FD4FAB
:101D0000A081B1811097B9F090968C9190978871CD
:101D100091F42FB7F89418968D919C9119972FBF35
:101D2000009749F00190F081E02D048CF58DE02DB5
:101D3000309709F009950895FC01938983859923CB
:101D400049F4803C19F0883C89F402C06A9A0895ED
:101D5000559A0895803C19F0883C41F404C06A9873
:101D60007298729A089555985D985D9A089580ECDE
:101D70000E94250E089580EC0E94720E089588EC52
:101D80000E94250E089588EC0E94720E0895A3E02B
:101D9000B0E0EDECFEE00C94B8B681E0898306E09B
:101DA00010E0DD2452E0E52EF12CEC0EFD1E9091AA
:101DB000A80289818923B9F09FB7F8942091A802DD
:101DC000898182278093A8029FBF6D2D70E0660FE6
:101DD000771F6B5D784FC70142E050E00E944FB71C
:101DE000EA81FB810995D3948981880F8983015009
:101DF0001040E9F62396E7E00C94D4B69091A8023F
:101E000021E030E002C0220F331F8A95E2F7922BC7
:101E10009093A8028091BF0280688093BF022FB781
:101E2000F8948091E2029091E30282609093E30241
:101E30008093E2022FBF0895CF93DF93C82FD0E0A5
:101E4000DE01A05CB040E3E0B595A795EA95E1F727
:101E5000B0E0AA0FBB1FAF55BD4FED91FC9111979C
:101E6000309721F489818F77898335C080A183FDE4
:101E700032C0C489D58984FF0AC06883ED91FC9182
:101E80001197848995890196958B848B24C020971E
:101E900011F1268137818681978101969783868308
:101EA00046815781868997894817590711F4178207
:101EB000168246815781848195814817590719F404
:101EC0003783268308C0C20FD31F6883808591851E
:101ED000019691878087DF91CF91089590E0805C93
:101EE000904033E0959587953A95E1F790E0DC01D5
:101EF000AA0FBB1FAF55BD4FED91FC9111973097C5
:101F000001F16FB7F89442815381208131816FBF15
:101F10004217530711F421E02287FC01EE0FFF1F47
:101F2000EF55FD4F0190F081E02D828D938D00974C
:101F300011F4118E108E068CF78DE02D309709F07C
:101F40000995089588EC0E946E0F089580EC0E9418
:101F50006E0F0895805C893030F4E82FF0E0EA5F7E
:101F6000FD4F8081089580E00895A0E0B0E0EBEBA4
:101F7000FFE00C94B8B6EC018B017A01009709F4EC
:101F80004FC0DB848D2D0E94AA0F882309F448C01E
:101F90000115110509F444C0E114F10409F440C02D
:101FA000ED2DF0E0E05CF04073E0F595E7957A9573
:101FB000E1F7F0E0EE0FFF1FEF55FD4F80819181BB
:101FC000C817D90769F52FB7F8944E815F818C81C6
:101FD0009D812FBFD80120E030E010C0EC89FD8941
:101FE000E80FF91F60816D9301966E897F898617CE
:101FF000970711F480E090E02F5F3F4F841795071B
:1020000019F02E153F0550F34FB7F8949D838C833C
:1020100088859985821B930B998788874FBF02C05B
:102020002FEF3FEFC901CDB7DEB7E7E00C94D4B690
:10203000A0E0B0E0EEE1F0E10C94B5B6EC018B016C
:102040007A01009709F46AC0CB848C2D0E94AA0FF4
:10205000882309F463C00115110509F45FC0E11478
:10206000F10409F45BC0EC2DF0E0E05CF040B3E07B
:10207000F595E795BA95E1F7F0E0EE0FFF1FEF5504
:10208000FD4F80819181C817D90709F047C08A8D1B
:102090009B8D009779F42A813B818881998128174B
:1020A0003907E1F5198F088FFB82EA8219821882BD
:1020B000C7012CC08FB7F894CA80DB80A880B98094
:1020C0008FBFD801960180E090E015C0A9014F5F55
:1020D0005F4F6A8D7B8D4617570711F440E050E043
:1020E0004A155B0559F06D91E88DF98DE20FF31FEC
:1020F000608301969A018E159F0540F34FB7F894BF
:102100003B832A834FBFCA14DB0431F41A86EB8564
:10211000F0E02181206221839C0102C02FEF3FEF7C
:10212000C901CDB7DEB7EAE00C94D1B61F93CF93C7
:10213000DF93EC010097E1F11B85812F0E94AA0F2C
:102140008823B1F1E12FF0E0E05CF04033E0F59559
:10215000E7953A95E1F7F0E0EE0FFF1FEF55FD4FE1
:1021600080819181009721F5D183C0838C85803453
:1021700019F4CE010E949C0E198218821B821A82C9
:102180008C899D89009711F41F8A1E8A888D998DEC
:10219000009711F41B8E1A8E1D821C821F821E82D4
:1021A00081E08A87CE010E944E162B8530E002C066
:1021B0002FEF3FEFC901DF91CF911F910895FC01EF
:1021C0008091A902882309F057C0309709F457C0BD
:1021D0008481958120813181820F931F20E181309C
:1021E000920708F04CC081E08093A9027093710BB4
:1021F0006093700BAAE6BBE086E001900D928150DF
:10220000E1F7F999FECF80E090E017C0E0916C0B08
:10221000F0916D0BE80FF91F20916A0B30916B0B59
:10222000A9014F5F5F4F50936B0B40936A0B32BD18
:1022300021BDF89A20B52083019620916E0B309134
:102240006F0B8217930710F310926F0B10926E0BA7
:102250008091C00284608093C0022FB7F89480916F
:10226000E2029091E30282609093E3028093E202A3
:102270002FBF20E030E005C02EEF3FEF02C02FEF70
:102280003FEFC9010895CF93DF93FC019B0180913B
:10229000A902882309F063C0309709F463C0608104
:1022A000718184819581860F971F40E18130940769
:1022B00008F058C081E08093A902AAE6BBE086E05E
:1022C00001900D928150E1F73093710B2093700BC8
:1022D0002115310519F4C0E0D0E033C0CB010196DF
:1022E00090936B0B80936A0BE0916C0BF0916D0BEC
:1022F0004191F0936D0BE0936C0B8CE00E94C3173F
:1023000080916E0B90916F0B019790936F0B809360
:102310006E0B22C060916A0B70916B0BCB01019622
:1023200090936B0B80936A0BE0916C0BF0916D0BAB
:102330004191F0936D0BE0936C0B84E00E94C31706
:10234000219680916E0B90916F0BC817D90710F3EF
:10235000F999FECF1092A90220E030E005C02EEFDF
:102360003FEF02C02FEF3FEFC901DF91CF910895FA
:1023700081E09091A902913009F080E00895809168
:102380006E0B90916F0B009751F41092A902E0919F
:10239000700BF091710B309709F1099508956091D8
:1023A0006A0B70916B0BCB01019690936B0B809332
:1023B0006A0BE0916C0BF0916D0B4191F0936D0BFA
:1023C000E0936C0B8CE00E94C31780916E0B909190
:1023D0006F0B019790936F0B80936E0B0895A2E1A2
:1023E000B0E0E5EFF1E10C94ADB69A878987DB01A7
:1023F0002B873C874D875E87FC01E080F180E114EC
:10240000F10409F497C1222433244B855C856D8542
:102410007E859A01AB0160E070E0CB0129833A83AD
:102420004B835C836D837E838F839887F88AEF86E6
:10243000F701BA8BA98B02C01F01FC01E280F38077
:102440000481158126813781408551856B857C8586
:102450008D859E856E157F058007910708F48FC0D6
:1024600060E070E0CB0157016801EE24FF24870192
:10247000622E6A0C77247394621608F07724932EE8
:102480009B0C88248394931608F08824790C552497
:102490005394791408F055248528542E5C0C992403
:1024A0009394541608F09924850C4424439485147D
:1024B00008F044249428052F0D0D11E0051708F0AD
:1024C00010E0900EEE24E394901608F0EE241E29FE
:1024D00044244394161608F0442401E0171608F02B
:1024E00000E055245394181608F05524A62C798141
:1024F000A71A21E06A1408F020E0972D8A81981B22
:1025000081E0791608F080E0492F421B21E0941702
:1025100008F020E0822B282D9B81291B91E0821658
:1025200008F090E0522F581B81E0251708F080E05A
:10253000982B292DAC812A1B81E0921608F080E0AF
:10254000E22EE91A91E02E1508F090E0892BB12FC8
:10255000B81B8B2F91E01B1708F090E0242D291B4E
:10256000922F21E0491608F020E0302F321B232F54
:1025700031E0021708F030E0142F052F95C0390123
:102580004A01AA24BB24650110950095F094E094BB
:10259000E11CF11C011D111D722F7E1961E027172E
:1025A00008F060E0872D8F1991E0781608F090E030
:1025B000A82FA61B6A2F552453948A1708F0552478
:1025C0009529582C501A81E0851408F080E0B52D2B
:1025D000B91B9B2F442443945B1608F044248429A0
:1025E000292D211B31E0921608F030E0E22EE81A86
:1025F00081E02E1508F080E0832B819551E01816BC
:1026000008F050E0519541E0151608F040E0419582
:1026100021E0141608F020E0522E5194A72E2981B3
:10262000A21A11E07A1508F010E0262F3A81231B38
:1026300031E0621708F030E0622F611B162F61E075
:10264000211708F060E0362B692F7B81671B21E0A2
:10265000961708F020E0062F031B91E0601708F0A2
:1026600090E0292B3E2D9C81391B91E0E31608F068
:1026700090E0E32EE21A21E03E1508F020E0922BD4
:10268000682F691B91E0861708F090E0A52FA91B21
:102690009A2F81E05A1708F080E0242F281B31E0A0
:1026A000421708F030E0862F531A69F5222359F5B6
:1026B000992349F5882339F5A989BA8916962D9168
:1026C0003D914D915C91199760E070E0CB019923A9
:1026D00021F51816C0F0882301F51716A0F077230E
:1026E000E1F4161680F06623C1F4E51660F05E157D
:1026F000A1F4041740F0401781F4131720F03117AC
:1027000061F4A21650F480819181009709F094CE73
:102710008F01A989BA891F0111C0EF84F8888F0140
:10272000A989BA89EE15FF0541F41196FC93EE9341
:10273000E985FA85B183A08306C0CF01F101B18399
:10274000A0838D939C936296E2E10C94C9B6CF93DB
:10275000DF93FC01DB01EA01808191814817590771
:1027600039F48881998119821882808391830BC002
:102770008881998111969C938E93198218828C91ED
:1027800011969C911197DF91CF910895DC01ED9105
:10279000FC91119706C0808191818617970719F0E7
:1027A000FC013097C1F7CF010895809170008C7FB4
:1027B000809370008091B60080628093B600109282
:1027C000B2001092B0001092B1001092B30080914C
:1027D000B60090E08F7190700097C9F783E087BBD7
:1027E00087E08093B10080917000816080937000D9
:1027F00008958091B60090E08F7190700097C9F7AE
:10280000809170008C7F809370008091B100887FF0
:102810008093B10083B5826083BD8091B60090E063
:102820008F7190700097C9F78091B6008F7D80936B
:10283000B60008959B01AC016091B200862F90E034
:1028400080959095AA2797FDA095BA2F9070A070BB
:10285000B07082179307A407B50778F4281B390BCB
:102860004A0B5B0BBB27A52F942F832F9093AC02B1
:102870008093AB022093AD020895260F8091B6009D
:1028800090E08F7190700097C9F72093B30082E0B9
:1028900087BB809170008260809370000895EF92F2
:1028A000FF920F931F938FB7F8949091AE022091EF
:1028B000B20034E43093B4004091B60050E04F7160
:1028C000507041155105C1F7B89904C030E040E09F
:1028D00050E009C02091B20030E040E050E02150CB
:1028E0003F4F4F4F5F4F8FBF8FEF989FC001112415
:1028F000AA2797FDA095BA2F820F931FA41FB51F7B
:102900009C01AD0175E0220F331F441F551F7A95BE
:10291000D1F77C018D0162E016950795F794E79455
:102920006A95D1F72E0D3F1D401F511FE090AF0259
:10293000F090B0020091B1021091B2022E0D3F1D35
:10294000401F511F281B390B4A0B5B0BB901CA01F1
:102950001F910F91FF90EF90089560E270E080E08A
:1029600090E008958FB7F8946091AE021092AE0295
:102970008FBF70E080E090E020E43FE140E050E075
:102980000E944CB69B01AC018091AF029091B002C5
:10299000A091B102B091B202820F931FA41FB51F84
:1029A0008093AF029093B002A093B102B093B202B1
:1029B00082179307A407B50728F48091AA028F5FB6
:1029C0008093AA0208951F920F920FB60F920BB632
:1029D0000F9211242F933F934F935F936F937F93A5
:1029E0008F939F93AF93BF93EF93FF93809170006A
:1029F0008D7F809370001092AD028091D50280FF90
:102A000003C080E00E94F3178091D50282FF11C0BD
:102A10008091BD0281608093BD022FB7F8948091B0
:102A2000E2029091E30282609093E3028093E202DB
:102A30002FBFFF91EF91BF91AF919F918F917F91A8
:102A40006F915F914F913F912F910F900BBE0F901F
:102A50000FBE0F901F9018951F920F920FB60F92F6
:102A60000BB60F9211242F933F934F935F936F9365
:102A70007F938F939F93AF93BF93EF93FF93809137
:102A8000AB029091AC020097A1F58091AD02882332
:102A9000E9F48091D50280FF03C080E00E94F31723
:102AA0008091D50282FF34C08091BD028160809305
:102AB000BD022FB7F8948091E2029091E302826008
:102AC0009093E3028093E2022FBF22C08091B60070
:102AD00090E08F7190700097C9F78091AD0280935C
:102AE000B30082E087BB80917000826080937000A9
:102AF00009C08091AB029091AC0201979093AC0217
:102B00008093AB028091D50280FF02C00E945F18C3
:102B10008091AE028F5F8093AE028091BD02826091
:102B20008093BD022FB7F8948091E2029091E30266
:102B300082609093E3028093E2022FBFFF91EF91B6
:102B4000BF91AF919F918F917F916F915F914F91C5
:102B50003F912F910F900BBE0F900FBE0F901F90C3
:102B6000189580E197E29093A9008093A800E1EA8C
:102B7000F0E088E08083808182608083E2E7F0E09B
:102B800080818260808308959B01AC018091B502B1
:102B90009091B602A091B702B091B802820F931F34
:102BA000A41FB51F8093B5029093B602A093B702FD
:102BB000B093B8028091C10284608093C1022FB7A4
:102BC000F8948091E2029091E30282609093E30294
:102BD0008093E2022FBF08958FB7F8946091B402FA
:102BE0001092B4028FBF70E080E090E02AE030E005
:102BF00040E050E00E944CB69B01AC018091B502D0
:102C00009091B602A091B702B091B802820F931FC3
:102C1000A41FB51F8093B5029093B602A093B7028C
:102C2000B093B80282179307A407B50728F48091E0
:102C3000B3028F5F8093B30208950E94EC156091F8
:102C4000B5027091B6028091B7029091B8020895D2
:102C50001F920F920FB60F9211242F938F939F9371
:102C60008091B4028F5F8093B4028091C10284602E
:102C70008093C1022FB7F8948091E2029091E30211
:102C800082609093E3028093E2022FBF9F918F9125
:102C90002F910F900FBE0F901F901895FC01A385E8
:102CA000B0E011961C92A385B0E0858596851596B7
:102CB0009C938E9314978485A385882349F4B0E070
:102CC00082E08C93A385B0E012961C92129707C005
:102CD000B0E01C92A385B0E0828912968C93A38504
:102CE000B0E012968C9112979485892B12968C9352
:102CF000A385B0E012968C9112979785892B129636
:102D00008C93A385B0E012968C9112979089892BB1
:102D100012968C93A385B0E012968C9112979189AC
:102D2000892B12968C93A385B0E08C9180688C934C
:102D3000A385B0E011968C911197886111968C93C0
:102D40001197E385F0E081818068818308951F9267
:102D50000F920FB60F920BB60F9211242F933F9341
:102D60004F935F936F937F938F939F93AF93BF9393
:102D7000EF93FF93E1ECF0E080818F7D808380E032
:102D80000E94FE0EFF91EF91BF91AF919F918F91A5
:102D90007F916F915F914F913F912F910F900BBE5B
:102DA0000F900FBE0F901F9018951F920F920FB6A5
:102DB0000F920BB60F9211242F933F934F935F9373
:102DC0006F937F938F939F93AF93BF93EF93FF93F3
:102DD000E1ECF0E080818F7B808381E00E94FE0E39
:102DE000FF91EF91BF91AF919F918F917F916F91E3
:102DF0005F914F913F912F910F900BBE0F900FBE9F
:102E00000F901F9018951F920F920FB60F920BB64E
:102E10000F9211242F933F934F935F936F937F9360
:102E20008F939F93AF93BF93EF93FF938091C000D5
:102E30006091C6008C7131F480EC0E941C0F82E01E
:102E40000E94FE0EFF91EF91BF91AF919F918F91E4
:102E50007F916F915F914F913F912F910F900BBE9A
:102E60000F900FBE0F901F9018951F920F920FB6E4
:102E70000F920BB60F9211242F933F934F935F93B2
:102E80006F937F938F939F93AF93BF93EF93FF9332
:102E9000E9ECF0E080818F7D808383E00E94FE0E6C
:102EA000FF91EF91BF91AF919F918F917F916F9122
:102EB0005F914F913F912F910F900BBE0F900FBEDE
:102EC0000F901F9018951F920F920FB60F920BB68E
:102ED0000F9211242F933F934F935F936F937F93A0
:102EE0008F939F93AF93BF93EF93FF93E9ECF0E041
:102EF00080818F7B808384E00E94FE0EFF91EF91A2
:102F0000BF91AF919F918F917F916F915F914F9101
:102F10003F912F910F900BBE0F900FBE0F901F90FF
:102F200018951F920F920FB60F920BB60F921124A5
:102F30002F933F934F935F936F937F938F939F93C1
:102F4000AF93BF93EF93FF938091C8006091CE0041
:102F50008C7131F488EC0E941C0F85E00E94FE0EFB
:102F6000FF91EF91BF91AF919F918F917F916F9161
:102F70005F914F913F912F910F900BBE0F900FBE1D
:102F80000F901F901895F999FECF07B600FCFDCF62
:102F900072BD61BD40BD9FB7F8948FBBF99A9FBFCA
:102FA00008951F920F920FB60F9211242F938F93B3
:102FB0009F93FB988091C00284608093C0022FB7DA
:102FC000F8948091E2029091E30282609093E30290
:102FD0008093E2022FBF9F918F912F910F900FBE90
:102FE0000F901F9018959091D5028170880F9C7F4B
:102FF000982B9093D502E9E3F1E080818D7F808367
:103000008091C10281608093C1022FB7F8948091B2
:10301000E2029091E30282609093E3028093E202E5
:103020002FBF08958091D50280FF48C08091A100F4
:103030008D7F8093A1008091B9029091BA02A091F6
:10304000BB02B091BC020097A105B10551F40E94EA
:103050004F146093B9027093BA028093BB029093AD
:10306000BC028091D50283FD02C00E94831EF999A3
:10307000FECF8091D50288608093D502909139016E
:1030800092609093390182FF05C087E083BF8895E5
:1030900013BE0AC00E94F91385E083BF889513BE52
:1030A0000E94D5130E94281984E48093B400809173
:1030B000B60090E08F7190700097C9F708958091E5
:1030C000D50281608093D5028091B60090E08F7127
:1030D00090700097C9F78091C10288608093C10207
:1030E0002FB7F8948091E2029091E302826090936E
:1030F000E3028093E2022FBF80E090E008950E94F7
:103100004F142091B9023091BA024091BB02509104
:10311000BC02621B730B840B950B1092B9021092C8
:10312000BA021092BB021092BC020E94C415809198
:10313000A10082608093A100809141018F7188304D
:10314000D9F78091D502877F8093D5020E947F1E98
:103150008091D50281FD07C0E091C602F091C702BF
:10316000309709F009950895A0E0B0E0EAEBF8E1A6
:103170000C94ADB610E0C2E8DBE800E892E8692EF6
:103180009BE8792E812C912C82E8A82E8BE8B82E12
:103190000E94C3042BE88338920718F16E01EE24D5
:1031A000FF249C0140E050E022583B484040504002
:1031B000C216D306E406F5064CF4123039F48091B9
:1031C0006600815080936600000036C02091660042
:1031D0002150209366000000EC01C258DB4811E04A
:1031E00028C02BE88238920739F16E01EE24FF24C3
:1031F0009C0140E050E013012401221A330A440AE2
:10320000550AC214D304E404F5044CF4113039F423
:10321000809166008F5F8093660000000DC0209152
:1032200066002F5F209366000000E501C81BD90BE4
:1032300012E0015009F0ACCFCDB7DEB7E2E10C945B
:10324000C9B60E94E61C882311F40E94B4180895A0
:10325000CF93DF93C8E8D3E188EC0E94BB042197A9
:10326000D9F70E942119DF91CF9108958091C10271
:1032700082FF0BC09FB7F8948091C1028B7F80932F
:10328000C1029FBF0E94680DA9C08091BD0280FF4E
:103290000BC09FB7F8948091BD028E7F8093BD02D2
:1032A0009FBF0E943B1E9AC08091BD0281FF0BC050
:1032B0009FB7F8948091BD028D7F8093BD029FBF20
:1032C0000E94B2148BC08091C10280FF0BC09FB7D7
:1032D000F8948091C1028E7F8093C1029FBF0E94AB
:1032E0007F187CC08091C10283FF0BC09FB7F89408
:1032F0008091C102877F8093C1029FBF0E941218F4
:103300006DC08091BF0286FF0BC09FB7F89480917B
:10331000BF028F7B8093BF029FBF0E94B31B5EC022
:103320008091BF0287FF0BC09FB7F8948091BF02C6
:103330008F778093BF029FBF0E94C70E4FC08091BE
:10334000C00281FF0BC09FB7F8948091C0028D7FAF
:103350008093C0029FBF0E945F1B40C08091C0024B
:1033600082FF0BC09FB7F8948091C0028B7F80933F
:10337000C0029FBF0E94BF1131C08091C00280FF78
:103380000BC09FB7F8948091C0028E7F8093C002DB
:103390009FBF0E94021C22C08091C10281FF0BC00E
:1033A0009FB7F8948091C1028D7F8093C1029FBF27
:1033B0000E943C1B13C08091C10284FF0FC09FB7C5
:1033C000F8948091C1028F7E8093C1029FBFE091EB
:1033D000720BF091730B309709F009958091BD0243
:1033E000882381F48091BE02882361F48091BF021A
:1033F000882341F48091C002882321F48091C10286
:10340000882361F02FB7F8948091E2029091E30253
:1034100082609093E3028093E2022FBF0895E091CF
:10342000C202F091C30287E0828380E98093BC00EE
:103430008091C10282608093C1022FB7F89480917D
:10344000E2029091E30282609093E3028093E202B1
:103450002FBF0895E091C202F091C30282818230B1
:1034600031F08281833019F08281843019F48581B2
:10347000880F06C08281853049F48581880F8F5F6F
:103480008093BB0085E88093BC0008950E940F1ACA
:103490000895E091C202F091C302208131818681BA
:1034A00097812817390780F480819181A085B185A3
:1034B000A80FB91F2C910196918380832093BB00A4
:1034C00085E88093BC00089586E0828384E9809338
:1034D000BC008091C10282608093C1022FB7F89432
:1034E0008091E2029091E30282609093E3028093E4
:1034F000E2022FBF0895E091C202F091C3028385DA
:103500009485A585B6852081318121503040318355
:1035100020832081318143E0220F331F4A95E1F758
:1035200004C0B695A795979587952A95D2F780936D
:10353000BB0085E88093BC0080819181009741F4B5
:103540008281823019F484E08283089585E0828349
:103550000895E091C202F091C3028281843019F48F
:103560000E94491A08958281823019F08281833045
:1035700019F40E947B1A08958281853021F485EA2E
:103580008093BC0008950E940F1A0895E091C20232
:10359000F091C30282818530A1F4868197818130C8
:1035A000910521F48091BC008F7B03C08091BC0009
:1035B00080648093BC008091BC0085688093BC00CF
:1035C00008950E940F1A0895E091C202F091C3027B
:1035D0009281953011F520813181A085B185A20FAE
:1035E000B31F8C932F5F3F4F318320832081318124
:1035F0008681978101972817390720F48091BC00B4
:10360000806403C08091BC008F7B8093BC0080915C
:10361000BC0085688093BC0008950E940F1A08952D
:10362000E091C202F091C3029281953011F52081A0
:103630003181A085B185A20FB31F8C932F5F3F4FBF
:103640003183208386E0828384E98093BC0080916B
:10365000C10282608093C1022FB7F8948091E20288
:103660009091E30282609093E3028093E2022FBF85
:1036700008950E940F1A0895A091C202B091C3024A
:103680001F96ED91FC9150973097A1F012968C9176
:103690001297863049F48091BC0084FDFCCF81E014
:1036A00012968C93129704C081E012968C9380E05E
:1036B0000995089581E012968C9312970895E091F0
:1036C000C402F091C5020284F385E02D309709F021
:1036D0000995089523982B981CBC0895E091D90270
:1036E000F091DA0226813781848195812817390784
:1036F00069F0A48DB58D848195810196958384832D
:1037000084819581A80FB91F8C918EBD0895E09199
:10371000D902F091DA02309719F40E946A1B0895D9
:1037200042855385228533852F5F3F4F338722871C
:10373000228533852A30310511F41386128662857D
:103740007385208531856217730719F45387428783
:1037500008954C58544FDA018C93848595850196D1
:103760009587848708952FB7F894E091D902F09156
:10377000DA02848595852FBF009731F005A0F6A168
:10378000E02D309709F009950895ADE0B0E0EBEC3D
:10379000FBE10C94BDB6FC01009739F18481958161
:1037A0009093C7028093C60280819181A281B381E8
:1037B0008F839887A987BA8781E08B871D861C86AF
:1037C000CE0101960E94021E2FEF8F3F920781F0DB
:1037D0002FEF8D3F920761F00E945F182FEF8F3F10
:1037E000920749F42DEF3FEF08C02FEF3FEF05C0E0
:1037F0002EEF3FEF02C020E030E0C9012D96E2E05D
:103800000C94D9B6A0E1B0E0E8E0FCE10C94BAB6C3
:103810000091D6021091D702D80112968C9112977E
:10382000823029F08430C9F0882331F074C070E010
:1038300060E088E0F82E6BC080E090E0D80113963D
:10384000ED91FC911497E80FF91F208120933F011F
:1038500001968031910591F75EC010923C0180E0A5
:1038600010923E018F5F8031D9F780913C018068D2
:1038700080933C0180913D0180FFFCCFFE01319699
:10388000CE014196DF0120913F012D93A817B90782
:10389000D1F7219120933F01E817F907D1F7C7CF5E
:1038A000F8018281823019F410923C0102C0F0923A
:1038B0003C01872F90E0AC01405F5F4F9C01D80135
:1038C0001396ED91FC911497E20FF31FE081E093C2
:1038D0003E012F5F3F4F2417350789F720913C01A8
:1038E000206820933C0120913D0120FFFCCF2091D6
:1038F0003E01D8011396ED91FC911497E80FF91F42
:10390000208301968417950791F7705F6F5FF80128
:103910008581681728F286ED92E00E94871E8091CB
:10392000D6029091D702009789F08091C002816001
:103930008093C0022FB7F8948091E2029091E30245
:1039400082609093E3028093E2022FBFD801169623
:10395000ED91FC91179709956096E5E00C94D6B629
:103960008FB390E0FC01E270F07081FDF9CF8FB76A
:10397000F89499E090935700E4918FBFEF70E23094
:1039800019F41092D80203C081E08093D8028FB757
:10399000F8949091D802992349F45F9350E850939A
:1039A000610050E0509361005F9108C05F9350E860
:1039B0005093610051E0509361005F918FBF8091FF
:1039C000D802882311F40E94281908958091D80202
:1039D00008951F920F920FB60F920BB60F921124FB
:1039E0002F933F934F935F936F937F938F939F9307
:1039F000AF93BF93EF93FF938091B90090E0887FDE
:103A000090708832910569F1893291059CF480317A
:103A1000910521F18131910534F4009729F1883025
:103A2000910589F51BC088319105D9F08032910547
:103A300051F51AC088349105B9F0893491053CF4E8
:103A40008033910589F080349105E9F410C0803508
:103A5000910581F088359105B1F411C00E942A1AB0
:103A600012C00E94A91A0FC00E940F1A0CC00E9417
:103A7000C61A09C08091BB000E94E41A04C080915C
:103A8000BB000E94101BFF91EF91BF91AF919F91DE
:103A90008F917F916F915F914F913F912F910F90F7
:103AA0000BBE0F900FBE0F901F9018951F920F9294
:103AB0000FB60F920BB60F9211242F933F934F9393
:103AC0005F938F939F93AF93BF93EF93FF93E09197
:103AD000C402F091C502838126813781882349F48D
:103AE0008081918140917900280F391FD9014C9331
:103AF0000EC0808191814091780050917900DC0165
:103B0000AA0FBB1FA20FB31F11965C934E93019691
:103B100091838083E091C402F091C50220813181BC
:103B20008085918528173907B1F480917A00877FC5
:103B300080937A008091C00282608093C0022FB788
:103B4000F8948091E2029091E30282609093E30204
:103B50008093E2022FBFFF91EF91BF91AF919F91B0
:103B60008F915F914F913F912F910F900BBE0F90CE
:103B70000FBE0F901F9018951F920F920FB60F92C5
:103B80000BB60F9211242F933F934F935F936F9334
:103B90007F938F939F93AF93BF93EF93FF93DF93A5
:103BA000CF930F92CDB7DEB78EB589830E946E1B7F
:103BB00089810E94871B8091BF0280648093BF022D
:103BC0002FB7F8948091E2029091E3028260909383
:103BD000E3028093E2022FBF0F90CF91DF91FF911C
:103BE000EF91BF91AF919F918F917F916F915F9175
:103BF0004F913F912F910F900BBE0F900FBE0F90E2
:103C00001F901895CF93DF93EC01009741F10E942C
:103C1000AD142E813F81488559850E944CB628EE0F
:103C200033E040E050E00E948BB62115310541059C
:103C30005105C1F08091D50282FD17C08460809348
:103C4000D502E8ECF2E08DE0099001928150E1F7B5
:103C5000CA01B9010E941A1420E030E008C02FEF19
:103C60003FEF05C02EEF3FEF02C02DEF3FEFC90140
:103C7000DF91CF9108958091D50282FF24C0909169
:103C8000D2029923B1F4E091D302F091D40230979B
:103C900009F009958091D50282FF15C06091CE028E
:103CA0007091CF028091D0029091D1020E941A149B
:103CB00008958B7F8093D502E091D302F091D402D6
:103CC000309709F00995089590918E10913011F474
:103CD0009093DB0290918E10992379F491E08038D3
:103CE00009F090E0979599279795809144018F77F7
:103CF000892B8093440180E0089581E0089580E855
:103D00000E94641E089580E00E94641E0895FC01D4
:103D1000208131812115310539F0D9018D919C9196
:103D200011979183808302C020E030E0C90108959B
:103D3000FC0161157105A9F0A081B181A617B70733
:103D400039F48D919C9111979183808314C0DC018B
:103D5000109749F08D919C91119786179707B9F7A5
:103D600004C080E0089580E00895FB018081918186
:103D700011969C938E9381E00895DC01ED91FC9166
:103D8000119706C0E617F70739F00190F081E02D92
:103D90003097C1F780E0089581E008950F931F9355
:103DA000CF93DF93EC018B010E94BD1EF8011182BD
:103DB0001082A881B981109721F41983088309C062
:103DC000DC018D919C9111970097D1F71196FC938E
:103DD000EE93DF91CF911F910F910895A0E0B0E095
:103DE000E4EFFEE10C94B5B6D82E7B0190E08C0197
:103DF00023E0169507952A95E1F78770907021E0EA
:103E000030E002C0220F331F8A95E2F7C22EF8017C
:103E1000E452FD4F80818223C9F0C091E002D0912D
:103E2000E10212C0FE01E00FF11F82818C2129F016
:103E3000EE81FF818D2DB701099598818981A92E89
:103E4000E5015E01B82EE501209761F7CDB7DEB739
:103E5000EAE00C94D1B690E0FC0133E0F695E795EA
:103E60003A95E1F7E452FD4F208130E08770907081
:103E700041E050E002C0440F551F8A95E2F7242329
:103E8000352381E02115310509F480E0089590E0A3
:103E90009C0143E0369527954A95E1F7620F731F21
:103EA0008770907021E030E002C0220F331F8A95A6
:103EB000E2F7FB019281922381E009F480E008950A
:103EC0001F93CF93DF93182FEB010E94471F882386
:103ED00059F580EE92E0BE010E94BD1E882349F490
:103EE0001A821B821C821D8280EE92E0BE010E941B
:103EF000CE1E812F90E0FC0163E0F695E7956A9570
:103F0000E1F78770907021E030E002C0220F331F8C
:103F10008A95E2F7CE0FDF1F8A81822B8A83E452D3
:103F2000FD4F8081822B8083DF91CF911F91089577
:103F300080E090E061E070E09B01082E02C0220F5B
:103F4000331F0A94E2F74091E2025091E3024223C8
:103F5000532341155105C9F06FB7F8944091E2021F
:103F60005091E30220953095242335233093E302CA
:103F70002093E2026FBFFC01EE0FFF1FE15FFD4FD8
:103F80000190F081E02D099504C001968B309105D8
:103F900099F62091E2023091E30281E0211531058A
:103FA00009F480E008950E94981F08950E9470B45B
:103FB0000E9446A52FB7F8948091E2029091E30207
:103FC00080619093E3028093E2022FBF0895FC0189
:103FD00080811092C40BE091C50BF091C60B09953E
:103FE00008951092C40B08958091180D80718093EC
:103FF000180D10920B0E089523E830E13093350F21
:104000002093340FE091C80BF091C90BDC018C9127
:1040100009950895089521E030E002C0220F331F72
:104020008A95E2F78091250290912602822B932BAC
:1040300090932602809325022FB7F8948091E20294
:104040009091E30280619093E3028093E2022FBF9C
:1040500008958091AF0B9091B00B009799F08091EB
:10406000B30B9091B40B009779F48CE490E29093A9
:10407000B40B8093B30B81E08093B10B84E00E947A
:104080000B2008951092B10B08951092B40B10926A
:10409000B30B0E9429200895E091AF0BF091B00B73
:1040A000882319F42EEF3FE302C023E830E1309378
:1040B000350F2093340F818B8BE08093B10B84E01C
:1040C0000E940B200895E091CD0BF091CE0B8083E0
:1040D0001092CE0B1092CD0B21813281CF01F901CC
:1040E000099583E00E940B200895E091CF0BF09199
:1040F000D00B80831092D00B1092CF0B2181328194
:10410000CF01F901099583E00E940B20089521E079
:1041100030E002C0220F331F8A95E2F720953095D8
:104120008091250290912602822393239093260268
:104130008093250208958093860E882361F48091F0
:104140000D0E90910E0E009719F082E00E940B2048
:1041500081E00E940B20089580E00E949B2008953A
:1041600080E00E949B20089580E00E949B2008959B
:10417000FC01808180933D0E82E00E949B2081E0C3
:104180000E940B20089580E00E949B200895CF9309
:10419000DF93DC01E091840EF091850EEF01CC57A6
:1041A000DF4F8C9188838481833049F08630D1F051
:1041B0008230F9F48C918823D1F484E019C08C9179
:1041C0008823A9F4868197818833910581F48185BC
:1041D00092852FEF883F920750F086A98E3F39F4E1
:1041E00088E006C08C91882311F485E001C087E047
:1041F00084831092850E1092840E80E00E949B2092
:10420000DF91CF9108958093A70E882319F481E060
:104210000E940B200895EF92FF920F931F93CF936C
:10422000DF93C0910D0ED0910E0E07E01DE025C06A
:104230002C818A819B81009799F42430B9F48E8176
:104240009F81FE01EC57FF4F8630910511F41083DA
:1042500002C082E080830C8382E00E940B2006C0B3
:104260002250233018F401979B838A839881898197
:10427000E92EE7017E01F82EE7012097C9F6CDB7B8
:10428000DEB7E6E00C94D5B6A8E0B0E0EAE4F1E2EF
:104290000C94BDB619821A821B821C821D821E825A
:1042A0001F821886CE0101960E94608E8091B50B08
:1042B0008D7F8093B50B2896E2E00C94D9B61F93BE
:1042C000182F1092B10BE091B30BF091B40B09953C
:1042D000112329F48EE060E070E00E94EE1E1F9131
:1042E0000895882341F48EEF9FE39093350F8093D8
:1042F000340F85E007C083E890E19093350F8093F9
:10430000340F84E060E070E00E94EE1E0E944520C1
:10431000089584E08093B10B8091B60B8150809317
:10432000B60B81EB9BE02091B20B2093880BFC0134
:10433000F19720911E0A208320911F0A218320914A
:10434000200A22832091210A23832091220A248398
:104350002091230A25832091240A26832091250A6F
:104360002783EEE1FAE0529142913291229120931B
:10437000890B30938A0B40938B0B50938C0B22A5A7
:1043800020938D0B2EED36E33093900B20938F0B03
:10439000C3970E94B88E089581E266EB7BE00E948D
:1043A000090685E08093B10B82E08093B20B0E94F6
:1043B0008921089580E094E09093350F8093340F25
:1043C00080E060E070E00E94EE1E0E94CC21089523
:1043D0000E948921089584EE9BE00E94D90D0895E2
:1043E000A4E0B0E0E6EFF1E20C94BDB68091F30BEF
:1043F000882319F189E1BE016F5F7F4F0E94090692
:1044000089819A81AB81BC818093EA0B9093EB0BFD
:10441000A093EC0BB093ED0B81E08093EE0B8BE15E
:1044200093E29093F00B8093EF0B84EE9BE00E945D
:10443000D90D84EE9BE00E94AD0D2496E2E00C9431
:10444000D9B6CF93DF9382E00E94872010920E0EA0
:1044500010920D0E81E00E9487201092850E10921E
:10446000840E1092860E8DE2E8EAFEE0DF011D92D6
:104470008A95E9F7E5EDFEE08FE5DF011D928A956B
:10448000E9F7F093CB0EE093CA0E1092A70E8FEFD0
:104490008093480CCFE0DEE0CE010E94D90D10924F
:1044A000190E8BE091E290931B0E80931A0E80E818
:1044B00090E0A0E0B0E08093150E9093160EA093CC
:1044C000170EB093180ECE010E94AD0DDF91CF9163
:1044D000089583E08093B10B80911A0A90911B0A92
:1044E000A0911C0AB0911D0A8093A70B9093A80B72
:1044F000A093A90BB093AA0B8091440A8093AB0BB5
:104500008BE097E39093AD0B8093AC0B8EE79BE031
:104510000E942A89089588E08093B10B8091460A11
:104520008093800B8EE59AE29093820B8093810BAF
:104530008EE79BE00E94A9A00895EF92FF92CF938F
:10454000DF930E94FE0DE22EE7017E01F32E0E9412
:104550007251FC0120813181828193812827392782
:104560002E253F25848195812827392786819781AB
:1045700028273927C901DF91CF91FF90EF90089547
:10458000FC0182819381009711F40E949D220E9478
:1045900044B780E49FE00E94AD0D08958091340FF0
:1045A0009091350F95FF05C086E39FE00E9412525F
:1045B00008950E949D220E9444B780E49FE00E94DB
:1045C000AD0D08957093C90B6093C80B8093880B51
:1045D0008091370A8093890B8CEF9FE190938B0B2E
:1045E00080938A0B8EE79BE00E948C4C0895A6E096
:1045F000B0E0EDEFF2E20C94BDB680E00E946320E3
:1046000081E08093D10B8091DD0BBE016F5F7F4F06
:10461000823011F48AE101C08BE10E94090680E535
:1046200093E29E838D83CE0101960E94164D2696BD
:10463000E2E00C94D9B68091F20B882399F4809132
:10464000F30B882379F01092E00B84E697E39093C4
:10465000E20B8093E10B8EED9BE00E946BA481E066
:104660008093F20B0895FC0180818823C1F480912E
:10467000DD0B823031F00E943EA4882311F00E94AD
:104680002CA41092D10B8091CF0B9091D00B00975E
:1046900021F080E00E94752008950E94DB050895B6
:1046A0008091DD0B823059F48091DC0B882339F442
:1046B0000E941B231092D10B0E94DB0508958FEFFF
:1046C0009FEFAFEFB0E08093D50B9093D60BA09304
:1046D000D70BB093D80B83E393E29093DA0B8093DC
:1046E000D90B82ED9BE00E94DA5708952091DD0BF3
:1046F000223029F48091F20B882309F071C0809157
:10470000CD0B9091CE0B0097C9F18091340F87FFAC
:104710000FC00E943058882359F40E9402A48823B5
:1047200039F40E949E4C882319F481E090E002C085
:1047300080E090E02091D10B222311F080E803C0AB
:10474000009721F484E00E94632008958091DD0B9E
:10475000823049F48091DC0B882329F40E94EB21FC
:104760000E94F72208951092D50B1092D60B10924A
:10477000D70B1092D80B81EF93E226C08091CF0B1C
:104780009091D00B009761F18091D10B882329F192
:10479000223061F48091DC0B882341F40E941B23BA
:1047A0001092D10B80E00E94752008958FEF9FEF4B
:1047B000AFEFB0E08093D50B9093D60BA093D70BBF
:1047C000B093D80B83E393E29093DA0B8093D90BE9
:1047D00082ED9BE00E94DA57089580E80E947520E0
:1047E0000895FC018081882329F40E9435A40E9449
:1047F000F72208950E9463200895A0E0B0E0E3E06E
:10480000F4E20C94B7B6C0910D0ED0910E0E62E09A
:10481000E62E54E0F52E17E001E0D2C08C818730FF
:1048200028F4853058F5882339F0C3C08730C9F1A2
:10483000883009F0BEC01DC08091340F9091350FB3
:1048400092FF0EC08091840E9091850E009709F022
:10485000B0C00C83D093850EC093840E81E006C057
:104860001C83FE01EC57FF4F108382E00E940B2057
:10487000A0C0D093170DC093160D9BC0853011F4C6
:10488000FC8201C0EC82FE01E858FF4F0190F081EC
:10489000E02D309709F48DC0CE0186589F4F0995C1
:1048A00088C08DE09EE0BE010E94981E8E819F818F
:1048B00081309105C1F4FE01EC57FF4F80818823C0
:1048C00091F4DE01A357BF4FFE01EB57FF4F00816C
:1048D00011812281338144815581668177818D9157
:1048E0009C910E94E79EFE01E858FF4F80819181D4
:1048F000009709F454C08E819F818430910509F09E
:1049000044C0CE0188579F4FFE01E257FF4F2081E0
:10491000FE01EF55FF4F1081293088F4622F70E0BF
:10492000660F771F695F7F4F680F791FFB0110814A
:104930001A3008F019E0412F440F4F5F1EC0BC0130
:10494000675E7F4F2930C1F0223170F4622F70E032
:10495000660F771F695F7F4F680F791F12E1121B87
:10496000412F440F4F5F02C040E010E0FE01E257CC
:10497000FF4F29E0208301C040E0499650E00E94AB
:104980006EB7FE01EF55FF4F1083FE01E858FF4F51
:104990000190F081E02DCE0186589F4F09958091BE
:1049A0000D0E90910E0E009771F082E00E940B2088
:1049B0000AC098818981C92EE6016E01D82EE601D0
:1049C000209709F02BCFCDB7DEB7E8E00C94D3B633
:1049D000AAE2B0E0EEEEF4E20C94BDB6843061F0F1
:1049E000853018F4882331F026C0853039F08630C0
:1049F00011F506C080E905C081E903C08FE801C058
:104A00008EE889838091310A9091320A9B838A8350
:104A10008091260A9091270A98878F838091280A8F
:104A20008E838091330A9091340A9D838C83CE01CA
:104A300001960E94DA05AA96E2E00C94D9B6AAE2A1
:104A4000B0E0E5E2F5E20C94BDB6813019F08830B3
:104A500061F403C080E6898304C085E989837B8390
:104A60006A83CE0101960E94DA05AA96E2E00C94D0
:104A7000D9B660930D0C70930E0C80930F0C90932D
:104A8000100C4093110C80910B0E813011F4109298
:104A9000470C81E895E39093130C8093120C84EFFC
:104AA0009BE00E941A8908958091470C882381F029
:104AB00081508093470C60910D0C70910E0C809189
:104AC0000F0C9091100C4091110C0E943925089503
:104AD00010920B0E089510922D0C8091480C80932B
:104AE0002E0C8CE795E29093370C8093360C8AE27B
:104AF0009CE00E94E6570895CF93DF93EC018881F4
:104B0000882399F48091490C0E94968E80E168E494
:104B10007CE00E9437068091480C0E94808E809134
:104B2000480C8093280A0E948F3F0E948C8E20910F
:104B3000260A3091270A8217930779F4E091160D1F
:104B4000F091170D818592852FEF883F920728F00D
:104B500087E0848382E00E940B208FEF8093480CD3
:104B60008881882329F486E060E070E00E94EE1ED0
:104B7000DF91CF910895EF92FF920F93DF93CF9340
:104B8000CDB7DEB7AA970FB6F894DEBF0FBECDBF84
:104B90007B01823019F08330B1F519C0FB0122810D
:104BA000338144815581668177818085918501E0DB
:104BB0000E9496A0882339F582E98983DE01129646
:104BC000F7018BE001900D928150E1F718C0FB01D5
:104BD00022813381448155816681778180859185E9
:104BE00000E00E9496A0882371F083E98983DE01AA
:104BF0001296F7018BE001900D928150E1F7CE0102
:104C000001960E94DA05AA960FB6F894DEBF0FBE91
:104C1000CDBFCF91DF910F91FF90EF900895CF938B
:104C2000DF93C3E4D2E080E0BE010E94601F84E015
:104C3000BE010E94601F85E0BE010E94601F86E0E9
:104C4000BE010E94601FCBE3D2E082E0BE010E9461
:104C5000601F83E0BE010E94601F87E0BE010E94CA
:104C6000601FC3E3D2E081E0BE010E94601F88E0C4
:104C7000BE010E94601F89E0BE010E94601F8CE09F
:104C8000BE010E94601FDF91CF910895A8E0B0E0BF
:104C9000ECE4F6E20C94BBB61092350F1092340F90
:104CA0000E9404060E947251FC0170818181628120
:104CB0005381448135812681978179838A836B83EF
:104CC0005C834D833E832F839887872B862B852B90
:104CD000842B832B822B892B49F48E010F5F1F4F6E
:104CE000C8010E9436B5C8010E9475511092C90BC7
:104CF0001092C80B1092B10B1092B00B1092AF0B28
:104D00001092CA0B1092C40B1092C60B1092C50BD6
:104D10001092CE0B1092CD0B1092D00B1092CF0BA5
:104D20001092D10B8091DD0B823021F41092F30BA5
:104D30001092F10B0E940F260E94754C83E890E1BF
:104D40009093350F8093340F2FB7F8948091E2023F
:104D50009091E30294609093E3028093E2022FBF6C
:104D600080E49FE00E94D90D81E080934A0F88EE95
:104D700093E0A0E0B0E08093460F9093470FA0939C
:104D8000480FB093490F8EEC92E290934C0F8093B2
:104D90004B0F80EC92E290933F0F80933E0F0E9466
:104DA000CE222896E4E00C94D7B6ABE0B0E0EBED71
:104DB000F6E20C94BDB6FC01808191819A838983CF
:104DC00082818B8383818C8384818D8385818E8393
:104DD00086818F83878188878085898781858A8777
:104DE00082858B8782E0BE016F5F7F4F0E94EE1E3F
:104DF0002B96E2E00C94D9B68CE16CED7BE00E943E
:104E000009068091F30B882359F48091DC0B8823E9
:104E100049F481E08093F30B0E941B2380E0089506
:104E200080E8089580E808958091350A877082307F
:104E300011F40E94FC2680E00E945F210895809179
:104E4000F30B882331F01092F30B0E94EB2180E0EA
:104E5000089580E80895A1E0B0E0E1E3F7E20C9462
:104E6000BDB62091C50B3091C60B2115310599F5C2
:104E70002AE538E23093C60B2093C50B6093C70B2D
:104E800091E09093C40B9091350A9770923029F479
:104E900069830E941F2780E069811092800B109225
:104EA000810B1092820B1092830B1092840B109244
:104EB000850B1092860B1092870B8093880B609362
:104EC000890B84E098E290938B0B80938A0B8EE79A
:104ED0009BE00E94588F2196E2E00C94D9B6A1E0A5
:104EE000B0E0E5E7F7E20C94BDB689830E94452067
:104EF0008981882361F48EEF9FE39093350F80932F
:104F0000340F85E060E070E00E94EE1E0AC083E886
:104F100090E19093350F8093340F81E060E00E9420
:104F20002B272196E2E00C94D9B6E091CA0EF091BD
:104F3000CB0EDF011196CF0109962D91222321F48A
:104F4000A817B907D1F73AC08091C40B882391F50F
:104F500083E08093C40B81818093800B8281809356
:104F6000810B83818093820B84818093830B858165
:104F70008093840B86818093850B87818093860B39
:104F800080858093870B8185829586958695817033
:104F90008093880B8185881F8827881F8093890BC1
:104FA00081EF9FE190938B0B80938A0B8EE79BE0C0
:104FB0000E94588F80E00E949B2008956185862F73
:104FC0008295869586958370661F6627661F817019
:104FD0000E942B27EFCF8093C70B82E08093C40BF6
:104FE0008091350A8770823011F40E941F270E9439
:104FF000442187EE9FE19093840B8093830B8EE78F
:105000009BE00E94984C08951092C40B8091C70BAE
:105010000E94EB270895ABE0B0E0E1E1F8E20C94E8
:10502000BDB6FC018091340F86FF34C0B081A181F0
:105030007281638154814581368127818B2F8A2B30
:10504000872B862B852B842B832B822B89F48085C1
:105050002091C50B3091C60B21153105D9F42AE5F5
:1050600038E23093C60B2093C50B0E94EB2712C089
:105070008EEF9FEF9A838983BB83AC837D836E839E
:105080005F83488739872A8783E0BE016F5F7F4F40
:105090000E94EE1E2B96E2E00C94D9B60E942122CB
:1050A0000E94F41F8091350A8770823011F40E94AB
:1050B0001F2708950E94F41F0E9421228091C70B90
:1050C000882389F18091B30B9091B40B009759F527
:1050D00081E791E29093B40B8093B30B8091350AF2
:1050E00087708150823068F480E094E09093350FAF
:1050F0008093340F80E060E070E00E94EE1E0E941A
:10510000CC218091350A8770D9F480E094E09093A7
:10511000350F8093340F84E060E070E00E94EE1E53
:105120000E9469220DC00E944E2883E890E190936E
:10513000350F8093340F84E060E070E00E94EE1E33
:105140001092C40B1092C60B1092C50B089540919B
:1051500025025091260241155105B1F180E090E001
:1051600061E070E09B01082E02C0220F331F0A94F9
:10517000E2F7F901E423F523309711F124273527CD
:105180003093260220932502FC01EE0FFF1FE95DFC
:10519000FD4F0190F081E02D0995809125029091BD
:1051A0002602009789F02FB7F8948091E20290913F
:1051B000E30280619093E3028093E2022FBF08959F
:1051C00001968630910571F608950F931F93CF9342
:1051D000DF93EC018E8D9F8D97FF7DC020E8883393
:1051E000920709F478C0E0910D0EF0910E0E6FC099
:1051F000AAA1BBA19C918581981709F064C0848104
:10520000823041F4868197818630910509F484C00B
:1052100083E00AC0843009F056C0868197818630C9
:10522000910509F47BC087E084838E85823069F420
:10523000DF01A658BF4F1C92DF01A558BF4F8F85D5
:10524000988911969C938E9327C0833029F5DF01AE
:10525000A658BF4F81E08C93DF01A558BF4F8989C5
:105260008C938A8911968C9311978B8912968C93C3
:1052700012978C8913968C9313978D8914968C931F
:1052800014978E8915968C9315978F8916968C9303
:105290001697888D17968C93AF014D575F4F87E413
:1052A000DA011D928A95E9F728A139A12834310540
:1052B00010F027E430E06AA17BA1CA01A9010E9495
:1052C00065B782E026C090818181E92FF82F309761
:1052D00009F08ECF25C08091A70E882309F505ED32
:1052E0001EE06AA17BA148A159A1C8010E9465B72F
:1052F000F801BD978DE2099001928150E1F785EDAB
:105300009EE09093CB0E8093CA0E81E00E94032111
:1053100081E00E940B2004C086E086CF85E084CF28
:10532000DF91CF911F910F910895EF92FF920F930C
:105330001F93CF93DF93EC016091470A7091480A65
:105340006115710559F40E94838E7B018C010E94C6
:1053500011A56E0D7F1D801F911F02C080E090E09F
:10536000E7E09695879577956795EA95D1F77B83E2
:105370006A831C828DE09EE0BE010E94CE1E82E008
:105380000E940B20CDB7DEB7E6E00C94D5B6CF93E4
:10539000DF932091180D25FF08C020612093180D80
:1053A0009093E60D8093E50D3FC09093E40D8093BC
:1053B000E30D82EB9AE29093920D8093910D83E13D
:1053C00090E09093200D80931F0D8DEF9FEF9093B1
:1053D000230D8093220D0E947251FC01CDE4DDE08B
:1053E000808180934D0D8181898382818A8383812D
:1053F0008B8384818C8385818D8386818E83878155
:105400008F838091370A8093550D0E94BD869093BB
:105410004C0D80934B0D8091180D80628093180D78
:10542000CE01C4970E949529DF91CF910895A0E500
:10543000B0E0EDE1FAE20C94BDB6FC018081882376
:1054400069F48091350A877061F08091B50B81FD18
:1054500008C084E197E20E94C72908C00E945F212A
:1054600005C01B86CE0101960E941427C05BDF4F4A
:10547000E2E00C94D9B689E08093B10B8091B50B32
:1054800081FF07C01092830B83E89BE00E94172ADC
:10549000089587E19AE29093820B8093810B8EE7C7
:1054A0009BE00E94924C0895FC018081882319F4AE
:1054B0000E943B2A08950E945F210895A1E0B0E078
:1054C000E4E6FAE20C94BDB6FC018081882309F57C
:1054D0008091350A877019F40E943B2A1CC08130E4
:1054E000D1F487E08093B10B8091B50B81FF06C0AA
:1054F0001982CE0101960E94542A0DC084E59AE2D9
:1055000090938D0B80938C0B8EE79BE00E94F2A30F
:1055100002C00E945F212196E2E00C94D9B6A1E07E
:10552000B0E0E5E9FAE20C94BDB6883069F4809108
:10553000350A8770823019F40E943B2A0BC08130F3
:1055400049F40E948B2206C089830E9444218981EC
:105550000E945F212196E2E00C94D9B688E00E9477
:105560008F2A08952091180D2F7D2093180DE0911A
:10557000E30DF091E40D309709F009958091180D35
:1055800084FF09C08F7E8093180D8091E50D909166
:10559000E60D0E94C72908951F93182F28E330E8CD
:1055A0003093530C2093520C82E08093540C0E9451
:1055B0008C8E9093560C8093550C24E535E23093F5
:1055C000C50C2093C40C10937E0C8CE49CE00E94CC
:1055D00095291F910895ACE4B0E0E1EFFAE20C9454
:1055E000AFB68091860E823049F483E00E949B2002
:1055F00087E89EE00E947D3F0C947C35882311F063
:105600000C947C358091A70E813009F0AEC70E94C2
:105610009B20E7E8FEE080E2DF011D928A95E9F732
:105620008091C60E9091C70E9C013F772F313105B6
:1056300008F066C4A091CA0EB091CB0E4091B60E90
:105640004330D9F435962091B90E20938C0E2091D9
:10565000BA0E21832091BB0E22832091BC0E23839E
:105660002091BD0E24832091BE0E25832091BF0E74
:1056700026832091C00E278308C02091B70E309159
:10568000B80E30938B0E20938A0E4093890E90684B
:105690009093980E8093970E2CE33EE030939D0EEE
:1056A00020939C0E8CEA90E29093A10E8093A00E22
:1056B00080919E0E846280939E0E87E4F901119280
:1056C0008A95E9F78C9180933C0E82E00E949B20A2
:1056D00080E00E940321E091C60EF091C70EE631F2
:1056E000F10508F039C7EC51FF4F0C94E4B6E09097
:1056F000CA0EF090CB0E2091B70E3091B80E80916B
:10570000C10E9091C20E2817390759F1D70113968F
:105710002C91139714963C91149715964C911597CC
:1057200016965C91169717966C91179718967C9120
:10573000189719968C9119971A969C910E94A99C7A
:10574000009779F0FC012081213011F0253049F4D7
:10575000DC0111962C911197223019F460E00E941F
:10576000C88E8BE00E942B1F882309F1F70123814B
:105770003481458156816781708581859285298331
:105780003A834B835C836D837E838F8398870E94EB
:10579000A99C009761F0DC018C91813011F085307B
:1057A00031F48BE0BE016F5F7F4F0E94EE1EF70168
:1057B00003811481258136814781508561857285F9
:1057C000818192810E94E79EC7C60091CA0E109106
:1057D000CB0E0E947251BC01C801019648E050E016
:1057E0000E9458B7009749F1D80111962C91119752
:1057F00012963C91129713964C91139714965C91C4
:10580000149715966C91159716967C911697179686
:105810008C91179718969C910E94A99CFC01009767
:1058200009F49AC68081813009F096C684819581F9
:10583000BFEF883F9B0728F08FC68091260A909182
:10584000270A9093470E8093460EF801818180933A
:105850003E0E828180933F0E83818093400E84812F
:105860008093410E85818093420E86818093430E02
:1058700087818093440E80858093450E8CE090E074
:1058800090939B0E80939A0E8185813009F067C6B4
:105890000E9474A020919A0E30919B0E2E5F3F4F74
:1058A00030939B0E20939A0E1092480ED8011A96B0
:1058B0001C911A971093490E60E00BE11FC0609F86
:1058C000A0011124FC01A081B181A40FB51F4C914E
:1058D000413099F4611788F0E72FF0E0EE0FFF1FD9
:1058E000E65BF14F14964D915C911597518340837F
:1058F0007F5F7093480E2E5F3F4F6F5FDC011696FF
:105900004C911697641708F0B5C02F35310508F093
:10591000B1C07091480E7A3090F2ACC00091CA0EBE
:105920001091CB0EF801818192812091260A30914D
:10593000270A8217930769F10E94B090FC01009733
:1059400009F40AC68081813009F006C6A0857185F8
:105950006285538544853585268597858A2F872BD3
:10596000862B852B842B832B822B892B09F4F4C562
:10597000A0933E0E70933F0E6093400E5093410EE5
:105980004093420E3093430E2093440E9093450E65
:105990001BC00E947251FC01808180933E0E818168
:1059A00080933F0E82818093400E83818093410ECD
:1059B00084818093420E85818093430E86818093FB
:1059C000440E87818093450ED80111968D919C914C
:1059D00012979093470E8093460E8CE090E0909340
:1059E0009B0E80939A0E13968C911397813009F039
:1059F000B6C50E9474A020919A0E30919B0E2E5F26
:105A00003F4F30939B0E20939A0E1092480EF80150
:105A100014811093490E60E00BE11FC0609FA0014C
:105A20001124FC01A081B181A40FB51F4C9141301C
:105A300099F4611788F0E72FF0E0EE0FFF1FE65BA7
:105A4000F14F14964D915C911597518340837F5F80
:105A50007093480E2E5F3F4F6F5FDC0116964C919E
:105A60001697641738F42F35310520F47091480EDD
:105A70007A30A0F230939B0E20939A0E70C5E0917D
:105A8000CA0EF091CB0E84E090E090939B0E809331
:105A90009A0E80913D0A90913E0A218132818223A3
:105AA00093237EC1E091CA0EF091CB0E81E190E08C
:105AB00090939B0E80939A0E8181928190933F0EDA
:105AC00080933E0EA0E4BEE0E5E3FAE08DE00190B5
:105AD0000D928150E1F743C5E091CA0EF091CB0ED3
