:100000000C943C040C945C040C945C040C945C0410
:100010000C945C040C945C040C945C040C945C04E0
:100020000C945C040C945C040C945C040C945C04D0
:100030000C945C040C942F160C945C040C947816AD
:100040000C945C040C945C040C945C040C945C04B0
:100050000C945C040C945C040C945C040C945C04A0
:100060000C94281F0C944F180C94F3170C9421181F
:100070000C945C040C942B1A0C941D190C945C04C5
:100080000C945C040C945C040C945C040C945C0470
:100090000C94DD180C9481180C94AF180C94BB1EB2
:1000A0000C945C040C945C040C9474170C9413B7BB
:1000B0000C945C040C945C040C945C040C945C0440
:1000C0000C945C040C945C040C945C040C945C0430
:1000D0000C945C040C945C040C945C040C945C0420
:1000E0000C945C040C945C040C945C040C945C0410
:1000F0000C9470B70C945C040C945C040C9498B74A
:100100000C945C040C945C040C945C040C945C04EF
:100110000C945C040C945C040C945C040C945C04DF
:100120004D0B160019006E05D8001700000C0200D8
:100130001300090C010014007B0C08001500CF0B04
:1001400001001600AF0B08000000C90B0100010000
:10015000F60B08000200640B04000300750C01009C
:1001600004006C0C01000500D90B01000600DA0B3D
:1001700001000700DB0B01000800E50B110009007E
:10018000CA0B02000A00D00B01000B00770C020022
:100190000C006F0C01000D00850C01000E00FF0B20
:1001A00001000F00810611002300A30614002200A5
:1001B000CB0617002100F90602002000FD0604000E
:1001C0001F00050710001E00592D022EC62EE02E1E
:1001D000F92E1C304930203420342034203420348F
:1001E0002034203420342034A22FB02F2034EB2CA4
:1001F000D42FB32E77348434A634A0349D34A6345F
:10020000B034A936A936A936A936A936A936A936F1
:10021000A936A936A034A634A9367434A33494344C
:10022000DA50EB4F1F511F511F51F14FFB4F1F5120
:100230001F5104500A5033503C501F5142504B50F4
:1002400056501F515F5065501F516E50AB50C050FB
:100250001F51B150BA50DA50DA50DA50CC50CC506D
:10026000CC50CC50CC50CC50CC50CC50CC50CC50AE
:10027000CC50CC50CC50CC50CC50CC50CC508250E8
:10028000CC501F511F511F511F511F511F511F5142
:100290001F511F511F511F511F511F511F51CC5032
:1002A000C650DA50CC507D509152F151E152E1529A
:1002B000E152F751FC51A852E152FF5102521B5238
:1002C0002052E152235226522952E1522E523152EB
:1002D000A852365285529A52E15288528B52F551A9
:1002E0008E528E52A852A852A852A852A852A85272
:1002F000A852A852A852A852A852A852A852A8522E
:10030000A852A852A8526B52A852E152E152E152AF
:10031000E152E152E152E152E152E152E152E15245
:10032000E152E152E152A8529D52A052A8526452A9
:10033000FF53045409540E54135418541D541D549F
:100340002B542E5447543154345437543A54475450
:100350003D544054475443543D587958795879583E
:1003600043585C584F5855588958495862586258F4
:100370006858795880588458D458D758DA58DA5879
:10038000DD58E958E358E658F958E058EC58EF586A
:10039000F258F558B85ABC5AE45AC05AC45AE45AEA
:1003A000C85AE45AD65ADA5AE15A215FE05FF25F3E
:1003B000DB5E38603860ED5FF25FF55F23600C60F4
:1003C0003860386023600F5F2660B67DBE7D4A7D51
:1003D0000B7E0B7E917D9E7D0B7E0B7E0B7EC87D02
:1003E000D77D6A7D767D0B7E477DA97DC182C182E6
:1003F0004E825582558261826182728272829882B7
:10040000988298821183C1825E996B999899AA9972
:10041000B199BE99CB99D699DE99FC99269AE8991B
:100420003EAE46AE58AE61AE63AE65AE67AE6AAE86
:100430003BAFB4AFB4AF63AF69AF78AF7EAF81AF5E
:1004400084AF87AF8DAFAF0B0800B80B0100C50BB1
:100450000400C90B0100730C0100740C01007B0C3B
:100460000800770C0200000C0200090C01006F0C60
:100470000100850C0100750C0100CC0B0100CD0BB7
:100480000100CE0B0100CF0B0100CA0B0200D00B04
:100490000100710C0100700C01008E0B0100900B2B
:1004A0000100F60B0800640B0400DC0B0400D10B08
:1004B0000400D50B0400D90B0100DA0B0100DB0BA3
:1004C0000100E50B11006C0C0100E00B0100E10BD9
:1004D0000400FE0B0100910B0200FF0B0100000065
:1004E0000000760502007A050100780502007C050F
:1004F00001007D0501007E0501007F0501008005EA
:1005000001008105010082050100830501007B05D2
:10051000010084050100850501008E0502008605A5
:10052000010087050100880501008A05040089058E
:100530000100390400006E050000BE0400004606FC
:100540000000000000006E06000000000000250B07
:100550000000000000004A090000000000008109BE
:100560000000A9090000C30A00000000000000000C
:1005700000004D0B0000850000000805080802057A
:100580000204000000080302080135000E011410E7
:10059000C8320000033812010303000110270000D5
:1005A00010270000010001E803000004E803000038
:1005B0001041746D656C20202020202020202020F8
:1005C00020AAAAAAAAAAAAAAAA03000200000100B5
:1005D000000000000000000000000000000000001B
:1005E000000000000000000000000000000000000B
:1005F0000000000000000500FF00000000000000F7
:1006000000000000000000000000000000000000EA
:1006100000000000000000000000000000000000DA
:1006200000000000000000000000000000000000CA
:1006300000000000000000000000000000000000BA
:1006400000000000000000000000000000000000AA
:10065000000000000000000000000000000000009A
:100660000000000000000001020100020205050870
:100670000000FFFF3812000000000000000002062A
:10068000010000010002000300040005000600074D
:1006900000080009000A000B000C000D000E000FFE
:1006A000001800000001000200030004000500061D
:1006B000000700080009000A000B000C000D000EE6
:1006C000000F0013001400150016000000010002C6
:1006D0000003000400050006000700080009000AE6
:1006E000000B000C000D000E000F0013001400158D
:1006F0000016001700180019001A001B0013001440
:1007000000150016000000010002000300040005AF
:100710000006000700080009000A000B000C000D8D
:10072000000E000F00CE0FBD10D20FD60FB910DA99
:100730000F03040506072F4359480000000000007E
:100740000000000000000C81418119956DA20D751B
:10075000B58782801D7A08710F7EED920E74519ECE
:10076000B270EC904170000000000000000000003A
:100770000000020203020202010101010101010263
:10078000020101010202020202020202020202024C
:1007900002030302020302FF77DF730107209C5A62
:1007A000830101209C5A830101B577E27A01013D62
:1007B000776F9F01013D77489F0107F576EB800138
:1007C000019C76069F010100000000010700000067
:1007D0000001010000000001030000E06C010400C2
:1007E00000E06C01050000000001060000000001AF
:1007F0000C000000000101209C000000010000002E
:1008000000010D00000000010700000000010900C8
:1008100000000001000000000001010000000001D4
:100820000100000000000000009371000700009329
:1008300071000B0000937100000000937100B56916
:10084000296EFD69D769F6690000BC69CA69EF695C
:10085000C3691F6E9669976C9E6C106D896C046AF3
:100860000000E96E8DA1C7A069958D9F00000F97CC
:10087000457B7F750000000011241FBECFEFD1E43F
:10088000DEBFCDBF13E0A0E0B2E0E8EDF7E701E0A6
:100890000BBF02C007900D92AA30B107D9F713E140
:1008A000AAE0B3E001C01D92A437B107E1F70E94AE
:1008B00042210E940421FDCF0C9400007F937FB75A
:1008C000F8949D9AA5988AEF0E94BD048AEF0E9431
:1008D000BD049D9886E40E94BD0481E0959980E066
:1008E0008F9380EF0E94BD048F917FBF7F91089509
:1008F0007F937FB7F8949D9AA59886E00E94BD04E7
:100900009D988AE00E94BD04889495990894881F58
:100910008F9384E60E94BD048F917FBF7F910895DD
:100920009F937F9398E00E947804879577959A9596
:100930009923C9F7872F7F919F9108957F937FB760
:10094000F894A5989D9A8F9386E00E94BD048F919C
:10095000879508F49D988F9384E60E94BD048F913B
:100960009D987FBF7F9108959F9398E00E949E0479
:100970009A959923D9F79F910895000000000000EF
:1009800000008A958823C9F708955F937F937FB706
:10099000F894CF93DF93C0E0D0E07F935091B20002
:1009A0007091B2007517E1F3739521965091B200E2
:1009B0005717D9F77F91CE01DF91CF917FBF7F91FC
:1009C0005F910895CF92DF92EF92FF920F93CF93B2
:1009D000DF93CDB7DEB760970FB6F894DEBF0FBEDA
:1009E000CDBF002309F45AC029873A874B875C871B
:1009F0006D877E878F87988B80E2801B49855A851B
:100A00006B857C851816B4F019821A821B821C82B1
:100A1000992787FD9095909581959F4F04C0440F2D
:100A2000551F661F771F8A95D2F74D835E836F83AC
:100A300078872CC06A017B01002E04C0CC0CDD1C21
:100A4000EE1CFF1C0A94D2F7C982DA82EB82FC8288
:100A50006A017B0104C0F694E794D794C7948A9501
:100A6000D2F7D701C6014D855E856F85788904C0B0
:100A7000440F551F661F771F0A95D2F7842B952BBD
:100A8000A62BB72B8D839E83AF83B88729813A81AC
:100A90004B815C816D817E818F81988560960FB6D8
:100AA000F894DEBF0FBECDBFDF91CF910F91FF90C5
:100AB000EF90DF90CF90089595B180E1892785B9B7
:100AC00008950F931F93CF93DF93EC018DB79EB7DB
:100AD0000C970FB6F8949EBF0FBE8DBFEDB7FEB753
:100AE000319605E214E0ADB7BEB712961C930E9393
:100AF000119780E092E0938382838F8584831582AF
:100B00008B819C819783868389819A819187808755
:100B10008881828713860E94FBB8F801019000202B
:100B2000E9F7AF0141505040401B510B8DB79EB7C4
:100B30000C960FB6F8949EBF0FBE8DBF84E094E074
:100B4000B8010E942F118F85882379F482E0809369
:100B50000A032FB7F89480918103909182039460E7
:100B600090938203809381032FBFDF91CF911F91D8
:100B70000F9108950F931F93CF93DF930F92CDB7EB
:100B8000DEB704E014E0C801BE016F5F7F4F41E0B3
:100B900050E00E94CC10C801BE016F5F7F4F41E062
:100BA00050E00E942F110F90DF91CF911F910F9174
:100BB000089580EC80930F041092100483E390E07A
:100BC000909312048093110486E080931304109292
:100BD0001404109215048BE093E090931904809311
:100BE00018048AE090E090931B0480931A041092FA
:100BF0001D0410921C0410921F0410921E048AEB14
:100C000095E0909321048093200410922304109285
:100C100022041092240484E094E00E94AD1108950F
:100C20001092FA0380EC8093FC0383E094E09093AD
:100C3000FE038093FD0381E090E090930004809395
:100C4000FF03109202041092010487EF93E00E94C8
:100C5000EC1408950F931F93CF93DF93CDB7DEB7B6
:100C60002B970FB6F894DEBF0FBECDBF198280E27E
:100C7000BE016F5F7F4F0E944E0780E2BE016F5F33
:100C80007F4F0E94200781E1BE016E5F7F4F0E946F
:100C9000200780E0BE016C5F7F4F0E9420078DB768
:100CA0009EB740970FB6F8949EBF0FBE8DBFEDB7AD
:100CB000FEB7319605E214E0ADB7BEB712961C93AD
:100CC0000E9311978AE492E09383828389818483CF
:100CD00015828A819B81978386838C8180878D8111
:100CE00081878E8182878F818387888584878985A4
:100CF00085878A8586878B8587870E94FBB8F80160
:100D000001900020E9F7AF0141505040401B510BCA
:100D10008DB79EB740960FB6F8949EBF0FBE8DBF9D
:100D200084E094E0B8010E942F1181E695E0909351
:100D300028038093270385E193E00E94132A81E032
:100D400080930A032FB7F8948091810390918203D6
:100D5000946090938203809381032FBF2B960FB6EC
:100D6000F894DEBF0FBECDBFDF91CF911F910F91E1
:100D7000089580910A038823E9F4249A2C980E940C
:100D8000D9050E94100688EE93E0A0E0B0E08093C1
:100D90002F0390933003A0933103B093320310924A
:100DA00033038CE595E090933503809334030E94E0
:100DB0002A060895813029F489E293E00E94C40E46
:100DC0000895823029F489E293E00E94F00E2C9A73
:100DD000089584E094E068E772E047E150E00E9403
:100DE0002F110895089508950895089591E0873288
:100DF00008F090E0892F0895CF93DF9300D000D0C2
:100E0000CDB7DEB7682F70E0660F771F660F771FCC
:100E10006A5B7B4FCE01019644E050E00E94C3B86C
:100E200069817A818B819C810F900F900F900F9038
:100E3000DF91CF9108950E9479070E9423090895B8
:100E4000DF92EF92FF920F931F93CF93DF93182FB0
:100E5000EB012097D9F00E94FC06062FF72EE82E12
:100E6000D92E812F0E94F606882341F4CE01602FEF
:100E70007F2D4E2D5D2D0E94C3B808C08C2F9D2F55
:100E8000602F7F2D4E2D5D2D0E94D9B8DF91CF911F
:100E90001F910F91FF90EF90DF9008951F93CF93D4
:100EA000DF93182FEB01209791F00E94F606813016
:100EB00071F4812F0E94FC06482F592F41155105CE
:100EC00031F0862F972F6C2F7D2F0E94D9B8DF919C
:100ED000CF911F910895CF93DF93EB010E94FC0601
:100EE000DC01CB01109711F499838883DF91CF91B6
:100EF000089582E3E3E9FBE0DF011D928A95E9F7BB
:100F000085E08093B80B80E09CE06BEF75E046E8ED
:100F100050E00E94C3B884E69BE06CEC75E04FE2C1
:100F200050E00E94C3B883E69BE06BEC75E041E0C3
:100F300050E00E94C3B885EC9BE060E975E04BE3AC
:100F400050E00E94C3B88AE297E0E9E3F4E0DF01F1
:100F50009C011D9221503040E1F708954115510543
:100F600059F0E62FF72F20E030E09191890F2F5FA5
:100F70003F4F24173507C9F70895AF92BF92CF921C
:100F8000DF92EF92FF920F931F93CF93DF93CDB732
:100F9000DEB72C970FB6F894DEBF0FBECDBF8C0125
:100FA0007B01CE0102969A87898785E090E09C8735
:100FB0008B87FB0180819181059798878F83CE0174
:100FC00007966DEE7CE00E943A0D8D819E81801720
:100FD000910709F040C0F701248135818B819C8104
:100FE00028173907D1F5CE0101969A87898781E0C4
:100FF00090E09C878B87C901009739F1CC24DD24D0
:1010000000E00F2EFDEEAF2EFCE0BF2EF02DF7011D
:10101000808191818C0D9D1D98878F83CE010796CD
:10102000B5010E943A0D69857A85802F41E050E034
:101030000E94AE07082F0894C11CD11CF7018481BF
:101040009581C816D90618F301C000E08A8180177F
:1010500031F082E005C082E003C082E001C080E0A0
:101060002C960FB6F894DEBF0FBECDBFDF91CF91A7
:101070001F910F91FF90EF90DF90CF90BF90AF90B6
:101080000895EF92FF920F931F93CF93DF93CDB705
:10109000DEB72E970FB6F894DEBF0FBECDBF8C0122
:1010A000CE010796B8010E94BB0C86E0F8011192B0
:1010B0008A95E9F7EE24FF24E39420C08D859E8570
:1010C000BE016F5F7F4F0E94BD078823B9F48D85F5
:1010D0009E85FC01F695E795F695E795F695E795DB
:1010E000E00FF11F87709070970102C0220F331F2D
:1010F0008A95E2F7C9019081892B8083CE010796FA
:10110000BE016F5F7F4F0E94790B8823B9F62E9640
:101110000FB6F894DEBF0FBECDBFDF91CF911F9108
:101120000F91FF90EF900895882319F08130C9F452
:101130000FC0AEE9BCE0E62FF72FCD0106962D914A
:10114000308123232193A817B907C9F791E00AC07A
:10115000862F972F0E94410891E0882319F090E094
:1011600001C090E0892F08950E94EE0C8091B30C8D
:1011700081FD02C00E947A0D81E008950F931F93B4
:10118000CF93DF9300D000D000D0CDB7DEB78E0173
:101190000F5F1F4F26E0F80111922A95E9F7FC0135
:1011A000F695E795F695E795F695E795E00FF11F2B
:1011B0009C012770307081E090E002C0880F991F79
:1011C0002A95E2F78083C8010E94F90B80E0B801FC
:1011D0000E9494088981882361F4FE013296CE0131
:1011E00007962191222329F4E817F907D1F780E027
:1011F0001FC0E2E9FCE0DE011196CF0106962191C5
:101200003C9123232D93E817F907C9F78981882397
:1012100061F4FE013296CE0107962191222339F422
:10122000E817F907D1F780E003C081E001C081E051
:1012300026960FB6F894DEBF0FBECDBFDF91CF91DB
:101240001F910F9108956F927F928F929F92AF920C
:10125000BF92CF92DF92EF92FF920F931F93CF93A3
:10126000DF93CDB7DEB768970FB6F894DEBF0FBE39
:10127000CDBF80E291E09093870C8093860C84EA46
:1012800091E09093890C8093880C26E030E084EA0A
:1012900091E080529140B9010E94EBB780918A0C95
:1012A00090918B0C682B792B70938B0C60938A0C2C
:1012B00088EC91E0845A9140B9010E94EBB780918B
:1012C0008C0C90918D0C682B792B70938D0C609306
:1012D0008C0C10928E0C10928F0C1092900C10921D
:1012E000910C86E0EEE9FCE0DF011D928A95E9F7BA
:1012F00080918A0C90918B0C009709F45FC000E0FC
:101300000F2EF0E2CF2EF1E0DF2EF02D0F2EFEE8B3
:10131000AF2EFCE0BF2EF02D0F2EF8EF6F2EFFEF5B
:101320007F2EF02D6A0C7B1C882499248394EE2454
:10133000FF246894E2F8E60CF71CCE014396B60150
:1013400046E050E00E94C3B88D899E890596A0E0D2
:10135000B0E0F5014081518162817381840F951F56
:10136000A61FB71F80839183A283B3832F89388DF3
:10137000C901969587959695879596958795F301DA
:10138000E80FF91FC90187709070940102C0220F05
:10139000331F8A95E2F7C901908D892B808F46E033
:1013A00050E0C40ED51E0F5FD7018D919C9111970F
:1013B000202F30E02817390708F4BFCF9C01220FF7
:1013C000331F820F931F880F991F04966C01EE2420
:1013D000FF24CE010D969E8B8D8B86E090E0988F3A
:1013E0008F8BAA24BB2400E010E00F2EF6E88F2E8E
:1013F000FCE09F2EF02D0F2EFDEE6F2EFCE07F2ED9
:10140000F02DF801F695E795F695E795F695E795B1
:10141000E80DF91D208D30E0C80187709070F9014A
:1014200002C0F695E7958A95E2F7E0FF3EC0C50158
:10143000880F991F8A0D9B1D880F991F04969C8BFE
:101440008B8BCE014396B3010E943A0D89899A890C
:101450000817190749F48D859E85AF85B8898C15C5
:101460009D05AE05BF0559F01A8B098BCD86DE862A
:10147000EF86F88ACE014396B3010E945A0DC80147
:101480000E94760ABC01CE01079646E050E00E9419
:10149000C3B889859A850596A0E0B0E0C80ED91E2C
:1014A000EA1EFB1E0894A11CB11C0F5F1F4F0D32DA
:1014B000110509F0A6CF0E94E40CCE0101960E940E
:1014C000410868960FB6F894DEBF0FBECDBFDF911E
:1014D000CF911F910F91FF90EF90DF90CF90BF9031
:1014E000AF909F908F907F906F9008958F929F9272
:1014F000AF92BF92CF92DF92EF92FF920F931F9322
:10150000CF93DF9300D0CDB7DEB75C013091860C6E
:101510002091870C80918A0C90918B0C009739F167
:10152000032F122FEE24FF240F2EFAE88F2EFCE05B
:101530009F2EF02D6801B8016C5F7F4FCE010196A0
:1015400042E050E00E94C3B889819A818A159B05C8
:1015500081F00894E11CF11C0A5F1F4FF4018081A7
:101560009181E816F90630F3CC24DD2402C0CC24A6
:10157000DD248C2D9D2D0F900F90DF91CF911F9129
:101580000F91FF90EF90DF90CF90BF90AF909F9022
:101590008F900895CF92DF92EF92FF920F931F9357
:1015A000CF93DF93CDB7DEB762970FB6F894DEBF67
:1015B0000FBECDBF8C016B01BC017695679576950A
:1015C000679576956795FB01EA57F34F208D30E0DC
:1015D00087709070A90102C0569547958A95E2F7E9
:1015E00040FF58C0FE013D96AEE9BCE086E00D909C
:1015F00001928150E1F76115710539F140E050E049
:1016000020E0EDE0F0E0EC0FFD1FE20FF11D908116
:10161000892F869585759575890F382F369536955E
:1016200033738373380F3083832F90E08F70907003
:1016300032953F70830F911D480F591F2F5F822FE6
:1016400090E086179707E8F202C040E050E007708C
:1016500010700115110501F16C0F7D1FDB011D9646
:10166000EC91F0E060E0A1E0B0E0EE24FF249F0107
:10167000062E02C0369527950A94E2F7CD0120FF89
:10168000C701480F591F6F5F862F90E080179107A1
:1016900070F302C04FEF5FEFCE0107969C838B8300
:1016A000CA01880F991F480F591F440F551F4C5FDF
:1016B0005F4F5A83498386E090E09E838D83CE01FD
:1016C00001966DEE7CE00E943A0D8F819885F601BF
:1016D0009183808362960FB6F894DEBF0FBECDBFB4
:1016E000DF91CF911F910F91FF90EF90DF90CF90FE
:1016F0000895EF92FF920F931F93CF93DF9300D043
:1017000000D000D0CDB7DEB78C017B01FC01408159
:1017100040FD1BC021E030E0B901769567957695D4
:10172000679576956795F801E60FF71F4081F901F7
:10173000E770F070842F90E00E2E02C0969587958A
:101740000A94E2F780FF1BC006C0E0E0F0E060E032
:1017500070E020E030E0600F711F81E090E002C097
:10176000880F991FEA95E2F780954823FB01408393
:10177000C9010E94760ABC01009739F427C02F5F87
:101780003F4F2D32310541F621C0CE01019646E092
:1017900050E00E94C3B889819A81F70193838283C4
:1017A0008D819E81B7010E94CA0AF70180819181D3
:1017B0000596918380838B819C81958384838D8121
:1017C0009E81F8019783868381E006C08FEF9FEFAB
:1017D000F8019783868380E026960FB6F894DEBFE3
:1017E0000FBECDBFDF91CF911F910F91FF90EF9072
:1017F00008954F925F926F927F928F929F92AF92D5
:10180000BF92CF92DF92EF92FF920F931F93CF93ED
:10181000DF93CDB7DEB728970FB6F894DEBF0FBEC3
:10182000CDBF6C013091880C2091890CFC01858121
:1018300086FD07C080918C0C90918D0C009749F427
:1018400083C0C6016FEF70E046E050E00E94F4B83C
:101850007BC0A32EB22E88249924EE24FF24E39487
:101860004424552400E00F2EFCE86F2EFCE07F2E70
:10187000F02DCE010196B50146E050E00E94C3B8BC
:101880002D813E81C9019695879596958795969568
:101890008795F601E80FF91F408127703070842F7B
:1018A00090E0022E02C0969587950A94E2F780FF99
:1018B0003DC0C70102C0880F991F2A95E2F78095A5
:1018C000482340838B819C81009781F1B201102FC6
:1018D000CB01880F991F69817A81680F791FCE012A
:1018E000079642E050E00E94C3B82F813885C901B5
:1018F000969587959695879596958795F601E80F25
:10190000F91FC90187709070970102C0220F331F21
:101910008A95E2F7C9019081892B80831F5F612F2F
:1019200070E08B819C816817790790F20894811C84
:10193000911C86E090E0A80EB91EF3018081918190
:101940008816990608F495CF28960FB6F894DEBF4E
:101950000FBECDBFDF91CF911F910F91FF90EF9000
:10196000DF90CF90BF90AF909F908F907F906F90BF
:101970005F904F900895CF93DF93EC018FEF9FEF2F
:101980009F838E838C2F9D2FAC2FBD2FE62FF72F9B
:1019900026E001900D922150E1F70E94F90BEEE94B
:1019A000FCE0CF0106962191388123232993E81783
:1019B000F907C9F7DF91CF9108958091B10C90910B
:1019C000B20C0E94B40808951092AE0C8DED9CE00C
:1019D0009093B00C8093AF0C089508950F931F93CC
:1019E000CF93DF9300D000D000D0CDB7DEB78E010B
:1019F0000F5F1F4F26E0F80111922A95E9F7FC01CD
:101A0000F695E795F695E795F695E795E00FF11FC2
:101A10009C012770307081E090E002C0880F991F10
:101A20002A95E2F78083C8010E94F90BD801E8E902
:101A3000FCE0CE0107962D913081232B2193A8172E
:101A4000B907C9F78091B30C84608093B30C2696D4
:101A50000FB6F894DEBF0FBECDBFDF91CF911F91BF
:101A60000F91089502C00E943F210E94CF12882347
:101A7000D1F708950F931F93CF93DF938C01EB0160
:101A80000E94320DC801BE010E94F6112FEF8F3F58
:101A9000920741F08CE0CD3ED80731F40E94320D20
:101AA00080E003C081E001C080E0DF91CF911F9111
:101AB0000F9108950F931F93CF93DF938C01EB0148
:101AC0000E94320DC801BE010E945A122FEF8F3FB3
:101AD000920741F08CE0CD3ED80731F40E94320DE0
:101AE00080E003C081E001C080E0DF91CF911F91D1
:101AF0000F9108952F923F924F925F926F927F9233
:101B00008F929F92AF92BF92CF92DF92EF92FF920D
:101B10001F93CF93DF93CDB7DEB762970FB6F894DC
:101B2000DEBF0FBECDBF8091B30C82608093B30C3B
:101B300082FF9FC086E393E068E97CE00E94BB0CD3
:101B40008091B30C8B7F8093B30C93C0F201E08043
:101B5000F180C70196958795969587959695879577
:101B6000F101E80FF91FC70187709070950102C05D
:101B7000220F331F8A95E2F7C90180959289892344
:101B8000828B6F85788949895A8980E00E94AE07E7
:101B9000182F82E090E08C0F9D1F9A878987E5E0DF
:101BA000F0E0FC87EB878D859E85059798878F836E
:101BB000CE010796B4010E943A0D8A811817C1F52B
:101BC0008D819E81E816F90699F589899A892B817C
:101BD0003C818217930761F521E030E02C0F3D1F17
:101BE0003A872987BC86AB86009709F45DC0CC2470
:101BF000DD248D859E858C0D9D1D98878F83CE015C
:101C00000796B4010E943A0DA985BA858F859889F7
:101C1000FC01EC0DFD1D8C919081891749F408940D
:101C2000C11CD11C89899A89C816D90610F33CC0F9
:101C30001A83FE82ED8289899A899C838B83CE01E7
:101C400002969A87898785E090E09C878B878D85AF
:101C50009E85059798878F83CE0107966DEE7CE071
:101C60000E945A0DCE010D966AE77DE00E945A0D42
:101C70002EC00F2EF6E36F2EF3E07F2EF02D0F2EE9
:101C8000FCE34F2EF3E05F2EF02D0F2EF6E82F2E03
:101C9000FCE03F2EF02DAA24BB24A3940F2EFDEED2
:101CA0008F2EFCE09F2EF02DC301BE01635F7F4F9E
:101CB0000E94790B882309F049CF8091B30C8D7F66
:101CC0008093B30C8FE060E070E00E945A2062962F
:101CD0000FB6F894DEBF0FBECDBFDF91CF911F913D
:101CE000FF90EF90DF90CF90BF90AF909F908F903C
:101CF0007F906F905F904F903F902F900895EF925C
:101D0000FF920F931F93CF93DF9318C08EE393E05E
:101D100060E070E0AE010E94BE148A85882359F409
:101D2000EA82FB820C831D838EE393E0BE01A8014F
:101D300097010E940613EB85FC85099580913E036F
:101D400090913F030097D9F00E9469177B018C01A5
:101D5000C0913E03D0913F038A819B81AC81BD81BC
:101D6000A8019701281B390B4A0B5B0B8E819F81C1
:101D7000A885B985281739074A075B0738F6CDB714
:101D8000DEB7E6E00C9449B8CF93DF93EC010097FF
:101D900071F0E0913E03F0913F0306C0EC17FD07A0
:101DA00049F00190F081E02D3097C1F709C02FEF85
:101DB0003FEF02C020E030E0C901DF91CF910895EC
:101DC0000E9469179B01AC01198218826A837B8388
:101DD0008C839D838EE393E0BE010E940613EACFBD
:101DE000CF93DF93EC010097D1F080913E03909167
:101DF0003F038C179D0749F08EE393E0BE010E94DC
:101E0000DD14BC01009719F40AC060E070E08EE3B5
:101E100093E0AE010E94BE1420E030E002C02FEF3C
:101E20003FEFC901DF91CF9108958F929F92AF92BA
:101E3000BF92CF92DF92EF92FF920F930E949B1579
:101E40004B015C0120914B0330E040E050E060E04A
:101E500070E080E090E000E20E94E2042829392945
:101E60004A295B290F91FF90EF90DF90CF90BF90B0
:101E7000AF909F908F900895CF93DF93E82FF0E07D
:101E8000DF01A05CB04093E0B595A7959A95E1F786
:101E9000B0E0AA0FBB1FA05CBC4F6D917C91119765
:101EA0006115710599F14FB7F894EB012A813B81D7
:101EB000888199814FBF2817390729F12D913C91CD
:101EC0001197E901288D398D280F391FE9013881D3
:101ED000019620812064208336830D90BC91A02D33
:101EE0005A962D913C915B978217930711F480E0ED
:101EF00090E02181206221832FB7F894FB01918328
:101F000080832FBF03C0818180648183DF91CF9163
:101F1000089590E0805C904033E0959587953A95E0
:101F2000E1F7E82FF0E0EE0FFF1FE05CFC4FA0812F
:101F3000B1811097B9F090968C919097887191F437
:101F40002FB7F89418968D919C9119972FBF0097F1
:101F500049F00190F081E02D048CF58DE02D309753
:101F600009F009950895FC0193898385992349F423
:101F7000803C19F0883C89F402C06A9A0895559A09
:101F80000895803C19F0883C41F404C06A98729826
:101F9000729A089555985D985D9A089580EC0E9414
:101FA0003C0F089580EC0E94890F089588EC0E94F0
:101FB0003C0F089588EC0E94890F0895A3E0B0E0DB
:101FC000E4EEFFE00C942CB881E0898306E010E099
:101FD000DD2452E0E52EF12CEC0EFD1E909147031E
:101FE00089818923B9F09FB7F894209147038981AB
:101FF0008227809347039FBF6D2D70E0660F771F88
:102000006B5D784FC70142E050E00E94C3B8EA819F
:10201000FB810995D3948981880F898301501040F1
:10202000E9F62396E7E00C9448B89091470321E045
:1020300030E002C0220F331F8A95E2F7922B909373
:102040004703809160038068809360032FB7F89402
:1020500080918103909182038260909382038093A8
:1020600081032FBF0895CF93DF93C82FD0E0DE0107
:10207000A05CB040E3E0B595A795EA95E1F7B0E044
:10208000AA0FBB1FA05CBC4FED91FC91119730973C
:1020900021F489818F77898335C080A183FD32C087
:1020A000C489D58984FF0AC06883ED91FC9111979A
:1020B000848995890196958B848B24C0209711F192
:1020C0002681378186819781019697838683468111
:1020D0005781868997894817590711F41782168204
:1020E00046815781848195814817590719F43783B0
:1020F000268308C0C20FD31F68838085918501960F
:1021000091878087DF91CF91089590E0805C904027
:1021100033E0959587953A95E1F790E0DC01AA0FB9
:10212000BB1FA05CBC4FED91FC911197309701F162
:102130006FB7F89442815381208131816FBF42177C
:10214000530711F421E02287FC01EE0FFF1FE05C32
:10215000FC4F0190F081E02D828D938D009711F45A
:10216000118E108E068CF78DE02D309709F00995B1
:10217000089588EC0E948510089580EC0E948510D7
:102180000895805C893030F4E82FF0E0E057FD4F8F
:102190008081089580E00895A0E0B0E0E2EDF0E1F4
:1021A0000C942CB8EC018B017A01009709F44FC014
:1021B000DB848D2D0E94C110882309F448C00115CD
:1021C000110509F444C0E114F10409F440C0ED2DF7
:1021D000F0E0E05CF04073E0F595E7957A95E1F783
:1021E000F0E0EE0FFF1FE05CFC4F80819181C8178B
:1021F000D90769F52FB7F8944E815F818C819D8155
:102200002FBFD80120E030E010C0EC89FD89E80F35
:10221000F91F60816D9301966E897F8986179707F4
:1022200011F480E090E02F5F3F4F8417950719F07D
:102230002E153F0550F34FB7F8949D838C83888506
:102240009985821B930B998788874FBF02C02FEF18
:102250003FEFC901CDB7DEB7E7E00C9448B8A0E086
:10226000B0E0E5E3F1E10C9429B8EC018B017A01CF
:10227000009709F46AC0CB848C2D0E94C11088237A
:1022800009F463C00115110509F45FC0E114F104FC
:1022900009F45BC0EC2DF0E0E05CF040B3E0F595B4
:1022A000E795BA95E1F7F0E0EE0FFF1FE05CFC4F19
:1022B00080819181C817D90709F047C08A8D9B8D0D
:1022C000009779F42A813B81888199812817390701
:1022D000E1F5198F088FFB82EA8219821882C70103
:1022E0002CC08FB7F894CA80DB80A880B9808FBFDC
:1022F000D801960180E090E015C0A9014F5F5F4FC3
:102300006A8D7B8D4617570711F440E050E04A155F
:102310005B0559F06D91E88DF98DE20FF31F608335
:1023200001969A018E159F0540F34FB7F8943B83B1
:102330002A834FBFCA14DB0431F41A86EB85F0E020
:102340002181206221839C0102C02FEF3FEFC90150
:10235000CDB7DEB7EAE00C9445B81F93CF93DF9377
:10236000EC010097E1F11B85812F0E94C1108823A9
:10237000B1F1E12FF0E0E05CF04033E0F595E79556
:102380003A95E1F7F0E0EE0FFF1FE05CFC4F808133
:102390009181009721F5D183C0838C85803419F415
:1023A000CE010E94B30F198218821B821A828C8977
:1023B0009D89009711F41F8A1E8A888D998D009738
:1023C00011F41B8E1A8E1D821C821F821E8281E0D8
:1023D0008A87CE010E949A172B8530E002C02FEF2A
:1023E0003FEFC901DF91CF911F910895FC018091CA
:1023F0004803882309F057C0309709F457C08481F7
:10240000958120813181820F931F20E181309207D5
:1024100008F04CC081E0809348037093BB0C60933C
:10242000BA0CA4EBBCE086E001900D928150E1F77C
:10243000F999FECF80E090E017C0E091B60CF091E2
:10244000B70CE80FF91F2091B40C3091B50CA9011D
:102450004F5F5F4F5093B50C4093B40C32BD21BD1C
:10246000F89A20B5208301962091B80C3091B90CD0
:102470008217930710F31092B90C1092B80C809148
:1024800061038460809361032FB7F8948091810386
:1024900090918203826090938203809381032FBF87
:1024A00020E030E005C02EEF3FEF02C02FEF3FEFFE
:1024B000C9010895CF93DF93FC019B0180914803EC
:1024C000882309F063C0309709F463C0608171818B
:1024D00084819581860F971F40E18130940708F031
:1024E00058C081E080934803A4EBBCE086E00190F3
:1024F0000D928150E1F73093BB0C2093BA0C21155B
:10250000310519F4C0E0D0E033C0CB0101969093BF
:10251000B50C8093B40CE091B60CF091B70C4191DE
:10252000F093B70CE093B60C8CE00E940F198091E9
:10253000B80C9091B90C01979093B90C8093B80C9A
:1025400022C06091B40C7091B50CCB0101969093B0
:10255000B50C8093B40CE091B60CF091B70C41919E
:10256000F093B70CE093B60C84E00E940F1921960B
:102570008091B80C9091B90CC817D90710F3F9994C
:10258000FECF1092480320E030E005C02EEF3FEF71
:1025900002C02FEF3FEFC901DF91CF91089581E095
:1025A00090914803913009F080E008958091B80C33
:1025B0009091B90C009751F410924803E091BA0C35
:1025C000F091BB0C309709F1099508956091B40C16
:1025D0007091B50CCB0101969093B50C8093B40C1F
:1025E000E091B60CF091B70C4191F093B70CE093E9
:1025F000B60C8CE00E940F198091B80C9091B90C28
:1026000001979093B90C8093B80C0895A2E1B0E0C3
:10261000ECE0F3E10C9421B89A878987DB012B87E2
:102620003C874D875E87FC01E080F180E114F10476
:1026300009F497C1222433244B855C856D857E8502
:102640009A01AB0160E070E0CB0129833A834B83B0
:102650005C836D837E838F839887F88AEF86F7018A
:10266000BA8BA98B02C01F01FC01E280F3800481B8
:10267000158126813781408551856B857C858D85C7
:102680009E856E157F058007910708F48FC060E076
:1026900070E0CB0157016801EE24FF248701622E10
:1026A0006A0C77247394621608F07724932E9B0C9F
:1026B00088248394931608F08824790C5524539425
:1026C000791408F055248528542E5C0C9924939491
:1026D000541608F09924850C44244394851408F07A
:1026E00044249428052F0D0D11E0051708F010E083
:1026F000900EEE24E394901608F0EE241E29442454
:102700004394161608F0442401E0171608F000E080
:1027100055245394181608F05524A62C7981A71A2D
:1027200021E06A1408F020E0972D8A81981B81E04F
:10273000791608F080E0492F421B21E0941708F039
:1027400020E0822B282D9B81291B91E0821608F026
:1027500090E0522F581B81E0251708F080E0982B5D
:10276000292DAC812A1B81E0921608F080E0E22E30
:10277000E91A91E02E1508F090E0892BB12FB81BD3
:102780008B2F91E01B1708F090E0242D291B922F2E
:1027900021E0491608F020E0302F321B232F31E0D2
:1027A000021708F030E0142F052F95C039014A01B7
:1027B000AA24BB24650110950095F094E094E11CD7
:1027C000F11C011D111D722F7E1961E0271708F001
:1027D00060E0872D8F1991E0781608F090E0A82F1F
:1027E000A61B6A2F552453948A1708F0552495295F
:1027F000582C501A81E0851408F080E0B52DB91BE3
:102800009B2F442443945B1608F044248429292DEB
:10281000211B31E0921608F030E0E22EE81A81E048
:102820002E1508F080E0832B819551E0181608F0F2
:1028300050E0519541E0151608F040E0419521E047
:10284000141608F020E0522E5194A72E2981A21AC6
:1028500011E07A1508F010E0262F3A81231B31E0B1
:10286000621708F030E0622F611B162F61E021171C
:1028700008F060E0362B692F7B81671B21E09617FB
:1028800008F020E0062F031B91E0601708F090E0AD
:10289000292B3E2D9C81391B91E0E31608F090E036
:1028A000E32EE21A21E03E1508F020E0922B682F7B
:1028B000691B91E0861708F090E0A52FA91B9A2FBD
:1028C00081E05A1708F080E0242F281B31E04217DE
:1028D00008F030E0862F531A69F5222359F5992321
:1028E00049F5882339F5A989BA8916962D913D9124
:1028F0004D915C91199760E070E0CB01992321F52F
:102900001816C0F0882301F51716A0F07723E1F41C
:10291000161680F06623C1F4E51660F05E15A1F48A
:10292000041740F0401781F4131720F0311761F4B9
:10293000A21650F480819181009709F094CE8F0106
:10294000A989BA891F0111C0EF84F8888F01A9896C
:10295000BA89EE15FF0541F41196FC93EE93E985D3
:10296000FA85B183A08306C0CF01F101B183A083B2
:102970008D939C936296E2E10C943DB8CF93DF93E4
:10298000FC01DB01EA01808191814817590739F484
:102990008881998119821882808391830BC08881F4
:1029A000998111969C938E93198218828C9111961D
:1029B0009C911197DF91CF910895DC01ED91FC91ED
:1029C000119706C0808191818617970719F0FC0145
:1029D0003097C1F7CF010895FC0180914903909190
:1029E0004A030097F9F4F0934A03E0934903868180
:1029F00097810097B9F080859185009799F02381A0
:102A0000223080F4858190E08F739070009751F4AC
:102A1000213019F48481833028F00E94001A20E0CC
:102A200030E002C02FEF3FEFC9010895E091490364
:102A3000F0914A030284F385E02D309709F009955F
:102A40000895809170008C7F809370008091B60013
:102A500080628093B6001092B2001092B000109283
:102A6000B1001092B3008091B60090E08F71907029
:102A70000097C9F783E087BB87E08093B10080911E
:102A8000700081608093700008958091B60090E09E
:102A90008F7190700097C9F7809170008C7F809340
:102AA00070008091B100887F8093B10083B582600F
:102AB00083BD8091B60090E08F7190700097C9F748
:102AC0008091B6008F7D8093B60008959B01AC0184
:102AD0006091B200862F90E080959095AA2797FD8F
:102AE000A095BA2F9070A070B07082179307A407BA
:102AF000B50778F4281B390B4A0B5B0BBB27A52FB6
:102B0000942F832F90934D0380934C0320934E0377
:102B10000895260F8091B60090E08F719070009715
:102B2000C9F72093B30082E087BB80917000826078
:102B3000809370000895EF92FF920F931F938FB7C9
:102B4000F89490914F032091B20034E43093B40094
:102B50004091B60050E04F71507041155105C1F7DA
:102B6000B89904C030E040E050E009C02091B200C4
:102B700030E040E050E021503F4F4F4F5F4F8FBF5C
:102B80008FEF989FC0011124AA2797FDA095BA2F17
:102B9000820F931FA41FB51F9C01AD0175E0220F8A
:102BA000331F441F551F7A95D1F77C018D0162E0D8
:102BB00016950795F794E7946A95D1F72E0D3F1D6A
:102BC000401F511FE0905003F090510300915203B9
:102BD000109153032E0D3F1D401F511F281B390B11
:102BE0004A0B5B0BB901CA011F910F91FF90EF9047
:102BF000089560E270E080E090E008958FB7F89467
:102C000060914F0310924F038FBF70E080E090E01F
:102C100020E43FE140E050E00E94C0B79B01AC01DE
:102C20008091500390915103A0915203B0915303AE
:102C3000820F931FA41FB51F8093500390935103DD
:102C4000A0935203B093530382179307A407B507C9
:102C500028F480914B038F5F80934B0308951F925C
:102C60000F920FB60F920BB60F9211242F933F9332
:102C70004F935F936F937F938F939F93AF93BF9384
:102C8000EF93FF93809170008D7F8093700010927E
:102C90004E038091740380FF03C080E00E943F19BF
:102CA0008091740382FF11C080915E0381608093E4
:102CB0005E032FB7F8948091810390918203826024
:102CC00090938203809381032FBFFF91EF91BF9177
:102CD000AF919F918F917F916F915F914F913F91B4
:102CE0002F910F900BBE0F900FBE0F901F90189555
:102CF0001F920F920FB60F920BB60F9211242F93C3
:102D00003F934F935F936F937F938F939F93AF9373
:102D1000BF93EF93FF9380914C0390914D030097E5
:102D2000A1F580914E038823E9F48091740380FF1C
:102D300003C080E00E943F198091740382FF34C079
:102D400080915E03816080935E032FB7F894809139
:102D50008103909182038260909382038093810328
:102D60002FBF22C08091B60090E08F7190700097C5
:102D7000C9F780914E038093B30082E087BB8091B6
:102D8000700082608093700009C080914C03909124
:102D90004D03019790934D0380934C0380917403EE
:102DA00080FF02C00E94AB1980914F038F5F809318
:102DB0004F0380915E03826080935E032FB7F89487
:102DC000809181039091820382609093820380932B
:102DD00081032FBFFF91EF91BF91AF919F918F9191
:102DE0007F916F915F914F913F912F910F900BBE0B
:102DF0000F900FBE0F901F90189580E197E290936F
:102E0000A9008093A800E1EAF0E088E08083808157
:102E100082608083E2E7F0E08081826080830895B1
:102E20009B01AC018091560390915703A0915803E8
:102E3000B0915903820F931FA41FB51F80935603AF
:102E400090935703A0935803B09359038091620362
:102E50008460809362032FB7F894809181039091EE
:102E60008203826090938203809381032FBF089531
:102E70008FB7F89460915503109255038FBF70E09F
:102E800080E090E02AE030E040E050E00E94C0B7EF
:102E90009B01AC018091560390915703A091580378
:102EA000B0915903820F931FA41FB51F809356033F
:102EB00090935703A0935803B09359038217930735
:102EC000A407B50728F4809154038F5F80935403BF
:102ED00008950E94381760915603709157038091AE
:102EE00058039091590308951F920F920FB60F92B5
:102EF00011242F938F939F93809155038F5F80931D
:102F00005503809162038460809362032FB7F89425
:102F100080918103909182038260909382038093D9
:102F200081032FBF9F918F912F910F900FBE0F9014
:102F30001F901895FC01A385B0E011961C92A38503
:102F4000B0E08585968515969C938E93149784851D
:102F5000A385882349F4B0E082E08C93A385B0E098
:102F600012961C92129707C0B0E01C92A385B0E0A5
:102F7000828912968C93A385B0E012968C91129759
:102F80009485892B12968C93A385B0E012968C9130
:102F900012979785892B12968C93A385B0E0129691
:102FA0008C9112979089892B12968C93A385B0E00F
:102FB00012968C9112979189892B12968C93A385E6
:102FC000B0E08C9180688C93A385B0E011968C91D1
:102FD0001197886111968C931197E385F0E08181B8
:102FE0008068818308951F920F920FB60F920BB6DF
:102FF0000F9211242F933F934F935F936F937F937F
:103000008F939F93AF93BF93EF93FF93E1ECF0E027
:1030100080818F7D808380E00E941510FF91EF9169
:10302000BF91AF919F918F917F916F915F914F91E0
:103030003F912F910F900BBE0F900FBE0F901F90DE
:1030400018951F920F920FB60F920BB60F92112484
:103050002F933F934F935F936F937F938F939F93A0
:10306000AF93BF93EF93FF93E1ECF0E080818F7B10
:10307000808381E00E941510FF91EF91BF91AF9185
:103080009F918F917F916F915F914F913F912F9180
:103090000F900BBE0F900FBE0F901F9018951F92B0
:1030A0000F920FB60F920BB60F9211242F933F93EE
:1030B0004F935F936F937F938F939F93AF93BF9340
:1030C000EF93FF938091C0006091C6008C7131F442
:1030D00080EC0E94331082E00E941510FF91EF9166
:1030E000BF91AF919F918F917F916F915F914F9120
:1030F0003F912F910F900BBE0F900FBE0F901F901E
:1031000018951F920F920FB60F920BB60F921124C3
:103110002F933F934F935F936F937F938F939F93DF
:10312000AF93BF93EF93FF93E9ECF0E080818F7D45
:10313000808383E00E941510FF91EF91BF91AF91C2
:103140009F918F917F916F915F914F913F912F91BF
:103150000F900BBE0F900FBE0F901F9018951F92EF
:103160000F920FB60F920BB60F9211242F933F932D
:103170004F935F936F937F938F939F93AF93BF937F
:10318000EF93FF93E9ECF0E080818F7B808384E014
:103190000E941510FF91EF91BF91AF919F918F9178
:1031A0007F916F915F914F913F912F910F900BBE47
:1031B0000F900FBE0F901F9018951F920F920FB691
:1031C0000F920BB60F9211242F933F934F935F935F
:1031D0006F937F938F939F93AF93BF93EF93FF93DF
:1031E0008091C8006091CE008C7131F488EC0E940F
:1031F000331085E00E941510FF91EF91BF91AF91C0
:103200009F918F917F916F915F914F913F912F91FE
:103210000F900BBE0F900FBE0F901F901895F9994D
:10322000FECF07B600FCFDCF72BD61BD40BD9FB7AC
:10323000F8948FBBF99A9FBF08951F920F920FB613
:103240000F9211242F938F939F93FB98809161038A
:103250008460809361032FB7F894809181039091EB
:103260008203826090938203809381032FBF9F919A
:103270008F912F910F900FBE0F901F9018959091E6
:1032800074038170880F9C7F982B90937403E9E3FB
:10329000F1E080818D7F80838091620381608093E3
:1032A00062032FB7F894809181039091820382602A
:1032B00090938203809381032FBF089580917403BC
:1032C00080FF48C08091A1008D7F8093A1008091F4
:1032D0005A0390915B03A0915C03B0915D0300974A
:1032E000A105B10551F40E949B1560935A03709398
:1032F0005B0380935C0390935D038091740383FD73
:1033000002C00E94EF1FF999FECF8091740388607C
:10331000809374039091390192609093390182FFF8
:1033200005C087E083BF889513BE0AC00E9445157B
:1033300085E083BF889513BE0E9421150E94051B5E
:1033400084E48093B4008091B60090E08F71907017
:103350000097C9F708958091740381608093740386
:103360008091B60090E08F7190700097C9F78091BE
:1033700062038860809362032FB7F8948091810381
:1033800090918203826090938203809381032FBF88
:1033900080E090E008950E949B1520915A0330919F
:1033A0005B0340915C0350915D03621B730B840BC4
:1033B000950B10925A0310925B0310925C031092CB
:1033C0005D030E9410178091A10082608093A1008C
:1033D000809141018F718830D9F780917403877F84
:1033E000809374030E94EB1F8091740381FD07C0DA
:1033F000E0916503F0916603309709F0099508950F
:10340000A1E0B0E0E6E0FAE10C9431B8E0914903C4
:10341000F0914A03858180937C008381882329F47D
:1034200080917C00806280937C00E0914903F09160
:103430004A03648170E06F5C784FCE01019641E0F1
:1034400050E00E94C3B88981806880937A002196F9
:10345000E2E00C944DB81F920F920FB60F920BB68C
:103460000F9211242F933F934F935F938F939F93CA
:10347000AF93BF93EF93FF93E0914903F0914A0319
:10348000838126813781882349F48081918140910D
:103490007900280F391FD9014C930EC0808191818A
:1034A0004091780050917900DC01AA0FBB1FA20F58
:1034B000B31F11965C934E93019691838083E091A4
:1034C0004903F0914A032081318180859185281735
:1034D0003907B1F480917A00877F80937A008091D8
:1034E00061038260809361032FB7F8948091810318
:1034F00090918203826090938203809381032FBF17
:10350000FF91EF91BF91AF919F918F915F914F91FB
:103510003F912F910F900BBE0F900FBE0F901F90F9
:103520001895A0E0B0E0E7E9FAE10C9421B810E0CA
:10353000C2E8DBE800E892E8692E9BE8792E812C4E
:10354000912C82E8A82E8BE8B82E0E94C5042BE8A7
:103550008338920718F16E01EE24FF249C0140E0AD
:1035600050E022583B4840405040C216D306E40683
:10357000F5064CF4123039F4809166008150809346
:103580006600000036C0209166002150209366003E
:103590000000EC01C258DB4811E028C02BE882385B
:1035A000920739F16E01EE24FF249C0140E050E0C7
:1035B00013012401221A330A440A550AC214D304FF
:1035C000E404F5044CF4113039F4809166008F5F07
:1035D0008093660000000DC0209166002F5F20934D
:1035E00066000000E501C81BD90B12E0015009F08C
:1035F000ACCFCDB7DEB7E2E10C943DB80E94B81E67
:10360000882311F40E94911A0895CF93DF93C8E89C
:10361000D3E188EC0E94BD042197D9F70E94FE1ADD
:10362000DF91CF9108958091620382FF0BC09FB715
:10363000F894809162038B7F809362039FBF0E9406
:103640007F0EA9C080915E0380FF0BC09FB7F894E6
:1036500080915E038E7F80935E039FBF0E94A71FB1
:103660009AC080915E0381FF0BC09FB7F894809150
:103670005E038D7F80935E039FBF0E94FE158BC00B
:103680008091620380FF0BC09FB7F8948091620322
:103690008E7F809362039FBF0E94CB197CC0809174
:1036A000620383FF0BC09FB7F89480916203877F0A
:1036B000809362039FBF0E945E196DC0809160037A
:1036C00086FF0BC09FB7F894809160038F7B809337
:1036D00060039FBF0E94851D5EC08091600387FFCD
:1036E0000BC09FB7F894809160038F77809360033D
:1036F0009FBF0E94DE0F4FC08091610381FF0BC00E
:103700009FB7F894809161038D7F809361039FBF81
:103710000E94161540C08091610382FF0BC09FB7C5
:10372000F894809161038B7F809361039FBF0E9417
:10373000D61231C08091610380FF0BC09FB7F8940F
:10374000809161038E7F809361039FBF0E94D41D8F
:1037500022C08091620381FF0BC09FB7F8948091D3
:1037600062038D7F809362039FBF0E94191D13C067
:103770008091620384FF0FC09FB7F8948091620329
:103780008F7E809362039FBFE091BC0CF091BD0CD3
:10379000309709F0099580915E03882381F4809128
:1037A0005F03882361F480916003882341F4809152
:1037B0006103882321F480916203882361F02FB78D
:1037C000F8948091810390918203826090938203A8
:1037D000809381032FBF0895E0916303F091640308
:1037E00087E0828380E98093BC00809162038260DD
:1037F000809362032FB7F8948091810390918203A4
:10380000826090938203809381032FBF0895E0919B
:103810006303F09164038281823031F082818330CE
:1038200019F08281843019F48581880F06C0828165
:10383000853049F48581880F8F5F8093BB0085E8D0
:103840008093BC0008950E94EC1B0895E0916303EF
:10385000F09164032081318186819781281739078F
:1038600080F480819181A085B185A80FB91F2C912A
:103870000196918380832093BB0085E88093BC00F0
:10388000089586E0828384E98093BC00809162037E
:103890008260809362032FB7F894809181039091A6
:1038A0008203826090938203809381032FBF0895E7
:1038B000E0916303F091640383859485A585B685C3
:1038C000208131812150304031832083208131811A
:1038D00043E0220F331F4A95E1F704C0B695A79540
:1038E000979587952A95D2F78093BB0085E88093BA
:1038F000BC0080819181009741F48281823019F46B
:1039000084E08283089585E082830895E0916303D3
:10391000F09164038281843019F40E94261C08957A
:103920008281823019F08281833019F40E94581C00
:1039300008958281853021F485EA8093BC00089542
:103940000E94EC1B0895E0916303F091640382816F
:103950008530A1F4868197818130910521F4809191
:10396000BC008F7B03C08091BC0080648093BC004E
:103970008091BC0085688093BC0008950E94EC1B78
:103980000895E0916303F09164039281953011F5FD
:1039900020813181A085B185A20FB31F8C932F5F49
:1039A0003F4F318320832081318186819781019728
:1039B0002817390720F48091BC00806403C08091EF
:1039C000BC008F7B8093BC008091BC008568809395
:1039D000BC0008950E94EC1B0895E0916303F091F0
:1039E00064039281953011F520813181A085B185E4
:1039F000A20FB31F8C932F5F3F4F3183208386E04C
:103A0000828384E98093BC0080916203826080930A
:103A100062032FB7F89480918103909182038260B2
:103A200090938203809381032FBF08950E94EC1B23
:103A30000895A0916303B09164031F96ED91FC91EA
:103A400050973097A1F012968C911297863049F4D6
:103A50008091BC0084FDFCCF81E012968C9312977C
:103A600004C081E012968C9380E00995089581E06E
:103A700012968C931297089523982B981CBC089546
:103A8000E0917803F09179032681378184819581D3
:103A90002817390769F0A48DB58D84819581019629
:103AA0009583848384819581A80FB91F8C918EBDE5
:103AB0000895E0917803F0917903309719F40E940A
:103AC0003C1D089542855385228533852F5F3F4FE6
:103AD00033872287228533852A30310511F41386F6
:103AE000128662857385208531856217730719F404
:103AF0005387428708954254534FDA018C9384854B
:103B0000958501969587848708952FB7F894E0915D
:103B10007803F0917903848595852FBF009731F064
:103B200005A0F6A1E02D309709F009950895ADE0C4
:103B3000B0E0EDE9FDE10C9431B8FC01009739F1FA
:103B40008481958190936603809365038081918140
:103B5000A281B3818F839887A987BA8781E08B87F9
:103B60001D861C86CE0101960E946E1F2FEF8F3F8F
:103B7000920781F02FEF8D3F920761F00E94AB1901
:103B80002FEF8F3F920749F42DEF3FEF08C02FEF43
:103B90003FEF05C02EEF3FEF02C020E030E0C9014B
:103BA0002D96E2E00C944DB8A0E1B0E0EAEDFDE125
:103BB0000C942EB80091750310917603D8011296DB
:103BC0008C911297823029F08430C9F0882331F02B
:103BD00074C070E060E088E0F82E6BC080E090E098
:103BE000D8011396ED91FC911497E80FF91F2081ED
:103BF00020933F0101968031910591F75EC01092AC
:103C00003C0180E010923E018F5F8031D9F78091B6
:103C10003C01806880933C0180913D0180FFFCCF96
:103C2000FE013196CE014196DF0120913F012D9397
:103C3000A817B907D1F7219120933F01E817F90799
:103C4000D1F7C7CFF8018281823019F410923C017C
:103C500002C0F0923C01872F90E0AC01405F5F4FC3
:103C60009C01D8011396ED91FC911497E20FF31F7C
:103C7000E081E0933E012F5F3F4F2417350789F71E
:103C800020913C01206820933C0120913D0120FFC0
:103C9000FCCF20913E01D8011396ED91FC91149731
:103CA000E80FF91F208301968417950791F7705F3D
:103CB0006F5FF8018581681728F285E793E00E941D
:103CC000F31F8091750390917603009789F080919E
:103CD00061038160809361032FB7F8948091810321
:103CE00090918203826090938203809381032FBF1F
:103CF000D8011696ED91FC91179709956096E5E02D
:103D00000C944AB88FB390E0FC01E270F07081FD32
:103D1000F9CF8FB7F89499E090935700E4918FBF53
:103D2000EF70E23019F41092770303C081E08093C2
:103D300077038FB7F89490917703992349F45F93B1
:103D400050E85093610050E0509361005F9108C0CB
:103D50005F9350E85093610051E0509361005F9190
:103D60008FBF80917703882311F40E94051B08956B
:103D70008091770308951F920F920FB60F920BB6A2
:103D80000F9211242F933F934F935F936F937F93E1
:103D90008F939F93AF93BF93EF93FF938091B9005D
:103DA00090E0887F90708832910569F189329105A1
:103DB0009CF48031910521F18131910534F4009713
:103DC00029F18830910589F51BC088319105D9F01A
:103DD0008032910551F51AC088349105B9F08934C3
:103DE00091053CF48033910589F080349105E9F424
:103DF00010C08035910581F088359105B1F411C06E
:103E00000E94071C12C00E94861C0FC00E94EC1B5F
:103E10000CC00E94A31C09C08091BB000E94C11C61
:103E200004C08091BB000E94ED1CFF91EF91BF91F7
:103E3000AF919F918F917F916F915F914F913F9142
:103E40002F910F900BBE0F900FBE0F901F901895E3
:103E50001F920F920FB60F920BB60F9211242F9351
:103E60003F934F935F936F937F938F939F93AF9302
:103E7000BF93EF93FF93DF93CF930F92CDB7DEB74E
:103E80008EB589830E94401D89810E94591D8091B1
:103E900060038064809360032FB7F894809181035E
:103EA00090918203826090938203809381032FBF5D
:103EB0000F90CF91DF91FF91EF91BF91AF919F91C3
:103EC0008F917F916F915F914F913F912F910F90C3
:103ED0000BBE0F900FBE0F901F901895CF93DF93DE
:103EE000EC01009741F10E94F9152E813F81488530
:103EF00059850E94C0B728EE33E040E050E00E94B0
:103F0000FFB72115310541055105C1F080917403BA
:103F100082FD17C0846080937403E7E6F3E08DE0D0
:103F2000099001928150E1F7CA01B9010E9466151A
:103F300020E030E008C02FEF3FEF05C02EEF3FEF4D
:103F400002C02DEF3FEFC901DF91CF91089580911D
:103F5000740382FF24C0909171039923B1F4E0911E
:103F60007203F0917303309709F0099580917403FF
:103F700082FF15C060916D0370916E0380916F0395
:103F8000909170030E94661508958B7F809374034F
:103F9000E0917203F0917303309709F00995089549
:103FA0009091D811913011F490937A039091D81197
:103FB000992379F491E0803809F090E0979599275A
:103FC0009795809144018F77892B8093440180E0FD
:103FD000089581E0089580E80E94D01F089580E050
:103FE0000E94D01F0895FC012081318121153105E7
:103FF00039F0D9018D919C9111979183808302C0F2
:1040000020E030E0C9010895FC0161157105A9F0B7
:10401000A081B181A617B70739F48D919C911197B2
:104020009183808314C0DC01109749F08D919C919D
:10403000119786179707B9F704C080E0089580E0CC
:104040000895FB018081918111969C938E9381E06C
:104050000895DC01ED91FC91119706C0E617F70772
:1040600039F00190F081E02D3097C1F780E008959C
:1040700081E008950F931F93CF93DF93EC018B01A1
:104080000E942920F80111821082A881B98110971D
:1040900021F41983088309C0DC018D919C9111974B
:1040A0000097D1F71196FC93EE93DF91CF911F917A
:1040B0000F910895A0E0B0E0E0E6F0E20C9429B89A
:1040C000D82E7B0190E08C0123E0169507952A9568
:1040D000E1F78770907021E030E002C0220F331FBB
:1040E0008A95E2F7C22EF801E558FC4F80818223C1
:1040F000C9F0C0917F03D091800312C0FE01E00F90
:10410000F11F82818C2129F0EE81FF818D2DB70175
:10411000099598818981A92EE5015E01B82EE501F6
:10412000209761F7CDB7DEB7EAE00C9445B890E090
:10413000FC0133E0F695E7953A95E1F7E558FC4F39
:10414000208130E08770907041E050E002C0440F61
:10415000551F8A95E2F72423352381E02115310587
:1041600009F480E0089590E09C0143E0369527959E
:104170004A95E1F7620F731F8770907021E030E07D
:1041800002C0220F331F8A95E2F7FB01928192232E
:1041900081E009F480E008951F93CF93DF93182FF7
:1041A000EB010E94B320882359F58FE793E0BE010D
:1041B0000E942920882349F41A821B821C821D82B6
:1041C0008FE793E0BE010E943A20812F90E0FC012E
:1041D00063E0F695E7956A95E1F78770907021E0C6
:1041E00030E002C0220F331F8A95E2F7CE0FDF1FA7
:1041F0008A81822B8A83E558FC4F8081822B8083C1
:10420000DF91CF911F91089580E090E061E070E030
:104210009B01082E02C0220F331F0A94E2F740913F
:104220008103509182034223532341155105C9F064
:104230006FB7F89440918103509182032095309597
:104240002423352330938203209381036FBFFC0125
:10425000EE0FFF1FE756FD4F0190F081E02D09950D
:1042600004C001968B30910599F62091810330911D
:10427000820381E02115310509F480E008950E9450
:10428000042108950E94E4B50E94BAA62FB7F894BD
:104290008091810390918203806190938203809347
:1042A00081032FBF0895FC01808110920E0DE091D3
:1042B0000F0DF091100D0995089510920E0D0895AF
:1042C0008091620E80718093620E1092550F089556
:1042D00023E830E130937F1020937E10E091120D9F
:1042E000F091130DDC018C9109950895089521E05A
:1042F00030E002C0220F331F8A95E2F78091AF02AF
:104300009091B002822B932B9093B0028093AF02D6
:104310002FB7F894809181039091820380619093EC
:104320008203809381032FBF08958091F90C9091AF
:10433000FA0C009799F08091FD0C9091FE0C00977B
:1043400079F488EB91E29093FE0C8093FD0C81E070
:104350008093FB0C84E00E94772108951092FB0C5F
:1043600008951092FE0C1092FD0C0E949521089564
:10437000E091F90CF091FA0C882319F42EEF3FE349
:1043800002C023E830E130937F1020937E10818BB0
:104390008BE08093FB0C84E00E9477210895E091EC
:1043A000170DF091180D80831092180D1092170DB3
:1043B00021813281CF01F901099583E00E947721A3
:1043C0000895E091190DF0911A0D808310921A0D45
:1043D0001092190D21813281CF01F901099583E0F5
:1043E0000E947721089521E030E002C0220F331FA0
:1043F0008A95E2F7209530958091AF029091B002B6
:10440000822393239093B0028093AF020895809308
:10441000D00F882361F48091570F9091580F009727
:1044200019F082E00E94772181E00E9477210895AF
:1044300080E00E940722089580E00E9407220895EC
:1044400080E00E9407220895FC0180818093870FFD
:1044500082E00E94072281E00E947721089580E097
:104460000E9407220895CF93DF93DC01E091CE0FE5
:10447000F091CF0FEF01CC57DF4F8C91888384816F
:10448000833049F08630D1F08230F9F48C91882362
:10449000D1F484E019C08C918823A9F48681978196
:1044A0008833910581F4818592852FEF883F9207AB
:1044B00050F086A98E3F39F488E006C08C9188239D
:1044C00011F485E001C087E084831092CF0F109231
:1044D000CE0F80E00E940722DF91CF910895809354
:1044E000F10F882319F481E00E9477210895EF925B
:1044F000FF920F931F93CF93DF93C091570FD091EB
:10450000580F07E01DE025C02C818A819B81009710
:1045100099F42430B9F48E819F81FE01EC57FF4F4E
:104520008630910511F4108302C082E080830C83F1
:1045300082E00E94772106C02250233018F40197B0
:104540009B838A8398818981E92EE7017E01F82E79
:10455000E7012097C9F6CDB7DEB7E6E00C9449B87D
:10456000A8E0B0E0E6EBF2E20C9431B819821A82CE
:104570001B821C821D821E821F821886CE0101961C
:104580000E94D48F8091FF0C8D7F8093FF0C289622
:10459000E2E00C944DB81F93182F1092FB0CE091A1
:1045A000FD0CF091FE0C0995112329F48EE060E0DA
:1045B00070E00E945A201F910895882341F48EEFE5
:1045C0009FE390937F1080937E1085E007C083E87F
:1045D00090E190937F1080937E1084E060E070E023
:1045E0000E945A200E94B121089584E08093FB0C20
:1045F0008091000D81508093000D8BEF9CE0209105
:10460000FC0C2093D20CFC01F1972091680B2083C5
:104610002091690B218320916A0B228320916B0BDF
:10462000238320916C0B248320916D0B2583209193
:104630006E0B268320916F0B2783E8E6FBE05291F7
:104640004291329122912093D30C3093D40C409319
:10465000D50C5093D60C22A52093D70C22E538E335
:104660003093DA0C2093D90CC3970E942C900895B4
:1046700081E260E07DE00E94200785E08093FB0CF2
:1046800082E08093FC0C0E94F522089580E094E083
:1046900090937F1080937E1080E060E070E00E9435
:1046A0005A200E94382308950E94F52208958EE230
:1046B0009DE00E94F00E0895A4E0B0E0E2E6F3E28F
:1046C0000C9431B880913D0D882319F189E1BE0128
:1046D0006F5F7F4F0E94200789819A81AB81BC81E7
:1046E0008093340D9093350DA093360DB093370D14
:1046F00081E08093380D87E894E290933A0D80939F
:10470000390D8EE29DE00E94F00E8EE29DE00E9447
:10471000C40E2496E2E00C944DB8CF93DF9382E070
:104720000E94F3211092580F1092570F81E00E94BF
:10473000F3211092CF0F1092CE0F1092D00F8DE276
:10474000E2EFFFE0DF011D928A95E9F7EFE1F0E18A
:104750008FE5DF011D928A95E9F7F0931510E0933C
:1047600014101092F10F8FEF8093920DC9E5DFE0E6
:10477000CE010E94F00E1092630F87E792E29093B1
:10478000650F8093640F80E890E0A0E0B0E0809334
:104790005F0F9093600FA093610FB093620FCE01F3
:1047A0000E94C40EDF91CF91089583E08093FB0CAB
:1047B0008091640B9091650BA091660BB091670B93
:1047C0008093F10C9093F20CA093F30CB093F40C43
:1047D00080918E0B8093F50C8FE798E39093F70C04
:1047E0008093F60C88EC9CE00E949E8A089588E0F5
:1047F0008093FB0C8091900B8093CA0C82ED9BE21E
:104800009093CC0C8093CB0C88EC9CE00E941DA272
:104810000895EF92FF92CF93DF930E94150FE22E3F
:10482000E7017E01F32E0E94E652FC0120813181D6
:1048300082819381282739272E253F2584819581E0
:10484000282739278681978128273927C901DF91B1
:10485000CF91FF90EF900895FC01828193810097A2
:1048600011F40E9409240E94B8B88AE890E10E94DD
:10487000C40E089580917E1090917F1095FF05C021
:1048800080E890E10E94865308950E9409240E94C6
:10489000B8B88AE890E10E94C40E08957093130D91
:1048A0006093120D8093D20C8091810B8093D30C76
:1048B00088E691E29093D50C8093D40C88EC9CE030
:1048C0000E94004E0895A6E0B0E0E9E6F4E20C9400
:1048D00031B880E00E94CF2181E080931B0D809150
:1048E000270DBE016F5F7F4F823011F48AE101C056
:1048F0008BE10E9420078CEB94E29E838D83CE0196
:1049000001960E948A4E2696E2E00C944DB8809162
:104910003C0D882399F480913D0D882379F0109205
:104920002A0D88ED98E390932C0D80932B0D88E24F
:104930009DE00E94DFA581E080933C0D0895FC017D
:1049400080818823C1F48091270D823031F00E944C
:10495000B2A5882311F00E94A0A510921B0D809192
:10496000190D90911A0D009721F080E00E94E1212D
:1049700008950E94F20608958091270D823059F41F
:104980008091260D882339F40E94872410921B0DF4
:104990000E94F20608958FEF9FEFAFEFB0E0809393
:1049A0001F0D9093200DA093210DB093220D8FE940
:1049B00094E29093240D8093230D8CE19DE00E945E
:1049C0004E5908952091270D223029F480913C0DF5
:1049D000882309F071C08091170D9091180D0097F0
:1049E000C9F180917E1087FF0FC00E94A4598823CF
:1049F00059F40E9476A5882339F40E94124E882328
:104A000019F481E090E002C080E090E020911B0D5D
:104A1000222311F080E803C0009721F484E00E9473
:104A2000CF2108958091270D823049F48091260D81
:104A3000882329F40E9457230E946324089510922A
:104A40001F0D1092200D1092210D1092220D8DE558
:104A500095E226C08091190D90911A0D009761F191
:104A600080911B0D882329F1223061F48091260D5D
:104A7000882341F40E94872410921B0D80E00E943D
:104A8000E12108958FEF9FEFAFEFB0E080931F0D0E
:104A90009093200DA093210DB093220D8FE994E205
:104AA0009093240D8093230D8CE19DE00E944E593C
:104AB000089580E80E94E1210895FC018081882307
:104AC00029F40E94A9A50E94632408950E94CF2181
:104AD0000895A0E0B0E0EFE6F5E20C942BB8C091A9
:104AE000570FD091580F62E0E62E54E0F52E17E0F4
:104AF00001E0D2C08C81873028F4853058F58823B6
:104B000039F0C3C08730C9F1883009F0BEC01DC07C
:104B100080917E1090917F1092FF0EC08091CE0FF9
:104B20009091CF0F009709F0B0C00C83D093CF0FB6
:104B3000C093CE0F81E006C01C83FE01EC57FF4FEF
:104B4000108382E00E947721A0C0D093610EC093B1
:104B5000600E9BC0853011F4FC8201C0EC82FE0126
:104B6000E858FF4F0190F081E02D309709F48DC097
:104B7000CE0186589F4F099588C087E59FE0BE010A
:104B80000E9404208E819F8181309105C1F4FE0135
:104B9000EC57FF4F8081882391F4DE01A357BF4F6C
:104BA000FE01EB57FF4F0081118122813381448147
:104BB0005581668177818D919C910E945BA0FE0159
:104BC000E858FF4F80819181009709F454C08E818D
:104BD0009F818430910509F044C0CE0188579F4FD2
:104BE000FE01E257FF4F2081FE01EF55FF4F10817C
:104BF000293088F4622F70E0660F771F695F7F4F5E
:104C0000680F791FFB0110811A3008F019E0412F5D
:104C1000440F4F5F1EC0BC01675E7F4F2930C1F05B
:104C2000223170F4622F70E0660F771F695F7F4F4B
:104C3000680F791F12E1121B412F440F4F5F02C012
:104C400040E010E0FE01E257FF4F29E0208301C061
:104C500040E0499650E00E94E2B8FE01EF55FF4F58
:104C60001083FE01E858FF4F0190F081E02DCE0146
:104C700086589F4F09958091570F9091580F009734
:104C800071F082E00E9477210AC098818981C92E43
:104C9000E6016E01D82EE601209709F02BCFCDB7A3
:104CA000DEB7E8E00C9447B8AAE2B0E0EAE5F6E245
:104CB0000C9431B8843061F0853018F4882331F0D9
:104CC00026C0853039F0863011F506C080E905C070
:104CD00081E903C08FE801C08EE8898380917B0B56
:104CE00090917C0B9B838A838091700B9091710BC8
:104CF00098878F838091720B8E8380917D0B90912A
:104D00007E0B9D838C83CE0101960E94E906AA96B4
:104D1000E2E00C944DB8AAE2B0E0E1E9F6E20C94CE
:104D200031B8813019F0883061F403C080E689839E
:104D300004C085E989837B836A83CE0101960E9442
:104D4000E906AA96E2E00C944DB86093570D709373
:104D5000580D8093590D90935A0D40935B0D80919F
:104D6000550F813011F41092910D85EF96E39093D9
:104D70005D0D80935C0D8EE39DE00E948E8A089508
:104D80008091910D882381F081508093910D6091E5
:104D9000570D7091580D8091590D90915A0D409179
:104DA0005B0D0E94A52608951092550F089510924C
:104DB000770D8091920D8093780D88EE96E2909316
:104DC000810D8093800D84E79DE00E945A590895DB
:104DD000CF93DF93EC018881882399F48091930D20
:104DE0000E940A9080E162E97DE00E944E07809176
:104DF000920D0E94F48F8091920D8093720B0E940D
:104E000003410E9400902091700B3091710B82172A
:104E1000930779F4E091600EF091610E818592859F
:104E20002FEF883F920728F087E0848382E00E947A
:104E300077218FEF8093920D8881882329F486E073
:104E400060E070E00E945A20DF91CF910895EF92C8
:104E5000FF920F93DF93CF93CDB7DEB7AA970FB62C
:104E6000F894DEBF0FBECDBF7B01823019F08330D6
:104E7000B1F519C0FB0122813381448155816681DE
:104E800077818085918501E00E940AA2882339F507
:104E900082E98983DE011296F7018BE001900D9281
:104EA0008150E1F718C0FB01228133814481558193
:104EB000668177818085918500E00E940AA288231F
:104EC00071F083E98983DE011296F7018BE001908E
:104ED0000D928150E1F7CE0101960E94E906AA9653
:104EE0000FB6F894DEBF0FBECDBFCF91DF910F910B
:104EF000FF90EF900895CF93DF93CDECD2E080E068
:104F0000BE010E94CC2084E0BE010E94CC2085E03E
:104F1000BE010E94CC2086E0BE010E94CC20C5ECE0
:104F2000D2E082E0BE010E94CC2083E0BE010E945C
:104F3000CC2087E0BE010E94CC20CDEBD2E081E006
:104F4000BE010E94CC2088E0BE010E94CC2089E0F6
:104F5000BE010E94CC208CE0BE010E94CC20DF91DB
:104F6000CF910895A8E0B0E0E8EBF7E20C942FB8F9
:104F700010927F1010927E100E941B070E94E65232
:104F8000FC01708181816281538144813581268158
:104F9000978179838A836B835C834D833E832F83E0
:104FA0009887872B862B852B842B832B822B892B11
:104FB00049F48E010F5F1F4FC8010E94AAB6C801B5
:104FC0000E94E9521092130D1092120D1092FB0CD8
:104FD0001092FA0C1092F90C1092140D10920E0D02
:104FE0001092100D10920F0D1092180D1092170DB7
:104FF00010921A0D1092190D10921B0D8091270D11
:10500000823021F410923D0D10923B0D0E947B27BF
:105010000E94E94D83E890E190937F1080937E1089
:105020002FB7F894809181039091820394609093BC
:105030008203809381032FBF8AE890E10E94F00EE3
:1050400081E08093941088EE93E0A0E0B0E080933C
:10505000901090939110A0939210B09393108AE3C4
:1050600094E290939610809395108CE294E2909342
:105070008910809388100E943A242896E4E00C94CA
:105080004BB8ABE0B0E0E7E4F8E20C9431B8FC01D7
:10509000808191819A83898382818B8383818C83B0
:1050A00084818D8385818E8386818F8387818887A4
:1050B0008085898781858A8782858B8782E0BE018A
:1050C0006F5F7F4F0E945A202B96E2E00C944DB800
:1050D0008CE166E27DE00E94200780913D0D8823EF
:1050E00059F48091260D882349F481E080933D0D89
:1050F0000E94872480E0089580E8089580E808955C
:1051000080917F0B8770823011F40E94682880E0C4
:105110000E94CB22089580913D0D882331F010929A
:105120003D0D0E94572380E0089580E80895A1E096
:10513000B0E0EDE9F8E20C9431B820910F0D309118
:10514000100D2115310599F526EC39E23093100D3B
:1051500020930F0D6093110D91E090930E0D90919F
:105160007F0B9770923029F469830E948B2880E02E
:1051700069811092CA0C1092CB0C1092CC0C109238
:10518000CD0C1092CE0C1092CF0C1092D00C10922D
:10519000D10C8093D20C6093D30C80E799E290936A
:1051A000D50C8093D40C88EC9CE00E94CC90219686
:1051B000E2E00C944DB8A1E0B0E0E1EEF8E20C942E
:1051C00031B889830E94B1218981882361F48EEFEF
:1051D0009FE390937F1080937E1085E060E070E005
:1051E0000E945A200AC083E890E190937F10809338
:1051F0007E1081E060E00E9497282196E2E00C9406
:105200004DB8E0911410F0911510DF011196CF0107
:1052100009962D91222321F4A817B907D1F73AC096
:1052200080910E0D882391F583E080930E0D81818E
:105230008093CA0C82818093CB0C83818093CC0CA9
:1052400084818093CD0C85818093CE0C8681809360
:10525000CF0C87818093D00C80858093D10C818581
:1052600082958695869581708093D20C8185881F62
:105270008827881F8093D30C8DE591E29093D50CFD
:105280008093D40C88EC9CE00E94CC9080E00E943B
:10529000072208956185862F82958695869583706D
:1052A000661F6627661F81700E949728EFCF809344
:1052B000110D82E080930E0D80917F0B87708230FC
:1052C00011F40E948B280E94B02283E591E2909312
:1052D000CE0C8093CD0C88EC9CE00E940C4E08957F
:1052E00010920E0D8091110D0E9457290895ABE088
:1052F000B0E0EDE7F9E20C9431B8FC0180917E104A
:1053000086FF34C0B081A18172816381548145815F
:10531000368127818B2F8A2B872B862B852B842BFD
:10532000832B822B89F4808520910F0D3091100DF5
:1053300021153105D9F426EC39E23093100D209374
:105340000F0D0E94572912C08EEF9FEF9A83898319
:10535000BB83AC837D836E835F83488739872A87CD
:1053600083E0BE016F5F7F4F0E945A202B96E2E0E0
:105370000C944DB80E948D230E94602180917F0B78
:105380008770823011F40E948B2808950E9460215A
:105390000E948D238091110D882389F18091FD0C4D
:1053A0009091FE0C009759F58DED92E29093FE0CD2
:1053B0008093FD0C80917F0B87708150823068F460
:1053C00080E094E090937F1080937E1080E060E016
:1053D00070E00E945A200E94382380917F0B8770D2
:1053E000D9F480E094E090937F1080937E1084E065
:1053F00060E070E00E945A200E94D5230DC00E94F8
:10540000BA2983E890E190937F1080937E1084E026
:1054100060E070E00E945A2010920E0D1092100D64
:1054200010920F0D0895BC0189EF9CE00E943A2074
:105430000E94952108954091AF025091B00241150C
:105440005105B1F180E090E061E070E09B01082E31
:1054500002C0220F331F0A94E2F7F901E423F52377
:10546000309711F1242735273093B0022093AF02F3
:10547000FC01EE0FFF1FEF54FD4F0190F081E02D76
:1054800009958091AF029091B002009789F02FB7F3
:10549000F8948091810390918203806190938203BC
:1054A000809381032FBF089501968630910571F690
:1054B00008950F931F93CF93DF93EC018E8D9F8DF3
:1054C00097FF7DC020E88833920709F478C0E09107
:1054D000570FF091580F6FC0AAA1BBA19C91858175
:1054E000981709F064C08481823041F486819781E5
:1054F0008630910509F484C083E00AC0843009F045
:1055000056C0868197818630910509F47BC087E07B
:1055100084838E85823069F4DF01A658BF4F1C92C8
:10552000DF01A558BF4F8F85988911969C938E9364
:1055300027C0833029F5DF01A658BF4F81E08C9347
:10554000DF01A558BF4F89898C938A8911968C9366
:1055500011978B8912968C9312978C8913968C9342
:1055600013978D8914968C9314978E8915968C9326
:1055700015978F8916968C931697888D17968C930E
:10558000AF014D575F4F87E4DA011D928A95E9F725
:1055900028A139A12834310510F027E430E06AA1B0
:1055A0007BA1CA01A9010E94D9B882E026C09081DE
:1055B0008181E92FF82F309709F08ECF25C0809197
:1055C000F10F882309F50FE110E16AA17BA148A141
:1055D00059A1C8010E94D9B8F801BD978DE2099080
:1055E00001928150E1F78FE190E190931510809343
:1055F000141081E00E946F2281E00E94772104C094
:1056000086E086CF85E084CFDF91CF911F910F9107
:105610000895EF92FF920F931F93CF93DF93EC01C6
:105620006091910B7091920B6115710559F40E9474
:10563000F78F7B018C010E9485A66E0D7F1D801F58
:10564000911F02C080E090E0E7E0969587957795FE
:105650006795EA95D1F77B836A831C8287E59FE093
:10566000BE010E943A2082E00E947721CDB7DEB7CA
:10567000E6E00C9449B8CF93DF932091620E25FFAA
:1056800008C020612093620E9093300F80932F0FFB
:105690003FC090932E0F80932D0F86E29CE2909353
:1056A000DC0E8093DB0E83E190E090936A0E809392
:1056B000690E8DEF9FEF90936D0E80936C0E0E949C
:1056C000E652FC01C7E9DEE080818093970E81817C
:1056D000898382818A8383818B8384818C83858182
:1056E0008D8386818E8387818F838091810B8093C8
:1056F0009F0E0E9431889093960E8093950E809114
:10570000620E80628093620ECE01C4970E94092BC4
:10571000DF91CF910895A0E5B0E0E1E9FBE20C94C0
:1057200031B8FC018081882369F480917F0B8770F8
:1057300061F08091FF0C81FD08C080E898E20E9432
:105740003B2B08C00E94CB2205C01B86CE010196D0
:105750000E948028C05BDF4FE2E00C944DB889E0E6
:105760008093FB0C8091FF0C81FF07C01092CD0C41
:105770008DEC9CE00E948B2B08958BE89BE290932C
:10578000CC0C8093CB0C88EC9CE00E94064E0895D4
:10579000FC018081882319F40E94AF2B08950E9498
:1057A000CB220895A1E0B0E0E8EDFBE20C9431B823
:1057B000FC018081882309F580917F0B877019F4A3
:1057C0000E94AF2B1CC08130D1F487E08093FB0C8A
:1057D0008091FF0C81FF06C01982CE0101960E94C4
:1057E000C82B0DC088EC9BE29093D70C8093D60C0D
:1057F00088EC9CE00E9466A502C00E94CB22219604
:10580000E2E00C944DB8A1E0B0E0E9E0FCE20C94D9
:1058100031B8883069F480917F0B8770823019F439
:105820000E94AF2B0BC0813049F40E94F72306C0C1
:1058300089830E94B02289810E94CB222196E2E0D6
:105840000C944DB888E00E94032C08952091620EBC
:105850002F7D2093620EE0912D0FF0912E0F309747
:1058600009F009958091620E84FF09C08F7E8093B4
:10587000620E80912F0F9091300F0E943B2B089564
:105880001F93182F28E330E830939D0D20939C0D33
:1058900082E080939E0D0E9400909093A00D8093D3
:1058A0009F0D20EC36E230930F0E20930E0E1093D6
:1058B000C80D86E99DE00E94092B1F910895ACE474
:1058C000B0E0E5E6FCE20C9423B88091D00F823082
:1058D00049F483E00E94072281ED9FE00E94F1409D
:1058E0000C94F036882311F00C94F0368091F10F6F
:1058F000813009F0AEC70E940722E1EDFFE080E2AF
:10590000DF011D928A95E9F7809110109091111096
:105910009C013F772F31310508F066C4A091141027
:10592000B0911510409100104330D9F43596209174
:1059300003102093D60F209104102183209105108D
:105940002283209106102383209107102483209125
:105950000810258320910910268320910A1027839F
:1059600008C020910110309102103093D50F209380
:10597000D40F4093D30F90689093E20F8093E10F80
:1059800026E83FE03093E70F2093E60F88E192E2AC
:105990009093EB0F8093EA0F8091E80F84628093DD
:1059A000E80F87E4F90111928A95E9F78C918093C9
:1059B000860F82E00E94072280E00E946F22E09121
:1059C0001010F0911110E631F10508F039C7EC51D3
:1059D000FF4F0C9458B8E0901410F09015102091DF
:1059E00001103091021080910B1090910C1028172B
:1059F000390759F1D70113962C91139714963C91BE
:105A0000149715964C91159716965C9116971796C4
:105A10006C91179718967C91189719968C911997F5
:105A20001A969C910E941D9E009779F0FC0120819E
:105A3000213011F0253049F4DC0111962C91119799
:105A4000223019F460E00E943C908BE00E94972085
:105A5000882309F1F70123813481458156816781CB
:105A600070858185928529833A834B835C836D831E
:105A70007E838F8398870E941D9E009761F0DC01D2
:105A80008C91813011F0853031F48BE0BE016F5F75
:105A90007F4F0E945A20F7010381148125813681AE
:105AA0004781508561857285818192810E945BA0CA
:105AB000C7C600911410109115100E94E652BC0147
:105AC000C801019648E050E00E94CCB8009749F127
:105AD000D80111962C91119712963C91129713961A
