:100000000C943C040C945C040C945C040C945C0410
:100010000C945C040C945C040C945C040C945C04E0
:100020000C945C040C945C040C945C040C945C04D0
:100030000C945C040C9451160C945C040C949A1669
:100040000C945C040C945C040C945C040C945C04B0
:100050000C945C040C945C040C945C040C945C04A0
:100060000C944A1F0C9471180C9415180C94431896
:100070000C945C040C944D1A0C943F190C945C0481
:100080000C945C040C945C040C945C040C945C0470
:100090000C94FF180C94A3180C94D1180C94DD1E2A
:1000A0000C945C040C945C040C9496170C9459B753
:1000B0000C945C040C945C040C945C040C945C0440
:1000C0000C945C040C945C040C945C040C945C0430
:1000D0000C945C040C945C040C945C040C945C0420
:1000E0000C945C040C945C040C945C040C945C0410
:1000F0000C94B6B70C945C040C945C040C94DEB7BE
:100100000C945C040C945C040C945C040C945C04EF
:100110000C945C040C945C040C945C040C945C04DF
:10012000670B160019008805D80017001A0C02008A
:100130001300230C01001400950C08001500E90BB6
:1001400001001600C90B08000000E30B01000100CC
:10015000100C080002007E0B040003008F0C01004D
:100160000400860C01000500F30B01000600F40BEF
:1001700001000700F50B01000800FF0B110009004A
:10018000E40B02000A00EA0B01000B00910C0200D4
:100190000C00890C01000D009F0C01000E00190CD1
:1001A00001000F00810611002300A30614002200A5
:1001B000CB0617002100F90602002000FD0604000E
:1001C0001F00050710001E009137A236D637D6371C
:1001D000D637A836B236D637D637BB36C136EA362A
:1001E000F336D637F93602370D37D63716371C3780
:1001F000D637253762377737D63768377137913733
:100200009137913783378337833783378337833702
:10021000833783378337833783378337833783370E
:1002200083378337833739378337D637D637D6374F
:10023000D637D637D637D637D637D637D637D63756
:10024000D637D637D63783377D379137833734372C
:100250004839A838983998399839AE38B3385F3961
:100260009839B638B938D238D7389839DA38DD38CD
:10027000E0389839E538E8385F39ED383C3951399C
:1002800098393F394239AC38453945395F395F399A
:100290005F395F395F395F395F395F395F395F399E
:1002A0005F395F395F395F395F395F395F392239CB
:1002B0005F399839983998399839983998399839EF
:1002C00098399839983998399839983998395F39DF
:1002D000543957395F391B39474E4F4EDB4D9C4ED1
:1002E0009C4E224E2F4E9C4E9C4E9C4E594E684E1C
:1002F000FB4D074E9C4ED84D3A4E52535253DF524F
:10030000E652E652F252F252035303532953295351
:100310002953A2535253EF69FC69296A3B6A426A26
:100320004F6A5C6A676A6F6A8D6AB76A796A3386F0
:10033000DC86A087BA87D387F6882389FA8CFA8C63
:10034000FA8CFA8CFA8CFA8CFA8CFA8CFA8C7C88FF
:100350008A88FA8CC585AE888D87518D5E8D808D9B
:100360007A8D778D808D8A8D838F838F838F838F16
:10037000838F838F838F838F838F7A8D808D838FFD
:100380004E8D7D8D6E8DF892FD92029307930C93A6
:100390001193169316932493279340932A932D93A6
:1003A0003093339340933693399340933C933697ED
:1003B0007297729772973C97559748974E97829786
:1003C00042975B975B976197729779977D97CD97E7
:1003D000D097D397D397D697E297DC97DF97F2978A
:1003E000D997E597E897EB97EE97B199B599DD998D
:1003F000B999BD99DD99C199DD99CF99D399DA99C8
:100400001A9ED99EEB9ED49D319F319FE69EEB9E16
:10041000EE9E1C9F059F319F319F1C9F089E1F9F32
:1004200084AE8CAE9EAEA7AEA9AEABAEADAEB0AE56
:1004300081AFFAAFFAAFA9AFAFAFBEAFC4AFC7AF2E
:10044000CAAFCDAFD3AFC90B0800D20B0100DF0B91
:100450000400E30B01008D0C01008E0C0100950CD3
:100460000800910C02001A0C0200230C0100890CF8
:1004700001009F0C01008F0C0100E60B0100E70B4F
:100480000100E80B0100E90B0100E40B0200EA0B9C
:1004900001008B0C01008A0C0100A80B0100AA0BC3
:1004A0000100100C08007E0B0400F60B0400EB0B9F
:1004B0000400EF0B0400F30B0100F40B0100F50B3B
:1004C0000100FF0B1100860C0100FA0B0100FB0B71
:1004D0000400180C0100AB0B0200190C0100000015
:1004E0000000760502007A050100780502007C050F
:1004F00001007D0501007E0501007F0501008005EA
:1005000001008105010082050100830501007B05D2
:10051000010084050100850501008E0502008605A5
:10052000010087050100880501008A05040089058E
:1005300001005304000088050000D8040000600694
:1005400000000000000088060000000000003F0BD3
:1005500000000000000064090000000000009B098A
:100560000000C3090000DD0A0000000000000000D8
:100570000000670B00008500000008050808020560
:100580000204000000080302080135000E011410E7
:10059000C8320000033812010303000110270000D5
:1005A00010270000010001E803000004E803000038
:1005B0001041746D656C20202020202020202020F8
:1005C00020AAAAAAAAAAAAAAAA03000200000100B5
:1005D000000000000000000000000000000000001B
:1005E000000000000000000000000000000000000B
:1005F0000000000000000500FF00000000000000F7
:1006000000000000000000000000000000000000EA
:1006100000000000000000000000000000000000DA
:1006200000000000000000000000000000000000CA
:1006300000000000000000000000000000000000BA
:1006400000000000000000000000000000000000AA
:10065000000000000000000000000000000000009A
:100660000000000000000001020100020205050870
:100670000000FFFF3812000000000000000002062A
:10068000010000010002000300040005000600074D
:1006900000080009000A000B000C000D000E000FFE
:1006A000001800000001000200030004000500061D
:1006B000000700080009000A000B000C000D000EE6
:1006C000000F0013001400150016000000010002C6
:1006D0000003000400050006000700080009000AE6
:1006E000000B000C000D000E000F0013001400158D
:1006F0000016001700180019001A001B0013001440
:1007000000150016000000010002000300040005AF
:100710000006000700080009000A000B000C000D8D
:10072000000E000F00F00FDF10F40FF80FDB10FCCD
:100730000F0304050607C529132F00000000000061
:100740000000000000009D51D251AA65FE729E4536
:1007500046581351AE4A9941A04E7E639F44E26EC3
:1007600043417D61D2400000000000000000000015
:100770000000020203020202010101010101010263
:10078000020101010202020202020202020202024C
:1007900002030302020302904870440107B16CEBAC
:1007A000530101B16CEB5301014648734B0101CE7B
:1007B0004700700101CE47D96F010786477C510180
:1007C000012D47976F0101000000000107000000A4
:1007D0000001010000000001030000713D01040060
:1007E00000713D010500000000010600000000014D
:1007F0000C000000000101B16C00000001000000CD
:1008000000010D00000000010700000000010900C8
:1008100000000001000000000001010000000001D4
:100820000100000000000000002442000700002436
:1008300042000B0000244200000000244200463A1F
:10084000BA3E8E3A683A873A00004D3A5B3A803AAF
:10085000543AB03E273A283D2F3DA13D1A3D953AE6
:1008600000007A3F1E725871FA651E700000A06782
:10087000D64B10460000000011241FBECFEFD1E47C
:10088000DEBFCDBF13E0A0E0B2E0E4E6F8E701E0B0
:100890000BBF02C007900D92AC31B107D9F713E13D
:1008A000ACE1B3E001C01D92AE38B107E1F70E94A0
:1008B0001C7A0E94DE79FDCF0C9400007F937FB7F5
:1008C000F8949D9AA5988AEF0E94BD048AEF0E9431
:1008D000BD049D9886E40E94BD0481E0959980E066
:1008E0008F9380EF0E94BD048F917FBF7F91089509
:1008F0007F937FB7F8949D9AA59886E00E94BD04E7
:100900009D988AE00E94BD04889495990894881F58
:100910008F9384E60E94BD048F917FBF7F910895DD
:100920009F937F9398E00E947804879577959A9596
:100930009923C9F7872F7F919F9108957F937FB760
:10094000F894A5989D9A8F9386E00E94BD048F919C
:10095000879508F49D988F9384E60E94BD048F913B
:100960009D987FBF7F9108959F9398E00E949E0479
:100970009A959923D9F79F910895000000000000EF
:1009800000008A958823C9F708955F937F937FB706
:10099000F894CF93DF93C0E0D0E07F935091B20002
:1009A0007091B2007517E1F3739521965091B200E2
:1009B0005717D9F77F91CE01DF91CF917FBF7F91FC
:1009C0005F910895CF92DF92EF92FF920F93CF93B2
:1009D000DF93CDB7DEB760970FB6F894DEBF0FBEDA
:1009E000CDBF002309F45AC029873A874B875C871B
:1009F0006D877E878F87988B80E2801B49855A851B
:100A00006B857C851816B4F019821A821B821C82B1
:100A1000992787FD9095909581959F4F04C0440F2D
:100A2000551F661F771F8A95D2F74D835E836F83AC
:100A300078872CC06A017B01002E04C0CC0CDD1C21
:100A4000EE1CFF1C0A94D2F7C982DA82EB82FC8288
:100A50006A017B0104C0F694E794D794C7948A9501
:100A6000D2F7D701C6014D855E856F85788904C0B0
:100A7000440F551F661F771F0A95D2F7842B952BBD
:100A8000A62BB72B8D839E83AF83B88729813A81AC
:100A90004B815C816D817E818F81988560960FB6D8
:100AA000F894DEBF0FBECDBFDF91CF910F91FF90C5
:100AB000EF90DF90CF9008952C9A089595B180E142
:100AC000892785B908950F931F93CF93DF93EC0186
:100AD0008DB79EB70C970FB6F8949EBF0FBE8DBF13
:100AE000EDB7FEB731960FE314E0ADB7BEB712967F
:100AF0001C930E93119780E092E0938382838F85FD
:100B0000848315828B819C819783868389819A81D6
:100B1000918780878881828713860E9441B9F80176
:100B200001900020E9F7AF0141505040401B510BAC
:100B30008DB79EB70C960FB6F8949EBF0FBE8DBFB3
:100B40008EE194E0B8010E9451118F85882379F4D9
:100B500082E080931C032FB7F8948091D103909189
:100B6000D20394609093D2038093D1032FBFDF917F
:100B7000CF911F910F9108950F931F93CF93DF9300
:100B80000F92CDB7DEB70EE114E0C801BE016F5F72
:100B90007F4F41E050E00E94EE10C801BE016F5F40
:100BA0007F4F41E050E00E9451110F90DF91CF91B3
:100BB0001F910F91089580EC8093290410922A04CC
:100BC00083E390E090932C0480932B0486E0809341
:100BD0002D0410922E0410922F048DE193E0909337
:100BE0003304809332048AE090E09093350480933C
:100BF0003404109237041092360410923904109283
:100C000038048CEB95E090933B0480933A04109267
:100C10003D0410923C0410923E048EE194E00E9448
:100C2000CF1108951092140480EC809316048DE186
:100C300094E0909318048093170481E090E09093DF
:100C40001A048093190410921C0410921B0481E171
:100C500094E00E940E150895FF920F931F93CF9377
:100C6000DF93CDB7DEB72C970FB6F894DEBF0FBE7B
:100C7000CDBFFF24F394FA8281E090E09C838B83C4
:100C80001D821E821F82188619861A861B861C8664
:100C900087E0BE016D5F7F4F0E947007F9828AE096
:100CA000BE016F5F7F4F0E94700780E0BE016B5FE7
:100CB0007F4F0E94700780E2BE016E5F7F4F0E94EF
:100CC00070078DB79EB740970FB6F8949EBF0FBEC2
:100CD0008DBFEDB7FEB731960FE314E0ADB7BEB7E9
:100CE00012961C930E9311978AE492E09383828369
:100CF0008A81848315828B819C81978386838D81F1
:100D000080878E8181878F81828788858387898587
:100D100084878A8585878B8586878C8587870E94CF
:100D200041B9F80101900020E9F7AF01415050406E
:100D3000401B510B8DB79EB740960FB6F8949EBFDF
:100D40000FBE8DBF8EE194E0B8010E94511185E97C
:100D500092E090932B0380932A038CE595E0909387
:100D60002D0380932C0387E293E00E946B2A83E695
:100D700095E090934203809341038FE293E00E94B9
:100D8000ED82F0921C032FB7F8948091D1039091DB
:100D9000D20394609093D2038093D1032FBF2C96FB
:100DA0000FB6F894DEBF0FBECDBFDF91CF911F917C
:100DB0000F91FF90089580911C038823E9F4249AF1
:100DC0002C980E94DB050E94120688EE93E0A0E0BA
:100DD000B0E08093490390934A03A0934B03B093F0
:100DE0004C0310924D038EE595E090934F03809352
:100DF0004E030E942C060895813029F483E493E089
:100E00000E94E60E0895823029F483E493E00E9464
:100E1000120F2C9A08958EE194E06DE772E047E19D
:100E200050E00E945111089508950895089508957D
:100E300091E0873208F090E0892F0895CF93DF93F7
:100E400000D000D0CDB7DEB7682F70E0660F771FF7
:100E5000660F771F6A5B7B4FCE01019644E050E03E
:100E60000E9409B969817A818B819C810F900F90D2
:100E70000F900F90DF91CF9108950E949B070E94E1
:100E800045090895DF92EF92FF920F931F93CF933E
:100E9000DF93182FEB012097D9F00E941E07062F31
:100EA000F72EE82ED92E812F0E941807882341F4AF
:100EB000CE01602F7F2D4E2D5D2D0E9409B908C0F7
:100EC0008C2F9D2F602F7F2D4E2D5D2D0E941FB9E1
:100ED000DF91CF911F910F91FF90EF90DF900895D8
:100EE0001F93CF93DF93182FEB01209791F00E946F
:100EF0001807813071F4812F0E941E07482F592F47
:100F00004115510531F0862F972F6C2F7D2F0E94B0
:100F10001FB9DF91CF911F910895CF93DF93EB011C
:100F20000E941E07DC01CB01109711F4998388837E
:100F3000DF91CF91089582E3EDEAFBE0DF011D929E
:100F40008A95E9F785E08093D20B8AE19CE06BEF0C
:100F500075E046E850E00E9409B98EE79BE06CEC32
:100F600075E04FE250E00E9409B98DE79BE06BEC21
:100F700075E041E050E00E9409B98FED9BE060E927
:100F800075E04BE350E00E9409B98AE297E0E3E59F
:100F9000F4E0DF019C011D9221503040E1F70895FB
:100FA0004115510559F0E62FF72F20E030E09191DF
:100FB000890F2F5F3F4F24173507C9F70895AF9268
:100FC000BF92CF92DF92EF92FF920F931F93CF9336
:100FD000DF93CDB7DEB72C970FB6F894DEBF0FBE08
:100FE000CDBF8C017B01CE0102969A87898785E06F
:100FF00090E09C878B87FB01808191810597988782
:101000008F83CE0107966FE07DE00E945C0D8D819D
:101010009E818017910709F040C0F7012481358136
:101020008B819C8128173907D1F5CE0101969A87CB
:10103000898781E090E09C878B87C901009739F10F
:10104000CC24DD2400E00F2EFFE0AF2EFDE0BF2E0C
:10105000F02DF701808191818C0D9D1D98878F83E4
:10106000CE010796B5010E945C0D69857A85802FB7
:1010700041E050E00E94D007082F0894C11CD11C09
:10108000F70184819581C816D90618F301C000E0E4
:101090008A81801731F082E005C082E003C082E0DF
:1010A00001C080E02C960FB6F894DEBF0FBECDBF16
:1010B000DF91CF911F910F91FF90EF90DF90CF9034
:1010C000BF90AF900895EF92FF920F931F93CF932D
:1010D000DF93CDB7DEB72E970FB6F894DEBF0FBE05
:1010E000CDBF8C01CE010796B8010E94DD0C86E0D1
:1010F000F80111928A95E9F7EE24FF24E39420C0C9
:101100008D859E85BE016F5F7F4F0E94DF0788231C
:10111000B9F48D859E85FC01F695E795F695E795E2
:10112000F695E795E00FF11F87709070970102C068
:10113000220F331F8A95E2F7C9019081892B8083A2
:10114000CE010796BE016F5F7F4F0E949B0B8823E5
:10115000B9F62E960FB6F894DEBF0FBECDBFDF9165
:10116000CF911F910F91FF90EF900895882319F070
:101170008130C9F40FC0A8EBBCE0E62FF72FCD01FA
:1011800006962D91308123232193A817B907C9F71B
:1011900091E00AC0862F972F0E94630891E0882370
:1011A00019F090E001C090E0892F08950E94100D81
:1011B0008091CD0C81FD02C00E949C0D81E00895BC
:1011C0000F931F93CF93DF9300D000D000D0CDB703
:1011D000DEB78E010F5F1F4F26E0F80111922A95AE
:1011E000E9F7FC01F695E795F695E795F695E7950D
:1011F000E00FF11F9C012770307081E090E002C089
:10120000880F991F2A95E2F78083C8010E941B0C62
:1012100080E0B8010E94B6088981882361F4FE014C
:101220003296CE0107962191222329F4E817F90777
:10123000D1F780E01FC0ECEAFCE0DE011196CF019F
:10124000069621913C9123232D93E817F907C9F7BE
:101250008981882361F4FE013296CE01079621919F
:10126000222339F4E817F907D1F780E003C081E0C1
:1012700001C081E026960FB6F894DEBF0FBECDBF49
:10128000DF91CF911F910F9108956F927F928F926E
:101290009F92AF92BF92CF92DF92EF92FF920F9305
:1012A0001F93CF93DF93CDB7DEB768970FB6F8944F
:1012B000DEBF0FBECDBF80E291E09093A10C809382
:1012C000A00C84EA91E09093A30C8093A20C26E0FA
:1012D00030E084EA91E080529140B9010E9431B837
:1012E0008091A40C9091A50C682B792B7093A50C80
:1012F0006093A40C88EC91E0845A9140B9010E945B
:1013000031B88091A60C9091A70C682B792B709323
:10131000A70C6093A60C1092A80C1092A90C109226
:10132000AA0C1092AB0C86E0E8EBFCE0DF011D920A
:101330008A95E9F78091A40C9091A50C009709F487
:101340005FC000E00F2EF0E2CF2EF1E0DF2EF02D97
:101350000F2EF8EAAF2EFCE0BF2EF02D0F2EF8EF87
:101360006F2EFFEF7F2EF02D6A0C7B1C88249924B2
:101370008394EE24FF246894E2F8E60CF71CCE0177
:101380004396B60146E050E00E9409B98D899E89D6
:101390000596A0E0B0E0F501408151816281738142
:1013A000840F951FA61FB71F80839183A283B383E9
:1013B0002F89388DC901969587959695879596952D
:1013C0008795F301E80FF91FC901877090709401A8
:1013D00002C0220F331F8A95E2F7C901908D892B35
:1013E000808F46E050E0C40ED51E0F5FD7018D916F
:1013F0009C911197202F30E02817390708F4BFCFB0
:101400009C01220F331F820F931F880F991F049690
:101410006C01EE24FF24CE010D969E8B8D8B86E011
:1014200090E0988F8F8BAA24BB2400E010E00F2E51
:10143000F0EA8F2EFCE09F2EF02D0F2EFFE06F2E96
:10144000FDE07F2EF02DF801F695E795F695E795EE
:10145000F695E795E80DF91D208D30E0C8018770FD
:101460009070F90102C0F695E7958A95E2F7E0FFE2
:101470003EC0C501880F991F8A0D9B1D880F991FBB
:1014800004969C8B8B8BCE014396B3010E945C0D1E
:1014900089899A890817190749F48D859E85AF8532
:1014A000B8898C159D05AE05BF0559F01A8B098BBF
:1014B000CD86DE86EF86F88ACE014396B3010E9480
:1014C0007C0DC8010E94980ABC01CE01079646E037
:1014D00050E00E9409B989859A850596A0E0B0E0A0
:1014E000C80ED91EEA1EFB1E0894A11CB11C0F5F7A
:1014F0001F4F0D32110509F0A6CF0E94060DCE0137
:1015000001960E94630868960FB6F894DEBF0FBE7E
:10151000CDBFDF91CF911F910F91FF90EF90DF90A2
:10152000CF90BF90AF909F908F907F906F900895D5
:101530008F929F92AF92BF92CF92DF92EF92FF92E3
:101540000F931F93CF93DF9300D0CDB7DEB75C012D
:101550003091A00C2091A10C8091A40C9091A50C2D
:10156000009739F1032F122FEE24FF240F2EF4EAF7
:101570008F2EFCE09F2EF02D6801B8016C5F7F4F2D
:10158000CE01019642E050E00E9409B989819A811A
:101590008A159B0581F00894E11CF11C0A5F1F4F1E
:1015A000F40180819181E816F90630F3CC24DD2422
:1015B00002C0CC24DD248C2D9D2D0F900F90DF9147
:1015C000CF911F910F91FF90EF90DF90CF90BF9040
:1015D000AF909F908F900895CF92DF92EF92FF92FD
:1015E0000F931F93CF93DF93CDB7DEB762970FB6FC
:1015F000F894DEBF0FBECDBF8C016B01BC017695A8
:1016000067957695679576956795FB01E056F34F5C
:10161000208D30E087709070A90102C056954795E3
:101620008A95E2F740FF58C0FE013D96A8EBBCE06A
:1016300086E00D9001928150E1F76115710539F155
:1016400040E050E020E0EDE0F0E0EC0FFD1FE20FA5
:10165000F11D9081892F869585759575890F382F95
:101660003695369533738373380F3083832F90E02C
:101670008F70907032953F70830F911D480F591FE6
:101680002F5F822F90E086179707E8F202C040E0B4
:1016900050E0077010700115110501F16C0F7D1FEE
:1016A000DB011D96EC91F0E060E0A1E0B0E0EE24FB
:1016B000FF249F01062E02C0369527950A94E2F773
:1016C000CD0120FFC701480F591F6F5F862F90E0A3
:1016D0008017910770F302C04FEF5FEFCE010796BE
:1016E0009C838B83CA01880F991F480F591F440F91
:1016F000551F4C5F5F4F5A83498386E090E09E837D
:101700008D83CE0101966FE07DE00E945C0D8F819C
:101710009885F6019183808362960FB6F894DEBFB8
:101720000FBECDBFDF91CF911F910F91FF90EF9032
:10173000DF90CF900895EF92FF920F931F93CF9376
:10174000DF9300D000D000D0CDB7DEB78C017B0195
:10175000FC01408140FD1BC021E030E0B9017695DD
:1017600067957695679576956795F801E60FF71F6B
:101770004081F901E770F070842F90E00E2E02C0D6
:10178000969587950A94E2F780FF1BC006C0E0E0BB
:10179000F0E060E070E020E030E0600F711F81E079
:1017A00090E002C0880F991FEA95E2F780954823E0
:1017B000FB014083C9010E94980ABC01009739F4DB
:1017C00027C02F5F3F4F2D32310541F621C0CE019A
:1017D000019646E050E00E9409B989819A81F7019B
:1017E000938382838D819E81B7010E94EC0AF70169
:1017F000808191810596918380838B819C819583E3
:1018000084838D819E81F8019783868381E006C061
:101810008FEF9FEFF8019783868380E026960FB6BF
:10182000F894DEBF0FBECDBFDF91CF911F910F9116
:10183000FF90EF9008954F925F926F927F928F92F8
:101840009F92AF92BF92CF92DF92EF92FF920F934F
:101850001F93CF93DF93CDB7DEB728970FB6F894D9
:10186000DEBF0FBECDBF6C013091A20C2091A30C46
:10187000FC01858186FD07C08091A60C9091A70C84
:10188000009749F483C0C6016FEF70E046E050E076
:101890000E943AB97BC0A32EB22E88249924EE244C
:1018A000FF24E3944424552400E00F2EF6EA6F2E23
:1018B000FCE07F2EF02DCE010196B50146E050E010
:1018C0000E9409B92D813E81C9019695879596950B
:1018D000879596958795F601E80FF91F4081277047
:1018E0003070842F90E0022E02C0969587950A945E
:1018F000E2F780FF3DC0C70102C0880F991F2A95FB
:10190000E2F78095482340838B819C81009781F189
:10191000B201102FCB01880F991F69817A81680F5E
:10192000791FCE01079642E050E00E9409B92F814D
:101930003885C9019695879596958795969587954B
:10194000F601E80FF91FC90187709070970102C076
:10195000220F331F8A95E2F7C9019081892B80837A
:101960001F5F612F70E08B819C816817790790F26F
:101970000894811C911C86E090E0A80EB91EF3012A
:10198000808191818816990608F495CF28960FB624
:10199000F894DEBF0FBECDBFDF91CF911F910F91A5
:1019A000FF90EF90DF90CF90BF90AF909F908F907F
:1019B0007F906F905F904F900895CF93DF93EC01ED
:1019C0008FEF9FEF9F838E838C2F9D2FAC2FBD2F8A
:1019D000E62FF72F26E001900D922150E1F70E94AB
:1019E0001B0CE8EBFCE0CF01069621913881232304
:1019F0002993E817F907C9F7DF91CF9108958091EE
:101A0000CB0C9091CC0C0E94D60808951092C80C73
:101A10008FEF9CE09093CA0C8093C90C08950895B1
:101A20000F931F93CF93DF9300D000D000D0CDB79A
:101A3000DEB78E010F5F1F4F26E0F80111922A9545
:101A4000E9F7FC01F695E795F695E795F695E795A4
:101A5000E00FF11F9C012770307081E090E002C020
:101A6000880F991F2A95E2F78083C8010E941B0CFA
:101A7000D801E2EBFCE0CE0107962D913081232BBB
:101A80002193A817B907C9F78091CD0C8460809382
:101A9000CD0C26960FB6F894DEBF0FBECDBFDF91FA
:101AA000CF911F910F91089502C00E94197A0E9450
:101AB000F1128823D1F708950F931F93CF93DF93EB
:101AC0008C01EB010E94540DC801BE010E94181246
:101AD0002FEF8F3F920741F08DE0CF30D80731F4E0
:101AE0000E94540D80E003C081E001C080E0DF91DE
:101AF000CF911F910F9108950F931F93CF93DF9371
:101B00008C01EB010E94540DC801BE010E947C12A1
:101B10002FEF8F3F920741F08DE0CF30D80731F49F
:101B20000E94540D80E003C081E001C080E0DF919D
:101B3000CF911F910F9108952F923F924F925F92F4
:101B40006F927F928F929F92AF92BF92CF92DF92CD
:101B5000EF92FF921F93CF93DF93CDB7DEB76297DB
:101B60000FB6F894DEBF0FBECDBF8091CD0C826062
:101B70008093CD0C82FF9FC080E593E062EB7CE018
:101B80000E94DD0C8091CD0C8B7F8093CD0C93C097
:101B9000F201E080F180C70196958795969587952B
:101BA00096958795F101E80FF91FC701877090702E
:101BB000950102C0220F331F8A95E2F7C901809573
:101BC00092898923828B6F85788949895A8980E037
:101BD0000E94D007182F82E090E08C0F9D1F9A87FB
:101BE0008987E5E0F0E0FC87EB878D859E8505978A
:101BF00098878F83CE010796B4010E945C0D8A817D
:101C00001817C1F58D819E81E816F90699F5898925
:101C10009A892B813C818217930761F521E030E09E
:101C20002C0F3D1F3A872987BC86AB86009709F4A5
:101C30005DC0CC24DD248D859E858C0D9D1D9887EF
:101C40008F83CE010796B4010E945C0DA985BA85E9
:101C50008F859889FC01EC0DFD1D8C919081891771
:101C600049F40894C11CD11C89899A89C816D906DF
:101C700010F33CC01A83FE82ED8289899A899C8385
:101C80008B83CE0102969A87898785E090E09C87B6
:101C90008B878D859E85059798878F83CE010796C4
:101CA0006FE07DE00E947C0DCE010D966CE97DE039
:101CB0000E947C0D2EC00F2EF0E56F2EF3E07F2EDC
:101CC000F02D0F2EF6E54F2EF3E05F2EF02D0F2EA8
:101CD000F0EA2F2EFCE03F2EF02DAA24BB24A39483
:101CE0000F2EFFE08F2EFDE09F2EF02DC301BE01D1
:101CF000635F7F4F0E949B0B882309F049CF80913F
:101D0000CD0C8D7F8093CD0C8FE060E070E00E9461
:101D1000077962960FB6F894DEBF0FBECDBFDF9194
:101D2000CF911F91FF90EF90DF90CF90BF90AF9039
:101D30009F908F907F906F905F904F903F902F90EB
:101D40000895EF92FF920F931F93CF93DF9318C0E4
:101D500088E593E060E070E0AE010E94E0148A85BF
:101D6000882359F4EA82FB820C831D8388E593E083
:101D7000BE01A80197010E942813EB85FC850995F7
:101D800080915803909159030097D9F00E948B17C6
:101D90007B018C01C0915803D09159038A819B81AA
:101DA000AC81BD81A8019701281B390B4A0B5B0B45
:101DB0008E819F81A885B985281739074A075B0757
:101DC00038F6CDB7DEB7E6E00C948FB8CF93DF934B
:101DD000EC01009771F0E0915803F091590306C0AF
:101DE000EC17FD0749F00190F081E02D3097C1F725
:101DF00009C02FEF3FEF02C020E030E0C901DF91C2
:101E0000CF9108950E948B179B01AC011982188213
:101E10006A837B838C839D8388E593E0BE010E9467
:101E20002813EACFCF93DF93EC010097D1F0809194
:101E30005803909159038C179D0749F088E593E06A
:101E4000BE010E94FF14BC01009719F40AC060E0B3
:101E500070E088E593E0AE010E94E01420E030E0FD
:101E600002C02FEF3FEFC901DF91CF9108958F920C
:101E70009F92AF92BF92CF92DF92EF92FF920F9319
:101E80000E94BD154B015C012091650330E040E0EC
:101E900050E060E070E080E090E000E20E94E20448
:101EA000282939294A295B290F91FF90EF90DF906B
:101EB000CF90BF90AF909F908F900895CF93DF9376
:101EC000E82FF0E0DF01A05CB04093E0B595A79566
:101ED0009A95E1F7B0E0AA0FBB1FA65ABC4F6D91CF
:101EE0007C9111976115710599F14FB7F894EB0149
:101EF0002A813B81888199814FBF2817390729F1B1
:101F00002D913C911197E901288D398D280F391FAA
:101F1000E9013881019620812064208336830D9069
:101F2000BC91A02D5A962D913C915B9782179307F7
:101F300011F480E090E02181206221832FB7F89492
:101F4000FB01918380832FBF03C0818180648183E3
:101F5000DF91CF91089590E0805C904033E09595BB
:101F600087953A95E1F7E82FF0E0EE0FFF1FE65A6C
:101F7000FC4FA081B1811097B9F090968C91909709
:101F8000887191F42FB7F89418968D919C911997B8
:101F90002FBF009749F00190F081E02D048CF58D62
:101FA000E02D309709F009950895FC019389838508
:101FB000992349F4803C19F0883C89F402C06A9A5C
:101FC0000895559A0895803C19F0883C41F404C066
:101FD0006A987298729A089555985D985D9A0895D6
:101FE00080EC0E945E0F089580EC0E94AB0F089574
:101FF00088EC0E945E0F089588EC0E94AB0F089554
:10200000A3E0B0E0E6E0F0E10C9472B881E08983EF
:1020100006E010E0DD2452E0E52EF12CEC0EFD1E72
:102020009091610389818923B9F09FB7F894209139
:10203000610389818227809361039FBF6D2D70E0CA
:10204000660F771F6B5D784FC70142E050E00E943A
:1020500009B9EA81FB810995D3948981880F898325
:1020600001501040E9F62396E7E00C948EB8909169
:10207000610321E030E002C0220F331F8A95E2F7AE
:10208000922B9093610380917A03806880937A0306
:102090002FB7F8948091D1039091D20382609093EE
:1020A000D2038093D1032FBF0895CF93DF93C82F1E
:1020B000D0E0DE01A05CB040E3E0B595A795EA95DD
:1020C000E1F7B0E0AA0FBB1FA65ABC4FED91FC91FF
:1020D0001197309721F489818F77898335C080A14A
:1020E00083FD32C0C489D58984FF0AC06883ED911D
:1020F000FC911197848995890196958B848B24C0D6
:10210000209711F1268137818681978101969783E7
:10211000868346815781868997894817590711F424
:102120001782168246815781848195814817590705
:1021300019F43783268308C0C20FD31F68838085B4
:102140009185019691878087DF91CF91089590E0E6
:10215000805C904033E0959587953A95E1F790E063
:10216000DC01AA0FBB1FA65ABC4FED91FC91119741
:10217000309701F16FB7F89442815381208131810A
:102180006FBF4217530711F421E02287FC01EE0FC5
:10219000FF1FE65AFC4F0190F081E02D828D938D58
:1021A000009711F4118E108E068CF78DE02D30976C
:1021B00009F00995089588EC0E94A710089580EC15
:1021C0000E94A7100895805C893030F4E82FF0E079
:1021D000EF55FD4F8081089580E00895A0E0B0E0C4
:1021E000E4EFF0E10C9472B8EC018B017A010097F6
:1021F00009F44FC0DB848D2D0E94E310882309F47D
:1022000048C00115110509F444C0E114F10409F4B2
:1022100040C0ED2DF0E0E05CF04073E0F595E7950F
:102220007A95E1F7F0E0EE0FFF1FE65AFC4F808150
:102230009181C817D90769F52FB7F8944E815F814E
:102240008C819D812FBFD80120E030E010C0EC8947
:10225000FD89E80FF91F60816D9301966E897F8972
:102260008617970711F480E090E02F5F3F4F8417A7
:10227000950719F02E153F0550F34FB7F8949D833D
:102280008C8388859985821B930B998788874FBF9C
:1022900002C02FEF3FEFC901CDB7DEB7E7E00C94E6
:1022A0008EB8A0E0B0E0E7E5F1E10C946FB8EC0186
:1022B0008B017A01009709F46AC0CB848C2D0E94AF
:1022C000E310882309F463C00115110509F45FC008
:1022D000E114F10409F45BC0EC2DF0E0E05CF040A7
:1022E000B3E0F595E795BA95E1F7F0E0EE0FFF1F43
:1022F000E65AFC4F80819181C817D90709F047C081
:102300008A8D9B8D009779F42A813B818881998100
:1023100028173907E1F5198F088FFB82EA821982A5
:102320001882C7012CC08FB7F894CA80DB80A880C0
:10233000B9808FBFD801960180E090E015C0A90157
:102340004F5F5F4F6A8D7B8D4617570711F440E052
:1023500050E04A155B0559F06D91E88DF98DE20F5B
:10236000F31F608301969A018E159F0540F34FB7C6
:10237000F8943B832A834FBFCA14DB0431F41A86D6
:10238000EB85F0E02181206221839C0102C02FEFC8
:102390003FEFC901CDB7DEB7EAE00C948BB81F93CD
:1023A000CF93DF93EC010097E1F11B85812F0E9411
:1023B000E3108823B1F1E12FF0E0E05CF04033E07E
:1023C000F595E7953A95E1F7F0E0EE0FFF1FE65A35
:1023D000FC4F80819181009721F5D183C0838C854A
:1023E000803419F4CE010E94D50F198218821B8205
:1023F0001A828C899D89009711F41F8A1E8A888D04
:10240000998D009711F41B8E1A8E1D821C821F82DB
:102410001E8281E08A87CE010E94BC172B8530E0A6
:1024200002C02FEF3FEFC901DF91CF911F910895B7
:10243000FC0180916203882309F057C0309709F4AA
:1024400057C08481958120813181820F931F20E1C3
:102450008130920708F04CC081E080936203709352
:10246000D50C6093D40CAEECBCE086E001900D92EC
:102470008150E1F7F999FECF80E090E017C0E0913C
:10248000D00CF091D10CE80FF91F2091CE0C3091B7
:10249000CF0CA9014F5F5F4F5093CF0C4093CE0CF0
:1024A00032BD21BDF89A20B5208301962091D20C2F
:1024B0003091D30C8217930710F31092D30C109223
:1024C000D20C80917B03846080937B032FB7F894B8
:1024D0008091D1039091D20382609093D203809334
:1024E000D1032FBF20E030E005C02EEF3FEF02C048
:1024F0002FEF3FEFC9010895CF93DF93FC019B01BC
:1025000080916203882309F063C0309709F463C0A7
:102510006081718184819581860F971F40E18130B0
:10252000940708F058C081E080936203AEECBCE0F1
:1025300086E001900D928150E1F73093D50C209305
:10254000D40C2115310519F4C0E0D0E033C0CB0123
:1025500001969093CF0C8093CE0CE091D00CF0912B
:10256000D10C4191F093D10CE093D00C8CE00E94FF
:1025700031198091D20C9091D30C01979093D30C88
:102580008093D20C22C06091CE0C7091CF0CCB0105
:1025900001969093CF0C8093CE0CE091D00CF091EB
:1025A000D10C4191F093D10CE093D00C84E00E94C7
:1025B000311921968091D20C9091D30CC817D9076C
:1025C00010F3F999FECF1092620320E030E005C0CD
:1025D0002EEF3FEF02C02FEF3FEFC901DF91CF9108
:1025E000089581E090916203913009F080E00895B0
:1025F0008091D20C9091D30C009751F41092620309
:10260000E091D40CF091D50C309709F1099508951B
:102610006091CE0C7091CF0CCB0101969093CF0CB2
:102620008093CE0CE091D00CF091D10C4191F093BD
:10263000D10CE093D00C8CE00E9431198091D20C27
:102640009091D30C01979093D30C8093D20C089562
:10265000A2E1B0E0EEE2F3E10C9467B89A878987D3
:10266000DB012B873C874D875E87FC01E080F18092
:10267000E114F10409F497C1222433244B855C85CD
:102680006D857E859A01AB0160E070E0CB01298306
:102690003A834B835C836D837E838F839887F88A2C
:1026A000EF86F701BA8BA98B02C01F01FC01E28003
:1026B000F3800481158126813781408551856B85A2
:1026C0007C858D859E856E157F058007910708F4B2
:1026D0008FC060E070E0CB0157016801EE24FF2459
:1026E0008701622E6A0C77247394621608F07724AF
:1026F000932E9B0C88248394931608F08824790CDD
:1027000055245394791408F055248528542E5C0CD4
:1027100099249394541608F09924850C44244394E6
:10272000851408F044249428052F0D0D11E0051799
:1027300008F010E0900EEE24E394901608F0EE24DA
:102740001E2944244394161608F0442401E0171669
:1027500008F000E055245394181608F05524A62CD0
:102760007981A71A21E06A1408F020E0972D8A8168
:10277000981B81E0791608F080E0492F421B21E088
:10278000941708F020E0822B282D9B81291B91E0D3
:10279000821608F090E0522F581B81E0251708F0B0
:1027A00080E0982B292DAC812A1B81E0921608F03D
:1027B00080E0E22EE91A91E02E1508F090E0892BD6
:1027C000B12FB81B8B2F91E01B1708F090E0242D40
:1027D000291B922F21E0491608F020E0302F321BF0
:1027E000232F31E0021708F030E0142F052F95C099
:1027F00039014A01AA24BB24650110950095F09483
:10280000E094E11CF11C011D111D722F7E1961E085
:10281000271708F060E0872D8F1991E0781608F0EF
:1028200090E0A82FA61B6A2F552453948A1708F00E
:1028300055249529582C501A81E0851408F080E021
:10284000B52DB91B9B2F442443945B1608F04424F8
:102850008429292D211B31E0921608F030E0E22E68
:10286000E81A81E02E1508F080E0832B819551E075
:10287000181608F050E0519541E0151608F040E0B8
:10288000419521E0141608F020E0522E5194A72E15
:102890002981A21A11E07A1508F010E0262F3A815A
:1028A000231B31E0621708F030E0622F611B162F06
:1028B00061E0211708F060E0362B692F7B81671BF0
:1028C00021E0961708F020E0062F031B91E0601727
:1028D00008F090E0292B3E2D9C81391B91E0E316F6
:1028E00008F090E0E32EE21A21E03E1508F020E027
:1028F000922B682F691B91E0861708F090E0A52FB6
:10290000A91B9A2F81E05A1708F080E0242F281B7A
:1029100031E0421708F030E0862F531A69F5222380
:1029200059F5992349F5882339F5A989BA89169665
:102930002D913D914D915C91199760E070E0CB0134
:10294000992321F51816C0F0882301F51716A0F079
:102950007723E1F4161680F06623C1F4E51660F0E3
:102960005E15A1F4041740F0401781F4131720F00E
:10297000311761F4A21650F480819181009709F01B
:1029800094CE8F01A989BA891F0111C0EF84F888FC
:102990008F01A989BA89EE15FF0541F41196FC93C0
:1029A000EE93E985FA85B183A08306C0CF01F101DA
:1029B000B183A0838D939C936296E2E10C9483B8DB
:1029C000CF93DF93FC01DB01EA01808191814817FD
:1029D000590739F4888199811982188280839183FB
:1029E0000BC08881998111969C938E9319821882CD
:1029F0008C9111969C911197DF91CF910895DC01F4
:102A0000ED91FC91119706C08081918186179707FF
:102A100019F0FC013097C1F7CF010895FC018091B6
:102A20006303909164030097F9F4F0936403E093D7
:102A30006303868197810097B9F08085918500971F
:102A400099F02381223080F4858190E08F7390701B
:102A5000009751F4213019F48481833028F00E94CA
:102A6000221A20E030E002C02FEF3FEFC9010895A5
:102A7000E0916303F09164030284F385E02D3097C5
:102A800009F009950895809170008C7F8093700003
:102A90008091B60080628093B6001092B2001092CE
:102AA000B0001092B1001092B3008091B60090E097
:102AB0008F7190700097C9F783E087BB87E08093A0
:102AC000B1008091700081608093700008958091C2
:102AD000B60090E08F7190700097C9F780917000F8
:102AE0008C7F809370008091B100887F8093B100CB
:102AF00083B5826083BD8091B60090E08F71907045
:102B00000097C9F78091B6008F7D8093B600089535
:102B10009B01AC016091B200862F90E0809590956A
:102B2000AA2797FDA095BA2F9070A070B070821759
:102B30009307A407B50778F4281B390B4A0B5B0BE6
:102B4000BB27A52F942F832F909367038093660351
:102B5000209368030895260F8091B60090E08F714E
:102B600090700097C9F72093B30082E087BB8091F3
:102B700070008260809370000895EF92FF920F932F
:102B80001F938FB7F894909169032091B20034E4B9
:102B90003093B4004091B60050E04F715070411531
:102BA0005105C1F7B89904C030E040E050E009C0D9
:102BB0002091B20030E040E050E021503F4F4F4FB5
:102BC0005F4F8FBF8FEF989FC0011124AA2797FDF9
:102BD000A095BA2F820F931FA41FB51F9C01AD01B2
:102BE00075E0220F331F441F551F7A95D1F77C01E2
:102BF0008D0162E016950795F794E7946A95D1F7F1
:102C00002E0D3F1D401F511FE0906A03F0906B0393
:102C100000916C0310916D032E0D3F1D401F511F3D
:102C2000281B390B4A0B5B0BB901CA011F910F918D
:102C3000FF90EF90089560E270E080E090E00895EA
:102C40008FB7F89460916903109269038FBF70E0A9
:102C500080E090E020E43FE140E050E00E9406B8D0
:102C60009B01AC0180916A0390916B03A0916C036E
:102C7000B0916D03820F931FA41FB51F80936A0349
:102C800090936B03A0936C03B0936D03821793072B
:102C9000A407B50728F4809165038F5F80936503CF
:102CA00008951F920F920FB60F920BB60F92112438
:102CB0002F933F934F935F936F937F938F939F9344
:102CC000AF93BF93EF93FF93809170008D7F8093BC
:102CD00070001092680380918E0380FF03C080E033
:102CE0000E94611980918E0382FF11C08091780348
:102CF0008160809378032FB7F8948091D1039091ED
:102D0000D20382609093D2038093D1032FBFFF91AF
:102D1000EF91BF91AF919F918F917F916F915F9153
:102D20004F913F912F910F900BBE0F900FBE0F90C0
:102D30001F9018951F920F920FB60F920BB60F921D
:102D400011242F933F934F935F936F937F938F93B0
:102D50009F93AF93BF93EF93FF93809166039091FE
:102D600067030097A1F5809168038823E9F48091B7
:102D70008E0380FF03C080E00E94611980918E0362
:102D800082FF34C0809178038160809378032FB7ED
:102D9000F8948091D1039091D20382609093D203F2
:102DA0008093D1032FBF22C08091B60090E08F7135
:102DB00090700097C9F7809168038093B30082E018
:102DC00087BB8091700082608093700009C0809101
:102DD000660390916703019790936703809366035E
:102DE00080918E0380FF02C00E94CD1980916903FB
:102DF0008F5F80936903809178038260809378036A
:102E00002FB7F8948091D1039091D2038260909370
:102E1000D2038093D1032FBFFF91EF91BF91AF9168
:102E20009F918F917F916F915F914F913F912F91E2
:102E30000F900BBE0F900FBE0F901F90189580E162
:102E400097E29093A9008093A800E1EAF0E088E07F
:102E50008083808182608083E2E7F0E0808182600D
:102E6000808308959B01AC01809170039091710360
:102E7000A0917203B0917303820F931FA41FB51F1B
:102E80008093700390937103A0937203B0937303C4
:102E900080917C03846080937C032FB7F8948091A9
:102EA000D1039091D20382609093D2038093D10397
:102EB0002FBF08958FB7F89460916F0310926F033E
:102EC0008FBF70E080E090E02AE030E040E050E02A
:102ED0000E9406B89B01AC01809170039091710330
:102EE000A0917203B0917303820F931FA41FB51FAB
:102EF0008093700390937103A0937203B093730354
:102F000082179307A407B50728F480916E038F5F9B
:102F100080936E0308950E945A1760917003709118
:102F20007103809172039091730308951F920F9221
:102F30000FB60F9211242F938F939F9380916F035D
:102F40008F5F80936F0380917C03846080937C0308
:102F50002FB7F8948091D1039091D203826090931F
:102F6000D2038093D1032FBF9F918F912F910F9008
:102F70000FBE0F901F901895FC01A385B0E011962D
:102F80001C92A385B0E08585968515969C938E93BB
:102F900014978485A385882349F4B0E082E08C935C
:102FA000A385B0E012961C92129707C0B0E01C9265
:102FB000A385B0E0828912968C93A385B0E0129627
:102FC0008C9112979485892B12968C93A385B0E0EF
:102FD00012968C9112979785892B12968C93A385C4
:102FE000B0E012968C9112979089892B12968C934F
:102FF000A385B0E012968C9112979189892B129635
:103000008C93A385B0E08C9180688C93A385B0E00D
:1030100011968C911197886111968C931197E38585
:10302000F0E081818068818308951F920F920FB62E
:103030000F920BB60F9211242F933F934F935F93F0
:103040006F937F938F939F93AF93BF93EF93FF9370
:10305000E1ECF0E080818F7D808380E00E9437107A
:10306000FF91EF91BF91AF919F918F917F916F9160
:103070005F914F913F912F910F900BBE0F900FBE1C
:103080000F901F9018951F920F920FB60F920BB6CC
:103090000F9211242F933F934F935F936F937F93DE
:1030A0008F939F93AF93BF93EF93FF93E1ECF0E087
:1030B00080818F7B808381E00E943710FF91EF91A8
:1030C000BF91AF919F918F917F916F915F914F9140
:1030D0003F912F910F900BBE0F900FBE0F901F903E
:1030E00018951F920F920FB60F920BB60F921124E4
:1030F0002F933F934F935F936F937F938F939F9300
:10310000AF93BF93EF93FF938091C0006091C6008F
:103110008C7131F480EC0E94551082E00E943710CF
:10312000FF91EF91BF91AF919F918F917F916F919F
:103130005F914F913F912F910F900BBE0F900FBE5B
:103140000F901F9018951F920F920FB60F920BB60B
:103150000F9211242F933F934F935F936F937F931D
:103160008F939F93AF93BF93EF93FF93E9ECF0E0BE
:1031700080818F7D808383E00E943710FF91EF91E3
:10318000BF91AF919F918F917F916F915F914F917F
:103190003F912F910F900BBE0F900FBE0F901F907D
:1031A00018951F920F920FB60F920BB60F92112423
:1031B0002F933F934F935F936F937F938F939F933F
:1031C000AF93BF93EF93FF93E9ECF0E080818F7BA7
:1031D000808384E00E943710FF91EF91BF91AF91FF
:1031E0009F918F917F916F915F914F913F912F911F
:1031F0000F900BBE0F900FBE0F901F9018951F924F
:103200000F920FB60F920BB60F9211242F933F938C
:103210004F935F936F937F938F939F93AF93BF93DE
:10322000EF93FF938091C8006091CE008C7131F4D0
:1032300088EC0E94551085E00E943710FF91EF91B5
:10324000BF91AF919F918F917F916F915F914F91BE
:103250003F912F910F900BBE0F900FBE0F901F90BC
:103260001895F999FECF07B600FCFDCF72BD61BD80
:1032700040BD9FB7F8948FBBF99A9FBF08951F92E6
:103280000F920FB60F9211242F938F939F93FB9859
:1032900080917B03846080937B032FB7F8948091A7
:1032A000D1039091D20382609093D2038093D10393
:1032B0002FBF9F918F912F910F900FBE0F901F9056
:1032C000189590918E038170880F9C7F982B909316
:1032D0008E03E9E3F1E080818D7F808380917C0320
:1032E000816080937C032FB7F8948091D1039091F3
:1032F000D20382609093D2038093D1032FBF0895AD
:1033000080918E0380FF48C08091A1008D7F8093C3
:10331000A1008091740390917503A0917603B09100
:1033200077030097A105B10551F40E94BD15609384
:103330007403709375038093760390937703809161
:103340008E0383FD02C00E946A77F999FECF8091B7
:103350008E03886080938E039091390192609093E0
:10336000390182FF05C087E083BF889513BE0AC07C
:103370000E94671585E083BF889513BE0E944315A0
:103380000E94271B84E48093B4008091B60090E0F3
:103390008F7190700097C9F7089580918E038160B6
:1033A00080938E038091B60090E08F7190700097AB
:1033B000C9F780917C03886080937C032FB7F894D1
:1033C0008091D1039091D20382609093D203809335
:1033D000D1032FBF80E090E008950E94BD15209199
:1033E0007403309175034091760350917703621B0B
:1033F000730B840B950B109274031092750310924B
:103400007603109277030E9432178091A1008260A8
:103410008093A100809141018F718830D9F780910C
:103420008E03877F80938E030E94667780918E0340
:1034300081FD07C0E0917F03F0918003309709F090
:1034400009950895A1E0B0E0E8E2FAE10C9477B8BC
:10345000E0916303F0916403858180937C00838114
:10346000882329F480917C00806280937C00E09125
:103470006303F0916403648170E06F5C784FCE0168
:10348000019641E050E00E9409B9898180688093EB
:103490007A002196E2E00C9493B81F920F920FB637
:1034A0000F920BB60F9211242F933F934F935F937C
:1034B0008F939F93AF93BF93EF93FF93E091630339
:1034C000F0916403838126813781882349F48081C8
:1034D000918140917900280F391FD9014C930EC07A
:1034E000808191814091780050917900DC01AA0F90
:1034F000BB1FA20FB31F11965C934E93019691834D
:103500008083E0916303F0916403208131818085A1
:10351000918528173907B1F480917A00877F8093CD
:103520007A0080917B03826080937B032FB7F894AD
:103530008091D1039091D20382609093D2038093C3
:10354000D1032FBFFF91EF91BF91AF919F918F91C9
:103550005F914F913F912F910F900BBE0F900FBE37
:103560000F901F901895A0E0B0E0E9EBFAE10C9401
:1035700067B810E0C2E8DBE800E892E8692E9BE853
:10358000792E812C912C82E8A82E8BE8B82E0E94EF
:10359000C5042BE88338920718F16E01EE24FF244E
:1035A0009C0140E050E022583B4840405040C21649
:1035B000D306E406F5064CF4123039F48091660027
:1035C000815080936600000036C020916600215033
:1035D000209366000000EC01C258DB4811E028C0CF
:1035E0002BE88238920739F16E01EE24FF249C010A
:1035F00040E050E013012401221A330A440A550A1C
:10360000C214D304E404F5044CF4113039F480916D
:1036100066008F5F8093660000000DC020916600F9
:103620002F5F209366000000E501C81BD90B12E054
:10363000015009F0ACCFCDB7DEB7E2E10C9483B80E
:103640000E94DA1E882311F40E94B31A0895CF93C2
:10365000DF93C8E8D3E188EC0E94BD042197D9F735
:103660000E94201BDF91CF91089580917C0382FFFF
:103670000BC09FB7F89480917C038B7F80937C0371
:103680009FBF0E94A10EA9C08091780380FF0BC04C
:103690009FB7F894809178038E7F809378039FBFC3
:1036A0000E94C91F9AC08091780381FF0BC09FB709
:1036B000F894809178038D7F809378039FBF0E9458
:1036C00020168BC080917C0380FF0BC09FB7F894BD
:1036D00080917C038E7F80937C039FBF0E94ED19B5
:1036E0007CC080917C0383FF0BC09FB7F8948091CE
:1036F0007C03877F80937C039FBF0E9480196DC0ED
:1037000080917A0386FF0BC09FB7F89480917A036B
:103710008F7B80937A039FBF0E94A71D5EC080911C
:103720007A0387FF0BC09FB7F89480917A038F7755
:1037300080937A039FBF0E9400104FC080917B034B
:1037400081FF0BC09FB7F89480917B038D7F80939E
:103750007B039FBF0E94381540C080917B0382FF8E
:103760000BC09FB7F89480917B038B7F80937B0382
:103770009FBF0E94F81231C080917B0380FF0BC075
:103780009FB7F89480917B038E7F80937B039FBFCC
:103790000E94F61D22C080917C0381FF0BC09FB761
:1037A000F89480917C038D7F80937C039FBF0E945F
:1037B0003B1D13C080917C0384FF0FC09FB7F8941A
:1037C00080917C038F7E80937C039FBFE091D60C19
:1037D000F091D70C309709F00995809178038823F0
:1037E00081F480917903882361F480917A0388239E
:1037F00041F480917B03882321F480917C0388230A
:1038000061F02FB7F8948091D1039091D203826038
:103810009093D2038093D1032FBF0895E0917D034D
:10382000F0917E0387E0828380E98093BC008091E1
:103830007C03826080937C032FB7F8948091D1033E
:103840009091D20382609093D2038093D1032FBFD3
:103850000895E0917D03F0917E038281823031F002
:103860008281833019F08281843019F48581880F38
:1038700006C08281853049F48581880F8F5F8093EF
:10388000BB0085E88093BC0008950E940E1C08953B
:10389000E0917D03F0917E032081318186819781C3
:1038A0002817390780F480819181A085B185A80F00
:1038B000B91F2C910196918380832093BB0085E8EA
:1038C0008093BC00089586E0828384E98093BC00E5
:1038D00080917C03826080937C032FB7F894809161
:1038E000D1039091D20382609093D2038093D1034D
:1038F0002FBF0895E0917D03F0917E038385948529
:10390000A585B685208131812150304031832083C7
:103910002081318143E0220F331F4A95E1F704C033
:10392000B695A795979587952A95D2F78093BB0072
:1039300085E88093BC0080819181009741F4828169
:10394000823019F484E08283089585E082830895AB
:10395000E0917D03F0917E038281843019F40E940E
:10396000481C08958281823019F08281833019F4D5
:103970000E947A1C08958281853021F485EA809323
:10398000BC0008950E940E1C0895E0917D03F09103
:103990007E0382818530A1F48681978181309105F3
:1039A00021F48091BC008F7B03C08091BC008064B7
:1039B0008093BC008091BC0085688093BC00089512
:1039C0000E940E1C0895E0917D03F0917E03928188
:1039D000953011F520813181A085B185A20FB31FEB
:1039E0008C932F5F3F4F31832083208131818681EB
:1039F000978101972817390720F48091BC008064D3
:103A000003C08091BC008F7B8093BC008091BC0080
:103A100085688093BC0008950E940E1C0895E09173
:103A20007D03F0917E039281953011F520813181E3
:103A3000A085B185A20FB31F8C932F5F3F4F3183B9
:103A4000208386E0828384E98093BC0080917C039C
:103A5000826080937C032FB7F8948091D10390917A
:103A6000D20382609093D2038093D1032FBF089535
:103A70000E940E1C0895A0917D03B0917E031F96B5
:103A8000ED91FC9150973097A1F012968C9112977E
:103A9000863049F48091BC0084FDFCCF81E0129611
:103AA0008C93129704C081E012968C9380E0099564
:103AB000089581E012968C931297089523982B987D
:103AC0001CBC0895E0919203F09193032681378105
:103AD000848195812817390769F0A48DB58D84817B
:103AE000958101969583848384819581A80FB91F60
:103AF0008C918EBD0895E0919203F09193033097DD
:103B000019F40E945E1D08954285538522853385F0
:103B10002F5F3F4F33872287228533852A30310537
:103B200011F41386128662857385208531856217AC
:103B3000730719F45387428708954852534FDA01A7
:103B40008C938485958501969587848708952FB7F2
:103B5000F894E0919203F0919303848595852FBFAB
:103B6000009731F005A0F6A1E02D309709F00995F6
:103B70000895ADE0B0E0EFEBFDE10C9477B8FC0107
:103B8000009739F1848195819093800380937F031E
:103B900080819181A281B3818F839887A987BA8719
:103BA00081E08B871D861C86CE0101960E94901FA6
:103BB0002FEF8F3F920781F02FEF8D3F920761F03B
:103BC0000E94CD192FEF8F3F920749F42DEF3FEF61
:103BD00008C02FEF3FEF05C02EEF3FEF02C020E0FF
:103BE00030E0C9012D96E2E00C9493B8A0E1B0E07A
:103BF000ECEFFDE10C9474B800918F0310919003E9
:103C0000D80112968C911297823029F08430C9F035
:103C1000882331F074C070E060E088E0F82E6BC05B
:103C200080E090E0D8011396ED91FC911497E80F95
:103C3000F91F208120933F0101968031910591F772
:103C40005EC010923C0180E010923E018F5F803197
:103C5000D9F780913C01806880933C0180913D01BF
:103C600080FFFCCFFE013196CE014196DF0120910D
:103C70003F012D93A817B907D1F7219120933F0158
:103C8000E817F907D1F7C7CFF8018281823019F41C
:103C900010923C0102C0F0923C01872F90E0AC01F1
:103CA000405F5F4F9C01D8011396ED91FC911497F2
:103CB000E20FF31FE081E0933E012F5F3F4F241797
:103CC000350789F720913C01206820933C01209121
:103CD0003D0120FFFCCF20913E01D8011396ED91CC
:103CE000FC911497E80FF91F20830196841795071C
:103CF00091F7705F6F5FF8018581681728F28FE890
:103D000093E00E946E7780918F03909190030097CB
:103D100089F080917B03816080937B032FB7F894B7
:103D20008091D1039091D20382609093D2038093CB
:103D3000D1032FBFD8011696ED91FC9117970995E5
:103D40006096E5E00C9490B88FB390E0FC01E270CF
:103D5000F07081FDF9CF8FB7F89499E090935700F8
:103D6000E4918FBFEF70E23019F41092910303C019
:103D700081E0809391038FB7F894909191039923F8
:103D800049F45F9350E85093610050E05093610014
:103D90005F9108C05F9350E85093610051E05093E9
:103DA00061005F918FBF80919103882311F40E947D
:103DB000271B08958091910308951F920F920FB6CB
:103DC0000F920BB60F9211242F933F934F935F9353
:103DD0006F937F938F939F93AF93BF93EF93FF93D3
:103DE0008091B90090E0887F90708832910569F1E8
:103DF000893291059CF48031910521F18131910541
:103E000034F4009729F18830910589F51BC0883179
:103E10009105D9F08032910551F51AC08834910589
:103E2000B9F0893491053CF48033910589F08034F0
:103E30009105E9F410C08035910581F08835910530
:103E4000B1F411C00E94291C12C00E94A81C0FC00E
:103E50000E940E1C0CC00E94C51C09C08091BB00B2
:103E60000E94E31C04C08091BB000E940F1DFF91C3
:103E7000EF91BF91AF919F918F917F916F915F91E2
:103E80004F913F912F910F900BBE0F900FBE0F904F
:103E90001F9018951F920F920FB60F920BB60F92AC
:103EA00011242F933F934F935F936F937F938F933F
:103EB0009F93AF93BF93EF93FF93DF93CF930F92B3
:103EC000CDB7DEB78EB589830E94621D89810E94BD
:103ED0007B1D80917A03806480937A032FB7F894D6
:103EE0008091D1039091D20382609093D20380930A
:103EF000D1032FBF0F90CF91DF91FF91EF91BF9131
:103F0000AF919F918F917F916F915F914F913F9171
:103F10002F910F900BBE0F900FBE0F901F90189512
:103F2000CF93DF93EC01009741F10E941B162E8185
:103F30003F81488559850E9406B828EE33E040E06D
:103F400050E00E9445B82115310541055105C1F0E9
:103F500080918E0382FD17C0846080938E03E1E818
:103F6000F3E08DE0099001928150E1F7CA01B901B7
:103F70000E94881520E030E008C02FEF3FEF05C019
:103F80002EEF3FEF02C02DEF3FEFC901DF91CF9140
:103F9000089580918E0382FF24C090918B03992312
:103FA000B1F4E0918C03F0918D03309709F00995FD
:103FB00080918E0382FF15C0609187037091880302
:103FC0008091890390918A030E94881508958B7FC0
:103FD00080938E03E0918C03F0918D03309709F06C
:103FE000099508958091A903982F9F5F9093A90345
:103FF0000895DC01ED91FC91119790939B0D8093B6
:104000009A0D1092870D1092880D809198038093DD
:104010008C0D2091F20C3091F30C83899489B901B5
:104020000E9431B8462F60938A0D83899489B90123
:104030000E9431B8009719F04F5F40938A0D8FEFBF
:1040400090E000907E0B02C0880F991F0A94E2F75F
:1040500080958E7F8093890D0E94F21F80938B0D37
:104060000895FC01878983FF0AC081E090E02389DD
:1040700034892036310528F480E090E0089580E00E
:1040800090E00895CF93DF934091E20C2091E70CEC
:104090003091E80C90E058C0F901225A3F4F578107
:1040A00050FD51C0DF01AA5BBF4F11961C921E92BA
:1040B0008230C1F0823018F0833009F048C090910E
:1040C000E60C2091E40C921708F041C09F5F90939A
:1040D000E60C138214821582168290859F70908759
:1040E000128228C02091E50C9091E30C291778F5F5
:1040F0003091E90CA091EA0CB091EB0C90E014C067
:10410000ED014C919396442371F42F5F2093E50CBD
:1041100021E02883DF01AA5BBF4F68961196DC93EC
:10412000CE93228303C09F5F931750F32091E90C35
:10413000291769F09085907F9087880F8160878329
:104140001182108206C09F5F941708F4A5CFE0E0AB
:10415000F0E0CF01DF91CF9108952091E70C3091ED
:10416000E80C821B930B6EE570E00E9431B8EEE51F
:104170006E9FF0011124E20FF31F8781869590E076
:104180008230910571F0833091051CF083309105E8
:1041900039F58091E60C882319F181508093E60C63
:1041A0001FC08091E50C882319F081508093E50CA5
:1041B0002091EA0C3091EB0CDF01AA5BBF4F8D918F
:1041C0009C91821B930B63E270E00E9431B8A3E2E2
:1041D0006A9FD0011124A20FB31F8C9181111C92F0
:1041E00087818E7F8783089521E030E002C0220F0F
:1041F000331F8A95E2F780919703822B8093970370
:104200002FB7F8948091D1039091D203806290935C
:10421000D2038093D1032FBF0895CF93DF93EC0196
:10422000009729F16B8F4115510551F0FA018081FA
:104230009181A281B3818C8F9D8FAE8FBF8F04C07F
:104240001C8E1D8E1E8E1F8EE98DFA8D309719F0F3
:10425000CE014B960995CE010E943120882339F07A
:1042600010929B0D10929A0D81E00E94F420DF9134
:10427000CF9108951F938091AA0381508093AA0340
:104280008091EC0C8330C9F11091860D1123A9F1B6
:1042900081E08093EC0C60917E0B70E06150704087
:1042A000882777FD8095982F2AE030E040E050E0A5
:1042B0000E9406B82091BE033091BF034091C00315
:1042C0005091C103620F731F841F951F20919803A3
:1042D00030E040E050E00E9406B86093F40C709328
:1042E000F50C8093F60C9093F70C11501093860DFB
:1042F00089E993E00E94B1790AC01092EC0C109207
:10430000F40C1092F50C1092F60C1092F70C1F9111
:104310000895A1E0B0E0EFE8F1E20C9475B88C01EB
:1043200084EC93E069830E946E776981D8011796C7
:104330006C9317971596ED91FC911697C801079607
:1043400009958091C4039091C503009719F080E00E
:104350000E94F4202196E4E00C9491B82091AA03E5
:104360002F5F2093AA030E94AA610895AF92BF9283
:10437000DF92EF92FF920F931F93DF93CF930F92F1
:10438000CDB7DEB78C015B01FB01E05BFF4F82E73D
:1043900093E291838083FB01EE5BFF4F82E0808399
:1043A000FB01ED5BFF4FD80113968D919C91149703
:1043B00091838083FB01E65BFF4F58968C91589761
:1043C0008083FB01E55BFF4F1082FB01E45BFF4F45
:1043D00081E08083FB01E35BFF4F8083FB01E25BB5
:1043E000FF4F808357968C91579786FD0DC081E0D3
:1043F00090E013962D913C911497BFEF283F3B0717
:1044000028F080E090E002C081E090E0F501E15BFF
:10441000FF4F8083E090F20CF090F30CC8010E94F3
:1044200031208823E9F12091870D422F50E08091BF
:104430008A0D90E001974817590711F0DE2C06C04D
:104440002E9D802D1124F801D388D81A40919C0DFF
:1044500050919D0D405E5F4F30E02E9DC0012F9D1D
:10446000900D3E9D900D1124D80155962D913C91B3
:104470005697280F391FCA01B9014D2D50E00E94EF
:104480001FB9F501EB5BFF4F8D2D865F8083F50132
:10449000EA5BFF4F80919C0D90919D0D469611C057
:1044A000F501EB5BFF4FD80153968C915397885FD2
:1044B0008083F501EA5BFF4F55968D919C9156974D
:1044C000089791838083F501EA5BFF4FE080F180DC
:1044D000F7012081822F8C7E8083D80113968D91E5
:1044E0009C911497207EBFEF873F9B0710F02860B8
:1044F000F7012083D7019C91892F8F7D8C93F80140
:10450000278922FD03C09F799C9321C08064D70135
:104510008C93F5012085207F21602087C8012983A5
:104520000E94312029812F70882351F080918C0DB9
:104530008295807F822BD50118968C93189707C09F
:10454000809198038295807F822BF5018087C80136
:104550000E943120D7019C918823E1F090689C93C0
:104560009091870D18968C911897992359F48C7F08
:10457000816018968C93189780918A0D19968C9368
:1045800019970BC08C7F8260F70180878091870D1F
:10459000818703C09F77D7019C93F8018585D70158
:1045A00011968C9311978089918913969C938E9381
:1045B00012978685978515969C938E93149782897A
:1045C00016968C93C8010E943120882329F080918F
:1045D0008B0DF701878305C00E94F21FD701179644
:1045E0008C93C50109960E94AE2180E00F90CF9177
:1045F000DF911F910F91FF90EF90DF90BF90AF90F0
:10460000089560919A0D70919B0DFB0180819181BD
:104610000E94B62108952AE43DE0A901405D5F4F64
:1046200050934B0D40934A0D92E09093460D40916C
:10463000FB0C5091FC0C5093480D4093470D9BE0B0
:104640009093490D10924E0D10924F0D91E0909362
:10465000500D9093510D1092520D4AE351E2509338
:10466000550D4093540D9093530D92E890937A0D0D
:104670009091020D90937B0D4091FE0C5091FF0C98
:1046800050937D0D40937C0D4091000D5091010D94
:1046900050937F0D40937E0D9091FD0C9093800D73
:1046A0009091030D9093810D92E09093820D9091E3
:1046B000F90C9093830D9091FA0C9093840D909146
:1046C000850D9093630D1092F40C1092F50C1092DE
:1046D000F60C1092F70C8093EC0CC901CD970E9458
:1046E000AE210895BC018091AA0381508093AA0352
:1046F00087EA93E00E94B57781E00E94F420089554
:10470000CF93DF93BC01C091C403D091C50384EC67
:1047100093E00E94B577209719F480E00E94F4207E
:10472000DF91CF910895A3E0B0E0E9E9F3E20C94C2
:1047300071B88C01675F7F4F7B836A838DE0BE0118
:104740006F5F7F4F0E9442078981D80153962C9159
:104750005397882309F43FC0CA80DB8081E0F601CB
:1047600081AF13968D919C91149793AF82AF285F80
:1047700024AF5596ED90FC90569788EF9FEFE80E8A
:10478000F91EF6AEE5AE8FEFD70111968C93119717
:10479000F8018089918913969C938E931297868550
:1047A000978515969C938E931497828916968C9371
:1047B0000E94F21FD70117968C93D601DD96ED91DA
:1047C000FC91DE9788E08083EA81FB81E95BFF4F03
:1047D00082E793E241C0CA80DB8082E0F60181AFCC
:1047E0008DEF9FEF93AF82AF275F24AFD80155962F
:1047F000ED90FC905697E7EFFFEFEE0EFF1ED6010F
:10480000DE96FC92EE92DD97F80183819481D701C8
:1048100012969C938E9311978089918914969C93FC
:104820008E9313978685978516969C938E931597EE
:10483000828917968C930E94F21FF7018087D60118
:10484000DD96ED91FC91DE978CE08083EA81FB811F
:10485000E95BFF4F86E894E291838083EA81FB81E4
:10486000EF5BFF4FD80158968C918083EA81FB81E2
:10487000EE5BFF4F80917D0B8083EA81FB81ED5BD6
:10488000FF4F81E08083EA81FB81EC5BFF4F8083F7
:10489000EA81FB81EB5BFF4F8083EA81FB81EA5B6E
:1048A000FF4F80838A819B810E94AE2180E0239606
:1048B000E8E00C948DB8A4E0B0E0E1E6F4E20C94FA
:1048C00076B8182F89E1BE016F5F7F4F0E944207C3
:1048D000612F70E080E090E02091AE033091AF0353
:1048E0004091B0035091B1030E9406B89B01AC0106
:1048F00089819A81AB81BC81280F391F4A1F5B1FB8
:10490000B901CA012496E3E00C9492B80F931F9367
:10491000CF93DF93EC018C0109541040D801DD9650
:10492000ED91FC91DE97818192816FEF0E943F5B58
:10493000882349F0229782E793E299838883C8010C
:104940000E946D6103C0CE010E947223DF91CF915E
:104950001F910F9108958F929F92BF92CF92DF92F5
:10496000EF92FF920F931F93DF93CF930F92CDB7E8
:10497000DEB76B01B42E79018090AC039090AD034B
:104980000091AB0326E1029F80011124080D191D3F
:10499000009719F126E1822E912C880E991E1DC0D8
:1049A000F4012589243A11F02A3A99F4F40180851A
:1049B000B81679F481859285C816D90651F4C401D8
:1049C000B70148E050E029830E9412B9298100977D
:1049D000B9F026E130E0820E931E8016910600F3B6
:1049E00088249924C4010F90CF91DF911F910F91DA
:1049F000FF90EF90DF90CF90BF909F908F900895A1
:104A0000243A39F7EFCFA1E0B0E0E9E0F5E20C9409
:104A10006DB84C017B010E949D396C01F701E45A8D
:104A2000FF4F0081118158EA5F0129C0F501118310
:104A30000083F80183858330A9F4C8010C960E9495
:104A4000BC700097D9F0F8012489F4012587FC0196
:104A500080819181F40194838383C401B7010E9412
:104A6000B6210AC0F80184859585F4019483838377
:104A7000C401B7010E949323582F0EC059EAF401D4
:104A800060897189C8014289960159830E94AB24CB
:104A90008C015981009751F6852F2196ECE00C94FA
:104AA00089B81F93CF93DF93EB01FB01E45AFF4FCB
:104AB000118210820E940325182F882319F0CE013D
:104AC0000E94AD20812FDF91CF911F910895A0E02A
:104AD000B0E0EDE6F5E20C9470B88C01B62EC09112
:104AE000AC03D091AD039091AB0386E1989F700128
:104AF0001124EC0EFD1E3CE0C32ED12CC00ED11EA5
:104B000035C0F8012185328590858D89843A11F070
:104B10008A3A59F58885981741F589859A85281725
:104B2000390719F5CE01B80148E050E00E9412B9EA
:104B30000097D9F429C0813049F4F80124853585DE
:104B40008C859D852817390781F417C0F801948951
:104B50008C89981751F4BE01645F7F4FC60148E00D
:104B600050E00E9412B9009741F06696CE15DF051D
:104B700040F2F801B58AC0E0D0E07E01CE01CDB7A9
:104B8000DEB7E9E00C948CB8F80183859B85891722
:104B900061F7D1CFCF93DF930E94F9B8EC0144E0E5
:104BA000CC0FDD1F4A95E1F7C0700E94F9B8282F9D
:104BB00030E02C2B3D2BC901DF91CF91089588E384
:104BC00069EE7CE00E9442078DE46AEE7CE00E9480
:104BD0008D072091EA0C3091EB0C60E083E290E0CD
:104BE0000DC0462F50E0489FF001499FF00D589F9F
:104BF000F00D1124E20FF31F10826F5F4091E90C5A
:104C0000641778F387E362EE7CE00E9442078CE44D
:104C100067EE7CE00E948D078091E20CE091E70C4A
:104C2000F091E80C90E006C027812E7F27839F5FDC
:104C3000E25AFF4F9817C0F39091E90C9093E30C60
:104C4000823008F081508093E40C1092E50C1092B1
:104C5000E60C8FE362EF7CE00E9442078EE361EF97
:104C60007CE00E9442078091F10C882351F08EE491
:104C70006DEE7CE00E948D078FE46CE97DE00E9480
:104C80008D074091F10C50E08091F20C9091F30C63
:104C9000489F9001499F300D589F300D11248091FD
:104CA000ED0C9091EE0C820F931F9093F00C80937B
:104CB000EF0C1092EC0C0895A1E0B0E0E2E6F6E211
:104CC0000C9473B810E001E02EE55FEFE52EF12CB7
:104CD00042C0129FC0011124E091E70CF091E80C52
:104CE000E80FF91F378130FF35C080858F70823023
:104CF00089F53E7F323011F0363061F58381948141
:104D0000A581B6818A309105A105B10548F00A97C1
:104D1000A109B10983839483A583B68300E01AC0F7
:104D20008085807F8460808713821482158216823A
:104D3000363059F4C70100907E0B02C0880F991FCE
:104D40000A94E2F780958093890D81E029830E947F
:104D5000F42029811F5F8091E20C181708F4B9CF65
:104D60008091F40C9091F50CA091F60CB091F70C99
:104D70000097A105B10591F08B309105A105B10512
:104D800050F00A97A109B109E2EEFCE0828B938B07
:104D9000A48BB58B09C082E00E940B23002321F075
:104DA00089E993E00E94BB792196E6E00C948FB8E4
:104DB0000F931F93CF93DF938C01FC01C081D181AE
:104DC0006E3C11F0603F11F423E001C022E0F801D5
:104DD000E95AFF4F80819181A281B3818C8F9D8F91
:104DE000AE8FBF8F6B8F233049F08A81882331F4D7
:104DF000CE01B8010E940325883A61F4AE01445EF9
:104E00005F4FF801808191816B8D0E940D21C80157
:104E10000E94AD20DF91CF911F910F910895CF9304
:104E2000DF93EC01009709F44AC086EA8D8B8885F0
:104E3000882309F444C08F3F09F441C08B85833037
:104E400031F48C898823D9F18F3F19F438C081302F
:104E5000B1F51D8ACE0160E00E946725009709F533
:104E60003091AB038091AC039091AD0320E00BC077
:104E7000FC0145894696483A29F484EA858B3097A7
:104E800039F41DC02F5F231798F38EEA8D8B17C05E
:104E9000DF0186E109900D928150E1F784EA858B6C
:104EA00009C0CE0166EA0E94672524EAFC01258B31
:104EB000009729F080E160E070E00E940779DF91BF
:104EC000CF910895FC01009709F186EA858B8085D2
:104ED0008823E1F08F3FD1F08385833031F48489DA
:104EE0008823A1F08F3F19F40895813079F4158A51
:104EF000CF0164EA0E946725009741F028EAFC018F
:104F0000258B80E160E070E00E9407790895BC0184
:104F100082EC93E00E94B57781E00E94F42008952E
:104F2000BC018CEB93E00E94B57781E00E94F420F5
:104F30000895AAE0B0E0EFE9F7E20C9471B8E090D0
:104F4000D80B8EE2BE016F5F7F4F0E9442078E0139
:104F5000095F1F4F89E1B8010E9442078F81988540
:104F6000A985BA852E2D30E040E050E0281739079A
:104F70004A075B0760F0880F991FAA1FBB1F8F832A
:104F80009887A987BA8789E1B8010E9470072E2DFA
:104F900030E0295F3F4F442737FD4095542F209341
:104FA000AE033093AF034093B0035093B103E98055
:104FB000FF2400E010E0C801B701660F771F881FCB
:104FC000991F6E0D7F1D801F911F0E9406B82F81B3
:104FD000388549855A85620F731F841F951F60931A
:104FE000BE037093BF038093C0039093C10389E90C
:104FF00093E060E02AE030E040E050E00CE516E2AB
:105000000E94C47981E08B838EE2BE016E5F7F4F88
:105010000E9442078A8190E0A0E0B0E0880F991FCB
:10502000AA1FBB1F8F3F9105A105B10529F020F0F4
:105030008FEF90E0A0E0B0E00E945B246B017C0168
:1050400083E2BE016D5F7F4F0E9442072B8180E0AB
:1050500090E0DC018C0D9D1DAE1DBF1D81509E4F4B
:10506000AF4FBF4FCC0CDD1CEE1CFF1C215091F745
:105070001B827C018D01F9E016950795F794E79462
:10508000FA95D1F70894E11CF11C011D111D1E8237
:105090001D821C8289E3BE016C5F7F4F0E94420724
:1050A00087E4BE016B5F7F4F0E948D076D817E811B
:1050B0008FEFE816F1040105110531F028F0EFEF4C
:1050C000EE2EF12C012D112D82EB93E04C8120E08E
:1050D00032E00E2DEE24E3940E94D5772A96E8E084
:1050E0000C948DB8882359F00E94CA258093A90397
:1050F0001092AA0383E268E973E00E9442071092CB
:10510000C3031092C2031092BD031092BC0310920D
:10511000A8031092A7031092C7031092C6038AE057
:1051200090E0A0E0B0E08093930D9093940DA09355
:10513000950DB093960D81E093E29093990D809335
:10514000980D81E08093970D86E26EE77BE00E94E8
:1051500042071092FA0C1092030D1092F80C109264
:10516000FF0C1092FE0C1092F90C1092FD0C109294
:10517000010D1092000D1092FC0C1092FB0C10927D
:10518000020D1092EC0C1092F40C1092F50C10928F
:10519000F60C1092F70C8EE5E4E0FDE0DF011D92C5
:1051A0008A95E9F783E2E2E6FDE0DF011D928A9548
:1051B000E9F74091F10C50E08091F20C9091F30CE2
:1051C0000196489F9001499F300D589F300D112442
:1051D0008091ED0C9091EE0C60E070E0A9010E94CE
:1051E0003AB98AE79DE090934B0D80934A0D0E9457
:1051F00099270895A0E0B0E0E0E0F9E20C9471B8DE
:105200007C01EC012997809194039091950327E00C
:105210008030920709F061C00AC082EC93E00E94DE
:105220006E77C80163EA40E050E00E940D210091D2
:10523000C2031091C3030115110579F72DC087EA48
:1052400093E0B8010E947F772091E70C3091E80C41
:10525000C801821B930BB6010E9431B88EE5689F8E
:10526000F0011124E20FF31F80819181278126959F
:1052700030E02115310521F02130310581F406C0DF
:10528000A8014B5F5F4FF801628103C067EA40E00D
:1052900050E00E940D2103C0AEE5CA2ED12C009132
:1052A000A7031091A8030115110549F610E00EE5BA
:1052B00010C0109F900111248091E70C9091E80C90
:1052C000820F931FFC01278120FF02C00E94AD20A6
:1052D0001F5F8091E20C181760F3109297031092F1
:1052E000960381E00E9472280E94DF258A850E9431
:1052F000695D0A85102F11700695017081E56CEAD1
:1053000073E00E948D078DE36BEA73E00E94420711
:10531000000F012B033099F0E091AC03F091AD0345
:105320009091AB0386E1989FC00111248E0F9F1FBF
:1053300028EA02C0258B7696E817F907D8F38A8504
:1053400081FF03C08FE394E002C080E393E0909379
:10535000950380939403F70180818E8784EC93E01A
:105360000E946E77EC85FD85CE010E9609958091A1
:10537000C4039091C503009719F080E00E94F420C7
:10538000CDB7DEB7E8E00C948DB8CF93DF93C09132
:10539000C403D091C5038A818A3821F1853C09F480
:1053A0004AC0893109F065C08091940390919503BA
:1053B00021E08031920719F480E092E002C080E0A1
:1053C00097E090939503809394038A858D838B85D2
:1053D0008E838AEF98E298878F83CE0103960E948E
:1053E000C47247C0809194039091950323E0803369
:1053F000920721F026E08031920751F48FE394E088
:1054000090939503809394030E9499271D8202C074
:1054100083EA8D8384EC93E00E946E77EB81FC81BC
:10542000CE01059609958091C4039091C50300971C
:1054300001F180E017C0809194039091950324E0DE
:105440008F33920791F480E095E0909395038093D9
:10545000940382E090E09C838B8389E993E00E942F
:10546000BB7981E00E94F42004C0CE0163EA0E946F
:105470008921DF91CF9108959C018FEF6F3F7807CD
:1054800031F4832F8095881F8827881F089581E035
:105490002617370709F080E00895FC01009729F4EA
:1054A0008091C8039091C9030895808191810895E6
:1054B0001F93182FE0E0F0E005C0A381B4818C9128
:1054C000181731F0CF010E944D2AFC010097A9F76F
:1054D000CF011F910895CF93DF93EC010097E1F086
:1054E00086EA8F83EB81FC813097B1F08081982F21
:1054F0009150903F88F40E94582A009769F421E067
:105500008D819E81009709F020E02A8388EC93E04A
:10551000BE010E94B5771F82DF91CF910895A0E070
:10552000B0E0E5E9FAE20C9472B8EC0100E010E0BA
:1055300026C0D80112968C911297882301F51396F4
:10554000ED90FC9014976C8D7D8DF7018181928197
:105550000E943C2A882399F0D701DC908B8D8D1511
:1055600039F4EF84F8880E94C258E816F90639F039
:105570008B819C816D2D0E943F5B882339F4C8018B
:105580000E944D2A8C010097A1F609C0DD86D80142
:105590001596ED91FC911697CE010995F0CFCDB7F8
:1055A000DEB7E7E00C948EB8ADE2B0E0EAEDFAE2E7
:1055B0000C946DB88C01C62EDC011A96ED90FC900F
:1055C0001B9715962D913C91169782EB93E0B901AC
:1055D000F70147810E944378882309F42AC1D70143
:1055E00011968C911197982F91509E3F30F40E9404
:1055F000582A5C01009719F41CC1AA24BB24F801A5
:10560000228183819481213009F022E02B839D83C4
:105610008C83D70111968C918E87F80185819681B4
:105620000E94D16BFC01009799F083E08F87808105
:105630008A8B81818B8B82818C8B83818D8B848102
:105640008E8B85818F8B8681888F8781898F02C021
:1056500082E08F87D80115968D919C911697998B32
:10566000888B17968D919C9118979B8F8A8FF70145
:1056700086818C8F848195819E8F8D8F828193818D
:1056800098A38F8F19968C91199790E09C012A50BE
:1056900030403AA329A31DA2208127FD04C09C010C
:1056A0002850304009C0D70118962C9118972370C4
:1056B00029F49C01295030403AA329A329A13AA1F9
:1056C000821B930BF80122853385280F391F3CA3D9
:1056D0002BA3CEA282898FA3848588A786859785F0
:1056E000A089B18989A79AA7ABA7BCA785858DA7F3
:1056F000D7018C9187FF53C018968C9118978370AF
:10570000823009F04CC0E091EF0CF091F00C8081F8
:1057100089A31AA280809924B1E0CB2ED12C33C06A
:105720008091ED0C9091EE0CDC01A80DB91DE0917B
:10573000EF0CF091F00CEC0DFD1D40816091F20C2E
:105740007091F30CC69E9001C79E300DD69E300D11
:105750001124280F391FCD01B90150E00E941FB953
:10576000E091EF0CF091F00CEC0DFD1D208189A172
:105770009AA1820F911D9AA389A38081880E911C02
:105780000894C11CD11C8091F80C90E0C816D90671
:105790003CF28091ED0C9091EE0C9CA38BA3A11494
:1057A000B10449F0D5011596ED91FC911697CE0103
:1057B000019609953EC0F8018281813029F4CE011D
:1057C00001960E948F2A35C0D70111968C911197AE
:1057D0008F3F59F5EE24FF246E010894C11CD11CA3
:1057E0001DC0D7011396ED91FC911497A080AA20BB
:1057F000A9F012968C911297882381F46D8D7E8D7D
:10580000818192810E943C2A882341F0AE86D70193
:105810001596ED91FC911697C6010995C7010E9456
:105820004D2A7C010097E9F604C0CE0101960E9442
:105830003383F801168A0488F589E02DC80146965D
:105840000995AD96ECE00C9489B8A1E0B0E0EBE2EC
:10585000FCE20C946FB88C01DC011A96AD90BC9000
:105860001B97F5018181982F91509E3FC0F40E94B3
:10587000582A7C01009709F423C1DC011396ED91AD
:10588000FC911497D50114966D917C9115978181A7
:1058900092810E943C2A882309F412C102C0EE249E
:1058A000FF24F501808187FF04C09085937009F083
:1058B00007C186FF03C18C70883009F401C1D8018B
:1058C00015962D913C911697BFEF273F3B0708F0A7
:1058D000F7C0E114F10429F0F7018281882309F06F
:1058E000EFC0D5018C9186FFE5C08370813011F443
:1058F00041E001C047E0F090E20CE091E70CF0914C
:10590000E80CED5BFF4F50E0842F90E0B501680F8D
:10591000791F1AC0DF01A354B0401796AC91A5308F
:1059200081F4A081B1812A173B0759F4C380D48048
:10593000C80ED91EDB01EC90D601DC90ED1409F401
:10594000B9C05F5FE25AFF4F5F1520F382E04983E1
:105950000E9442204981009709F4ACC0FC01EA5B37
:10596000FF4F0190F081E02DDF0158972FEA11964B
:105970002C93119713961C930E931297DC01AE5B38
:10598000BF4F62E06C9353E4E52EF12CE80EF91E54
:10599000D80115962D913C911697D7012D933C93E4
:1059A000DC01A65BBF4F1C92DC01A55BBF4F1C92C4
:1059B000DC01A45BBF4F51E05C93DC01A35BBF4FF4
:1059C0005C93DC01A25BBF4F1C92DC01A05BBF4F6C
:1059D00022E733E22D933C93DC01A15BBF4F5C9344
:1059E00020812C7F22602083D5013C913C70237F55
:1059F000232B20833C9130712F7E232B322F3F7934
:105A000030833C9130782F71232B20832C9150E0F0
:105A100035E4E32EF12CE80EF91E24FF0DC0D80169
:105A20001A962D913C911B97240F351FD9012C916B
:105A30002183F701608339C028E0D7012C93D50179
:105A400016962C911697218312962D913C911397BF
:105A50003383228314962D913C91159735832483AB
:105A600011962C912683D8011A962D913C911B9763
:105A7000240F351FD9012C912783D5012C9127FFA5
:105A800014C018962C911897237031F41086F701E2
:105A900020812F5F208309C0D7012C912D5F2C938B
:105AA000D50118962C912370208709960E94AE216B
:105AB00091E001C090E081E08927B1C181E001C09F
:105AC00080E0F501908197FFA1C1F0849F2D937034
:105AD00009F49CC1D80119968C911997E1844091E1
