:100000000C943C040C945C040C945C040C945C0410
:100010000C945C040C945C040C945C040C945C04E0
:100020000C945C040C945C040C945C040C945C04D0
:100030000C945C040C9405160C945C040C944E1601
:100040000C945C040C945C040C945C040C945C04B0
:100050000C945C040C945C040C945C040C945C04A0
:100060000C94FE1E0C9425180C94C9170C94F717C9
:100070000C945C040C94011A0C94F3180C945C041A
:100080000C945C040C945C040C945C040C945C0470
:100090000C94B3180C9457180C9485180C94911E5A
:1000A0000C945C040C945C040C944A170C940DB7EB
:1000B0000C945C040C945C040C945C040C945C0440
:1000C0000C945C040C945C040C945C040C945C0430
:1000D0000C945C040C945C040C945C040C945C0420
:1000E0000C945C040C945C040C945C040C945C0410
:1000F0000C946AB70C945C040C945C040C9492B756
:100100000C945C040C945C040C945C040C945C04EF
:100110000C945C040C945C040C945C040C945C04DF
:10012000330B160019005405D8001700E60B020027
:100130001300EF0B01001400610C08001500B50B53
:1001400001001600950B08000000AF0B0100010034
:10015000DC0B080002004A0B040003005B0C0100EA
:100160000400520C01000500BF0B01000600C00B8B
:1001700001000700C10B01000800CB0B11000900B2
:10018000B00B02000A00B60B01000B005D0C020070
:100190000C00550C01000D006B0C01000E00E50B6E
:1001A00001000F00810611002300A30614002200A5
:1001B000CB0617002100F90602002000FD0604000E
:1001C0001F00050710001E00453756368A378A374C
:1001D0008A375C3666368A378A376F3675369E368A
:1001E000A7368A37AD36B636C1368A37CA36D036E4
:1001F0008A37D93616372B378A371C372537453794
:100200004537453737373737373737373737373762
:10021000373737373737373737373737373737376E
:10022000373737373737ED3637378A378A378A37B0
:100230008A378A378A378A378A378A378A378A37B6
:100240008A378A378A373737313745373737E8368D
:10025000FC385C384C394C394C39623867381339C2
:100260004C396A386D3886388B384C398E3891382D
:1002700094384C3999389C381339A138F0380539FD
:100280004C39F338F6386038F938F93813391339FE
:1002900013391339133913391339133913391339FE
:1002A0001339133913391339133913391339D6382C
:1002B00013394C394C394C394C394C394C394C394F
:1002C0004C394C394C394C394C394C394C3913393F
:1002D00008390B391339CF38FB4D034E8F4D504E33
:1002E000504ED64DE34D504E504E504E0D4E1C4E7E
:1002F000AF4DBB4D504E8C4DEE4D065306539352B1
:100300009A529A52A652A652B752B752DD52DD52B5
:10031000DD5256530653A369B069DD69EF69F6698A
:10032000036A106A1B6A236A416A6B6A2D6AE78551
:10033000908654876E878787AA88D788AE8CAE8CC4
:10034000AE8CAE8CAE8CAE8CAE8CAE8CAE8C30885F
:100350003E88AE8C798562884187058D128D348DFB
:100360002E8D2B8D348D3E8D378F378F378F378F76
:10037000378F378F378F378F378F2E8D348D378F5D
:10038000028D318D228DAC92B192B692BB92C09209
:10039000C592CA92CA92D892DB92F492DE92E1920E
:1003A000E492E792F492EA92ED92F492F092EA9655
:1003B000269726972697F0960997FC9602973697E8
:1003C000F6960F970F97159726972D973197819748
:1003D0008497879787978A97969790979397A697EA
:1003E0008D9799979C979F97A297659969999199ED
:1003F0006D997199919975999199839987998E9928
:10040000CE9D8D9E9F9E889DE59EE59E9A9E9F9E79
:10041000A29ED09EB99EE59EE59ED09EBC9DD39E99
:1004200038AE40AE52AE5BAE5DAE5FAE61AE64AEB6
:1004300035AFAEAFAEAF5DAF63AF72AF78AF7BAF8E
:100440007EAF81AF87AF950B08009E0B0100AB0B11
:100450000400AF0B0100590C01005A0C0100610CA3
:1004600008005D0C0200E60B0200EF0B0100550CCA
:1004700001006B0C01005B0C0100B20B0100B30B1F
:100480000100B40B0100B50B0100B00B0200B60B6C
:100490000100570C0100560C0100740B0100760B93
:1004A0000100DC0B08004A0B0400C20B0400B70B70
:1004B0000400BB0B0400BF0B0100C00B0100C10B0B
:1004C0000100CB0B1100520C0100C60B0100C70B41
:1004D0000400E40B0100770B0200E50B01000000B3
:1004E0000000760502007A050100780502007C050F
:1004F00001007D0501007E0501007F0501008005EA
:1005000001008105010082050100830501007B05D2
:10051000010084050100850501008E0502008605A5
:10052000010087050100880501008A05040089058E
:1005300001001F04000054050000A40400002C0664
:1005400000000000000054060000000000000B0B3B
:1005500000000000000030090000000000006709F2
:1005600000008F090000A90A000000000000000040
:100570000000330B00008500000008050808020594
:100580000204000000080302080135000E011410E7
:10059000C8320000033812010303000110270000D5
:1005A00010270000010001E803000004E803000038
:1005B0001041746D656C20202020202020202020F8
:1005C00020AAAAAAAAAAAAAAAA03000200000100B5
:1005D000000000000000000000000000000000001B
:1005E000000000000000000000000000000000000B
:1005F0000000000000000500FF00000000000000F7
:1006000000000000000000000000000000000000EA
:1006100000000000000000000000000000000000DA
:1006200000000000000000000000000000000000CA
:1006300000000000000000000000000000000000BA
:1006400000000000000000000000000000000000AA
:10065000000000000000000000000000000000009A
:100660000000000000000001020100020205050870
:100670000000FFFF3812000000000000000002062A
:10068000010000010002000300040005000600074D
:1006900000080009000A000B000C000D000E000FFE
:1006A000001800000001000200030004000500061D
:1006B000000700080009000A000B000C000D000EE6
:1006C000000F0013001400150016000000010002C6
:1006D0000003000400050006000700080009000AE6
:1006E000000B000C000D000E000F0013001400158D
:1006F0000016001700180019001A001B0013001440
:1007000000150016000000010002000300040005AF
:100710000006000700080009000A000B000C000D8D
:10072000000E000F00A40F9310A80FAC0F8F10B095
:100730000F03040506077929C72E000000000000FA
:10074000000000000000515186515E65B2725245B2
:10075000FA57C750624A4D41544E32635344966E25
:10076000F7403161864000000000000000000000FA
:100770000000020203020202010101010101010263
:10078000020101010202020202020202020202024C
:1007900002030302020302444824440107656C9FDC
:1007A000530101656C9F530101FA47274B010182F8
:1007B00047B46F010182478D6F01073A47305101FD
:1007C00001E1464B6F01010000000001070000003D
:1007D0000001010000000001030000253D010400AC
:1007E00000253D0105000000000106000000000199
:1007F0000C000000000101656C0000000100000019
:1008000000010D00000000010700000000010900C8
:1008100000000001000000000001010000000001D4
:10082000010000000000000000D84100070000D8CF
:1008300041000B0000D84100000000D84100FA3907
:100840006E3E423A1C3A3B3A0000013A0F3A343AC3
:10085000083A643EDB39DC3CE33C553DCE3C493A4A
:1008600000002E3FD2710C71AE65D26F000054674C
:100870008A4BC4450000000011241FBECFEFD1E415
:10088000DEBFCDBF12E0A0E0B2E0ECECF7E701E0A4
:100890000BBF02C007900D92A83EB107D9F713E134
:1008A000A8EEB2E001C01D92AA35B107E1F70E949F
:1008B000D0790E949279FDCF0C9400007F937FB78E
:1008C000F8949D9AA5988AEF0E94BD048AEF0E9431
:1008D000BD049D9886E40E94BD0481E0959980E066
:1008E0008F9380EF0E94BD048F917FBF7F91089509
:1008F0007F937FB7F8949D9AA59886E00E94BD04E7
:100900009D988AE00E94BD04889495990894881F58
:100910008F9384E60E94BD048F917FBF7F910895DD
:100920009F937F9398E00E947804879577959A9596
:100930009923C9F7872F7F919F9108957F937FB760
:10094000F894A5989D9A8F9386E00E94BD048F919C
:10095000879508F49D988F9384E60E94BD048F913B
:100960009D987FBF7F9108959F9398E00E949E0479
:100970009A959923D9F79F910895000000000000EF
:1009800000008A958823C9F708955F937F937FB706
:10099000F894CF93DF93C0E0D0E07F935091B20002
:1009A0007091B2007517E1F3739521965091B200E2
:1009B0005717D9F77F91CE01DF91CF917FBF7F91FC
:1009C0005F910895CF92DF92EF92FF920F93CF93B2
:1009D000DF93CDB7DEB760970FB6F894DEBF0FBEDA
:1009E000CDBF002309F45AC029873A874B875C871B
:1009F0006D877E878F87988B80E2801B49855A851B
:100A00006B857C851816B4F019821A821B821C82B1
:100A1000992787FD9095909581959F4F04C0440F2D
:100A2000551F661F771F8A95D2F74D835E836F83AC
:100A300078872CC06A017B01002E04C0CC0CDD1C21
:100A4000EE1CFF1C0A94D2F7C982DA82EB82FC8288
:100A50006A017B0104C0F694E794D794C7948A9501
:100A6000D2F7D701C6014D855E856F85788904C0B0
:100A7000440F551F661F771F0A95D2F7842B952BBD
:100A8000A62BB72B8D839E83AF83B88729813A81AC
:100A90004B815C816D817E818F81988560960FB6D8
:100AA000F894DEBF0FBECDBFDF91CF910F91FF90C5
:100AB000EF90DF90CF9008952C9A089595B180E142
:100AC000892785B908950F931F93CF93DF93EC0186
:100AD0008DB79EB70C970FB6F8949EBF0FBE8DBF13
:100AE000EDB7FEB731960BE014E0ADB7BEB7129686
:100AF0001C930E93119780E092E0938382838F85FD
:100B0000848315828B819C819783868389819A81D6
:100B1000918780878881828713860E94F5B8F801C3
:100B200001900020E9F7AF0141505040401B510BAC
:100B30008DB79EB70C960FB6F8949EBF0FBE8DBFB3
:100B40008AEE93E0B8010E9405118F85882379F41D
:100B500082E08093E8022FB7F89480919D039091F2
:100B60009E03946090939E0380939D032FBFDF911B
:100B7000CF911F910F9108950F931F93CF93DF9300
:100B80000F92CDB7DEB70AEE13E0C801BE016F5F6A
:100B90007F4F41E050E00E94A210C801BE016F5F8C
:100BA0007F4F41E050E00E9405110F90DF91CF91FF
:100BB0001F910F91089580EC8093F5031092F60336
:100BC00083E390E09093F8038093F70386E08093AB
:100BD000F9031092FA031092FB0389EE92E09093CE
:100BE000FF038093FE038AE090E0909301048093DA
:100BF0000004109203041092020410920504109253
:100C000004048CEB95E09093070480930604109203
:100C100009041092080410920A048AEE93E00E94DC
:100C2000831108951092E00380EC8093E20389EE33
:100C300093E09093E4038093E30381E090E090934A
:100C4000E6038093E5031092E8031092E7038DED2D
:100C500093E00E94C21408951F93CF93DF93CDB702
:100C6000DEB72C970FB6F894DEBF0FBECDBF11E0F4
:100C70001A831C821B828AEA8D838E838F838887E6
:100C800089878A878B878C8787E0BE016D5F7F4F5E
:100C90000E94240719838AE0BE016F5F7F4F0E9484
:100CA000240780E0BE016B5F7F4F0E94240780E233
:100CB000BE016E5F7F4F0E94240782E692E0909310
:100CC000F7028093F6028CE595E09093F902809309
:100CD000F80283EF92E00E941F2A83E695E090934A
:100CE0000E0380930D038BEF92E00E94A18210937C
:100CF000E8022FB7F89480919D0390919E03946031
:100D000090939E0380939D032FBF2C960FB6F8946B
:100D1000DEBF0FBECDBFDF91CF911F9108958091AF
:100D2000E8028823E9F4249A2C980E94DB050E94AB
:100D3000120688EE93E0A0E0B0E080931503909354
:100D40001603A0931703B0931803109219038EE5AE
:100D500095E090931B0380931A030E942C0608953C
:100D6000813029F48FE093E00E949A0E089582303A
:100D700029F48FE093E00E94C60E2C9A08958AEE23
:100D800093E06AE472E047E150E00E9405110895A3
:100D9000089508950895089591E0873208F090E04D
:100DA000892F0895CF93DF9300D000D0CDB7DEB761
:100DB000682F70E0660F771F660F771F6A5B7B4FA7
:100DC000CE01019644E050E00E94BDB869817A816D
:100DD0008B819C810F900F900F900F90DF91CF919E
:100DE00008950E944F070E94F9080895DF92EF923C
:100DF000FF920F931F93CF93DF93182FEB01209750
:100E0000D9F00E94D206062FF72EE82ED92E812F78
:100E10000E94CC06882341F4CE01602F7F2D4E2DF9
:100E20005D2D0E94BDB808C08C2F9D2F602F7F2D97
:100E30004E2D5D2D0E94D3B8DF91CF911F910F9160
:100E4000FF90EF90DF9008951F93CF93DF93182FBB
:100E5000EB01209791F00E94CC06813071F4812F34
:100E60000E94D206482F592F4115510531F0862F87
:100E7000972F6C2F7D2F0E94D3B8DF91CF911F91B8
:100E80000895CF93DF93EB010E94D206DC01CB01E2
:100E9000109711F499838883DF91CF91089582E3AD
:100EA000E9E7FBE0DF011D928A95E9F785E0809391
:100EB0009E0B86EE9BE06BEF75E046E850E00E94EB
:100EC000BDB88AE49BE06CEC75E04FE250E00E9414
:100ED000BDB889E49BE06BEC75E041E050E00E9416
:100EE000BDB88BEA9BE060E975E04BE350E00E94FF
:100EF000BDB88AE297E0EFE1F4E0DF019C011D92CA
:100F000021503040E1F708954115510559F0E62F81
:100F1000F72F20E030E09191890F2F5F3F4F24178A
:100F20003507C9F70895AF92BF92CF92DF92EF9243
:100F3000FF920F931F93CF93DF93CDB7DEB72C971C
:100F40000FB6F894DEBF0FBECDBF8C017B01CE0182
:100F500002969A87898785E090E09C878B87FB01C2
:100F600080819181059798878F83CE01079663ECE6
:100F70007CE00E94100D8D819E818017910709F001
:100F800040C0F701248135818B819C812817390766
:100F9000D1F5CE0101969A87898781E090E09C8700
:100FA0008B87C901009739F1CC24DD2400E00F2E96
:100FB000F3ECAF2EFCE0BF2EF02DF7018081918184
:100FC0008C0D9D1D98878F83CE010796B5010E94D9
:100FD000100D69857A85802F41E050E00E948407DA
:100FE000082F0894C11CD11CF70184819581C81673
:100FF000D90618F301C000E08A81801731F082E041
:1010000005C082E003C082E001C080E02C960FB6EC
:10101000F894DEBF0FBECDBFDF91CF911F910F912E
:10102000FF90EF90DF90CF90BF90AF900895EF9238
:10103000FF920F931F93CF93DF93CDB7DEB72E9719
:101040000FB6F894DEBF0FBECDBF8C01CE01079660
:10105000B8010E94910C86E0F80111928A95E9F797
:10106000EE24FF24E39420C08D859E85BE016F5F32
:101070007F4F0E9493078823B9F48D859E85FC01DC
:10108000F695E795F695E795F695E795E00FF11F4C
:1010900087709070970102C0220F331F8A95E2F784
:1010A000C9019081892B8083CE010796BE016F5FB5
:1010B0007F4F0E944F0B8823B9F62E960FB6F894F7
:1010C000DEBF0FBECDBFDF91CF911F910F91FF907B
:1010D000EF900895882319F08130C9F40FC0A4E877
:1010E000BCE0E62FF72FCD0106962D91308123230A
:1010F0002193A817B907C9F791E00AC0862F972F47
:101100000E94170891E0882319F090E001C090E058
:10111000892F08950E94C40C8091990C81FD02C012
:101120000E94500D81E008950F931F93CF93DF939A
:1011300000D000D000D0CDB7DEB78E010F5F1F4FBB
:1011400026E0F80111922A95E9F7FC01F695E7955A
:10115000F695E795F695E795E00FF11F9C0127704E
:10116000307081E090E002C0880F991F2A95E2F765
:101170008083C8010E94CF0B80E0B8010E946A08FA
:101180008981882361F4FE013296CE010796219170
:10119000222329F4E817F907D1F780E01FC0E8E718
:1011A000FCE0DE011196CF01069621913C912323AC
:1011B0002D93E817F907C9F78981882361F4FE01A7
:1011C0003296CE0107962191222339F4E817F907C8
:1011D000D1F780E003C081E001C081E026960FB620
:1011E000F894DEBF0FBECDBFDF91CF911F910F915D
:1011F00008956F927F928F929F92AF92BF92CF92FB
:10120000DF92EF92FF920F931F93CF93DF93CDB7AF
:10121000DEB768970FB6F894DEBF0FBECDBF80E291
:1012200091E090936D0C80936C0C84EA91E0909324
:101230006F0C80936E0C26E030E084EA91E08052DF
:101240009140B9010E94E5B78091700C9091710CAA
:10125000682B792B7093710C6093700C88EC91E083
:10126000845A9140B9010E94E5B78091720C909127
:10127000730C682B792B7093730C6093720C109223
:10128000740C1092750C1092760C1092770C86E00C
:10129000E4E8FCE0DF011D928A95E9F78091700C8B
:1012A0009091710C009709F45FC000E00F2EF0E2FE
:1012B000CF2EF1E0DF2EF02D0F2EF4E7AF2EFCE065
:1012C000BF2EF02D0F2EF8EF6F2EFFEF7F2EF02D9B
:1012D0006A0C7B1C882499248394EE24FF24689450
:1012E000E2F8E60CF71CCE014396B60146E050E06A
:1012F0000E94BDB88D899E890596A0E0B0E0F501F9
:101300004081518162817381840F951FA61FB71F91
:1013100080839183A283B3832F89388DC9019695E9
:1013200087959695879596958795F301E80FF91F10
:10133000C90187709070940102C0220F331F8A95F3
:10134000E2F7C901908D892B808F46E050E0C40EF2
:10135000D51E0F5FD7018D919C911197202F30E002
:101360002817390708F4BFCF9C01220F331F820FC3
:10137000931F880F991F04966C01EE24FF24CE0161
:101380000D969E8B8D8B86E090E0988F8F8BAA2494
:10139000BB2400E010E00F2EFCE68F2EFCE09F2E19
:1013A000F02D0F2EF3EC6F2EFCE07F2EF02DF801C8
:1013B000F695E795F695E795F695E795E80DF91D0D
:1013C000208D30E0C80187709070F90102C0F69559
:1013D000E7958A95E2F7E0FF3EC0C501880F991FA7
:1013E0008A0D9B1D880F991F04969C8B8B8BCE01B9
:1013F0004396B3010E94100D89899A89081719072D
:1014000049F48D859E85AF85B8898C159D05AE05FF
:10141000BF0559F01A8B098BCD86DE86EF86F88AD8
:10142000CE014396B3010E94300DC8010E944C0AC0
:10143000BC01CE01079646E050E00E94BDB8898508
:101440009A850596A0E0B0E0C80ED91EEA1EFB1EE4
:101450000894A11CB11C0F5F1F4F0D32110509F03C
:10146000A6CF0E94BA0CCE0101960E94170868967A
:101470000FB6F894DEBF0FBECDBFDF91CF911F91A5
:101480000F91FF90EF90DF90CF90BF90AF909F9023
:101490008F907F906F9008958F929F92AF92BF929E
:1014A000CF92DF92EF92FF920F931F93CF93DF9330
:1014B00000D0CDB7DEB75C0130916C0C20916D0C83
:1014C0008091700C9091710C009739F1032F122FBD
:1014D000EE24FF240F2EF0E78F2EFCE09F2EF02D40
:1014E0006801B8016C5F7F4FCE01019642E050E089
:1014F0000E94BDB889819A818A159B0581F0089464
:10150000E11CF11C0A5F1F4FF40180819181E816F4
:10151000F90630F3CC24DD2402C0CC24DD248C2D4C
:101520009D2D0F900F90DF91CF911F910F91FF9004
:10153000EF90DF90CF90BF90AF909F908F900895E5
:10154000CF92DF92EF92FF920F931F93CF93DF938F
:10155000CDB7DEB762970FB6F894DEBF0FBECDBF32
:101560008C016B01BC0176956795769567957695AC
:101570006795FB01E459F34F208D30E08770907040
:10158000A90102C0569547958A95E2F740FF58C0D9
:10159000FE013D96A4E8BCE086E00D9001928150EA
:1015A000E1F76115710539F140E050E020E0EDE030
:1015B000F0E0EC0FFD1FE20FF11D9081892F869561
:1015C00085759575890F382F3695369533738373E6
:1015D000380F3083832F90E08F70907032953F707A
:1015E000830F911D480F591F2F5F822F90E08617A0
:1015F0009707E8F202C040E050E007701070011554
:10160000110501F16C0F7D1FDB011D96EC91F0E0DF
:1016100060E0A1E0B0E0EE24FF249F01062E02C0AE
:10162000369527950A94E2F7CD0120FFC701480FB0
:10163000591F6F5F862F90E08017910770F302C0EB
:101640004FEF5FEFCE0107969C838B83CA01880F13
:10165000991F480F591F440F551F4C5F5F4F5A8306
:10166000498386E090E09E838D83CE01019663ECF2
:101670007CE00E94100D8F819885F6019183808314
:1016800062960FB6F894DEBF0FBECDBFDF91CF914B
:101690001F910F91FF90EF90DF90CF900895EF9200
:1016A000FF920F931F93CF93DF9300D000D000D011
:1016B000CDB7DEB78C017B01FC01408140FD1BC032
:1016C00021E030E0B9017695679576956795769536
:1016D0006795F801E60FF71F4081F901E770F07098
:1016E000842F90E00E2E02C0969587950A94E2F71B
:1016F00080FF1BC006C0E0E0F0E060E070E020E0AA
:1017000030E0600F711F81E090E002C0880F991FE8
:10171000EA95E2F780954823FB014083C9010E94C6
:101720004C0ABC01009739F427C02F5F3F4F2D3280
:10173000310541F621C0CE01019646E050E00E94FD
:10174000BDB889819A81F701938382838D819E81BF
:10175000B7010E94A00AF7018081918105969183CB
:1017600080838B819C81958384838D819E81F80108
:101770009783868381E006C08FEF9FEFF801978300
:10178000868380E026960FB6F894DEBF0FBECDBFED
:10179000DF91CF911F910F91FF90EF9008954F929D
:1017A0005F926F927F928F929F92AF92BF92CF92F1
:1017B000DF92EF92FF920F931F93CF93DF93CDB7FA
:1017C000DEB728970FB6F894DEBF0FBECDBF6C0111
:1017D00030916E0C20916F0CFC01858186FD07C055
:1017E0008091720C9091730C009749F483C0C601EC
:1017F0006FEF70E046E050E00E94EEB87BC0A32E91
:10180000B22E88249924EE24FF24E3944424552402
:1018100000E00F2EF2E76F2EFCE07F2EF02DCE01C0
:101820000196B50146E050E00E94BDB82D813E8191
:10183000C901969587959695879596958795F60112
:10184000E80FF91F408127703070842F90E0022E3E
:1018500002C0969587950A94E2F780FF3DC0C701C4
:1018600002C0880F991F2A95E2F78095482340838C
:101870008B819C81009781F1B201102FCB01880FE1
:10188000991F69817A81680F791FCE01079642E01E
:1018900050E00E94BDB82F813885C9019695879583
:1018A0009695879596958795F601E80FF91FC901DA
:1018B00087709070970102C0220F331F8A95E2F75C
:1018C000C9019081892B80831F5F612F70E08B811C
:1018D0009C816817790790F20894811C911C86E01E
:1018E00090E0A80EB91EF3018081918188169906B7
:1018F00008F495CF28960FB6F894DEBF0FBECDBF83
:10190000DF91CF911F910F91FF90EF90DF90CF90DB
:10191000BF90AF909F908F907F906F905F904F900F
:101920000895CF93DF93EC018FEF9FEF9F838E831A
:101930008C2F9D2FAC2FBD2FE62FF72F26E0019087
:101940000D922150E1F70E94CF0BE4E8FCE0CF01BB
:1019500006962191388123232993E817F907C9F7BF
:10196000DF91CF9108958091970C9091980C0E94EF
:101970008A0808951092940C83EB9CE09093960C47
:101980008093950C089508950F931F93CF93DF9341
:1019900000D000D000D0CDB7DEB78E010F5F1F4F53
:1019A00026E0F80111922A95E9F7FC01F695E795F2
:1019B000F695E795F695E795E00FF11F9C012770E6
:1019C000307081E090E002C0880F991F2A95E2F7FD
:1019D0008083C8010E94CF0BD801EEE7FCE0CE0166
:1019E00007962D913081232B2193A817B907C9F7AA
:1019F0008091990C84608093990C26960FB6F89488
:101A0000DEBF0FBECDBFDF91CF911F910F91089523
:101A100002C00E94CD790E94A5128823D1F70895B3
:101A20000F931F93CF93DF938C01EB010E94080D5E
:101A3000C801BE010E94CC112FEF8F3F920741F0E9
:101A40008CE0C33CD80731F40E94080D80E003C04D
:101A500081E001C080E0DF91CF911F910F91089547
:101A60000F931F93CF93DF938C01EB010E94080D1E
:101A7000C801BE010E9430122FEF8F3F920741F044
:101A80008CE0C33CD80731F40E94080D80E003C00D
:101A900081E001C080E0DF91CF911F910F91089507
:101AA0002F923F924F925F926F927F928F929F926E
:101AB000AF92BF92CF92DF92EF92FF921F93CF939C
:101AC000DF93CDB7DEB762970FB6F894DEBF0FBED7
:101AD000CDBF8091990C82608093990C82FF9FC04A
:101AE0008CE193E06EE77CE00E94910C8091990C70
:101AF0008B7F8093990C93C0F201E080F180C70145
:101B0000969587959695879596958795F101E80F17
:101B1000F91FC70187709070950102C0220F331F13
:101B20008A95E2F7C901809592898923828B6F8516
:101B3000788949895A8980E00E948407182F82E0B9
:101B400090E08C0F9D1F9A878987E5E0F0E0FC8785
:101B5000EB878D859E85059798878F83CE010796A5
:101B6000B4010E94100D8A811817C1F58D819E81E4
:101B7000E816F90699F589899A892B813C818217A3
:101B8000930761F521E030E02C0F3D1F3A8729874C
:101B9000BC86AB86009709F45DC0CC24DD248D851E
:101BA0009E858C0D9D1D98878F83CE010796B4016D
:101BB0000E94100DA985BA858F859889FC01EC0DCE
:101BC000FD1D8C919081891749F40894C11CD11C8A
:101BD00089899A89C816D90610F33CC01A83FE82F7
:101BE000ED8289899A899C838B83CE0102969A879C
:101BF000898785E090E09C878B878D859E850597FA
:101C000098878F83CE01079663EC7CE00E94300DAD
:101C1000CE010D9660E57DE00E94300D2EC00F2EA6
:101C2000FCE16F2EF3E07F2EF02D0F2EF2E24F2E0F
:101C3000F3E05F2EF02D0F2EFCE62F2EFCE03F2E62
:101C4000F02DAA24BB24A3940F2EF3EC8F2EFCE0DE
:101C50009F2EF02DC301BE01635F7F4F0E944F0B8B
:101C6000882309F049CF8091990C8D7F8093990C3E
:101C70008FE060E070E00E94BB7862960FB6F89447
:101C8000DEBF0FBECDBFDF91CF911F91FF90EF90D0
:101C9000DF90CF90BF90AF909F908F907F906F908C
:101CA0005F904F903F902F900895EF92FF920F9387
:101CB0001F93CF93DF9318C084E293E060E070E05D
:101CC000AE010E9494148A85882359F4EA82FB822B
:101CD0000C831D8384E293E0BE01A80197010E945A
:101CE000DC12EB85FC8509958091240390912503F6
:101CF0000097D9F00E943F177B018C01C09124030B
:101D0000D09125038A819B81AC81BD81A801970177
:101D1000281B390B4A0B5B0B8E819F81A885B985E7
:101D2000281739074A075B0738F6CDB7DEB7E6E074
:101D30000C9443B8CF93DF93EC01009771F0E091DE
:101D40002403F091250306C0EC17FD0749F001902C
:101D5000F081E02D3097C1F709C02FEF3FEF02C0AF
:101D600020E030E0C901DF91CF9108950E943F1734
:101D70009B01AC01198218826A837B838C839D83CB
:101D800084E293E0BE010E94DC12EACFCF93DF939E
:101D9000EC010097D1F080912403909125038C17DA
:101DA0009D0749F084E293E0BE010E94B314BC0198
:101DB000009719F40AC060E070E084E293E0AE019D
:101DC0000E94941420E030E002C02FEF3FEFC901E1
:101DD000DF91CF9108958F929F92AF92BF92CF9251
:101DE000DF92EF92FF920F930E9471154B015C01FD
:101DF0002091310330E040E050E060E070E080E0AE
:101E000090E000E20E94E204282939294A295B294E
:101E10000F91FF90EF90DF90CF90BF90AF909F9089
:101E20008F900895CF93DF93E82FF0E0DF01A05C5F
:101E3000B04093E0B595A7959A95E1F7B0E0AA0F69
:101E4000BB1FAA5DBC4F6D917C9111976115710507
:101E500099F14FB7F894EB012A813B8188819981F0
:101E60004FBF2817390729F12D913C911197E901AE
:101E7000288D398D280F391FE9013881019620817D
:101E80002064208336830D90BC91A02D5A962D910D
:101E90003C915B978217930711F480E090E02181D9
:101EA000206221832FB7F894FB01918380832FBF99
:101EB00003C0818180648183DF91CF91089590E098
:101EC000805C904033E0959587953A95E1F7E82F4F
:101ED000F0E0EE0FFF1FEA5DFC4FA081B18110978B
:101EE000B9F090968C919097887191F42FB7F894EF
:101EF00018968D919C9119972FBF009749F00190EA
:101F0000F081E02D048CF58DE02D309709F00995D6
:101F10000895FC0193898385992349F4803C19F045
:101F2000883C89F402C06A9A0895559A0895803CC5
:101F300019F0883C41F404C06A987298729A089526
:101F400055985D985D9A089580EC0E94120F08954F
:101F500080EC0E945F0F089588EC0E94120F089594
:101F600088EC0E945F0F0895A3E0B0E0EAEBFFE089
:101F70000C9426B881E0898306E010E0DD2452E06D
:101F8000E52EF12CEC0EFD1E90912D038981892305
:101F9000B9F09FB7F89420912D038981822780930F
:101FA0002D039FBF6D2D70E0660F771F6B5D784F1F
:101FB000C70142E050E00E94BDB8EA81FB8109956B
:101FC000D3948981880F898301501040E9F62396C4
:101FD000E7E00C9442B890912D0321E030E002C07C
:101FE000220F331F8A95E2F7922B90932D03809155
:101FF00046038068809346032FB7F89480919D0331
:1020000090919E03826090939E0380939D032FBFC7
:102010000895CF93DF93C82FD0E0DE01A05CB040DD
:10202000E3E0B595A795EA95E1F7B0E0AA0FBB1FED
:10203000AA5DBC4FED91FC911197309721F48981F5
:102040008F77898335C080A183FD32C0C489D5894B
:1020500084FF0AC06883ED91FC911197848995896A
:102060000196958B848B24C0209711F126813781AE
:1020700086819781019697838683468157818689D9
:1020800097894817590711F417821682468157819C
:10209000848195814817590719F43783268308C02E
:1020A000C20FD31F688380859185019691878087B1
:1020B000DF91CF91089590E0805C904033E095955A
:1020C00087953A95E1F790E0DC01AA0FBB1FAA5D66
:1020D000BC4FED91FC911197309701F16FB7F894D7
:1020E00042815381208131816FBF4217530711F420
:1020F00021E02287FC01EE0FFF1FEA5DFC4F0190FB
:10210000F081E02D828D938D009711F4118E108E49
:10211000068CF78DE02D309709F00995089588EC2D
:102120000E945B10089580EC0E945B100895805C13
:10213000893030F4E82FF0E0E259FD4F80810895B6
:1021400080E00895A0E0B0E0E8EAF0E10C9426B861
:10215000EC018B017A01009709F44FC0DB848D2DCF
:102160000E949710882309F448C00115110509F44D
:1021700044C0E114F10409F440C0ED2DF0E0E05C4E
:10218000F04073E0F595E7957A95E1F7F0E0EE0F12
:10219000FF1FEA5DFC4F80819181C817D90769F55F
:1021A0002FB7F8944E815F818C819D812FBFD8011C
:1021B00020E030E010C0EC89FD89E80FF91F608154
:1021C0006D9301966E897F898617970711F480E0D9
:1021D00090E02F5F3F4F8417950719F02E153F05AC
:1021E00050F34FB7F8949D838C8388859985821B23
:1021F000930B998788874FBF02C02FEF3FEFC9012C
:10220000CDB7DEB7E7E00C9442B8A0E0B0E0EBE079
:10221000F1E10C9423B8EC018B017A01009709F4E9
:102220006AC0CB848C2D0E949710882309F463C068
:102230000115110509F45FC0E114F10409F45BC054
:10224000EC2DF0E0E05CF040B3E0F595E795BA9551
:10225000E1F7F0E0EE0FFF1FEA5DFC4F8081918116
:10226000C817D90709F047C08A8D9B8D009779F46C
:102270002A813B818881998128173907E1F5198FD7
:10228000088FFB82EA8219821882C7012CC08FB79F
:10229000F894CA80DB80A880B9808FBFD8019601EE
:1022A00080E090E015C0A9014F5F5F4F6A8D7B8D84
:1022B0004617570711F440E050E04A155B0559F006
:1022C0006D91E88DF98DE20FF31F608301969A01FD
:1022D0008E159F0540F34FB7F8943B832A834FBF79
:1022E000CA14DB0431F41A86EB85F0E02181206208
:1022F00021839C0102C02FEF3FEFC901CDB7DEB7AC
:10230000EAE00C943FB81F93CF93DF93EC01009762
:10231000E1F11B85812F0E9497108823B1F1E12FF5
:10232000F0E0E05CF04033E0F595E7953A95E1F7B1
:10233000F0E0EE0FFF1FEA5DFC4F80819181009776
:1023400021F5D183C0838C85803419F4CE010E949D
:10235000890F198218821B821A828C899D890097A5
:1023600011F41F8A1E8A888D998D009711F41B8E97
:102370001A8E1D821C821F821E8281E08A87CE01F6
:102380000E9470172B8530E002C02FEF3FEFC9018C
:10239000DF91CF911F910895FC0180912E03882336
:1023A00009F057C0309709F457C084819581208186
:1023B0003181820F931F20E18130920708F04CC0D9
:1023C00081E080932E037093A10C6093A00CAAE986
:1023D000BCE086E001900D928150E1F7F999FECFC3
:1023E00080E090E017C0E0919C0CF0919D0CE80F0C
:1023F000F91F20919A0C30919B0CA9014F5F5F4F00
:1024000050939B0C40939A0C32BD21BDF89A20B595
:102410002083019620919E0C30919F0C8217930788
:1024200010F310929F0C10929E0C809147038460D1
:10243000809347032FB7F89480919D0390919E035A
:10244000826090939E0380939D032FBF20E030E035
:1024500005C02EEF3FEF02C02FEF3FEFC9010895F7
:10246000CF93DF93FC019B0180912E03882309F019
:1024700063C0309709F463C0608171818481958164
:10248000860F971F40E18130940708F058C081E023
:1024900080932E03AAE9BCE086E001900D92815062
:1024A000E1F73093A10C2093A00C2115310519F40C
:1024B000C0E0D0E033C0CB01019690939B0C809399
:1024C0009A0CE0919C0CF0919D0C4191F0939D0C25
:1024D000E0939C0C8CE00E94E51880919E0C9091FA
:1024E0009F0C019790939F0C80939E0C22C060914B
:1024F0009A0C70919B0CCB01019690939B0C80934E
:102500009A0CE0919C0CF0919D0C4191F0939D0CE4
:10251000E0939C0C84E00E94E518219680919E0C2B
:1025200090919F0CC817D90710F3F999FECF10921C
:102530002E0320E030E005C02EEF3FEF02C02FEF6A
:102540003FEFC901DF91CF91089581E090912E0373
:10255000913009F080E0089580919E0C90919F0C3D
:10256000009751F410922E03E091A00CF091A10C71
:10257000309709F10995089560919A0C70919B0C20
:10258000CB01019690939B0C80939A0CE0919C0C4C
:10259000F0919D0C4191F0939D0CE0939C0C8CE08C
:1025A0000E94E51880919E0C90919F0C019790934A
:1025B0009F0C80939E0C0895A2E1B0E0E2EEF2E160
:1025C0000C941BB89A878987DB012B873C874D8742
:1025D0005E87FC01E080F180E114F10409F497C109
:1025E000222433244B855C856D857E859A01AB0161
:1025F00060E070E0CB0129833A834B835C836D8379
:102600007E838F839887F88AEF86F701BA8BA98B30
:1026100002C01F01FC01E280F38004811581268144
:102620003781408551856B857C858D859E856E15AE
:102630007F058007910708F48FC060E070E0CB0150
:1026400057016801EE24FF248701622E6A0C77246B
:102650007394621608F07724932E9B0C882483943D
:10266000931608F08824790C55245394791408F0B3
:1026700055248528542E5C0C99249394541608F004
:102680009924850C44244394851408F04424942808
:10269000052F0D0D11E0051708F010E0900EEE2447
:1026A000E394901608F0EE241E2944244394161651
:1026B00008F0442401E0171608F000E05524539474
:1026C000181608F05524A62C7981A71A21E06A145F
:1026D00008F020E0972D8A81981B81E0791608F098
:1026E00080E0492F421B21E0941708F020E0822B64
:1026F000282D9B81291B91E0821608F090E0522F33
:10270000581B81E0251708F080E0982B292DAC811B
:102710002A1B81E0921608F080E0E22EE91A91E08F
:102720002E1508F090E0892BB12FB81B8B2F91E06C
:102730001B1708F090E0242D291B922F21E0491649
:1027400008F020E0302F321B232F31E0021708F071
:1027500030E0142F052F95C039014A01AA24BB246B
:10276000650110950095F094E094E11CF11C011DA9
:10277000111D722F7E1961E0271708F060E0872D88
:102780008F1991E0781608F090E0A82FA61B6A2F09
:10279000552453948A1708F055249529582C501A1B
:1027A00081E0851408F080E0B52DB91B9B2F4424EF
:1027B00043945B1608F044248429292D211B31E021
:1027C000921608F030E0E22EE81A81E02E1508F0AB
:1027D00080E0832B819551E0181608F050E0519568
:1027E00041E0151608F040E0419521E0141608F08C
:1027F00020E0522E5194A72E2981A21A11E07A15B9
:1028000008F010E0262F3A81231B31E0621708F010
:1028100030E0622F611B162F61E0211708F060E0A5
:10282000362B692F7B81671B21E0961708F020E08B
:10283000062F031B91E0601708F090E0292B3E2D36
:102840009C81391B91E0E31608F090E0E32EE21A38
:1028500021E03E1508F020E0922B682F691B91E0E3
:10286000861708F090E0A52FA91B9A2F81E05A1730
:1028700008F080E0242F281B31E0421708F030E0F8
:10288000862F531A69F5222359F5992349F5882390
:1028900039F5A989BA8916962D913D914D915C9192
:1028A000199760E070E0CB01992321F51816C0F06C
:1028B000882301F51716A0F07723E1F4161680F0AF
:1028C0006623C1F4E51660F05E15A1F4041740F02C
:1028D000401781F4131720F0311761F4A21650F459
:1028E00080819181009709F094CE8F01A989BA89DE
:1028F0001F0111C0EF84F8888F01A989BA89EE15EC
:10290000FF0541F41196FC93EE93E985FA85B183B6
:10291000A08306C0CF01F101B183A0838D939C9366
:102920006296E2E10C9437B8CF93DF93FC01DB01B0
:10293000EA01808191814817590739F4888199818A
:1029400019821882808391830BC0888199811196A6
:102950009C938E93198218828C9111969C91119759
:10296000DF91CF910895DC01ED91FC91119706C0A4
:10297000808191818617970719F0FC013097C1F784
:10298000CF010895FC0180912F03909130030097AF
:10299000F9F4F0933003E0932F0386819781009739
:1029A000B9F080859185009799F02381223080F4D9
:1029B000858190E08F739070009751F4213019F465
:1029C0008481833028F00E94D61920E030E002C0D4
:1029D0002FEF3FEFC9010895E0912F03F0913003ED
:1029E0000284F385E02D309709F0099508958091D0
:1029F00070008C7F809370008091B600806280931D
:102A0000B6001092B2001092B0001092B100109275
:102A1000B3008091B60090E08F7190700097C9F775
:102A200083E087BB87E08093B10080917000816074
:102A30008093700008958091B60090E08F7190703F
:102A40000097C9F7809170008C7F8093700080910F
:102A5000B100887F8093B10083B5826083BD80918F
:102A6000B60090E08F7190700097C9F78091B60022
:102A70008F7D8093B60008959B01AC016091B200F8
:102A8000862F90E080959095AA2797FDA095BA2F64
:102A90009070A070B07082179307A407B50778F400
:102AA000281B390B4A0B5B0BBB27A52F942F832FB9
:102AB0009093330380933203209334030895260FB9
:102AC0008091B60090E08F7190700097C9F72093C5
:102AD000B30082E087BB80917000826080937000B9
:102AE0000895EF92FF920F931F938FB7F8949091F0
:102AF00035032091B20034E43093B4004091B60025
:102B000050E04F71507041155105C1F7B89904C09C
:102B100030E040E050E009C02091B20030E040E0F9
:102B200050E021503F4F4F4F5F4F8FBF8FEF989F27
:102B3000C0011124AA2797FDA095BA2F820F931FD9
:102B4000A41FB51F9C01AD0175E0220F331F441F68
:102B5000551F7A95D1F77C018D0162E01695079596
:102B6000F794E7946A95D1F72E0D3F1D401F511F32
:102B7000E0903603F0903703009138031091390349
:102B80002E0D3F1D401F511F281B390B4A0B5B0B9D
:102B9000B901CA011F910F91FF90EF90089560E273
:102BA00070E080E090E008958FB7F894609135036D
:102BB000109235038FBF70E080E090E020E43FE1A9
:102BC00040E050E00E94BAB79B01AC01809136030F
:102BD00090913703A0913803B0913903820F931F6E
:102BE000A41FB51F8093360390933703A093380337
:102BF000B093390382179307A407B50728F480918F
:102C000031038F5F8093310308951F920F920FB6A7
:102C10000F920BB60F9211242F933F934F935F9314
:102C20006F937F938F939F93AF93BF93EF93FF9394
:102C3000809170008D7F809370001092340380919A
:102C40005A0380FF03C080E00E94151980915A0347
:102C500082FF11C0809144038160809344032FB7A9
:102C6000F89480919D0390919E03826090939E03BF
:102C700080939D032FBFFF91EF91BF91AF919F91E3
:102C80008F917F916F915F914F913F912F910F9015
:102C90000BBE0F900FBE0F901F9018951F920F92B2
:102CA0000FB60F920BB60F9211242F933F934F93B1
:102CB0005F936F937F938F939F93AF93BF93EF93A4
:102CC000FF9380913203909133030097A1F5809197
:102CD00034038823E9F480915A0380FF03C080E025
:102CE0000E94151980915A0382FF34C080914403D9
:102CF0008160809344032FB7F89480919D03909155
:102D00009E03826090939E0380939D032FBF22C0F9
:102D10008091B60090E08F7190700097C9F7809114
:102D200034038093B30082E087BB8091700082609F
:102D30008093700009C08091320390913303019712
:102D4000909333038093320380915A0380FF02C033
:102D50000E948119809135038F5F809335038091A4
:102D600044038260809344032FB7F89480919D03BD
:102D700090919E03826090939E0380939D032FBF4A
:102D8000FF91EF91BF91AF919F918F917F916F9143
:102D90005F914F913F912F910F900BBE0F900FBEFF
:102DA0000F901F90189580E197E29093A90080936F
:102DB000A800E1EAF0E088E080838081826080837F
:102DC000E2E7F0E080818260808308959B01AC019E
:102DD00080913C0390913D03A0913E03B0913F034D
:102DE000820F931FA41FB51F80933C0390933D0354
:102DF000A0933E03B0933F03809148038460809387
:102E000048032FB7F89480919D0390919E038260B0
:102E100090939E0380939D032FBF08958FB7F894DE
:102E200060913B0310923B038FBF70E080E090E025
:102E30002AE030E040E050E00E94BAB79B01AC01CC
:102E400080913C0390913D03A0913E03B0913F03DC
:102E5000820F931FA41FB51F80933C0390933D03E3
:102E6000A0933E03B0933F0382179307A407B507CF
:102E700028F480913A038F5F80933A0308950E946B
:102E80000E1760913C0370913D0380913E03909139
:102E90003F0308951F920F920FB60F9211242F93A4
:102EA0008F939F9380913B038F5F80933B0380912F
:102EB00048038460809348032FB7F89480919D0362
:102EC00090919E03826090939E0380939D032FBFF9
:102ED0009F918F912F910F900FBE0F901F9018957B
:102EE000FC01A385B0E011961C92A385B0E0858516
:102EF000968515969C938E9314978485A385882335
:102F000049F4B0E082E08C93A385B0E012961C9265
:102F1000129707C0B0E01C92A385B0E08289129698
:102F20008C93A385B0E012968C9112979485892B8F
:102F300012968C93A385B0E012968C911297978588
:102F4000892B12968C93A385B0E012968C911297E0
:102F50009089892B12968C93A385B0E012968C9160
:102F600012979189892B12968C93A385B0E08C914E
:102F700080688C93A385B0E011968C91119788613D
:102F800011968C931197E385F0E0818180688183AD
:102F900008951F920F920FB60F920BB60F92112445
:102FA0002F933F934F935F936F937F938F939F9351
:102FB000AF93BF93EF93FF93E1ECF0E080818F7DBF
:102FC000808380E00E94EB0FFF91EF91BF91AF9162
:102FD0009F918F917F916F915F914F913F912F9131
:102FE0000F900BBE0F900FBE0F901F9018951F9261
:102FF0000F920FB60F920BB60F9211242F933F939F
:103000004F935F936F937F938F939F93AF93BF93F0
:10301000EF93FF93E1ECF0E080818F7B808381E090
:103020000E94EB0FFF91EF91BF91AF919F918F9114
:103030007F916F915F914F913F912F910F900BBEB8
:103040000F900FBE0F901F9018951F920F920FB602
:103050000F920BB60F9211242F933F934F935F93D0
:103060006F937F938F939F93AF93BF93EF93FF9350
:103070008091C0006091C6008C7131F480EC0E9498
:10308000091082E00E94EB0FFF91EF91BF91AF9189
:103090009F918F917F916F915F914F913F912F9170
:1030A0000F900BBE0F900FBE0F901F9018951F92A0
:1030B0000F920FB60F920BB60F9211242F933F93DE
:1030C0004F935F936F937F938F939F93AF93BF9330
:1030D000EF93FF93E9ECF0E080818F7D808383E0C4
:1030E0000E94EB0FFF91EF91BF91AF919F918F9154
:1030F0007F916F915F914F913F912F910F900BBEF8
:103100000F900FBE0F901F9018951F920F920FB641
:103110000F920BB60F9211242F933F934F935F930F
:103120006F937F938F939F93AF93BF93EF93FF938F
:10313000E9ECF0E080818F7B808384E00E94EB0FDC
:10314000FF91EF91BF91AF919F918F917F916F917F
:103150005F914F913F912F910F900BBE0F900FBE3B
:103160000F901F9018951F920F920FB60F920BB6EB
:103170000F9211242F933F934F935F936F937F93FD
:103180008F939F93AF93BF93EF93FF938091C8006A
:103190006091CE008C7131F488EC0E94091085E0BA
:1031A0000E94EB0FFF91EF91BF91AF919F918F9193
:1031B0007F916F915F914F913F912F910F900BBE37
:1031C0000F900FBE0F901F901895F999FECF07B67C
:1031D00000FCFDCF72BD61BD40BD9FB7F8948FBBB1
:1031E000F99A9FBF08951F920F920FB60F92112464
:1031F0002F938F939F93FB988091470384608093D4
:1032000047032FB7F89480919D0390919E038260AD
:1032100090939E0380939D032FBF9F918F912F9139
:103220000F900FBE0F901F90189590915A038170C8
:10323000880F9C7F982B90935A03E9E3F1E08081FB
:103240008D7F8083809148038160809348032FB7EE
:10325000F89480919D0390919E03826090939E03C9
:1032600080939D032FBF089580915A0380FF48C02B
:103270008091A1008D7F8093A10080914003909167
:103280004103A0914203B09143030097A105B1050A
:1032900051F40E9471156093400370934103809331
:1032A00042039093430380915A0383FD02C00E941E
:1032B0001E77F999FECF80915A03886080935A0354
:1032C0009091390192609093390182FF05C087E0A7
:1032D00083BF889513BE0AC00E941B1585E083BF7B
:1032E000889513BE0E94F7140E94DB1A84E4809331
:1032F000B4008091B60090E08F7190700097C9F78C
:10330000089580915A03816080935A038091B6009A
:1033100090E08F7190700097C9F7809148038860A2
:10332000809348032FB7F89480919D0390919E035A
:10333000826090939E0380939D032FBF80E090E076
:1033400008950E94711520914003309141034091EE
:10335000420350914303621B730B840B950B109235
:1033600040031092410310924203109243030E94C3
:10337000E6168091A10082608093A10080914101B6
:103380008F718830D9F780915A03877F80935A03D1
:103390000E941A7780915A0381FD07C0E0914B0388
:1033A000F0914C03309709F009950895A1E0B0E041
:1033B000ECEDF9E10C942BB8E0912F03F091300380
:1033C000858180937C008381882329F480917C000F
:1033D000806280937C00E0912F03F0913003648140
:1033E00070E06F5C784FCE01019641E050E00E94A2
:1033F000BDB88981806880937A002196E2E00C94C0
:1034000047B81F920F920FB60F920BB60F9211246E
:103410002F933F934F935F938F939F93AF93BF935C
:10342000EF93FF93E0912F03F09130038381268186
:103430003781882349F48081918140917900280F58
:10344000391FD9014C930EC0808191814091780041
:1034500050917900DC01AA0FBB1FA20FB31F119678
:103460005C934E93019691838083E0912F03F091BA
:103470003003208131818085918528173907B1F487
:1034800080917A00877F80937A00809147038260E1
:10349000809347032FB7F89480919D0390919E03EA
:1034A000826090939E0380939D032FBFFF91EF91C5
:1034B000BF91AF919F918F915F914F913F912F91CC
:1034C0000F900BBE0F900FBE0F901F901895A0E0AD
:1034D000B0E0EDE6FAE10C941BB810E0C2E8DBE8DE
:1034E00000E892E8692E9BE8792E812C912C82E8E5
:1034F000A82E8BE8B82E0E94C5042BE883389207CB
:1035000018F16E01EE24FF249C0140E050E02258A7
:103510003B4840405040C216D306E406F5064CF442
:10352000123039F48091660081508093660000006B
:1035300036C0209166002150209366000000EC0107
:10354000C258DB4811E028C02BE88238920739F1D5
:103550006E01EE24FF249C0140E050E013012401A1
:10356000221A330A440A550AC214D304E404F504A7
:103570004CF4113039F4809166008F5F80936600BF
:1035800000000DC0209166002F5F209366000000B0
:10359000E501C81BD90B12E0015009F0ACCFCDB743
:1035A000DEB7E2E10C9437B80E948E1E882311F436
:1035B0000E94671A0895CF93DF93C8E8D3E188EC9F
:1035C0000E94BD042197D9F70E94D41ADF91CF91B0
:1035D00008958091480382FF0BC09FB7F8948091B3
:1035E00048038B7F809348039FBF0E94550EA9C05C
:1035F0008091440380FF0BC09FB7F89480914403EF
:103600008E7F809344039FBF0E947D1F9AC080914C
:10361000440381FF0BC09FB7F894809144038D7FD2
:10362000809344039FBF0E94D4158BC080914803B0
:1036300080FF0BC09FB7F894809148038E7F8093E2
:1036400048039FBF0E94A1197CC08091480383FF5B
:103650000BC09FB7F89480914803877F80934803FD
:103660009FBF0E9434196DC08091460386FF0BC036
:103670009FB7F894809146038F7B809346039FBF4A
:103680000E945B1D5EC08091460387FF0BC09FB701
:10369000F894809146038F77809346039FBF0E94E2
:1036A000B40F4FC08091470381FF0BC09FB7F894C0
:1036B000809147038D7F809347039FBF0E94EC1446
:1036C00040C08091470382FF0BC09FB7F894809160
:1036D00047038B7F809347039FBF0E94AC1231C08A
:1036E0008091470380FF0BC09FB7F89480914703F8
:1036F0008E7F809347039FBF0E94AA1D22C08091A6
:10370000480381FF0BC09FB7F894809148038D7FD9
:10371000809348039FBF0E94EF1C13C08091480311
:1037200084FF0FC09FB7F894809148038F7E8093E9
:1037300048039FBFE091A20CF091A30C309709F0D1
:10374000099580914403882381F48091450388235F
:1037500061F480914603882341F4809147038823D4
:1037600021F480914803882361F02FB7F894809169
:103770009D0390919E03826090939E0380939D038E
:103780002FBF0895E0914903F0914A0387E08283B7
:1037900080E98093BC008091480382608093480355
:1037A0002FB7F89480919D0390919E03826090932F
:1037B0009E0380939D032FBF0895E0914903F091EC
:1037C0004A038281823031F08281833019F0828114
:1037D000843019F48581880F06C08281853049F4D0
:1037E0008581880F8F5F8093BB0085E88093BC0044
:1037F00008950E94C21B0895E0914903F0914A0385
:1038000020813181868197812817390780F4808152
:103810009181A085B185A80FB91F2C910196918344
:1038200080832093BB0085E88093BC00089586E0E8
:10383000828384E98093BC008091480382608093F6
:1038400048032FB7F89480919D0390919E03826066
:1038500090939E0380939D032FBF0895E0914903A9
:10386000F0914A0383859485A585B68520813181B1
:1038700021503040318320832081318143E0220F69
:10388000331F4A95E1F704C0B695A795979587959C
:103890002A95D2F78093BB0085E88093BC00808195
:1038A0009181009741F48281823019F484E082830F
:1038B000089585E082830895E0914903F0914A03D9
:1038C0008281843019F40E94FC1B08958281823029
:1038D00019F08281833019F40E942E1C0895828190
:1038E000853021F485EA8093BC0008950E94C21BB4
:1038F0000895E0914903F0914A0382818530A1F453
:10390000868197818130910521F48091BC008F7B65
:1039100003C08091BC0080648093BC008091BC0097
:1039200085688093BC0008950E94C21B0895E091B1
:103930004903F0914A039281953011F5208131813C
:10394000A085B185A20FB31F8C932F5F3F4F3183AA
:10395000208320813181868197810197281739073B
:1039600020F48091BC00806403C08091BC008F7BF8
:103970008093BC008091BC0085688093BC00089552
:103980000E94C21B0895E0914903F0914A0392817D
:10399000953011F520813181A085B185A20FB31F2B
:1039A0008C932F5F3F4F3183208386E0828384E9AD
:1039B0008093BC00809148038260809348032FB7B6
:1039C000F89480919D0390919E03826090939E0352
:1039D00080939D032FBF08950E94C21B0895A0915C
:1039E0004903B0914A031F96ED91FC91509730978F
:1039F000A1F012968C911297863049F48091BC0008
:103A000084FDFCCF81E012968C93129704C081E074
:103A100012968C9380E00995089581E012968C931C
:103A20001297089523982B981CBC0895E0915E038B
:103A3000F0915F03268137818481958128173907AA
:103A400069F0A48DB58D84819581019695838483D9
:103A500084819581A80FB91F8C918EBD0895E09146
:103A60005E03F0915F03309719F40E94121D0895D0
:103A700042855385228533852F5F3F4F33872287C9
:103A8000228533852A30310511F41386128662852A
:103A90007385208531856217730719F45387428730
:103AA00008954C55534FDA018C9384859585019682
:103AB0009587848708952FB7F894E0915E03F0917D
:103AC0005F03848595852FBF009731F005A0F6A18F
:103AD000E02D309709F009950895ADE0B0E0E3E7F7
:103AE000FDE10C942BB8FC01009739F1848195819C
:103AF00090934C0380934B0380819181A281B38189
:103B00008F839887A987BA8781E08B871D861C865B
:103B1000CE0101960E94441F2FEF8F3F920781F044
:103B20002FEF8D3F920761F00E9481192FEF8F3F99
:103B3000920749F42DEF3FEF08C02FEF3FEF05C08C
:103B40002EEF3FEF02C020E030E0C9012D96E2E009
:103B50000C9447B8A0E1B0E0E0EBFDE10C9428B88C
:103B600000915B0310915C03D80112968C9112971F
:103B7000823029F08430C9F0882331F074C070E0BD
:103B800060E088E0F82E6BC080E090E0D8011396EA
:103B9000ED91FC911497E80FF91F208120933F01CC
:103BA00001968031910591F75EC010923C0180E052
:103BB00010923E018F5F8031D9F780913C0180687F
:103BC00080933C0180913D0180FFFCCFFE01319646
:103BD000CE014196DF0120913F012D93A817B9072F
:103BE000D1F7219120933F01E817F907D1F7C7CF0B
:103BF000F8018281823019F410923C0102C0F092E7
:103C00003C01872F90E0AC01405F5F4F9C01D801E1
:103C10001396ED91FC911497E20FF31FE081E0936E
:103C20003E012F5F3F4F2417350789F720913C0154
:103C3000206820933C0120913D0120FFFCCF209182
:103C40003E01D8011396ED91FC911497E80FF91FEE
:103C5000208301968417950791F7705F6F5FF801D5
:103C60008581681728F28BE593E00E942277809186
:103C70005B0390915C03009789F08091470381601A
:103C8000809347032FB7F89480919D0390919E03F2
:103C9000826090939E0380939D032FBFD801169658
:103CA000ED91FC91179709956096E5E00C9444B866
:103CB0008FB390E0FC01E270F07081FDF9CF8FB717
:103CC000F89499E090935700E4918FBFEF70E23041
:103CD00019F410925D0303C081E080935D038FB7F8
:103CE000F89490915D03992349F45F9350E85093C1
:103CF000610050E0509361005F9108C05F9350E80D
:103D00005093610051E0509361005F918FBF8091AB
:103D10005D03882311F40E94DB1A089580915D03EE
:103D200008951F920F920FB60F920BB60F921124A7
:103D30002F933F934F935F936F937F938F939F93B3
:103D4000AF93BF93EF93FF938091B90090E0887F8A
:103D500090708832910569F1893291059CF4803127
:103D6000910521F18131910534F4009729F18830D2
:103D7000910589F51BC088319105D9F080329105F4
:103D800051F51AC088349105B9F0893491053CF495
:103D90008033910589F080349105E9F410C08035B5
:103DA000910581F088359105B1F411C00E94DD1BA9
:103DB00012C00E945C1C0FC00E94C21B0CC00E945B
:103DC000791C09C08091BB000E94971C04C080919F
:103DD000BB000E94C31CFF91EF91BF91AF919F91D7
:103DE0008F917F916F915F914F913F912F910F90A4
:103DF0000BBE0F900FBE0F901F9018951F920F9241
:103E00000FB60F920BB60F9211242F933F934F933F
:103E10005F936F937F938F939F93AF93BF93EF9332
:103E2000FF93DF93CF930F92CDB7DEB78EB5898323
:103E30000E94161D89810E942F1D80914603806477
:103E4000809346032FB7F89480919D0390919E0331
:103E5000826090939E0380939D032FBF0F90CF911C
:103E6000DF91FF91EF91BF91AF919F918F917F91E2
:103E70006F915F914F913F912F910F900BBE0F90DB
:103E80000FBE0F901F901895CF93DF93EC01009712
:103E900041F10E94CF152E813F81488559850E94AE
:103EA000BAB728EE33E040E050E00E94F9B72115A0
:103EB000310541055105C1F080915A0382FD17C0BB
:103EC000846080935A03EDE4F3E08DE00990019261
:103ED0008150E1F7CA01B9010E943C1520E030E0B1
:103EE00008C02FEF3FEF05C02EEF3FEF02C02DEFD0
:103EF0003FEFC901DF91CF91089580915A0382FF6E
:103F000024C0909157039923B1F4E0915803F091A4
:103F10005903309709F0099580915A0382FF15C023
:103F2000609153037091540380915503909156030F
:103F30000E943C1508958B7F80935A03E0915803AB
:103F4000F0915903309709F0099508958091750310
:103F5000982F9F5F909375030895DC01ED91FC917C
:103F600011979093670D8093660D1092530D1092E8
:103F7000540D809164038093580D2091BE0C3091B4
:103F8000BF0C83899489B9010E94E5B7462F6093DD
:103F9000560D83899489B9010E94E5B7009719F0FD
:103FA0004F5F4093560D8FEF90E000904A0B02C098
:103FB000880F991F0A94E2F780958E7F8093550DA4
:103FC0000E94A61F8093570D0895FC01878983FFE7
:103FD0000AC081E090E0238934892036310528F435
:103FE00080E090E0089580E090E00895CF93DF9323
:103FF0004091AE0C2091B30C3091B40C90E058C0BD
:10400000F901225A3F4F578150FD51C0DF01AA5B91
:10401000BF4F11961C921E928230C1F0823018F070
:10402000833009F048C09091B20C2091B00C9217E7
:1040300008F041C09F5F9093B20C138214821582E6
:10404000168290859F709087128228C02091B10CB3
:104050009091AF0C291778F53091B50CA091B60C62
:10406000B091B70C90E014C0ED014C9193964423AD
:1040700071F42F5F2093B10C21E02883DF01AA5B4C
:10408000BF4F68961196DC93CE93228303C09F5F47
:10409000931750F32091B50C291769F09085907F04
:1040A0009087880F816087831182108206C09F5F8E
:1040B000941708F4A5CFE0E0F0E0CF01DF91CF91B5
:1040C00008952091B30C3091B40C821B930B6EE5D4
:1040D00070E00E94E5B7EEE56E9FF0011124E20F5B
:1040E000F31F8781869590E08230910571F08330CF
:1040F00091051CF08330910539F58091B20C88232D
:1041000019F181508093B20C1FC08091B10C8823AB
:1041100019F081508093B10C2091B60C3091B70CFE
:10412000DF01AA5BBF4F8D919C91821B930B63E2D1
:1041300070E00E94E5B7A3E26A9FD0011124A20FAC
:10414000B31F8C9181111C9287818E7F8783089584
:1041500021E030E002C0220F331F8A95E2F7809100
:104160006303822B809363032FB7F89480919D03A0
:1041700090919E03806290939E0380939D032FBF36
:104180000895CF93DF93EC01009729F16B8F4115D0
:10419000510551F0FA0180819181A281B3818C8F08
:1041A0009D8FAE8FBF8F04C01C8E1D8E1E8E1F8EE6
:1041B000E98DFA8D309719F0CE014B960995CE0115
:1041C0000E94E51F882339F01092670D1092660D4A
:1041D00081E00E94A820DF91CF9108951F938091E4
:1041E00076038150809376038091B80C8330C9F1B7
:1041F0001091520D1123A9F181E08093B80C6091C8
:104200004A0B70E061507040882777FD8095982FA9
:104210002AE030E040E050E00E94BAB720918A03E3
:1042200030918B0340918C0350918D03620F731F6B
:10423000841F951F2091640330E040E050E00E940D
:10424000BAB76093C00C7093C10C8093C20C90936A
:10425000C30C11501093520D85E693E00E946579CE
:104260000AC01092B80C1092C00C1092C10C10929F
:10427000C20C1092C30C1F910895A1E0B0E0E3E4DA
:10428000F1E20C9429B88C0180E993E069830E94E3
:1042900022776981D80117966C9317971596ED913F
:1042A000FC911697C801079609958091900390910B
:1042B0009103009719F080E00E94A8202196E4E085
:1042C0000C9445B8209176032F5F209376030E94CB
:1042D0005E610895AF92BF92DF92EF92FF920F93CB
:1042E0001F93DF93CF930F92CDB7DEB78C015B01A5
:1042F000FB01E05BFF4F86E293E291838083FB0149
:10430000EE5BFF4F82E08083FB01ED5BFF4FD80146
:1043100013968D919C91149791838083FB01E65BAA
:10432000FF4F58968C9158978083FB01E55BFF4FB8
:104330001082FB01E45BFF4F81E08083FB01E35BC4
:10434000FF4F8083FB01E25BFF4F808357968C9188
:10435000579786FD0DC081E090E013962D913C911A
:104360001497BFEF283F3B0728F080E090E002C0A1
:1043700081E090E0F501E15BFF4F8083E090BE0CAF
:10438000F090BF0CC8010E94E51F8823E9F120913D
:10439000530D422F50E08091560D90E00197481741
:1043A000590711F0DE2C06C02E9D802D1124F80136
:1043B000D388D81A4091680D5091690D405E5F4FC7
:1043C00030E02E9DC0012F9D900D3E9D900D11243B
:1043D000D80155962D913C915697280F391FCA0147
:1043E000B9014D2D50E00E94D3B8F501EB5BFF4FB2
:1043F0008D2D865F8083F501EA5BFF4F8091680D0C
:104400009091690D469611C0F501EB5BFF4FD80105
:1044100053968C915397885F8083F501EA5BFF4F39
:1044200055968D919C915697089791838083F501BD
:10443000EA5BFF4FE080F180F7012081822F8C7EC4
:104440008083D80113968D919C911497207EBFEFA5
:10445000873F9B0710F02860F7012083D7019C91CC
:10446000892F8F7D8C93F801278922FD03C09F79C6
:104470009C9321C08064D7018C93F5012085207F17
:1044800021602087C80129830E94E51F29812F70A0
:10449000882351F08091580D8295807F822BD50121
:1044A00018968C93189707C0809164038295807F3B
:1044B000822BF5018087C8010E94E51FD7019C91DE
:1044C0008823E1F090689C939091530D18968C91FD
:1044D0001897992359F48C7F816018968C931897BC
:1044E0008091560D19968C9319970BC08C7F826022
:1044F000F70180878091530D818703C09F77D70193
:104500009C93F8018585D70111968C93119780892A
:10451000918913969C938E9312978685978515960D
:104520009C938E931497828916968C93C8010E944F
:10453000E51F882329F08091570DF701878305C077
:104540000E94A61FD70117968C93C50109960E9459
:10455000622180E00F90CF91DF911F910F91FF902A
:10456000EF90DF90BF90AF9008956091660D7091CD
:10457000670DFB01808191810E946A21089526E1E7
:104580003DE0A901405D5F4F5093170D4093160D1C
:1045900092E09093120D4091C70C5091C80C50932B
:1045A000140D4093130D9BE09093150D10921A0D6E
:1045B00010921B0D91E090931C0D90931D0D109285
:1045C0001E0D4EEE50E25093210D4093200D90931E
:1045D0001F0D92E89093460D9091CE0C9093470D4D
:1045E0004091CA0C5091CB0C5093490D4093480D0B
:1045F0004091CC0C5091CD0C50934B0D40934A0DF3
:104600009091C90C90934C0D9091CF0C90934D0DBF
:1046100092E090934E0D9091C50C90934F0D909118
:10462000C60C9093500D9091510D90932F0D1092B8
:10463000C00C1092C10C1092C20C1092C30C80934B
:10464000B80CC901CD970E9462210895BC018091E8
:10465000760381508093760383E793E00E94697725
:1046600081E00E94A8200895CF93DF93BC01C09100
:104670009003D091910380E993E00E94697720979D
:1046800019F480E00E94A820DF91CF910895A3E063
:10469000B0E0EDE4F3E20C9425B88C01675F7F4F46
:1046A0007B836A838DE0BE016F5F7F4F0E94F606B9
:1046B0008981D80153962C915397882309F43FC0E0
:1046C000CA80DB8081E0F60181AF13968D919C91C9
:1046D000149793AF82AF285F24AF5596ED90FC906E
:1046E000569788EF9FEFE80EF91EF6AEE5AE8FEF16
:1046F000D70111968C931197F801808991891396AF
:104700009C938E9312978685978515969C938E938E
:104710001497828916968C930E94A61FD70117962C
:104720008C93D601DD96ED91FC91DE9788E0808335
:10473000EA81FB81E95BFF4F86E293E241C0CA80D8
:10474000DB8082E0F60181AF8DEF9FEF93AF82AF08
:10475000275F24AFD8015596ED90FC905697E7EF70
:10476000FFEFEE0EFF1ED601DE96FC92EE92DD9775
:10477000F80183819481D70112969C938E931197AF
:104780008089918914969C938E931397868597853B
:1047900016969C938E931597828917968C930E94F8
:1047A000A61FF7018087D601DD96ED91FC91DE977B
:1047B0008CE08083EA81FB81E95BFF4F8AE394E22E
:1047C00091838083EA81FB81EF5BFF4FD80158968C
:1047D0008C918083EA81FB81EE5BFF4F8091490BD6
:1047E0008083EA81FB81ED5BFF4F81E08083EA817A
:1047F000FB81EC5BFF4F8083EA81FB81EB5BFF4F2A
:104800008083EA81FB81EA5BFF4F80838A819B8101
:104810000E94622180E02396E8E00C9441B8A4E075
:10482000B0E0E5E1F4E20C942AB8182F89E1BE016A
:104830006F5F7F4F0E94F606612F70E080E090E08E
:1048400020917A0330917B0340917C0350917D034A
:104850000E94BAB79B01AC0189819A81AB81BC816E
:10486000280F391F4A1F5B1FB901CA012496E3E0D4
:104870000C9446B80F931F93CF93DF93EC018C01F8
:1048800009541040D801DD96ED91FC91DE978181AD
:1048900092816FEF0E94F35A882349F0229786E2B3
:1048A00093E299838883C8010E94216103C0CE01ED
:1048B0000E942623DF91CF911F910F9108958F922F
:1048C0009F92BF92CF92DF92EF92FF920F931F932E
:1048D000DF93CF930F92CDB7DEB76B01B42E790182
:1048E00080907803909079030091770326E1029FEE
:1048F00080011124080D191D009719F126E1822E5F
:10490000912C880E991E1DC0F4012589243A11F0BE
:104910002A3A99F4F4018085B81679F48185928554
:10492000C816D90651F4C401B70148E050E0298304
:104930000E94C6B829810097B9F026E130E0820EC6
:10494000931E8016910600F388249924C4010F90C9
:10495000CF91DF911F910F91FF90EF90DF90CF905B
:10496000BF909F908F900895243A39F7EFCFA1E040
:10497000B0E0EDEBF4E20C9421B84C017B010E9415
:1049800051396C01F701E45AFF4F0081118158EA57
:104990005F0129C0F50111830083F801838583300D
:1049A000A9F4C8010C960E9470700097D9F0F80124
:1049B0002489F4012587FC0180819181F40194838D
:1049C0008383C401B7010E946A210AC0F80184856B
:1049D0009585F40194838383C401B7010E94472322
:1049E000582F0EC059EAF40160897189C8014289C3
:1049F000960159830E945F248C015981009751F6DA
:104A0000852F2196ECE00C943DB81F93CF93DF9354
:104A1000EB01FB01E45AFF4F118210820E94B72480
:104A2000182F882319F0CE010E946120812FDF9179
:104A3000CF911F910895A0E0B0E0E1E2F5E20C947F
:104A400024B88C01B62EC0917803D091790390914F
:104A5000770386E1989F70011124EC0EFD1E3CE067
:104A6000C32ED12CC00ED11E35C0F8012185328550
:104A700090858D89843A11F08A3A59F5888598177E
:104A800041F589859A852817390719F5CE01B801AE
:104A900048E050E00E94C6B80097D9F429C08130A0
:104AA00049F4F801248535858C859D8528173907BB
:104AB00081F417C0F80194898C89981751F4BE01CC
:104AC000645F7F4FC60148E050E00E94C6B800977F
:104AD00041F06696CE15DF0540F2F801B58AC0E0D8
:104AE000D0E07E01CE01CDB7DEB7E9E00C9440B84E
:104AF000F80183859B85891761F7D1CFCF93DF9329
:104B00000E94ADB8EC0144E0CC0FDD1F4A95E1F7FF
:104B1000C0700E94ADB8282F30E02C2B3D2BC9016E
:104B2000DF91CF91089588E365EB7CE00E94F60663
:104B30008DE466EB7CE00E9441072091B60C309139
:104B4000B70C60E083E290E00DC0462F50E0489F34
:104B5000F001499FF00D589FF00D1124E20FF31F53
:104B600010826F5F4091B50C641778F387E36EEAAB
:104B70007CE00E94F6068CE463EB7CE00E94410737
:104B80008091AE0CE091B30CF091B40C90E006C0B3
:104B900027812E7F27839F5FE25AFF4F9817C0F32C
:104BA0009091B50C9093AF0C823008F081508093B7
:104BB000B00C1092B10C1092B20C8FE36EEB7CE053
:104BC0000E94F6068EE36DEB7CE00E94F606809173
:104BD000BD0C882351F08EE469EB7CE00E94410714
:104BE0008FE468E67DE00E9441074091BD0C50E0F3
:104BF0008091BE0C9091BF0C489F9001499F300D51
:104C0000589F300D11248091B90C9091BA0C820FED
:104C1000931F9093BC0C8093BB0C1092B80C08951A
:104C2000A1E0B0E0E6E1F6E20C9427B810E001E084
:104C30002EE55FEFE52EF12C42C0129FC00111243A
:104C4000E091B30CF091B40CE80FF91F378130FFFD
:104C500035C080858F70823089F53E7F323011F00B
:104C6000363061F583819481A581B6818A309105C2
:104C7000A105B10548F00A97A109B109838394837E
:104C8000A583B68300E01AC08085807F846080871A
:104C90001382148215821682363059F4C7010090AF
:104CA0004A0B02C0880F991F0A94E2F780958093FF
:104CB000550D81E029830E94A82029811F5F8091E2
:104CC000AE0C181708F4B9CF8091C00C9091C10CAC
:104CD000A091C20CB091C30C0097A105B10591F051
:104CE0008B309105A105B10550F00A97A109B109D2
:104CF000EEEAFCE0828B938BA48BB58B09C082E03B
:104D00000E94BF22002321F085E693E00E946F7984
:104D10002196E6E00C9443B80F931F93CF93DF9353
:104D20008C01FC01C081D1816E3C11F0603F11F417
:104D300023E001C022E0F801E95AFF4F8081918110
:104D4000A281B3818C8F9D8FAE8FBF8F6B8F2330ED
:104D500049F08A81882331F4CE01B8010E94B7243A
:104D6000883A61F4AE01445E5F4FF8018081918121
:104D70006B8D0E94C120C8010E946120DF91CF91FC
:104D80001F910F910895CF93DF93EC01009709F4E1
:104D90004AC086EA8D8B8885882309F444C08F3FFA
:104DA00009F441C08B85833031F48C898823D9F193
:104DB0008F3F19F438C08130B1F51D8ACE0160E013
:104DC0000E941B25009709F53091770380917803A5
:104DD0009091790320E00BC0FC0145894696483A42
:104DE00029F484EA858B309739F41DC02F5F23178F
:104DF00098F38EEA8D8B17C0DF0186E109900D9242
:104E00008150E1F784EA858B09C0CE0166EA0E94F1
:104E10001B2524EAFC01258B009729F080E160E046
:104E200070E00E94BB78DF91CF910895FC0100975C
:104E300009F186EA858B80858823E1F08F3FD1F0E8
:104E40008385833031F484898823A1F08F3F19F45E
:104E50000895813079F4158ACF0164EA0E941B25F8
:104E6000009741F028EAFC01258B80E160E070E0CA
:104E70000E94BB780895BC018EE893E00E94697798
:104E800081E00E94A8200895BC0188E893E00E9478
:104E9000697781E00E94A8200895AAE0B0E0E3E5E8
:104EA000F7E20C9425B8E090A40B8EE2BE016F5F90
:104EB0007F4F0E94F6068E01095F1F4F89E1B801FE
:104EC0000E94F6068F819885A985BA852E2D30E03F
:104ED00040E050E0281739074A075B0760F0880F69
:104EE000991FAA1FBB1F8F839887A987BA8789E15B
:104EF000B8010E9424072E2D30E0295F3F4F442740
:104F000037FD4095542F20937A0330937B034093D1
:104F10007C0350937D03E980FF2400E010E0C8018A
:104F2000B701660F771F881F991F6E0D7F1D801FA9
:104F3000911F0E94BAB72F81388549855A85620F23
:104F4000731F841F951F60938A0370938B03809354
:104F50008C0390938D0385E693E060E02AE030E0D7
:104F600040E050E000E116E20E94787981E08B8316
:104F70008EE2BE016E5F7F4F0E94F6068A8190E04E
:104F8000A0E0B0E0880F991FAA1FBB1F8F3F9105BB
:104F9000A105B10529F020F08FEF90E0A0E0B0E08E
:104FA0000E940F246B017C0183E2BE016D5F7F4F85
:104FB0000E94F6062B8180E090E0DC018C0D9D1DA7
:104FC000AE1DBF1D81509E4FAF4FBF4FCC0CDD1C9F
:104FD000EE1CFF1C215091F71B827C018D01F9E032
:104FE00016950795F794E794FA95D1F70894E11C84
:104FF000F11C011D111D1E821D821C8289E3BE0150
:105000006C5F7F4F0E94F60687E4BE016B5F7F4FA7
:105010000E9441076D817E818FEFE816F104010542
:10502000110531F028F0EFEFEE2EF12C012D112DAE
:105030008EE793E04C8120E032E00E2DEE24E394E5
:105040000E9489772A96E8E00C9441B8882359F0A9
:105050000E947E25809375031092760383E264E6B6
:1050600073E00E94F60610928F0310928E03109246
:1050700089031092880310927403109273031092A4
:105080009303109292038AE090E0A0E0B0E0809356
:105090005F0D9093600DA093610DB093620D85EB51
:1050A00092E29093650D8093640D81E08093630D8F
:1050B00086E26AE47BE00E94F6061092C60C10922B
:1050C000CF0C1092C40C1092CB0C1092CA0C109200
:1050D000C50C1092C90C1092CD0C1092CC0C1092F1
:1050E000C80C1092C70C1092CE0C1092B80C1092F3
:1050F000C00C1092C10C1092C20C1092C30C8EE521
:10510000E0EDFCE0DF011D928A95E9F783E2EEE233
:10511000FDE0DF011D928A95E9F74091BD0C50E05A
:105120008091BE0C9091BF0C0196489F9001499FC1
:10513000300D589F300D11248091B90C9091BA0C0C
:1051400060E070E0A9010E94EEB886E49DE09093D3
:10515000170D8093160D0E944D270895A0E0B0E032
:10516000E4EBF8E20C9425B87C01EC0129978091DE
:1051700060039091610327E08030920709F061C0DD
:105180000AC08EE893E00E942277C80163EA40E0FB
:1051900050E00E94C12000918E0310918F030115F1
:1051A000110579F72DC083E793E0B8010E943377AA
:1051B0002091B30C3091B40CC801821B930BB60143
:1051C0000E94E5B78EE5689FF0011124E20FF31FFE
:1051D000808191812781269530E02115310521F0CC
:1051E0002130310581F406C0A8014B5F5F4FF80103
:1051F000628103C067EA40E050E00E94C12003C022
:10520000AEE5CA2ED12C00917303109174030115E1
:10521000110549F610E00EE510C0109F9001112411
:105220008091B30C9091B40C820F931FFC012781E5
:1052300020FF02C00E9461201F5F8091AE0C1817F2
:1052400060F3109263031092620381E00E942628AB
:105250000E9493258A850E941D5D0A85102F11707A
:105260000695017081E568E773E00E9441078DE3D0
:1052700067E773E00E94F606000F012B033099F0F8
:10528000E0917803F09179039091770386E1989FFC
:10529000C00111248E0F9F1F28EA02C0258B76962D
:1052A000E817F907D8F38A8581FF03C08FE394E0FC
:1052B00002C080E393E09093610380936003F70161
:1052C00080818E8780E993E00E942277EC85FD85BE
:1052D000CE010E96099580919003909191030097CD
:1052E00019F080E00E94A820CDB7DEB7E8E00C946A
:1052F00041B8CF93DF93C0919003D09191038A81FD
:105300008A3821F1853C09F44AC0893109F065C029
:10531000809160039091610321E08031920719F43C
:1053200080E092E002C080E097E090936103809378
:1053300060038A858D838B858E838EEA98E29887B9
:105340008F83CE0103960E94787247C080916003DC
:105350009091610323E08033920721F026E08031B1
:10536000920751F48FE394E090936103809360037C
:105370000E944D271D8202C083EA8D8380E993E05D
:105380000E942277EB81FC81CE01059609958091E0
:10539000900390919103009701F180E017C08091F4
:1053A00060039091610324E08F33920791F480E0D1
:1053B00095E0909361038093600382E090E09C838A
:1053C0008B8385E693E00E946F7981E00E94A8209C
:1053D00004C0CE0163EA0E943D21DF91CF91089580
:1053E0009C018FEF6F3F780731F4832F8095881FE2
:1053F0008827881F089581E02617370709F080E085
:105400000895FC01009729F48091940390919503ED
:1054100008958081918108951F93182FE0E0F0E0B6
:1054200005C0A381B4818C91181731F0CF010E947F
:10543000012AFC010097A9F7CF011F910895CF938E
:10544000DF93EC010097E1F086EA8F83EB81FC812A
:105450003097B1F08081982F9150903F88F40E944E
:105460000C2A009769F421E08D819E81009709F054
:1054700020E02A8384E993E0BE010E9469771F82BD
:10548000DF91CF910895A0E0B0E0E9E4FAE20C9456
:1054900026B8EC0100E010E026C0D80112968C91ED
:1054A0001297882301F51396ED90FC9014976C8D5C
:1054B0007D8DF701818192810E94F029882399F0E6
:1054C000D701DC908B8D8D1539F4EF84F8880E941C
:1054D0007658E816F90639F08B819C816D2D0E9473
:1054E000F35A882339F4C8010E94012A8C010097DD
:1054F000A1F609C0DD86D8011596ED91FC911697AD
:10550000CE010995F0CFCDB7DEB7E7E00C9442B8F5
:10551000ADE2B0E0EEE8FAE20C9421B88C01C62EC0
:10552000DC011A96ED90FC901B9715962D913C91FD
:1055300016978EE793E0B901F70147810E94F7774C
:10554000882309F42AC1D70111968C911197982FBD
:1055500091509E3F30F40E940C2A5C01009719F490
:105560001CC1AA24BB24F8012281838194812130AB
:1055700009F022E02B839D838C83D70111968C91B7
:105580008E87F801858196810E94856BFC010097CA
:1055900099F083E08F8780818A8B81818B8B8281D8
:1055A0008C8B83818D8B84818E8B85818F8B868183
:1055B000888F8781898F02C082E08F87D8011596F6
:1055C0008D919C911697998B888B17968D919C91B4
:1055D00018979B8F8A8FF70186818C8F84819581A4
:1055E0009E8F8D8F8281938198A38F8F19968C9136
:1055F000199790E09C012A5030403AA329A31DA29C
:10560000208127FD04C09C012850304009C0D701EB
:1056100018962C911897237029F49C01295030403A
:105620003AA329A329A13AA1821B930BF801228551
:105630003385280F391F3CA32BA3CEA282898FA3C9
:10564000848588A786859785A089B18989A79AA727
:10565000ABA7BCA785858DA7D7018C9187FF53C0C9
:1056600018968C9118978370823009F04CC0E091A5
:10567000BB0CF091BC0C808189A31AA28080992474
:10568000B1E0CB2ED12C33C08091B90C9091BA0CE3
:10569000DC01A80DB91DE091BB0CF091BC0CEC0D28
:1056A000FD1D40816091BE0C7091BF0CC69E9001A3
:1056B000C79E300DD69E300D1124280F391FCD0105
:1056C000B90150E00E94D3B8E091BB0CF091BC0C42
:1056D000EC0DFD1D208189A19AA1820F911D9AA335
:1056E00089A38081880E911C0894C11CD11C8091D3
:1056F000C40C90E0C816D9063CF28091B90C909188
:10570000BA0C9CA38BA3A114B10449F0D501159642
:10571000ED91FC911697CE01019609953EC0F801D6
:105720008281813029F4CE0101960E94432A35C03E
:10573000D70111968C9111978F3F59F5EE24FF24D4
:105740006E010894C11CD11C1DC0D7011396ED91A8
:10575000FC911497A080AA20A9F012968C91129720
:10576000882381F46D8D7E8D818192810E94F02944
:10577000882341F0AE86D7011596ED91FC911697DE
:10578000C6010995C7010E94012A7C010097E9F62C
:1057900004C0CE0101960E94E782F801168A0488AF
:1057A000F589E02DC80146960995AD96ECE00C947C
:1057B0003DB8A1E0B0E0EFEDFBE20C9423B88C0122
:1057C000DC011A96AD90BC901B97F5018181982F52
:1057D00091509E3FC0F40E940C2A7C01009709F46E
:1057E00023C1DC011396ED91FC911497D501149619
:1057F0006D917C911597818192810E94F029882377
:1058000009F412C102C0EE24FF24F501808187FF54
:1058100004C09085937009F007C186FF03C18C70A6
:10582000883009F401C1D80115962D913C91169745
:10583000BFEF273F3B0708F0F7C0E114F10429F060
:10584000F7018281882309F0EFC0D5018C9186FF92
:10585000E5C08370813011F441E001C047E0F09071
:10586000AE0CE091B30CF091B40CED5BFF4F50E047
:10587000842F90E0B501680F791F1AC0DF01A3548F
:10588000B0401796AC91A53081F4A081B1812A1760
:105890003B0759F4C380D480C80ED91EDB01EC90BD
:1058A000D601DC90ED1409F4B9C05F5FE25AFF4FF6
:1058B0005F1520F382E049830E94F61F498100971B
:1058C00009F4ACC0FC01EA5BFF4F0190F081E02DD0
:1058D000DF0158972FEA11962C93119713961C937A
:1058E0000E931297DC01AE5BBF4F62E06C9353E402
:1058F000E52EF12CE80EF91ED80115962D913C915C
:105900001697D7012D933C93DC01A65BBF4F1C92E9
:10591000DC01A55BBF4F1C92DC01A45BBF4F51E0D3
:105920005C93DC01A35BBF4F5C93DC01A25BBF4FC8
:105930001C92DC01A05BBF4F26E233E22D933C9327
:10594000DC01A15BBF4F5C9320812C7F2260208310
:10595000D5013C913C70237F232B20833C913071F7
:105960002F7E232B322F3F7930833C9130782F715B
:10597000232B20832C9150E035E4E32EF12CE80E0C
:10598000F91E24FF0DC0D8011A962D913C911B974A
:10599000240F351FD9012C912183F701608339C071
:1059A00028E0D7012C93D50116962C9116972183C8
:1059B00012962D913C9113973383228314962D9147
:1059C0003C9115973583248311962C912683D80119
:1059D0001A962D913C911B97240F351FD9012C91BC
:1059E0002783D5012C9127FF14C018962C91189766
:1059F000237031F41086F70120812F5F208309C0C6
:105A0000D7012C912D5F2C93D50118962C912370E2
:105A1000208709960E94622191E001C090E081E018
:105A20008927B1C181E001C080E0F501908197FF35
:105A3000A1C1F0849F2D937009F49CC1D8011996DF
:105A40008C911997E1844091BD0C442309F49AC1CB
:105A500096EFD92ED80E8091B80C882321F0813092
:105A600009F090C158C0BF2DB13009F08BC14E155F
:105A700008F488C18091BE0C9091BF0C2D2D30E0B0
:105A80008217930708F47EC150E00196489F900169
:105A9000499F300D589F300D11248091B90C909181
:105AA000BA0C60E070E0A9010E94EEB88FEA809322
:105AB000510DF092B80CE092C40CF80185819681EA
:105AC0009093C80C8093C70CD50111968C911197B7
:105AD0008093C90C12968D919C9113979093CB0C47
