:100000000C9462000C948A000C948A000C948A0070
:100010000C948A000C948A000C948A000C948A0038
:100020000C948A000C948A000C948A000C948A0028
:100030000C948A000C948A000C948A000C948A0018
:100040000C941B030C948A000C94B8000C948A0046
:100050000C948A000C948A000C948A000C948A00F8
:100060000C948A000C948A000000000024002700F1
:100070002A0000000000250028002B0000000000DE
:1000800023002600290004040404040404040202DA
:100090000202020203030303030301020408102007
:1000A0004080010204081020010204081020000012
:1000B0000007000201000003040600000000000029
:1000C0000000B00111241FBECFEFD8E0DEBFCDBFCE
:1000D00011E0A0E0B1E0E8E3F9E002C005900D9284
:1000E000A831B107D9F711E0A8E1B1E001C01D9234
:1000F000A83BB107E1F710E0C4ECD0E004C02297C0
:10010000FE010E949604C23CD107C9F70E949900E3
:100110000C949A040C9400008DE061E00E94EA03C4
:100120008CE991E040E051EE60E070E00E94E9006F
:1001300008950E94AF030E948C008DE061E00E9450
:100140003D0468EE73E080E090E00E9489038DE05A
:1001500060E00E943D0468EE73E080E090E00E9461
:1001600089038CE991E060E071E00E941003E5CF23
:100170001F920F920FB60F9211242F933F934F931C
:100180008F939F93EF93FF934091C600E091980166
:10019000F091990131969F012F77307031978091BE
:1001A0009A0190919B012817390739F0E85EFE4FBC
:1001B00040833093990120939801FF91EF919F9193
:1001C0008F914F913F912F910F900FBE0F901F90E5
:1001D0001895CF93DF93EC019A01AB01E885F9857F
:1001E000203081EE380780E0480780E0580709F4A6
:1001F00045C081E090E00A8802C0880F991F0A94E8
:10020000E2F7808360E079E08DE390E00E94720481
:10021000215030404040504056954795379527959E
:10022000EC81FD813083EE81FF812083EA85FB85AF
:10023000208141E050E0CA010E8402C0880F991F5E
:100240000A94E2F7282B2083EA85FB852081CA01E6
:100250000F8402C0880F991F0A94E2F7282B20838D
:10026000EA85FB858081088802C0440F551F0A94E7
:10027000E2F7842B8083DF91CF910895108220E1F3
:1002800030E0CECFDC011296ED91FC911397E0584F
:10029000FF4F2191319180819181281B390B2F775C
:1002A0003070C9010895DC011296ED91FC9113970D
:1002B000EE57FF4F2081318192918291E058F040BA
:1002C0008217930719F42FEF3FEF05C0E20FF31FDA
:1002D0008081282F30E0C9010895DC011296ED914C
:1002E000FC911397DF01AE57BF4F2D913C911197B1
:1002F000E058FF4F80819181E058F04082179307CA
:1003000019F42FEF3FEF0BC0E20FF31F80812F5F37
:100310003F4F2F7730702D933C93282F30E0C90149
:100320000895DC011296ED91FC911397EE57FF4F63
:1003300080819181929382930895FC01A085B1857B
:1003400021898C9190E0022E02C0959587950A94A0
:10035000E2F780FFF6CF0484F585E02D60830895F1
:1003600089E091E090939D0180939C0188E191E068
:1003700090939F0180939E0185EC90E09093A10162
:100380008093A00184EC90E09093A3018093A2015C
:1003900080EC90E09093A5018093A40181EC90E023
:1003A0009093A7018093A60186EC90E09093A90119
:1003B0008093A80184E08093AA0183E08093AB013D
:1003C00087E08093AC0185E08093AD0181E080936C
:1003D000AE0108950F931F93CF93DF938C01EB0130
:1003E00009C02196D801ED91FC910190F081E02D9A
:1003F000C801099568816623A1F7DF91CF911F910C
:100400000F910895EF92FF920F931F93CF93DF9375
:100410008C017B01EA010CC0D7016D917D01D801EF
:10042000ED91FC910190F081E02DC8010995219793
:10043000209791F7DF91CF911F910F91FF90EF904F
:100440000895DC01ED91FC910280F381E02D099586
:1004500008952F923F924F925F926F927F928F9268
:100460009F92AF92BF92CF92DF92EF92FF920F9343
:100470001F93DF93CF93CDB7DEB7A0970FB6F89455
:10048000DEBF0FBECDBF1C016A017B0141155105C6
:100490006105710549F440E350E060E070E020E060
:1004A00030E00E94C30256C0882499245401422E91
:1004B00055246624772401E010E00C0F1D1F080D61
:1004C000191DC701B601A30192010E947204F8012F
:1004D00060830894811C911CA11CB11CC701B6014A
:1004E000A30192010E947204C901DA016C017D012D
:1004F000C114D104E104F104F1F681E0E82EF12CFD
:10050000EC0EFD1EE80CF91C3E010894611C711CE8
:10051000D501C4010197A109B1096C01C818D90816
:1005200016C0F601EE0DFF1D40814A3010F4405D0B
:1005300001C0495C552747FD5095652F752FC101B6
:1005400020E030E00E94C3020894E108F1086E1434
:100550007F0439F7A0960FB6F894DEBF0FBECDBF6B
:10056000CF91DF911F910F91FF90EF90DF90CF908F
:10057000BF90AF909F908F907F906F905F904F90C3
:100580003F902F900895EF92FF920F931F93CF9378
:10059000DF93EC017A018B012115310541F4E881EB
:1005A000F9810190F081E02D642F09951BC02A305C
:1005B0003105B1F477FF10C04DE250E060E070E02B
:1005C00020E030E00E94C30210950095F094E09482
:1005D000E11CF11C011D111DCE01B801A7012AE08B
:1005E0000E942902DF91CF911F910F91FF90EF9010
:1005F00008950F931F938C014DE050E060E070E090
:1006000020E030E00E94C302C8014AE050E060E010
:1006100070E020E030E00E94C3021F910F91089526
:100620000F931F938C010E942102C8010E94F902BE
:100630001F910F9108951F920F920FB60F921124E0
:100640002F933F938F939F93AF93BF938091B30169
:100650009091B401A091B501B091B6013091B7016C
:100660000196A11DB11D232F2D5F2D3720F02D5791
:100670000196A11DB11D2093B7018093B301909302
:10068000B401A093B501B093B6018091AF019091F0
:10069000B001A091B101B091B2010196A11DB11DAF
:1006A0008093AF019093B001A093B101B093B201D8
:1006B000BF91AF919F918F913F912F910F900FBE5E
:1006C0000F901F9018959FB7F8942091AF0130912B
:1006D000B0014091B1015091B20186B5A89B06C00E
:1006E0008F3F21F02F5F3F4F4F4F5F4F9FBF542FE2
:1006F000432F322F2227280F311D411D511D82E02B
:10070000220F331F441F551F8A95D1F7B901CA0123
:100710000895EF92FF920F931F93CF93DF937B0186
:100720008C010E946303EB010EC00E9463036C1BEB
:100730007D0B685E7340C8F30894E108F108010975
:100740001109C851DC4FE114F1040105110569F7E5
:10075000DF91CF911F910F91FF90EF9008957894C2
:1007600084B5826084BD84B5816084BD85B58260B6
:1007700085BD85B5816085BDEEE6F0E08081816054
:100780008083E1E8F0E01082808182608083808154
:1007900081608083E0E8F0E0808181608083E1EB2C
:1007A000F0E0808184608083E0EBF0E08081816014
:1007B0008083EAE7F0E080818460808380818260CA
:1007C00080838081816080838081806880831092B3
:1007D000C1000895482F50E0CA0186569F4FFC0182
:1007E00024914A575F4FFA0184918823C1F0E82F82
:1007F000F0E0EE0FFF1FE859FF4FA591B49166237B
:1008000041F49FB7F8948C91209582238C939FBFDD
:1008100008959FB7F8948C91822B8C939FBF089575
:10082000833071F0843028F48130A1F0823021F5DA
:1008300014C08630B1F08730D1F08430E9F404C0C0
:10084000809180008F7703C0809180008F7D80939E
:100850008000089584B58F7702C084B58F7D84BDF4
:1008600008958091B0008F778093B00008958091B3
:10087000B0008F7D8093B0000895FF920F931F9377
:10088000F62E482F50E0CA0182559F4FFC0124915B
:10089000CA0186569F4FFC0114914A575F4FFA01D7
:1008A00004910023D9F0222319F0822F0E94100412
:1008B000E02FF0E0EE0FFF1FEE58FF4FA591B4912F
:1008C000FF2031F49FB7F8948C911095812304C0D8
:1008D0009FB7F8948C91812B8C939FBF1F910F91A0
:1008E000FF900895A1E21A2EAA1BBB1BFD010DC0AB
:1008F000AA1FBB1FEE1FFF1FA217B307E407F507D0
:1009000020F0A21BB30BE40BF50B661F771F881FAB
:10091000991F1A9469F760957095809590959B0141
:10092000AC01BD01CF010895EE0FFF1F0590F491BA
:08093000E02D0994F894FFCFBB
:10093800446F6E6500000000009D01EA010202425A
:08094800016D01530191010052
:00000001FF
