:100000000C9463000C9494000C948B000C948B0063
:100010000C948B000C948B000C948B000C948B0034
:100020000C948B000C948B000C948B000C948B0024
:100030000C948B000C948B000C948B000C948B0014
:100040000C94FE0C0C948B000C941E0A0C948B00E8
:100050000C948B000C948B000C948B000C948B00F4
:100060000C948B000C948B000000000024002700EF
:100070002A0000000000250028002B0000000000DE
:1000800023002600290004040404040404040202DA
:100090000202020203030303030301020408102007
:1000A0004080010204081020010204081020000012
:1000B0000007000201000003040600000000000029
:1000C00000008D00160B11241FBECFEFD8E0DEBF5D
:1000D000CDBF14E0A0E0B1E0EEEFFCE102C005907E
:1000E0000D92A836B107D9F715E0A8E6B4E001C033
:1000F0001D92A831B107E1F710E0C6ECD0E004C0D2
:100100002297FE010E94790EC23CD107C9F70E94D6
:1001100037010C947D0E0C94000088E694E069E0B1
:100120004AE00E945D0108951F920F920FB60F9250
:1001300011242F933F934F935F936F937F938F93EC
:100140009F93AF93BF93EF93FF93DF93CF9300D031
:100150000F92CDB7DEB787E061E00E94200E88E6FF
:1001600094E0BE016F5F7F4FAE014E5F5F4F9E0117
:100170002D5F3F4F0E946A048A81882321F088E620
:1001800094E00E94CA0188E694E00E94660287E03B
:1001900060E00E94200E0F900F900F90CF91DF91A2
:1001A000FF91EF91BF91AF919F918F917F916F914F
:1001B0005F914F913F912F910F900FBE0F901F9025
:1001C0001895DF93CF930F92CDB7DEB78CEF94E005
:1001D0000E94A80A892BF1F08CEF94E060E071E0B6
:1001E0000E94870B8CEF94E00E94D30A898388E6F3
:1001F00094E0BE016F5F7F4F41E00E94A20488231C
:1002000019F46AE071E002C06FE071E08CEF94E0F5
:100210000E94D80C0F90CF91DF9108950F931F93F8
:1002200087E061E00E94CD0D82E060E00E94CD0D8C
:100230008CEF94E040E051EE60E070E00E944F0AE5
:1002400088E694E00E941005F894E89AE9E6F0E068
:10025000808182608083789408E614E0C8010E945F
:100260006409C8010E944B041F910F9108950E94D8
:10027000920D0E940E010E94E100FDCF8DE061E031
:100280000E94CD0D8BE061E00E94CD0D8AE061E01F
:100290000E94CD0D8DE060E00E94200E8BE060E0BA
:1002A0000E94200E8AE061E00E94200E8CB58061E1
:1002B0008CBD8CB580648CBD0895FC016083418346
:1002C00081E08283138280E2848315821682108605
:1002D000118612861386148615861686178608954B
:1002E000CF93DF93EC01898160E00E94200E80E5CE
:1002F0008EBD0DB407FEFDCF8EB583E78EBD0DB468
:1003000007FEFDCF8EB5898161E00E94200EDF914E
:10031000CF9108951F93CF93DF93EC01898160E023
:100320000E94200E8FEF8EBD0DB407FEFDCF1EB5CF
:10033000898161E00E94200E812FDF91CF911F9172
:1003400008951F93CF93DF93EC01162F0E948A012B
:1003500087FF03C0112319F016C01123A1F0898172
:1003600060E00E94200E80E58EBD0DB407FEFDCF3B
:100370008EB583E58EBD0DB407FEFDCF8EB58981A8
:1003800061E00E94200ECE010E948A01DF91CF9190
:100390001F9108951F93CF93DF93EC01898160E053
:1003A0000E94200E81EE8EBD0DB407FEFDCF8EB5EE
:1003B0001EBC0DB407FEFDCF1EB5898161E00E9411
:1003C000200E812FDF91CF911F9108951F93CF931E
:1003D000DF93EC01898160E00E94200E82EE8EBDE9
:1003E0000DB407FEFDCF8EB51EBC0DB407FEFDCFCC
:1003F0001EB5898161E00E94200E812FDF91CF918F
:100400001F910895EF92FF920F931F93CF93DF9365
:10041000EC01F62EE72E9C81142F941708F4192F67
:100420008E81882311F000E002C0092F011B898111
:1004300060E00E94200E80EA8EBD0DB407FEFDCF65
:100440008F2D9E2D9C01F901FEB408C080818EBDC8
:100450000DB407FEFDCF31968EB511501123B1F7C3
:1004600006C01EBC0DB407FEFDCF8EB501500023A3
:10047000C1F7898161E00E94200E8F2DDF91CF911D
:100480001F910F91FF90EF9008950F931F93CF93BB
:10049000DF93EC01162F042F898160E00E94200E6B
:1004A0001F7110621EBD0DB407FEFDCF1EB50EBD3F
:1004B0000DB407FEFDCF8EB5898161E00E94200E4C
:1004C000812FDF91CF911F910F91089567E040E751
:1004D0000E9445020895342F662311F040E201C0C6
:1004E00040E0311140642111426067E00E94450202
:1004F0000895EF92FF920F931F93CF93DF937C01A8
:10050000162FEA01022FFC01818160E00E94200E7B
:100510001F7110621EBD0DB407FEFDCF1EB508C0D1
:1005200088818EBD0DB407FEFDCF21968EB501509A
:100530000023B1F7F701818161E00E94200E812F35
:10054000DF91CF911F910F91FF90EF900895AF929F
:10055000BF92CF92DF92EF92FF920F931F93DF93A0
:10056000CF9300D000D0CDB7DEB76C0119821A82CC
:100570001B821C8200E010E07E010894E11CF11C4B
:10058000F801EE0FFF1FEE0FFF1FE655FC4F8081B5
:100590009181A281B381898380819181A281B3817C
:1005A000892F9A2FAB2FBB278A8380819181A281CB
:1005B000B381CD01AA27BB278B8380819181A28142
:1005C000B3818B2F9927AA27BB278C83C601602F65
:1005D000A70124E00E9479020F5F1F4F0930110527
:1005E00079F61FC0DB01CA01022E04C0B695A7959B
:1005F000979587950A94D2F7F70181937F01285048
:100600003040FFEF283F3F0769F7C601602FA50183
:1006100024E00E9479020F5F1F4F0E30110529F46C
:1006200013C05E010894A11CB11C750128E130E0E3
:10063000F801EE0FFF1FEE0FFF1FE655FC4F408144
:10064000518162817381CECFC6016EE046E154E0F4
:100650002BE00E9479022091BA033091BB034091B4
:10066000BC035091BD038091BA039091BB03A0914C
:10067000BC03B091BD03892F9A2FAB2FBB278A8370
:100680008091BA039091BB03A091BC03B091BD03CC
:10069000CD01AA27BB278B838091BA039091BB031E
:1006A000A091BC03B091BD038B2F9927AA27BB272C
:1006B0008C8326602983C60164E0A50124E00E94A2
:1006C00079028981897F8983C60164E0A50124E0DC
:1006D0000E9479020F900F900F900F90CF91DF91B1
:1006E0001F910F91FF90EF90DF90CF90BF90AF9050
:1006F00008951F93CF93DF93EC01162F898160E05B
:100700000E94200E1F711EBD0DB407FEFDCF8EB5D9
:100710008FEF8EBD0DB407FEFDCF1EB5898161E060
:100720000E94200E812FDF91CF911F91089560E0EC
:100730000E9479038C7083FD03C020E030E007C085
:1007400082FD03C021E030E002C022E030E0C901B8
:10075000089569E00E94790381700895EF92FF92F5
:100760000F931F93CF93DF93EC01EE24FF248701B7
:10077000000F111F0E511C4FF80160814181CE0105
:100780000E944502F8016081CE010E94790308941D
:10079000E11CF11CF5E1EF16F10449F7CE016AE026
:1007A00041E254E025E00E947902CE0160E141E29D
:1007B00054E025E00E947902CE016DE10E947903A8
:1007C000882319F4CE010E94700110912604CE01F5
:1007D000612F409127040E944502CE01612F0E94A3
:1007E000790310912804CE01612F409129040E94C1
:1007F0004502CE01612F0E947903DF91CF911F91B5
:100800000F91FF90EF900895EF92FF920F931F9337
:10081000CF93DF937C01162FEA01022FFC01818127
:1008200060E00E94200E1F711EBD0DB407FEFDCFBB
:100830001EB59FEF07C09EBD0DB407FEFDCF8EB560
:10084000899301500023B9F7F701818161E00E948B
:10085000200E812FDF91CF911F910F91FF90EF908C
:1008600008950F931F938C010E94CA01C8010E9432
:100870006602F801808160E00E94200EC80160E0FD
:100880000E947903482F4E7FC80160E00E94450214
:100890001F910F9108950F931F938C010E94E60101
:1008A000C8010E946602F801808160E00E94200E6B
:1008B000C80160E00E947903482F4360C80160E0EE
:1008C0000E944502F801808161E00E94200E1F9184
:1008D0000F910895AF92BF92CF92DF92EF92FF9265
:1008E0000F931F937B016A0159010E948A01082F0F
:1008F0008CEF94E0602F40E150E00E94BE0C10E0CD
:10090000C801F5E096958795FA95E1F78170F701B2
:100910008083E4E016950795EA95E1F7802F8170D2
:10092000F601808316950795169507950170F501D8
:1009300000831F910F91FF90EF90DF90CF90BF90B9
:10094000AF9008958F929F92AF92BF92CF92DF9215
:10095000EF92FF920F931F93DF93CF9300D00F92EC
:10096000CDB7DEB76C018B01F42E0E943104F60185
:10097000808160E00E94200EC601B8014F2D0E94C8
:100980000202F601808161E00E94200EF601808162
:1009900060E00E94200E00E010E0B2E08B2E912C6F
:1009A0008C0E9D1EA3E0AA2EB12CAC0EBD1E7E01A6
:1009B0000894E11CF11CC601B701A40195010E9435
:1009C0006A048A81882319F48B81882369F08B81DA
:1009D000882319F0C6010E94CA01C60161E040E007
:1009E00021E00E946B0208C00F5F1F4F0530110508
:1009F00011F7C6010E94CA01C6010E944B048A81F8
:100A00000F900F900F90CF91DF911F910F91FF905A
:100A1000EF90DF90CF90BF90AF909F908F90089510
:100A20000F931F938C01FC01808161E00E94CD0D2A
:100A3000F801818161E00E94CD0D0E943E016CE3CE
:100A400070E080E090E00E946C0DF801808160E031
:100A50000E94200EC80160E00E94A101C8010E940E
:100A6000AE0364E170E080E090E00E946C0DC8018C
:100A700061E00E94A101C8010E94A70264E170E048
:100A800080E090E00E946C0DC80160E00E94A1012E
:100A9000C8010E94E601C8010E94CA011F910F917E
:100AA00008951F93162F8CEF94E06DE271E00E9481
:100AB000870B1370113029F48CEF94E06AE371E036
:100AC00012C0123029F48CEF94E062E471E00BC0A4
:100AD000133029F48CEF94E06AE471E004C08CEFE9
:100AE00094E062E571E00E94D80C1F9108958F9206
:100AF0009F92AF92BF92CF92DF92EF92FF920F93AD
:100B00001F93DF93CF9300D000D00F92CDB7DEB705
:100B10004C01E42EF22EFB0101900020E9F7319701
:100B2000E61BF70B389710F010E001C019E08CEFCE
:100B300094E00E94870B8CEF94E068E571E00E94DE
:100B4000870B8CEF94E0612F40E050E00E94930C03
:100B50008CEF94E06AE571E00E94870B5E010894D7
:100B6000A11CB11C16E0C12ED12CCC0EDD1E1DC067
:100B7000C4016E2DA50125E00E9404048CEF94E0D1
:100B80006DE571E00E94870B860108C08CEF94E050
:100B9000F801608140E150E00E94380C01501040A3
:100BA0000C171D0799F7E394FA94FF2009F78CEFCF
:100BB00094E061E671E00E94D80C0F900F900F90C6
:100BC0000F900F90CF91DF911F910F91FF90EF90B9
:100BD000DF90CF90BF90AF909F908F900895AF928D
:100BE000BF92CF92DF92EF92FF920F931F93CF931A
:100BF000DF935C01F42EE22E6801FB0101900020DE
:100C0000E9F73197E61BF70B389710F010E001C0B9
:100C100019E08CEF94E00E94870B8CEF94E068E57C
:100C200071E00E94870B8CEF94E0612F40E050E070
:100C30000E94930C8CEF94E06AE571E00E94870BB0
:100C400080E1C816D10419F0C2E6D1E016C0CDE5A6
:100C5000D1E013C08CEF94E0BE010E94870B1F2DE2
:100C60001F5FC5016F2D0E947903682F8CEF94E000
:100C7000A6010E94380CEA94F12EEE2059F78CEF71
:100C800094E061E671E00E94D80CDF91CF911F9152
:100C90000F91FF90EF90DF90CF90BF90AF900895AD
:100CA000EF92FF920F931F93E62E0CEF14E0C80112
:100CB00065E671E00E94870BC8016E2D40E150E0AF
:100CC0000E94380CC80167E771E00E94870BFF247F
:100CD000B70136E0769567953A95E1F761707070E7
:100CE000C8014AE050E00E94800CC80162E871E04F
:100CF0000E94870BB70125E0769567952A95E1F765
:100D000061707070C8014AE050E00E94800CC80118
:100D10006CE871E00E94870BB70194E076956795C7
:100D20009A95E1F761707070C8014AE050E00E9446
:100D3000800CC80167E971E00E94870BB7017695C6
:100D4000679561707070C8014AE050E00E94800CA5
:100D5000C80161EA71E00E94870B81E0E822FF246C
:100D6000C801B7014AE050E00E94E30C1F910F91C7
:100D7000FF90EF900895EF92FF920F931F93062F2D
:100D80004CEFE42E44E0F42EC7016CEA71E00E94BF
:100D9000870BC701602F40E150E00E94380CC7016B
:100DA0006DEB71E00E94870B602F62956F70C70139
:100DB00070E04AE050E00E94800CC70168EC71E0EE
:100DC0000E94870B10E00F701070C701B8014AE055
:100DD00050E00E94E30C1F910F91FF90EF90089557
:100DE000EF92FF920F931F93E62E0CEF14E0C801D1
:100DF00062ED71E00E94870BC8016E2D40E150E06A
:100E00000E94380CC80161EE71E00E94870BFF243C
:100E1000B701769567957695679561707070C80192
:100E20004AE050E00E94800CC8016AEE71E00E9426
:100E3000870BB7017695679561707070C8014AE0BD
:100E400050E00E94800CC80167EF71E00E94870BA0
:100E500081E0E822FF24C801B7014AE050E00E9487
:100E6000E30C1F910F91FF90EF900895EF92FF9286
:100E70000F931F93E62E0CEF14E0C80164E072E0BC
:100E80000E94870BC8016E2D40E150E00E94380C93
:100E9000FF24C80165E172E00E94870BC701F4E0FE
:100EA00095958795FA95E1F701962AEF30E0829FB4
:100EB000B001839F700D929F700D1124C8014AE00C
:100EC00050E00E94800CC80160E272E00E94870B33
:100ED000C80167E272E00E94870B8FE0E822FF24DE
:100EE000C801B7014AE050E00E94E30C1F910F9146
:100EF000FF90EF900895EF92FF920F93DF93CF93BF
:100F000000D0CDB7DEB79A838983062F8CEF94E0AB
:100F10006DE272E00E94870B8CEF94E0602F40E15D
:100F200050E00E94380CE981FA8183818823B9F16D
:100F30008CEF94E06CE372E00E94870B602F7727C0
:100F400067FD70956627770F661F77278CEF94E013
:100F50004AE050E00E94800C8CEF94E068E472E07C
:100F60000E94870B802F887229F48CEF94E060E553
:100F700072E006C0803239F48CEF94E066E572E0EE
:100F80000E94870B2FC0883029F48CEF94E06EE527
:100F900072E0F6CF8CEF94E062E571E0F1CF8CEF78
:100FA00094E068E472E00E94870BE02EFF2403FDCA
:100FB00003C060E572E002C06EE572E08CEF94E081
:100FC0000E94870B8CEF94E064E672E00E94870B2E
:100FD000F1E0EF22FF248CEF94E0B7014AE050E00B
:100FE0000E94E30C8CEF94E060E772E00E94870BB4
:100FF000602F70E0A4E076956795AA95E1F761709F
:1010000070708CEF94E04AE050E00E94800C8CEF0E
:1010100094E06BE772E00E94870B602F667029F402
:101020008CEF94E064E872E019C0623029F48CEF30
:1010300094E06BE872E012C0643029F48CEF94E025
:1010400062E972E00BC0663029F48CEF94E068E945
:1010500072E004C08CEF94E062E571E00E94D80C6D
:101060000F900F90CF91DF910F91FF90EF90089527
:10107000EF92FF920F931F93062F1CEFE12E14E0C7
:10108000F12EC7016DE972E00E94870B10E0005A53
:10109000164FC701B8014AE050E00E94800CC7011A
:1010A00068EA72E00E94D80C1F910F91FF90EF90B8
:1010B0000895EF92FF920F931F93E62E0CEF14E02A
:1010C000C8016DEA72E00E94870BC8016E2D40E1F5
:1010D00050E00E94380CC8016BEB72E00E94870B55
:1010E000FF24B70156E0769567955A95E1F7617050
:1010F0007070C8014AE050E00E94800CC80168ECA2
:1011000072E00E94870BB70145E0769567954A9596
:10111000E1F761707070C8014AE050E00E94800CF5
:10112000C80165ED72E00E94870BB70134E0769547
:1011300067953A95E1F761707070C8014AE050E038
:101140000E94800CC80163EE72E00E94870BB70119
:1011500023E0769567952A95E1F761707070C80174
:101160004AE050E00E94800CC8016CEE72E00E94E0
:10117000870BB70176956795769567956170707066
:10118000C8014AE050E00E94800CC80163EF72E0A1
:101190000E94870BB7017695679561707070C801E2
:1011A0004AE050E00E94800CC8016CEF72E00E949F
:1011B000870B81E0E822FF24C801B7014AE050E034
:1011C0000E94E30C1F910F91FF90EF9008951F93E1
:1011D000CF93DF93162F8CEF94E066E073E00E94CC
:1011E000870B8CEF94E0612F40E150E00E94380CB7
:1011F0008CEF94E064E173E00E94870BC12FD0E094
:10120000BE01B6E076956795BA95E1F761707070AA
:101210008CEF94E04AE050E00E94800C8CEF94E068
:101220006CE173E00E94870BBE01A5E0769567959F
:10123000AA95E1F7617070708CEF94E04AE050E09D
:101240000E94800C8CEF94E064E273E00E94870BB4
:10125000BE01F4E076956795FA95E1F761707070DC
:101260008CEF94E04AE050E00E94800C8CEF94E018
:101270006DE273E00E94870BBE01759567956770FC
:1012800070706730710539F48CEF94E067E373E0B8
:101290000E94870B06C08CEF94E04AE050E00E9469
:1012A000800C8CEF94E062E871E00E94870BC170C3
:1012B000D0708CEF94E0BE014AE050E00E94E30C55
:1012C000DF91CF911F910895EF92FF920F931F939B
:1012D0007C010E948A01682FC7010E94E708C701AC
:1012E00065E473E04AE022E00E947705C70162E509
:1012F00073E04CE024E000E110E00E94EF05C7013C
:101300006FE573E040E121E00E947705C70167E6E1
:1013100073E041E126E00E94EF05C70160E00E9412
:101320007903682FC7010E945908C70162E773E07B
:1013300041E021E002E010E00E94EF05C70168E70C
:1013400073E042E021E00E94EF05C70163E00E94E4
:101350007903682FC7010E945105C70164E00E940C
:101360007903682FC7010E943607C70165E00E9414
:101370007903682FC7010E943808C70166E00E9400
:101380007903682FC7010E947B07C70162E873E0F9
:101390004CE121E00E94EF05C70168E00E9479035B
:1013A000682FC7010E94BB060CEF14E0C80168E873
:1013B00073E00E94870BC7010E94A903682FC80130
:1013C00070E04AE050E00E94E30CC70167E10E9430
:1013D0007903682FC7010E945006C7016DE10E9482
:1013E0007903682FC7010E94F006C80160E973E025
:1013F0000E94870BD7011396EC91F0E0EE0FFF1FD0
:10140000E45FFB4F60817181C8010E94D80CC80164
:101410006BE973E00E94870BC7010E949703FC01F0
:10142000EE0FFF1FE05FFB4F60817181C8010E94DA
:10143000D80C1F910F91FF90EF9008951F920F927B
:101440000FB60F9211242F933F934F938F939F9337
:10145000EF93FF934091C600E091F804F091F904F6
:1014600031969F012F77307031978091FA049091D7
:10147000FB042817390739F0E858FB4F40833093B5
:10148000F9042093F804FF91EF919F918F914F9170
:101490003F912F910F900FBE0F901F901895CF93F3
:1014A000DF93EC019A01AB01E885F985203081EEEC
:1014B000380780E0480780E0580709F445C081E01C
:1014C00090E00A8802C0880F991F0A94E2F780838F
:1014D00060E079E08DE390E00E94550E21503040AD
:1014E000404050405695479537952795EC81FD81B2
:1014F0003083EE81FF812083EA85FB85208141E0F6
:1015000050E0CA010E8402C0880F991F0A94E2F7C6
:10151000282B2083EA85FB852081CA010F8402C025
:10152000880F991F0A94E2F7282B2083EA85FB8510
:101530008081088802C0440F551F0A94E2F7842B6B
:101540008083DF91CF910895108220E130E0CECFEB
:10155000DC011296ED91FC911397E058FF4F219119
:10156000319180819181281B390B2F773070C9010F
:101570000895DC011296ED91FC911397EE57FF4F01
:101580002081318192918291E058F0408217930737
:1015900019F42FEF3FEF05C0E20FF31F8081282FD2
:1015A00030E0C9010895DC011296ED91FC9113978A
:1015B000DF01AE57BF4F2D913C911197E058FF4F7F
:1015C00080819181E058F0408217930719F42FEF42
:1015D0003FEF0BC0E20FF31F80812F5F3F4F2F774C
:1015E00030702D933C93282F30E0C9010895DC0121
:1015F0001296ED91FC911397EE57FF4F80819181E8
:10160000929382930895FC01A085B18521898C91E4
:1016100090E0022E02C0959587950A94E2F780FF2C
:10162000F6CF0484F585E02D6083089589E594E084
:101630009093FD048093FC0488E794E09093FF046A
:101640008093FE0485EC90E0909301058093000563
:1016500084EC90E0909303058093020580EC90E089
:10166000909305058093040581EC90E09093070525
:101670008093060586EC90E0909309058093080519
:1016800084E080930A0583E080930B0587E08093D4
:101690000C0585E080930D0581E080930E0508958B
:1016A0000F931F93CF93DF938C01EB0109C0219619
:1016B000D801ED91FC910190F081E02DC8010995D0
:1016C00068816623A1F7DF91CF911F910F91089553
:1016D000EF92FF920F931F93CF93DF938C017B01C7
:1016E000EA010CC0D7016D917D01D801ED91FC910B
:1016F0000190F081E02DC80109952197209791F77D
:10170000DF91CF911F910F91FF90EF900895DC0131
:10171000ED91FC910280F381E02D099508952F92BF
:101720003F924F925F926F927F928F929F92AF9271
:10173000BF92CF92DF92EF92FF920F931F93DF93AE
:10174000CF93CDB7DEB7A0970FB6F894DEBF0FBE2C
:10175000CDBF1C016A017B01411551056105710571
:1017600049F440E350E060E070E020E030E00E94A7
:101770004A0C56C0882499245401422E55246624CC
:10178000772401E010E00C0F1D1F080D191DC70183
:10179000B601A30192010E94550EF80160830894DE
:1017A000811C911CA11CB11CC701B601A3019201AF
:1017B0000E94550EC901DA016C017D01C114D104EA
:1017C000E104F104F1F681E0E82EF12CEC0EFD1EAF
:1017D000E80CF91C3E010894611C711CD501C40180
:1017E0000197A109B1096C01C818D90816C0F60102
:1017F000EE0DFF1D40814A3010F4405D01C0495C90
:10180000552747FD5095652F752FC10120E030E029
:101810000E944A0C0894E108F1086E147F0439F71D
:10182000A0960FB6F894DEBF0FBECDBFCF91DF916B
:101830001F910F91FF90EF90DF90CF90BF90AF90EE
:101840009F908F907F906F905F904F903F902F90E0
:101850000895DC012115310541F4ED91FC910190D1
:10186000F081E02D642F099508950E948F0B089553
:10187000EF92FF920F931F939A01E62EFF2400E050
:1018800010E0B801A7010E94290C1F910F91FF9051
:10189000EF900895EF92FF920F931F93CF93DF93F2
:1018A000EC017A018B012115310541F4E881F981C0
:1018B0000190F081E02D642F09951BC02A3031057D
:1018C000B1F477FF10C04DE250E060E070E020E03E
:1018D00030E00E944A0C10950095F094E094E11CD1
:1018E000F11C011D111DCE01B801A7012AE00E94C3
:1018F0008F0BDF91CF911F910F91FF90EF90089583
:10190000EF92FF920F931F937B019A010027F7FC40
:101910000095102FB801A7010E944A0C1F910F914A
:10192000FF90EF900895EF92FF920F931F93E62E92
:101930009A01FF24E7FCF0940F2D1F2DB801A70199
:101940000E944A0C1F910F91FF90EF9008950F9302
:101950001F938C014DE050E060E070E020E030E04B
:101960000E944A0CC8014AE050E060E070E020E0CC
:1019700030E00E944A0C1F910F910895CF92DF92A0
:10198000EF92FF920F931F938C019A01C62EDD24D4
:10199000EE24FF24B701A6010E94290CC8010E9471
:1019A000A70C1F910F91FF90EF90DF90CF900895BB
:1019B0000F931F938C010E94870BC8010E94A70CF4
:1019C0001F910F910895CF92DF92EF92FF920F93A4
:1019D0001F938C016B019A01EE24D7FCE094FE2C3E
:1019E000B701A6010E944A0CC8010E94A70C1F91D2
:1019F0000F91FF90EF90DF90CF9008951F920F927C
:101A00000FB60F9211242F933F938F939F93AF9311
:101A1000BF938091130590911405A0911505B09185
:101A20001605309117050196A11DB11D232F2D5FBD
:101A30002D3720F02D570196A11DB11D20931705BC
:101A40008093130590931405A0931505B093160584
:101A500080910F0590911005A0911105B09112058C
:101A60000196A11DB11D80930F0590931005A093C1
:101A70001105B0931205BF91AF919F918F913F9146
:101A80002F910F900FBE0F901F9018959FB7F8944D
:101A900020910F05309110054091110550911205CC
:101AA00086B5A89B06C08F3F21F02F5F3F4F4F4F59
:101AB0005F4F9FBF542F432F322F2227280F311DF6
:101AC000411D511D82E0220F331F441F551F8A956F
:101AD000D1F7B901CA010895EF92FF920F931F93B6
:101AE000CF93DF937B018C010E94460DEB010EC06A
:101AF0000E94460D6C1B7D0B685E7340C8F3089412
:101B0000E108F10801091109C851DC4FE114F104A1
:101B10000105110569F7DF91CF911F910F91FF909A
:101B2000EF900895789484B5826084BD84B5816017
:101B300084BD85B5826085BD85B5816085BDEEE6D5
:101B4000F0E0808181608083E1E8F0E010828081B4
:101B500082608083808181608083E0E8F0E0808122
:101B600081608083E1EBF0E0808184608083E0EB42
:101B7000F0E0808181608083EAE7F0E0808184602A
:101B80008083808182608083808181608083808186
:101B9000806880831092C1000895482F50E0CA01E8
:101BA00086569F4FFC0124914A575F4FFA0184915A
:101BB0008823C1F0E82FF0E0EE0FFF1FE859FF4F38
:101BC000A591B491662341F49FB7F8948C91209528
:101BD00082238C939FBF08959FB7F8948C91822B9A
:101BE0008C939FBF0895833071F0843028F4813046
:101BF000A1F0823021F514C08630B1F08730D1F0E9
:101C00008430E9F404C0809180008F7703C0809114
:101C100080008F7D80938000089584B58F7702C007
:101C200084B58F7D84BD08958091B0008F778093B7
:101C3000B00008958091B0008F7D8093B00008952A
:101C4000FF920F931F93F62E482F50E0CA01825542
:101C50009F4FFC012491CA0186569F4FFC011491AD
:101C60004A575F4FFA0104910023D9F0222319F05B
:101C7000822F0E94F30DE02FF0E0EE0FFF1FEE58D1
:101C8000FF4FA591B491FF2031F49FB7F8948C9148
:101C90001095812304C09FB7F8948C91812B8C936D
:101CA0009FBF1F910F91FF900895A1E21A2EAA1BCA
:101CB000BB1BFD010DC0AA1FBB1FEE1FFF1FA217FC
:101CC000B307E407F50720F0A21BB30BE40BF50BF9
:101CD000661F771F881F991F1A9469F76095709582
:101CE000809590959B01AC01BD01CF010895EE0F49
:0E1CF000FF1F0590F491E02D0994F894FFCFAA
:101CFE0053656E64696E672E2E006661696C006FA7
:101D0E006B00696E76616C69640050696E67206F56
:101D1E00757400506F6E67206261636B005345549B
:101D2E0055505F415709203D20003320627974657C
:101D3E00730034206279746573003520627974659E
:101D4E0073004552524F52000900203D002030785A
:101D5E0000002062004649464F5F5354415455538C
:101D6E0009203D203078002054585F524555534588
:101D7E003D002054585F46554C4C3D002054585F52
:101D8E00454D5054593D002052585F46554C4C3DE0
:101D9E00002052585F454D5054593D004F42534517
:101DAE005256455F545809203D2030780020504F40
:101DBE004C535F434E543D00204152435F434E54BB
:101DCE003D00464541545552450909203D20307885
:101DDE000020454E5F44504C3D0020454E5F414330
:101DEE004B5F5041593D0020454E5F44594E5F4177
:101DFE00434B3D0053455455505F524554520920B4
:101E0E003D20307800204152443D576169742000D6
:101E1E002B383675732000204152433D0052465FE9
:101E2E00534554555009203D2030780020434F4EE5
:101E3E00545F574156453D002052465F44523D0087
:101E4E00314D627073003235306B62707300324DFB
:101E5E0062707300204C4E415F48435552523D0014
:101E6E0020504C4C5F4C4F434B3D002052465F5030
:101E7E0057523D002D313864426D002D313264428F
:101E8E006D002D3664426D003064426D0052465F27
:101E9E0043480909203D2000204D487A00434F4E0B
:101EAE004649470909203D20307800204D41534BCB
:101EBE005F52585F44523D00204D41534B5F545882
:101ECE005F44533D00204D41534B5F4D41585F528F
:101EDE00543D0020454E5F4352433D002043524344
:101EEE004F3D00205057525F55503D0020505249F3
:101EFE004D5F52583D005354415455530909203DEE
:101F0E00203078002052585F44523D002054585FD4
:101F1E0044533D00204D41585F52543D00205258CD
:101F2E005F505F4E4F3D0052585F4649464F5F45EA
:101F3E004D5054590052585F414444525F50302D19
:101F4E00310052585F414444525F50322D35005497
:101F5E00585F414444520052585F50575F50302DE5
:101F6E003600454E5F414100454E5F525841444454
:101F7E00520044594E50440043440909203D20006C
:101F8E004D6F64656C0909203D2000435243204C7F
:101F9E00656E67746809203D2000404B01E2C04B1E
:101FAE000000D0FC8C0299003941D99E860B240684
:101FBE007FA60000000000000000000000000000EE
:101FCE0000000000000000000000007312000080FE
:101FDE00B436000F01010201030304050520062D8E
:101FEE000770080009000CC30DC40EC50FC61120E2
:101FFE001220132014201520162017112A04330442
:10200E003D0446044D04412008048120CFF7FEFF15
:10201E00FF2A2B2C2D021C011D046E524632344C0D
:10202E003031006E524632344C30312B00446973DD
:10203E0061626C6564003820626974730031362009
:10204E00626974730000000000030B500B680BA84C
:08205E000AD30AB90AF70A00CF
:00000001FF
