:100000000C9490000C94AF000C94AF000C94AF00D3
:100010000C94AF000C94AF000C94AF000C94AF00A4
:100020000C94AF000C94AF000C94AF000C94AF0094
:100030000C94AF000C9475020C94AF000C947701F3
:100040000C94AF000C94AF000C94AF000C94AF0074
:100050000C94AF000C94AF000C94AF000C94AF0064
:100060000C94AF000C94EC030C94D0030C94AF00F0
:100070000C94AF000C94AF000C94AF000C94AF0044
:100080000C94AF000C94AF000C94AF000C94AF0034
:100090000C94AF000C94AF000C94AF000C94AF0024
:1000A0000C94AF000C94AF000C94CD020C94DE02C3
:1000B0000C94AF000C94AF000C94AF000C94AF0004
:1000C0000C94AF000C94AF000C94AF000C94AF00F4
:1000D0000C94AF000C94AF000C94AF000C94AF00E4
:1000E0000C94AF000C94AF000C94AF000C94AF00D4
:1000F0000C94770C0C94AF000C94AF000C943F0C54
:100100000C94AF000C94AF000C94AF000C94AF00B3
:100110000C94AF000C94AF000C94AF000C94AF00A3
:1001200011241FBECFEFD1E4DEBFCDBF12E0A0E0AF
:10013000B2E0E8E6F3E200E00BBF02C007900D92E8
:10014000A239B107D9F719E1A2E9B2E001C01D92C5
:10015000AF3DB107E1F70E94060F0C94B2110C9469
:1001600000008150833030F4E82FF0E0E257FD4F7B
:10017000808108958FEF089580938D020895909166
:100180008D02883040F49295990F990F907C982BAE
:1001900090937C0008C0892F8295880F880F807CFF
:1001A000896280937C0080917A00806880937A00D5
:1001B00084E190E00E94F20180917A00876480934C
:1001C0007A0080917A0086FDFCCF80917800909132
:1001D0007900392F20E090E0822B932B08958091B5
:1001E00070008A7F809370008091B6008F73809337
:1001F000B6008091B60080628093B6001092B20083
:1002000085E08093B1008091B60090E08770907097
:100210000097C9F780917000816080937000789496
:100220001092E1080895CF93DF93EC0187E2C0318B
:10023000D80750F0CE0160E177E20E94C210CB01F6
:10024000C0960E94490304C083E0C83ED80750F01E
:10025000CE0168EE73E00E94C210CB01C0960E94EE
:10026000490303C0C436D10550F0CE0164E670E006
:100270000E94C210CB01C0960E94490303C0CA303D
:10028000D10548F0CE016AE070E00E94C210CB01B7
:10029000C0960E944903CE016AE070E00E94C2103D
:1002A000C0960E944903DF91CF910895CF93DF93C9
:1002B00000D000D000D0CDB7DEB7481760F084176B
:1002C00040F0371740F0731720F0261720F0621720
:1002D00020F48FEF03C081E001C080E026960FB6C6
:1002E000F894DEBF0FBECDBFDF91CF9108951F926E
:1002F0000F920FB60F920BB60F9211242F933F93CC
:100300004F935F936F937F938F939F93AF93BF931D
:10031000CF93DF93EF93FF938091DC198F5F8093EE
:10032000DC198C33A1F41092DC198091DD198F5FF8
:100330008093DD198C3359F41092DD198091DE1908
:100340008F5F8093DE19883111F41092DE1980914D
:10035000E1088823A1F424C08D810E94B10090E0BF
:100360009C01220F331F280F391F220F331F2C5DD2
:100370003F4F2C0F3D1F3093D3082093D208C091DC
:10038000D208D091D308688179818A812091DC19C3
:100390003091DD194091DE190E9456018823E1F267
:1003A000FF91EF91DF91CF91BF91AF919F918F918D
:1003B0007F916F915F914F913F912F910F900BBE65
:1003C0000F900FBE0F901F90189514BE88E10FB6C6
:1003D000F89480936000109260000FBE78940E94A1
:1003E0008402089590E00E94990208950F931F934C
:1003F0002FE0660F771F881F991F2A95D1F720E0FD
:1004000030EA4FE050E00E94D61089019A010115B0
:1004100011052105310509F465C0BB27A32F922FD3
:10042000812F109270002091B60020622093B600B8
:100430001092B0001092B1001092B2002091B6005C
:1004400030E02F71307021153105C1F727E027BB4F
:100450002093B1005FEF47E001C000E010929202EC
:10046000009719F05093B30020C0002319F00093B7
:10047000B3001BC08091B60090E08F719070009720
:10048000C9F7109270001092B10083B5826083BDED
:100490008091B60090E08F7190700097C9F78091BD
:1004A000B6008F7D8093B6001DC020917000226041
:1004B000209370002091B60030E02F71307021152C
:1004C0003105C1F743BF889513BE3FB7F89420911B
:1004D00092023FBF222309F4C1CF009709F4BDCF98
:1004E0000197BCCF1F910F9108951F920F920FB6E5
:1004F0000F9211248F9381E0809392028F910F903D
:100500000FBE0F901F9018951092D40880E197E2CB
:100510009093A9008093A800E1EAF0E088E080834E
:10052000808182608083E2E7F0E080818260808366
:1005300008952091A4003091A500280F391F309311
:10054000AB002093AA002091AA003091AB008091CB
:10055000A8009091A9008217930770F48091AA00D7
:100560009091AB002091A8003091A900821B930BC1
:100570009093AB008093AA00109293028091720036
:10058000846080937200809193028823E1F38091CC
:1005900072008B7F8093720008951F920F920FB6A6
:1005A0000F9211248F938091D4088F5F8093D40889
:1005B0008F910F900FBE0F901F9018951F920F9262
:1005C0000FB60F9211248F9381E0809393028F9145
:1005D0000F900FBE0F901F9018950F931F939B01C4
:1005E000AC01E4E0220F331F441F551FEA95D1F7F9
:1005F00060E074E284EF90E00E94D61089019A01D5
:100600000150104020403040BB27A32F922F812F54
:100610008093C5000093C40082E08093C00088E905
:100620008093C10086E08093C2008AEA92E09093B2
:10063000A9028093A80220E830E03093A50220931D
:10064000A4021092A7021092A602E0EAF2E0118240
:100650001082138212828EE992E04BE253E05093B3
:100660009F0240939E02FC01349731832083FC015A
:10067000329711821082FC01389711821082138206
:10068000128281E080939502109294021F910F9143
:1006900008956091A6027091A7024091A402509122
:1006A000A50264177507F1F02091A2023091A30210
:1006B000E091A802F091A902E20FF31F80832F5F5F
:1006C0003F4F3093A3022093A2022417350721F451
:1006D0001092A3021092A2026F5F7F4F7093A70245
:1006E0006093A6020895CF92DF92FF920F931F931B
:1006F000CF93DF930F92CDB7DEB7F82E082F192FC7
:10070000CC24DD240AC0F80181918F0199830E94D5
:1007100049030894C11CD11C9981AF2DB92FFD014B
:1007200001900020E9F73197EA1BFB0BCE16DF069C
:1007300050F30F90DF91CF911F910F91FF90DF90B9
:10074000CF9008959FB7F894E0919E02F0919F0298
:100750002091960230919702E20FF31F80812F5F64
:100760003F4F30939702209396024091960250910A
:10077000970220919A0230919B024217530721F46D
:10078000109297021092960220919C0230919D0245
:100790002150304030939D0220939C029FBF0895CA
:1007A0001F920F920FB60F920BB60F9211248F93D8
:1007B000EF93FF9381E080939502E1ECF0E080817C
:1007C0008F7D8083FF91EF918F910F900BBE0F90E3
:1007D0000FBE0F901F9018951F920F920FB60F9299
:1007E0000BB60F9211242F933F934F938F939F93A8
:1007F000EF93FF938091C0004091C6008C71B1F5DA
:1008000020919C0230919D0280919A0290919B02CE
:100810002817390759F1E0919E02F0919F028091CB
:10082000980290919902E80FF91F408301969093E6
:1008300099028093980220919802309199028091B8
:100840009A0290919B022817390721F4109299027D
:100850001092980280919C0290919D020196909333
:100860009D0280939C0281E080939402FF91EF911E
:100870009F918F914F913F912F910F900BBE0F90B1
:100880000FBE0F901F9018958091A6029091A7021D
:10089000009789F120919502222369F12091A0020D
:1008A0003091A102E091A802F091A902E20FF31F9A
:1008B00060812F5F3F4F3093A1022093A0024091AF
:1008C000A4025091A5022417350721F41092A10229
:1008D0001092A00201979093A7028093A6029FB75F
:1008E000F8946093C6008091C10080628093C1003B
:1008F000109295029FBF3FB7F894209194021092F6
:10090000940280919C0290919D023FBF222311F09E
:100910000E94EC0E08951092D9081092DA08E5EDC5
:10092000F8E01182108217821682118610861386D3
:1009300012860E94FA090E9492070E94AD050E9449
:10094000FC040E94370608959093D6088093D5083A
:100950000E94DF0B08959093D8088093D7080E94D7
:10096000D50B0895E82FF0E0EE0FFF1FE552F74F8B
:100970007183608308950E94E707882359F40E94D9
:10098000BE0A882339F40E941605882331F40E9498
:10099000E90B089581E090E0089581E090E00895EA
:1009A0000E94F90B08950E94050C08950E94EE071D
:1009B0000E94E10A0E9420050895E091AC03F091A5
:1009C000AD0315C0228133812817390769F4DC0192
:1009D000A158BF4F2C912787DC01AE57BF4F2C91F8
:1009E000208B22E0248305C00190F081E02D309718
:1009F00049F70E94DA0508951092AD031092AC03F6
:100A00000895FC0114821786138212828091AC0330
:100A10009091AD03009719F41182108202C0918366
:100A20008083F093AD03E093AC03089581E02091BF
:100A3000AC033091AD032115310509F480E0089530
:100A40000F931F93CF93DF93E091AC03F091AD032D
:100A5000EF017BC08C81882321F0823009F072C0C5
:100A600058C08C850E94B4058C01009721F482E067
:100A70008C838F876DC09B838A8381E08C83F80190
:100A8000ED57FF4F8DED94E091838083F801EE5791
:100A9000FF4F998581E092FF80E080839985917076
:100AA000F80183858E7F892B8387998581E093FF69
:100AB00080E0982F990F990FF80183858370892B17
:100AC00083878091D9088F5F8093D908848780912C
:100AD000D5089091D608968785878D819E81908BC9
:100AE000878798859F708189807F892B818B9F81E3
:100AF0009295907F8F70892B818BC80142964C858F
:100B00006A857B8550E00E945D11C8010E94150A2C
:100B10001FC0EC17FD0741F4888199819093AD03C4
:100B20008093AC030AC0FC01808191818C179D07E2
:100B3000D1F78881998191838083ED85FE85CE01EF
:100B4000099506C00990D881C02D209709F082CF61
:100B5000DF91CF911F910F9108951092AE031092E3
:100B600033041092B80408959091AE03992359F07C
:100B700090913304992351F09091B8049923B9F4DA
:100B800022E030E005C020E030E002C021E030E0AB
:100B900045E850E0249FF001259FF00D349FF00DB3
:100BA0001124E255FC4F805F8183CF01089580E0DE
:100BB00090E00895FC0110820895482F50E025E848
:100BC00030E0429FC001439F900D529F900D112431
:100BD00082559C4F0895FC01DC01A158BF4F1C9227
:100BE000DC01A058BF4F1D921C92DC01AE57BF4FD5
:100BF0001C92DC01AD57BF4F11961C921E921386BA
:100C00008091D9088F5F8093D90884878091D50817
:100C10009091D60896878587108A1786118A08953D
:100C2000EDE3F5E020E0408151814817590759F480
:100C300030E0C901880F991F820F931F880F991FF9
:100C4000835C9A4F08952F5F3696243661F72FEF15
:100C50008F3F920719F48FE897E0089580E090E0C5
:100C600008950E94DA0508950E94DA050895EDE3DB
:100C7000F5E024E68FEF9FEF918380832150369635
:100C80002223D1F708950E941006009729F02FEF34
:100C90003FEFFC01318320830895EF92FF920F9381
:100CA0001F93CF93DF93EC0109851A8517FF05C0C9
:100CB0008D859E850817190751F58D819E812FEF2F
:100CC0008F3F920721F1ED84FE84C7010E94100638
:100CD000FC01009769F0828193818017910799F058
:100CE000DE01A158BF4F9C918581891760F407C030
:100CF0008FEF9FEF0E941006FC01F182E0821383C8
:100D0000028383E08483C158DF4F88818583DF912C
:100D1000CF911F910F91FF90EF9008950F931F9324
:100D2000CF93DF9300D000D000D0CDB7DEB78C01D9
:100D3000DC011F968D919C9150970E941006FC013A
:100D40000097D1F1D801A158BF4F8C91882319F495
:100D500083E084830AC0848181508483882329F4BA
:100D60008FEF9FEF9183808327C0CF018D539540F4
:100D7000863091050CF1CE010196AF0146505040EE
:100D800026E0DA010D90AD01DC010D92CD0121507C
:100D9000C1F7CF010697AF0126E0DA010D90AD0152
:100DA000DC010D92CD012150C1F7DE01119686E0E4
:100DB0000D9001928150E1F726960FB6F894DEBFB0
:100DC0000FBECDBFDF91CF911F910F9108952FEFEF
:100DD0008F3F9207F1F0EDE3F5E040E050E0208135
:100DE00031812817390761F4FA01EE0FFF1FE40F74
:100DF000F51FEE0FFF1FE35CFA4F82819381089588
:100E00004F5F5F4F36964436510549F78FEF9FEF9E
:100E100008958FEF9FEF0895CF92DF92EF92FF92A8
:100E20000F931F93CF93DF938C01FC01C784D0886D
:100E3000C6010E94E706FFEF8F3F9F0781F0F80190
:100E4000ED57FF4F84E396E091838083F801EE57DE
:100E5000FF4F82E08083C8010E94150A20C0F8017C
:100E6000E584F68485E00E94B405EC010097A1F0CA
:100E70000E94EB05FE01ED57FF4F81E396E0918361
:100E80008083F88AEF8681E08A8BFC8AEB8ADE8A8F
:100E9000CD8ACE010E94150AC8010E94DA05DF91B1
:100EA000CF911F910F91FF90EF90DF90CF90089519
:100EB000DC011596ED91FC911697838194810E9437
:100EC000430608950E94E70608950E94DA050895F2
:100ED000E9E9F7E04AE050E0208131812115310550
:100EE00029F0215030403183208351E04150359624
:100EF000442391F7552311F00E94D80D0895DC0189
:100F00001596ED91FC9116972081222319F40E94E9
:100F10009A0A04C0213021F40E94580781E0089504
:100F200080E00895E9E9F7E08AE0118210828150BB
:100F300035968823D1F71092C80784E190E0A0E0AD
:100F4000B0E08093CF079093D007A093D107B093E0
:100F5000D2071092D30788E697E09093D507809345
:100F6000D40780E06FE777E00E94B2040895CF9342
:100F7000DF93EC01E881F9818181883829F580814E
:100F8000813611F0813401F58A818031E8F0805199
:100F90000E94B4050097C1F020E2FC0120832B8160
:100FA000E158FF4F20832C81FC01E058FF4F208344
:100FB00002964A816881798150E00E945D1180919A
:100FC000C8078F5F8093C807DF91CF91089581E0B4
:100FD0009091C807992309F480E008958F929F9219
:100FE000AF92BF92CF92DF92EF92FF920F931F9337
:100FF000CF93DF93CDB7DEB72A970FB6F894DEBF55
:101000000FBECDBF8091C807882309F4ADC1DD2490
:1010100044E2C42E55E6852E57E0952E62E2B62EA8
:1010200073E2A72E8D2D0E94DD057C01DC018C91E1
:10103000823209F4D9C0833220F4803209F08FC1A2
:1010400007C0833209F47FC1843209F088C17FC1AF
:10105000F701C08287859089FFEF8F3F9F0731F4AA
:10106000D7011B968C911B9780FD79C12091D508E3
:101070003091D608F701858596852817390709F438
:101080006EC1838581FD6BC1C7010E944D06E6E9F3
:10109000F7E040E050E06FEF238134812115310506
:1010A00081F1D7011D968D919C911E9720813181F0
:1010B0008217930739F51C968C91FA01EE0FFF1FEA
:1010C000EE0FFF1FE40FF51FEA56F84F9281B82F7D
:1010D000B91B1B1634F4828387E990E094838383E1
:1010E00039C02091D5083091D608F70187819085C5
:1010F0002817390709F033C1878590890E94430674
:101100002EC1642F4F5F5F4F35964A30510521F64F
:101110006F3F09F424C1862F992787FD9095FC0124
:10112000EE0FFF1FEE0FFF1FE80FF91FEA56F84FF3
:10113000D7011D968D919C911E97918380831C965B
:101140008C91828387E990E09483838389EC97E094
:101150000E94D80DF70187819085FFEF8F3F9F0791
:10116000D9F42091D5083091D608D7011F968D91DA
:101170009C9150972817390779F015968D919C917D
:101180001697BFEF8F3F9B0739F0F701838582FDEC
:1011900003C0C7010E94520A8091D5089091D608D9
:1011A000D7011F962D913C9150978217930721F0FC
:1011B000BFEF2F3F3B0719F4F701B082D0C0D70132
:1011C00017962D913C9118978217930709F0C7C085
:1011D00015968D919C911697BFEF8F3F9B0709F451
:1011E000BEC0F701A082BBC010929507D7015196EF
:1011F0008C91519782958F70E82FF0E0E430F105E3
:101200000CF05EC0EE0FFF1FE552F74F4081518199
:101210004115510509F454C01D962D913C911E971E
:101220003A83298351969C9151979F709B838C831D
:10123000C70142969F838E8311968C91119780519E
:101240008887F701E158FF4F80818987F701E058CF
:10125000FF4F80818A87F7017385672F637072FF64
:1012600002C080E201C080E0762F782BD7011F9664
:101270008D919C915097BFEF8F3F9B0711F464E0D5
:1012800001C060E0672BF701818592852817390737
:1012900011F498E001C090E0692BD70115968D916B
:1012A0009C911697BFEF8F3F9B0711F480E101C01F
:1012B00080E0862B8D83CE010196FA01099501C04D
:1012C00080E0F70127813085FFEF2F3F3F0771F462
:1012D00061E070E02091D5083091D608D7011F96C3
:1012E0004D915C9150972417350711F060E070E044
:1012F000F701938590FF02C0882319F461157105E9
:10130000F9F083E00E94B4058C010097C9F00E94B7
:10131000EB05F801ED57FF4F91828082D7011D96B2
:101320008D919C911E97F801908B8787128A8091EE
:101330009507848B1C968C91838BC8010E94150A9B
:10134000D701CC920CC0C7010E940C0703C0C70193
:101350000E94DA058091C80781508093C807D39412
:10136000B3E0DB1609F05ECE2A960FB6F894DEBF26
:101370000FBECDBFDF91CF911F910F91FF90EF90E6
:10138000DF90CF90BF90AF909F908F9008950E9474
:10139000DA050895EF92FF921F93CF93DF937C01BC
:1013A0008091D807882301F1C0E0D5E110E18C2FAE
:1013B0000E94DD05DC018C91843181F4FD01E0584F
:1013C000FF4F20813181215030403183208321150E
:1013D000310521F4DC93A158BF4F1C93CF5FC3307C
:1013E00031F7C7010E94D80DDF91CF911F91FF9077
:1013F000EF9008951092D7071092D6071092D80751
:1014000082E390E0A0E0B0E08093DF079093E007F4
:10141000A093E107B093E2071092E3078AEC99E00A
:101420009093E5078093E4070895CF93DF93EC0151
:10143000FC01EE57FF4F808191E19883FE01E15856
:10144000FF4F108280FF03C08FEF9FEF04C0809199
:10145000D7089091D8089E838D838F8598890E94A4
:10146000E70698878F832091D5083091D6083A8770
:1014700029872091DA082F5F2093DA082C832FEF39
:101480008F3F920719F481E498E802C081E698E85A
:101490009B838A838091D8078F5F8093D807DF91E1
:1014A000CF9108950F931F93CF93DF938C01FC018D
:1014B000818180510E94B405EC010097B1F1FC01DB
:1014C000ED57FF4F87EC99E091838083CE01029620
:1014D000F8014181B8016E5F7F4F50E00E945D11BD
:1014E00081E18883FE01E158FF4F108281E498E892
:1014F0009B838A838FEF9FEF98878F838091D70894
:101500009091D8089E838D838091D5089091D608BC
:101510009A8789878091DA088F5F8093DA088C83B5
:101520008091D8078F5F8093D807DF91CF911F916B
:101530000F9108951F93CF93DF93FC01C581D6814E
:101540008091D8078823B1F010E0812F0E94DD053B
:10155000FC018081843159F494858981981739F48C
:1015600085E180838A81EE57FF4F808303C01F5F30
:10157000133059F7DF91CF911F91089581E0909139
:10158000D807992309F480E00895E091D607F091F7
:10159000D707833030F0833031F0853031F481E289
:1015A00005C080E003C080E201C081E0DF01A158F6
:1015B000BF4F8C9383E180831092D7071092D60798
:1015C0000895CF92DF92EF92FF920F931F93CF93E4
:1015D000DF938091D807882309F455C010E005E116
:1015E00084E1F82E95E1C92ED12C22E1E22E812F43
:1015F0000E94DD05EC018881833199F0853179F114
:101600008131E9F50E94E90B8823C9F5D093D7070A
:10161000C093D607E882CE01029669810E94100C21
:101620002EC0FE01E158FF4F80818823B1F42D8543
:101630003E858091D5089091D6082817390769F41E
:101640008B8580FF0AC0F882C058DF4FD982C882DC
:1016500089ED97E00E94D80D12C0088310C0CE011A
:101660000E948E06FE01ED57FF4F0190F081E02DA4
:10167000CE0109958091D80781508093D8071F5FCC
:10168000133009F0B4CFDF91CF911F910F91FF90EC
:10169000EF90DF90CF90089593E090934201809374
:1016A0004201909141019F718917D9F70895809166
:1016B000F007882311F086E101C088E00E944C0BFE
:1016C00008950F931F93CF93DF9310924E0186E0FE
:1016D0000E944C0BC0E0D0E000E010E081E00E94EE
:1016E000F2018091460182958695837090E00C2EE0
:1016F00002C0880F991F0A94E2F7082B192B229633
:10170000C031D10559F788E00E944C0B8FEF8093D0
:101710004F0180914E01886080934E0180914E016F
:10172000806480934E01C801DF91CF911F910F918A
:101730000895E9E3F1E080818160808388E00E9480
:101740004C0BEEE6F1E080818062808380818F7EA9
:1017500080838FEF80934F01EEE4F1E08081886019
:101760008083808180648083ECE4F1E08081806804
:1017700080830E94610B80936D011092EA071092A2
:10178000F00781E08093E90708959091EA07986057
:101790009093EA078093F00708959091EA0791608B
:1017A0009093EA078093EB0708952091EA0722605F
:1017B0002093EA079093ED078093EC07089520911A
:1017C000EA0724602093EA079093EF078093EE07DF
:1017D00008958091E907813049F481E090E02091FB
:1017E000EA07222329F480E090E0089581E090E068
:1017F000089588E00E944C0BE9E3F1E0808182606B
:10180000808382E08093E9070895E9E3F1E0808135
:101810008D7F80830E94570B81E08093E9070895B4
:101820001F93CF93DF9300D0CDB7DEB7182F89E198
:1018300069839A830E944C0B6981862F8E5F809307
:101840008001E12F9A81F92FA1E8B1E002C08191D6
:101850008D938E2F811B8617D0F382E080934201F7
:1018600083E08093E9070F900F90DF91CF911F9154
:1018700008958091EA0780618093EA0708951F9296
:101880000F920FB60F920BB60F9211242F933F9326
:101890004F935F936F937F938F939F93AF93BF9378
:1018A000EF93FF93809141018F71893169F489E051
:1018B0000E944C0B84E08093E9078091420182955D
:1018C000869587708093E807FF91EF91BF91AF9164
:1018D0009F918F917F916F915F914F913F912F9148
:1018E0000F900BBE0F900FBE0F901F9018951F9278
:1018F0000F920FB60F9211248F9389E080934201CB
:10190000809147018093E70780917B018093E607F0
:1019100085E08093E9078F910F900FBE0F901F9085
:1019200018951F93CF93DF9300D000D00F92CDB7BF
:10193000DEB78091E9078430F1F1853009F44FC0BA
:10194000813009F076C01091EA07112309F471C0C3
:1019500088E00E944C0B10FF09C09091EB079F712B
:1019600080914801807E892B809348018091EA070D
:1019700081FF08C08091EC07809362018091ED07A0
:10198000809363018091EA0782FF08C08091EE078F
:10199000809360018091EF07809361018091EA0755
:1019A00084FF04C00E94610B0E94030F0E94570B2A
:1019B0001092EA073EC08091E8070E94C50A809114
:1019C00041018F718930D9F72FC0FC01E058FE4FDB
:1019D00020818F50984FFC0120834F5F01C040E071
:1019E0002091E607842F90E030E0281739076CF744
:1019F00081EF97E09A8389838091E60782508B83F9
:101A0000E091E607F0E0EF50F84F80818C83809101
:101A1000E7078A558D83CE0101960E94B707809112
:101A200041018F718930D9F781E08093E9070E94E5
:101A3000570B0F900F900F900F900F90DF91CF9159
:101A40001F9108950E94E5010E94890D0E94990B43
:101A50000E948B0408950E94910C0E94D6040E945B
:101A6000E50D08950F931F93CF93DF93FC01009131
:101A70007108109172083681278190858185011542
:101A80001105C1F1432F522F692F782FE80120E073
:101A900030E001C0EC018A819B81AC81BD81481797
:101AA00059076A077B0748F4841B950BA60BB70BF5
:101AB0008A839B83AC83BD8309C0481B590B6A0B87
:101AC0007B0B888199819E01009721F74283538384
:101AD000648375832115310551F0D9018D919C9155
:101AE0001197918380831196FC93EE930DC011831F
:101AF000008306C0118210823283238394838583FE
:101B0000F0937208E0937108DF91CF911F910F91CC
:101B1000089510927208109271080895CF93DF9380
:101B2000EC01E0917108F0917208A0E0B0E02AC0E9
:101B3000EC17FD0711F580819181109721F0119626
:101B40009C938E9304C090937208809371080190C7
:101B5000F081E02D3097C1F082819381A481B5811D
:101B60004A815B816C817D81840F951FA61FB71F01
:101B700082839383A483B58307C090818181DF0131
:101B8000E92FF82F3097A1F6DF91CF910895E091DA
:101B90007108F091720806C0E817F90739F0019052
:101BA000F081E02D3097C1F780E0089581E008953D
:101BB000CF93DF93EC010E94C70D882319F4CE0167
:101BC0000E94320DDF91CF910895CF92DF92EF9274
:101BD000FF92CF93DF938091D408882309F43EC00D
:101BE0008FB7F8946091D4081092D4088FBF70E03A
:101BF00080E090E02AE030E040E050E00E94A31056
:101C00006B017C0114C0C81AD90AEA0AFB0A888150
:101C1000998190937208809371088A85813019F4B4
:101C2000CE010E94320DEB85FC85CE010995C09155
:101C30007108D0917208209789F08A819B81AC81CC
:101C4000BD81C816D906EA06FB06E8F68C199D097F
:101C5000AE09BF098A839B83AC83BD83DF91CF919B
:101C6000FF90EF90DF90CF90089585B190E18927A4
:101C700085B9089580917308843021F481E08093C0
:101C80007308089584E798E00E94D80D0895DF92C4
:101C9000EF92FF920F931F93CF93DF93FC01A581E7
:101CA000B68185B190E1892785B9808559968C9355
:101CB000599781855A968C93E580C681D78080E1BB
:101CC0000E94490382E00E9449030E2D1C2FFF242D
:101CD0000FC0E8018881803121F40E94490380E12E
:101CE000F80EF80181918F010E9449038881F80E56
:101CF000802F8E198D1568F380E10E94490383E0DF
:101D00000E9449038F2D8B5D0E94490381E0DF9182
:101D1000CF911F910F91FF90EF90DF900895CF9397
:101D2000DF93EC012C988F858230A1F0833028F46A
:101D3000882351F08130D1F40AC0803289F0813299
:101D400091F0803199F409C080E092E011C08DE0FB
:101D500092E00EC088E192E00BC08BE292E008C0F6
:101D600087E392E005C083E592E002C086E692E058
:101D70000E9473038F852091B208882359F422238F
:101D800029F52C9A83EB98E00E948E0D81E08093D8
:101D9000B2081CC08091A6089091A708A091A8083D
:101DA000B091A9080196A11DB11D8093A60890933A
:101DB000A708A093A808B093A908222339F02C986B
:101DC00083EB98E00E94D80D1092B20883E08093D4
:101DD0007308DF91CF9108950F931F93CF93DF93F3
:101DE0008C01C0E0D0E003C00E94A2032196C0177E
:101DF000D107D1F785B190E1892785B9DF91CF91DE
:101E00001F910F9108950E94521108950E94220D72
:101E100060E076E980E090E00E94ED020E94EF0031
:101E20001092DE198AE18093DD198EE18093DC192E
:101E300003E818E08AE3E82E8EE0F82E25E3C22EB0
:101E40002EE0D22E3EEFA32E3FEFB32EA00EB11EFA
:101E50004FE8842E4EE0942E0E942B0D0E944404E5
:101E6000C0917308C33009F446C1C43028F4CC23B0
:101E700061F0C13089F7BDC0C63009F44BC1C7302D
:101E800009F455C1C53041F73CC121E020938108D8
:101E90002093820882E08093830880E4F8018183A4
:101EA00012821382148215821682178282E090E4D5
:101EB00090938C0880938B0880E091E0A1E0B1E0E2
:101EC00080938D0890938E08A0938F08B09390080C
:101ED00080E090E8A0E0B0E08093910890939208B1
:101EE000A0939308B093940884E392E190939608AA
:101EF000809395088FE0809397081092990810922C
:101F0000980810929A0810929B0820939C088CE0E5
:101F100080939D0810929E0810929F081092A0082E
:101F20001092A1081092A2081092A3081092A4087F
:101F30001092A5081092A6081092A7081092A8085F
:101F40001092A90880E28093AA0886E08093AB08EB
:101F5000ECEAF8E0A3E7B2E00D9001928150E1F7DE
:101F6000249A2C9A82E090E40E94A40484E392E1F3
:101F70000E94AB048FE00E94CD0B81E00E94C50B54
:101F800081E067E47EE00E94B20480ED97E0A0E08B
:101F9000B0E080937A0890937B08A0937C08B0937C
:101FA0007D0810927E08F0928008E0927F081092DF
:101FB000B20884EF91E0A0E0B0E08093B90890937C
:101FC000BA08A093BB08B093BC08C1E0C093BD0899
:101FD000D092BF08C092BE0883EB98E00E94D80D53
:101FE0008AE792E00E9473030E94390CC093730841
:101FF00033CF80E090E00E9462079093990880932D
:1020000098080E944D11AA2797FDA095BA2F80939A
:102010009E0890939F08A093A008B093A1080E94E7
:102020004D11AA2797FDA095BA2F8F779070A070B9
:10203000B0708093A2089093A308A093A408B093D3
:10204000A5081092C6081092C508C093C708C0938F
:10205000C80883E08093C908B092CB08A092CA0850
:1020600081E38093CC089092CE088092CD082C9A80
:1020700080EC98E00E9401058091DE1990E00E94BA
:1020800013018AE30E9449038091DD1990E00E94C8
:1020900013018AE30E9449038091DC1990E00E94B9
:1020A00013018AE00E94490381E00E94BC0084E0A1
:1020B0000E94BF009093E3088093E20882E892E0D8
:1020C0000E9473038091E2089091E30864EE78E047
:1020D0004AE050E00E94661184EE98E00E9473038B
:1020E0008AEB0E94490383E40E9449038AE00E942C
:1020F000490382E025C084E798E00E94D80D84E07F
:102100001FC00E94BB04882309F0A6CE0E94D00401
:1021100086E016C024982C9880E00E94C50B60EDE4
:1021200077E080E090E00E94F60187E009C00E941D
:10213000D304249A2C9A2C9A81E00E94C50B81E04A
:102140008093730889CE629FD001739FF001829FB4
:10215000E00DF11D649FE00DF11D929FF00D839F36
:10216000F00D749FF00D659FF00D9927729FB00DD3
:10217000E11DF91F639FB00DE11DF91FBD01CF01E6
:1021800011240895AA1BBB1B51E107C0AA1FBB1F46
:10219000A617B70710F0A61BB70B881F991F5A95F3
:1021A000A9F780959095BC01CD010895A1E21A2E62
:1021B000AA1BBB1BFD010DC0AA1FBB1FEE1FFF1FEB
:1021C000A217B307E407F50720F0A21BB30BE40B3B
:1021D000F50B661F771F881F991F1A9469F7609582
:1021E0007095809590959B01AC01BD01CF0108953C
:1021F0008F929F92AF92BF92CF92DF92EF92FF9217
:10220000CF93DF93EC0188819981AA81BB810097EC
:10221000A105B10521F484E299EDABE5B7E0BC017D
:10222000CD012DE133EF41E050E00E9497114901CB
:102230005A0127EA31E440E050E00E94A3106B010C
:102240007C01C501B4012CEE34EF4FEF5FEF0E942B
:10225000A310DC01CB01C80ED91EEA1EFB1EF7FE3F
:1022600008C08FEF9FEFAFEFBFE7C80ED91EEA1E81
:10227000FB1EC882D982EA82FB82C6019F77DF916A
:10228000CF91FF90EF90DF90CF90BF90AF909F9055
:102290008F9008950E94F810089589E892E00E94B6
:1022A000F8100895A0E0B0E08093890290938A022C
:1022B000A0938B02B0938C020895FB01DC0102C055
:1022C00001900D9241505040D8F70895FB019F01B5
:1022D000E8944230C4F04532B4F44A3029F497FB14
:1022E0001EF4909581959F4F642F77270E94C2100E
:1022F000805D8A330CF0895D8193CB010097A1F753
:1023000016F45DE251931082C9010C948711DC012F
:10231000FC01672F71917723E1F7329704C07C911C
:102320006D9370836291AE17BF07C8F3089597FB52
:10233000092E05260ED057FD04D038DF0AD0001C28
:1023400038F450954095309521953F4F4F4F5F4F52
:102350000895F6F790958095709561957F4F8F4F12
:082360009F4F0895F894FFCF90
:102368004E574B5F535543434553530A004E574B03
:102378005F4552524F520A004E574B5F4F55545FBC
:102388004F465F4D454D4F52590A004E574B5F4ED1
:102398004F5F41434B0A005048595F4348414E4EF6
:1023A800454C5F4143434553535F4641494C555261
:1023B800450A005048595F4E4F5F41434B5F5354A5
:1023C800415455530A004E4F5420535045435445E9
:1023D800440A00526F7574657200524F5554455245
:1023E8000A0054454D503A20000100000001010345
:0223F8000200E1
:00000001FF
