:100000000C9490000C94AF000C94AF000C94AF00D3
:100010000C94AF000C94AF000C94AF000C94AF00A4
:100020000C94AF000C94AF000C94AF000C94AF0094
:100030000C94AF000C943D010C94AF000C94AF00F5
:100040000C94AF000C94AF000C94AF000C94AF0074
:100050000C94AF000C94AF000C94AF000C94AF0064
:100060000C94AF000C9453020C9437020C94AF0024
:100070000C94AF000C94AF000C94AF000C94AF0044
:100080000C94AF000C94AF000C94AF000C94AF0034
:100090000C94AF000C94AF000C94AF000C94AF0024
:1000A0000C94AF000C94AF000C9461010C9472019D
:1000B0000C94AF000C94AF000C94AF000C94AF0004
:1000C0000C94AF000C94AF000C94AF000C94AF00F4
:1000D0000C94AF000C94AF000C94AF000C94AF00E4
:1000E0000C94AF000C94AF000C94AF000C94AF00D4
:1000F0000C949F0A0C94AF000C94AF000C94670A08
:100100000C94AF000C94AF000C94AF000C94AF00B3
:100110000C94AF000C94AF000C94AF000C94AF00A3
:1001200011241FBECFEFD1E4DEBFCDBF12E0A0E0AF
:10013000B2E0ECE4FEE100E00BBF02C007900D92DC
:10014000AC30B107D9F717E0ACE0B2E001C01D92C6
:10015000AD3BB107E1F70E94060D0C94240F0C94FF
:10016000000014BE88E10FB6F894809360001092EE
:1001700060000FBE78940E944C0108950F931F9366
:100180002FE0660F771F881F991F2A95D1F720E06F
:1001900030EA4FE050E00E94790E89019A01011582
:1001A00011052105310509F465C0BB27A32F922F46
:1001B000812F109270002091B60020622093B6002B
:1001C0001092B0001092B1001092B2002091B600CF
:1001D00030E02F71307021153105C1F727E027BBC2
:1001E0002093B1005FEF47E001C000E010920C02E5
:1001F000009719F05093B30020C0002319F000932A
:10020000B3001BC08091B60090E08F719070009792
:10021000C9F7109270001092B10083B5826083BD5F
:100220008091B60090E08F7190700097C9F780912F
:10023000B6008F7D8093B6001DC0209170002260B3
:10024000209370002091B60030E02F71307021159E
:100250003105C1F743BF889513BE3FB7F89420918D
:100260000C023FBF222309F4C1CF009709F4BDCF90
:100270000197BCCF1F910F9108951F920F920FB657
:100280000F9211248F9381E080930C028F910F9035
:100290000FBE0F901F9018951092B00780E197E263
:1002A0009093A9008093A800E1EAF0E088E08083C1
:1002B000808182608083E2E7F0E0808182608083D9
:1002C00008951F920F920FB60F9211248F93809171
:1002D000B0078F5F8093B0078F910F900FBE0F9084
:1002E0001F9018951F920F920FB60F9211248F93A3
:1002F00081E080930D028F910F900FBE0F901F90A1
:1003000018950F931F939B01AC01E4E0220F331F5C
:10031000441F551FEA95D1F760E074E284EF90E046
:100320000E94790E89019A0101501040204030400E
:10033000BB27A32F922F812F8093C5000093C40069
:1003400082E08093C00088E98093C10086E08093BA
:10035000C20084E292E0909323028093220284E61A
:1003600090E090931F0280931E021092210210923F
:100370002002EAE1F2E0118210821382128288E107
:1003800092E029E832E03093190220931802FC0130
:10039000349721E030E031832083FC0132971182D1
:1003A0001082FC013897118210821382128281E040
:1003B00080930F0210920E021F910F910895609189
:1003C00020027091210240911E0250911F02641779
:1003D0007507F1F020911C0230911D02E09122027C
:1003E000F0912302E20FF31F80832F5F3F4F309382
:1003F0001D0220931C022417350721F410921D02C0
:1004000010921C026F5F7F4F709321026093200255
:1004100008959FB7F894E0911802F0911902209185
:10042000100230911102E20FF31F80812F5F3F4FC6
:10043000309311022093100240911002509111024A
:1004400020911402309115024217530721F41092A3
:1004500011021092100220911602309117022150C1
:10046000304030931702209316029FBF08951F92C9
:100470000F920FB60F920BB60F9211248F93EF933A
:10048000FF9381E080930F02E1ECF0E080818F7DAB
:100490008083FF91EF918F910F900BBE0F900FBE55
:1004A0000F901F9018951F920F920FB60F920BB6D8
:1004B0000F9211242F933F934F938F939F93EF931A
:1004C000FF938091C0004091C6008C71B1F52091DE
:1004D000160230911702809114029091150228178C
:1004E000390759F1E0911802F09119028091120236
:1004F00090911302E80FF91F408301969093130225
:100500008093120220911202309113028091140202
:10051000909115022817390721F4109213021092B6
:100520001202809116029091170201969093170281
:100530008093160281E080930E02FF91EF919F91CC
:100540008F914F913F912F910F900BBE0F900FBE47
:100550000F901F9018958091200290912102009792
:1005600089F120910F02222369F120911A02309122
:100570001B02E0912202F0912302E20FF31F60813F
:100580002F5F3F4F30931B0220931A0240911E02AF
:1005900050911F022417350721F410921B0210926C
:1005A0001A02019790932102809320029FB7F8943A
:1005B0006093C6008091C10080628093C100109258
:1005C0000F029FBF3FB7F89420910E0210920E02C7
:1005D00080911602909117023FBF222311F00E94D2
:1005E000EF0C08951092B5071092B607E1EBF7E013
:1005F0001182108217821682118610861386128647
:100600000E9461080E94F9050E9414040E9463037D
:100610000E949E0408959093B2078093B1070E94B0
:100620000D0A08959093B4078093B3070E94030ABC
:100630000895E82FF0E0EE0FFF1FE954F84F7183A3
:10064000608308950E944E06882359F40E9425096C
:10065000882339F40E947D03882331F40E94170A0D
:10066000089581E090E0089581E090E008950E946F
:10067000270A08950E94330A08950E9455060E9491
:1006800048090E9487030895E0918B02F0918C0243
:1006900015C0228133812817390769F4DC01A1587C
:1006A000BF4F2C912787DC01AE57BF4F2C91208B79
:1006B00022E0248305C00190F081E02D309749F7B6
:1006C0000E944104089510928C0210928B020895AA
:1006D000FC01148217861382128280918B02909102
:1006E0008C02009719F41182108202C091838083DA
:1006F000F0938C02E0938B02089581E020918B02AD
:1007000030918C022115310509F480E008950F9392
:100710001F93CF93DF93E0918B02F0918C02EF0156
:100720007BC08C81882321F0823009F072C058C0D0
:100730008C850E941B048C01009721F482E08C833D
:100740008F876DC09B838A8381E08C83F801ED578E
:10075000FF4F84E493E091838083F801EE57FF4FCD
:10076000998581E092FF80E0808399859170F801FE
:1007700083858E7F892B8387998581E093FF80E035
:10078000982F990F990FF80183858370892B8387A0
:100790008091B5078F5F8093B50784878091B107FB
:1007A0009091B207968785878D819E81908B8787F0
:1007B00098859F708189807F892B818B9F819295FD
:1007C000907F8F70892B818BC80142964C856A85FA
:1007D0007B8550E00E94000FC8010E947C081FC06A
:1007E000EC17FD0741F48881998190938C028093E6
:1007F0008B020AC0FC01808191818C179D07D1F783
:100800008881998191838083ED85FE85CE0109954C
:1008100006C00990D881C02D209709F082CFDF91C2
:10082000CF911F910F91089510928D021092120393
:1008300010929703089590918D02992359F0909109
:100840001203992351F0909197039923B9F422E070
:1008500030E005C020E030E002C021E030E045E8B3
:1008600050E0249FF001259FF00D349FF00D1124DE
:10087000E357FD4F805F8183CF01089580E090E0D2
:100880000895FC0110820895482F50E025E830E0DB
:10089000429FC001439F900D529F900D112483579A
:1008A0009D4F0895FC01DC01A158BF4F1C92DC0153
:1008B000A058BF4F1D921C92DC01AE57BF4F1C9237
:1008C000DC01AD57BF4F11961C921E92138680918A
:1008D000B5078F5F8093B50784878091B1079091AA
:1008E000B20796878587108A1786118A0895ECE1EA
:1008F000F4E020E0408151814817590759F430E075
:10090000C901880F991F820F931F880F991F845E5A
:100910009B4F08952F5F3696243661F72FEF8F3F58
:10092000920719F48EE696E0089580E090E008952D
:100930000E94410408950E9441040895ECE1F4E00E
:1009400024E68FEF9FEF91838083215036962223F8
:10095000D1F708950E947704009729F02FEF3FEF19
:10096000FC01318320830895EF92FF920F931F9330
:10097000CF93DF93EC0109851A8517FF05C08D859C
:100980009E850817190751F58D819E812FEF8F3FA6
:10099000920721F1ED84FE84C7010E947704FC01D7
:1009A000009769F0828193818017910799F0DE01A9
:1009B000A158BF4F9C918581891760F407C08FEFC4
:1009C0009FEF0E947704FC01F182E082138302838F
:1009D00083E08483C158DF4F88818583DF91CF9185
:1009E0001F910F91FF90EF9008950F931F93CF9356
:1009F000DF9300D000D000D0CDB7DEB78C01DC0192
:100A00001F968D919C9150970E947704FC0100974E
:100A1000D1F1D801A158BF4F8C91882319F483E0FC
:100A200084830AC0848181508483882329F48FEFD2
:100A30009FEF9183808327C0CF018C5194408630F3
:100A400091050CF1CE010196AF014650504026E0D1
:100A5000DA010D90AD01DC010D92CD012150C1F7FD
:100A6000CF010697AF0126E0DA010D90AD01DC0160
:100A70000D92CD012150C1F7DE01119686E00D9057
:100A800001928150E1F726960FB6F894DEBF0FBEB3
:100A9000CDBFDF91CF911F910F9108952FEF8F3F21
:100AA0009207F1F0ECE1F4E040E050E02081318188
:100AB0002817390761F4FA01EE0FFF1FE40FF51F45
:100AC000EE0FFF1FE45EFB4F8281938108954F5F1D
:100AD0005F4F36964436510549F78FEF9FEF0895E3
:100AE0008FEF9FEF0895CF92DF92EF92FF920F93D7
:100AF0001F93CF93DF938C01FC01C784D088C6017C
:100B00000E944E05FFEF8F3F9F0781F0F801ED57E0
:100B1000FF4F8BE994E091838083F801EE57FF4FFC
:100B200082E08083C8010E947C0820C0F801E5842F
:100B3000F68485E00E941B04EC010097A1F00E945E
:100B40005204FE01ED57FF4F88E994E091838083C2
:100B5000F88AEF8681E08A8BFC8AEB8ADE8ACD8A6E
:100B6000CE010E947C08C8010E944104DF91CF9110
:100B70001F910F91FF90EF90DF90CF900895DC01CF
:100B80001596ED91FC911697838194810E94AA0499
:100B900008950E944E0508950E9441040895E8E7D3
:100BA000F6E04AE050E0208131812115310529F03D
:100BB000215030403183208351E041503596442309
:100BC00091F7552311F00E94F80B0895DC0115965A
:100BD000ED91FC9116972081222319F40E940109BE
:100BE00004C0213021F40E94BF0581E0089580E017
:100BF0000895E8E7F6E08AE0118210828150359688
:100C00008823D1F71092A70684E190E0A0E0B0E03D
:100C10008093AE069093AF06A093B006B093B10652
:100C20001092B2068FEC95E09093B4068093B306D1
:100C300080E066EE75E00E9419030895CF93DF937C
:100C4000EC01E881F9818181883829F5808181363C
:100C500011F0813401F58A818031E8F080510E94E1
:100C60001B040097C1F020E2FC0120832B81E15896
:100C7000FF4F20832C81FC01E058FF4F2083029618
:100C80004A816881798150E00E94000F8091A70617
:100C90008F5F8093A706DF91CF91089581E09091B7
:100CA000A706992309F480E008958F929F92AF924E
:100CB000BF92CF92DF92EF92FF920F931F93CF9349
:100CC000DF93CDB7DEB72A970FB6F894DEBF0FBE1D
:100CD000CDBF8091A706882309F4ADC1DD2444E28D
:100CE000C42E5CEC852E55E0952E62E2B62E73E2A2
:100CF000A72E8D2D0E9444047C01DC018C91823250
:100D000009F4D9C0833220F4803209F08FC107C0C2
:100D1000833209F47FC1843209F088C17FC1F701B1
:100D2000C08287859089FFEF8F3F9F0731F4D701FD
:100D30001B968C911B9780FD79C12091B107309152
:100D4000B207F701858596852817390709F46EC122
:100D5000838581FD6BC1C7010E94B404E5E7F6E01D
:100D600040E050E06FEF238134812115310581F19E
:100D7000D7011D968D919C911E97208131818217FC
:100D8000930739F51C968C91FA01EE0FFF1FEE0FB9
:100D9000FF1FE40FF51FEB58F94F9281B82FB91BD5
:100DA0001B1634F4828387E990E09483838339C0EF
:100DB0002091B1073091B207F701878190852817FC
:100DC000390709F033C1878590890E94AA042EC192
:100DD000642F4F5F5F4F35964A30510521F66F3FC4
:100DE00009F424C1862F992787FD9095FC01EE0F09
:100DF000FF1FEE0FFF1FE80FF91FEB58F94FD70148
:100E00001D968D919C911E97918380831C968C9149
:100E1000828387E990E09483838388EA96E00E9446
:100E2000F80BF70187819085FFEF8F3F9F07D9F47B
:100E30002091B1073091B207D7011F968D919C91F7
:100E400050972817390779F015968D919C91169730
:100E5000BFEF8F3F9B0739F0F701838582FD03C009
:100E6000C7010E94B9088091B1079091B207D701DC
:100E70001F962D913C9150978217930721F0BFEF59
:100E80002F3F3B0719F4F701B082D0C0D701179666
:100E90002D913C9118978217930709F0C7C01596BA
:100EA0008D919C911697BFEF8F3F9B0709F4BEC0B1
:100EB000F701A082BBC010927406D70151968C91A5
:100EC000519782958F70E82FF0E0E430F1050CF037
:100ED0005EC0EE0FFF1FE954F84F4081518141156C
:100EE000510509F454C01D962D913C911E973A83EB
:100EF000298351969C9151979F709B838C83C70146
:100F000042969F838E8311968C911197805188878A
:100F1000F701E158FF4F80818987F701E058FF4FC3
:100F200080818A87F7017385672F637072FF02C023
:100F300080E201C080E0762F782BD7011F968D913B
:100F40009C915097BFEF8F3F9B0711F464E001C065
:100F500060E0672BF701818592852817390711F426
:100F600098E001C090E0692BD70115968D919C9176
:100F70001697BFEF8F3F9B0711F480E101C080E01F
:100F8000862B8D83CE010196FA01099501C080E080
:100F9000F70127813085FFEF2F3F3F0771F461E0B4
:100FA00070E02091B1073091B207D7011F964D91A3
:100FB0005C9150972417350711F060E070E0F7015D
:100FC000938590FF02C0882319F461157105F9F02B
:100FD00083E00E941B048C010097C9F00E94520418
:100FE000F801ED57FF4F91828082D7011D968D91B8
:100FF0009C911E97F801908B8787128A80917406C6
:10100000848B1C968C91838BC8010E947C08D7012D
:10101000CC920CC0C7010E94730503C0C7010E9497
:1010200041048091A70681508093A706D394B3E032
:10103000DB1609F05ECE2A960FB6F894DEBF0FBE1F
:10104000CDBFDF91CF911F910F91FF90EF90DF9077
:10105000CF90BF90AF909F908F9008950E944104D1
:101060000895EF92FF921F93CF93DF937C018091BD
:10107000B706882301F1C0E0D5E110E18C2F0E9472
:101080004404DC018C91843181F4FD01E058FF4F70
:101090002081318121503040318320832115310559
:1010A00021F4DC93A158BF4F1C93CF5FC33031F7BD
:1010B000C7010E94F80BDF91CF911F91FF90EF9035
:1010C00008951092B6061092B5061092B70682E304
:1010D00090E0A0E0B0E08093BE069093BF06A0939E
:1010E000C006B093C1061092C20681E398E09093C7
:1010F000C4068093C3060895CF93DF93EC01FC01EF
:10110000EE57FF4F808191E19883FE01E158FF4F38
:10111000108280FF03C08FEF9FEF04C08091B30760
:101120009091B4079E838D838F8598890E944E0588
:1011300098878F832091B1073091B2073A8729872A
:101140002091B6072F5F2093B6072C832FEF8F3F98
:10115000920719F481E498E802C081E698E89B833D
:101160008A838091B7068F5F8093B706DF91CF9116
:1011700008950F931F93CF93DF938C01FC0181811E
:1011800080510E941B04EC010097B1F1FC01ED5766
:10119000FF4F8EE298E091838083CE010296F801A2
:1011A0004181B8016E5F7F4F50E00E94000F81E1E6
:1011B0008883FE01E158FF4F108281E498E89B8309
:1011C0008A838FEF9FEF98878F838091B3079091E9
:1011D000B4079E838D838091B1079091B2079A875F
:1011E00089878091B6078F5F8093B6078C83809143
:1011F000B7068F5F8093B706DF91CF911F910F9154
:1012000008951F93CF93DF93FC01C581D681809110
:10121000B7068823B1F010E0812F0E944404FC013E
:101220008081843159F494858981981739F485E156
:1012300080838A81EE57FF4F808303C01F5F133086
:1012400059F7DF91CF911F91089581E09091B706F2
:10125000992309F480E00895E091B506F091B6066F
:10126000833030F0833031F0853031F481E205C0D5
:1012700080E003C080E201C081E0DF01A158BF4FE0
:101280008C9383E180831092B6061092B506089580
:10129000CF92DF92EF92FF920F931F93CF93DF9342
:1012A0008091B706882309F455C010E005E184E178
:1012B000F82E95E1C92ED12C22E1E22E812F0E9439
:1012C0004404EC018881833199F0853179F18131D1
:1012D000E9F50E94170A8823C9F5D093B606C09392
:1012E000B506E882CE01029669810E943E0A2EC0B0
:1012F000FE01E158FF4F80818823B1F42D853E85A2
:101300008091B1079091B2072817390769F48B854E
:1013100080FF0AC0F882C058DF4FD982C88288EBAC
:1013200096E00E94F80B12C0088310C0CE010E9404
:10133000F504FE01ED57FF4F0190F081E02DCE0145
:1013400009958091B70681508093B7061F5F1330CF
:1013500009F0B4CFDF91CF911F910F91FF90EF90E3
:10136000DF90CF90089593E09093420180934201E3
:10137000909141019F718917D9F708958091CF0607
:10138000882311F086E101C088E00E94B309089526
:10139000E9E3F1E080818160808388E00E94B30905
:1013A000EEE6F1E080818062808380818F7E8083A1
:1013B0008FEF80934F01EEE4F1E0808188608083BD
:1013C000808180648083ECE4F1E0808180688083A8
:1013D00081E180936D011092C9061092CF0681E0E1
:1013E0008093C80608959091C90698609093C906A5
:1013F0008093CF0608959091C90691609093C90695
:101400008093CA0608952091C90622602093C906D8
:101410009093CC068093CB0608952091C906246052
:101420002093C9069093CE068093CD0608958091AF
:10143000C806813049F481E090E02091C90622235A
:1014400029F480E090E0089581E090E0089588E03C
:101450000E94B309E9E3F1E080818260808382E049
:101460008093C8060895E9E3F1E080818D7F808351
:101470000E94BE0981E08093C80608951F93CF9310
:10148000DF9300D0CDB7DEB7182F89E169839A8347
:101490000E94B3096981862F8E5F80938001E12FBE
:1014A0009A81F92FA1E8B1E002C081918D938E2F2E
:1014B000811B8617D0F382E08093420183E0809302
:1014C000C8060F900F90DF91CF911F9108951F9242
:1014D0000F920FB60F920BB60F9211242F933F93DA
:1014E0004F935F936F937F938F939F93AF93BF932C
:1014F000EF93FF93809141018F71893169F489E005
:101500000E94B30984E08093C806809142018295CD
:10151000869587708093C706FF91EF91BF91AF9139
:101520009F918F917F916F915F914F913F912F91FB
:101530000F900BBE0F900FBE0F901F9018951F922B
:101540000F920FB60F9211248F9389E0809342017E
:10155000809147018093C60680917B018093C506E8
:1015600085E08093C8068F910F900FBE0F901F905B
:1015700018951F93CF93DF9300D000D00F92CDB773
:10158000DEB78091C8068430B1F1853009F447C0D8
:10159000813009F06EC01091C906112309F469C0A9
:1015A00088E00E94B30910FF09C09091CA069F719C
:1015B00080914801807E892B809348018091C906E3
:1015C00081FF08C08091CB06809362018091CC0698
:1015D000809363018091C90682FF08C08091CD0687
:1015E000809360018091CE06809361010E94BE09C4
:1015F0001092C9063EC08091C7060E942C098091B6
:1016000041018F718930D9F72FC0FC01E058FE4F9E
:1016100020818053994FFC0120834F5F01C040E03F
:101620002091C506842F90E030E0281739076CF729
:1016300080ED96E09A8389838091C50682508B83E2
:10164000E091C506F0E0E053F94F80818C838091F2
:10165000C6068A558D83CE0101960E941E06809192
:1016600041018F718930D9F781E08093C8060E94CB
:10167000BE090F900F900F900F900F90DF91CF91B8
:101680001F9108950E94B1000E94A90B0E94C809F1
:101690000E94F20208950E94B90A0E943D030E942E
:1016A000050C08950F931F93CF93DF93FC010091D6
:1016B000500710915107368127819085818501154A
:1016C0001105C1F1432F522F692F782FE80120E037
:1016D00030E001C0EC018A819B81AC81BD8148175B
:1016E00059076A077B0748F4841B950BA60BB70BB9
:1016F0008A839B83AC83BD8309C0481B590B6A0B4B
:101700007B0B888199819E01009721F74283538347
:10171000648375832115310551F0D9018D919C9118
:101720001197918380831196FC93EE930DC01183E2
:10173000008306C0118210823283238394838583C1
:10174000F0935107E0935007DF91CF911F910F91D4
:10175000089510925107109250070895CF93DF9388
:10176000EC01E0915007F0915107A0E0B0E02AC0F1
:10177000EC17FD0711F580819181109721F01196EA
:101780009C938E9304C090935107809350070190CF
:10179000F081E02D3097C1F082819381A481B581E1
:1017A0004A815B816C817D81840F951FA61FB71FC5
:1017B00082839383A483B58307C090818181DF01F5
:1017C000E92FF82F3097A1F6DF91CF910895E0919E
:1017D0005007F091510706C0E817F90739F001905A
:1017E000F081E02D3097C1F780E0089581E0089501
:1017F000CF93DF93EC010E94E70B882319F4CE010D
:101800000E94520BDF91CF910895CF92DF92EF9219
:10181000FF92CF93DF938091B007882309F43EC0F5
:101820008FB7F8946091B0071092B0078FBF70E047
:1018300080E090E02AE030E040E050E00E945A0E64
:101840006B017C0114C0C81AD90AEA0AFB0A888114
:10185000998190935107809350078A85813019F4BC
:10186000CE010E94520BEB85FC85CE010995C091FB
:101870005007D0915107209789F08A819B81AC81D4
:10188000BD81C816D906EA06FB06E8F68C199D0943
:10189000AE09BF098A839B83AC83BD83DF91CF915F
:1018A000FF90EF90DF90CF90089585B190E1892768
:1018B00085B9089580915207843021F481E08093A6
:1018C0005207089585E997E00E94F80B0895DF928A
:1018D000EF92FF920F931F93CF93DF93FC01A581AB
:1018E000B68185B190E1892785B9808559968C9319
:1018F000599781855A968C93E580C681D78080E17F
:101900000E94DF0182E00E94DF010E2D1C2FFF24C8
:101910000FC0E8018881803121F40E94DF0180E15D
:10192000F80EF80181918F010E94DF018881F80E85
:10193000802F8E198D1568F380E10E94DF0183E00E
:101940000E94DF018F2D8B5D0E94DF0181E0DF911E
:10195000CF911F910F91FF90EF90DF9008952C98F9
:10196000FC0187858823C9F483E70E94DF0185E6AF
:101970000E94DF018EE60E94DF0184E60E94DF0103
:101980008091A207882339F52C9A83EA97E00E9478
:10199000AE0B81E08093A2071EC0809178079091E2
:1019A0007907A0917A07B0917B070196A11DB11D1F
:1019B0008093780790937907A0937A07B0937B0779
:1019C0008091A207882339F02C9883EA97E00E943F
:1019D000F80B1092A20783E08093520708950F93AB
:1019E0001F93CF93DF938C01C0E0D0E003C00E942F
:1019F00009022196C017D107D1F785B190E1892757
:101A000085B9DF91CF911F910F9108950E94420BEC
:101A100060E076E980E090E00E94810127E0F22E0C
:101A2000D6E005E517E03AE5C32E3CE0D32E45E5C8
:101A3000A42E4CE0B42E5EEF852E5FEF952E800E27
:101A4000911EEFEA6E2EECE07E2E0E944B0B0E9460
:101A5000AB02C0915207C33009F402C1C43028F46C
:101A6000CC2361F0C13089F7B6C0C63009F40AC191
:101A7000C73009F415C1C53041F7FAC021E0209301
:101A80005307209354071092550780E4F80181838F
:101A900012821382148215821682178280E090E4EB
:101AA00090935E0780935D0780E091E0A1E0B1E054
:101AB00080935F0790936007A0936107B0936207DC
:101AC00080E090E8A0E0B0E0809363079093640723
:101AD000A0936507B093660784E392E1909368074B
:101AE000809367078FE08093690710926B071092CD
:101AF0006A0710926C0710926D0720936E078CE0B6
:101B000080936F07109270071092710710927207FE
:101B1000109273071092740710927507109276074F
:101B200010927707109278071092790710927A072F
:101B300010927B0780E280937C07D0937D07EEE7CD
:101B4000F7E0A0E0B2E086E00D9001928150E1F76D
:101B5000249A2C9A80E090E40E940B0384E392E1A3
:101B60000E9412038FE00E94FB0981E00E94F309AA
:101B700081E067E67CE00E94190380ED97E0A0E039
:101B8000B0E080939B0790939C07A0939D07B09330
:101B90009E0710929F07D092A107C092A0071092B3
:101BA000A20784EF91E0A0E0B0E08093A9079093B2
:101BB000AA07A093AB07B093AC07C1E0C093AD07F1
:101BC000B092AF07A092AE0783EA97E00E94F80BAD
:101BD000C09352073ACF80E090E00E94C9059093ED
:101BE0006B0780936A070E94F00EAA2797FDA095C5
:101BF000BA2F8093700790937107A0937207B093E8
:101C000073070E94F00EAA2797FDA095BA2F8F7731
:101C10009070A070B0708093740790937507A09334
:101C20007607B093770710928A0710928907C093BE
:101C30008B07C0938C0783E080938D0790928F076A
:101C400080928E0781E38093900770929207609252
:101C500091072C9A84E897E00E94680382E005C00F
:101C600085E997E00E94F80B84E080935207EDCE5F
:101C70000E942203882309F0E8CE0E943703D09304
:101C80005207E3CE24982C9880E00E94F30960ED7F
:101C900077E080E090E00E94BE00F0925207D5CE3F
:101CA0000E943A03249A2C9A2C9A81E00E94F3090C
:101CB00081E0DBCF629FD001739FF001829FE00D36
:101CC000F11D649FE00DF11D929FF00D839FF00DBB
:101CD000749FF00D659FF00D9927729FB00DE11D67
:101CE000F91F639FB00DE11DF91FBD01CF01112444
:101CF0000895A1E21A2EAA1BBB1BFD010DC0AA1F4D
:101D0000BB1FEE1FFF1FA217B307E407F50720F064
:101D1000A21BB30BE40BF50B661F771F881F991FDF
:101D20001A9469F760957095809590959B01AC0128
:101D3000BD01CF0108958F929F92AF92BF92CF9233
:101D4000DF92EF92FF92CF93DF93EC01888199812C
:101D5000AA81BB810097A105B10521F484E299ED28
:101D6000ABE5B7E0BC01CD012DE133EF41E050E040
:101D70000E94090F49015A0127EA31E440E050E08E
:101D80000E945A0E6B017C01C501B4012CEE34EFA8
:101D90004FEF5FEF0E945A0EDC01CB01C80ED91E37
:101DA000EA1EFB1EF7FE08C08FEF9FEFAFEFBFE705
:101DB000C80ED91EEA1EFB1EC882D982EA82FB82A7
:101DC000C6019F77DF91CF91FF90EF90DF90CF908A
:101DD000BF90AF909F908F9008950E949B0E0895A2
:101DE00087E092E00E949B0E0895A0E0B0E080930F
:101DF000070290930802A0930902B0930A02089583
:101E0000FB01DC0102C001900D9241505040D8F717
:101E1000089597FB092E05260ED057FD04D069DFE3
:101E20000AD0001C38F450954095309521953F4FCD
:101E30004F4F5F4F0895F6F7909580957095619597
:0C1E40007F4F8F4F9F4F0895F894FFCF05
:0C1E4C00526F7574657200010000000008
:00000001FF
