:100000000C9490000C94AF000C94AF000C94AF00D3
:100010000C94AF000C94AF000C94AF000C94AF00A4
:100020000C94AF000C94AF000C94AF000C94AF0094
:100030000C94AF000C94A4010C94AF000C94CD0070
:100040000C94AF000C94AF000C94AF000C94AF0074
:100050000C94AF000C94AF000C94AF000C94AF0064
:100060000C94AF000C94BA020C949E020C94AF0056
:100070000C94AF000C94AF000C94AF000C94AF0044
:100080000C94AF000C94AF000C94AF000C94AF0034
:100090000C94AF000C94AF000C94AF000C94AF0024
:1000A0000C94AF000C94AF000C94C8010C94D901CF
:1000B0000C94AF000C94AF000C94AF000C94AF0004
:1000C0000C94AF000C94AF000C94AF000C94AF00F4
:1000D0000C94AF000C94AF000C94AF000C94AF00E4
:1000E0000C94AF000C94AF000C94AF000C94AF00D4
:1000F0000C94F10A0C94AF000C94AF000C94B90A64
:100100000C94AF000C94AF000C94AF000C94AF00B3
:100110000C94AF000C94AF000C94AF000C94AF00A3
:1001200011241FBECFEFD1E4DEBFCDBF12E0A0E0AF
:10013000B2E0EEEBFDE100E00BBF02C007900D92D4
:10014000A031B107D9F717E0A0E1B2E001C01D92DC
:10015000AB3AB107E1F70E94EB0C0C94DD0E0C9466
:100160000000809170008A7F809370008091B600BB
:100170008F738093B6008091B60080628093B60042
:100180001092B20085E08093B1008091B60090E0BB
:10019000877090700097C9F708951F920F920FB65D
:1001A0000F920BB60F9211242F933F934F935F93AF
:1001B0006F937F938F939F93AF93BF93EF93FF932F
:1001C00080919B078F5F80939B078C33A1F41092E3
:1001D0009B0780919C078F5F80939C078C3359F419
:1001E00010929C0780919D078F5F80939D078831B7
:1001F00011F410929D0780919A07982F9F5F90931A
:100200009A0790E0C0960E944602FF91EF91BF913D
:10021000AF919F918F917F916F915F914F913F919E
:100220002F910F900BBE0F900FBE0F901F9018953F
:1002300014BE88E10FB6F8948093600010926000BD
:100240000FBE78940E94B30108950F931F932FE07F
:10025000660F771F881F991F2A95D1F720E030EA93
:100260004FE050E00E94320E89019A0101151105FC
:100270002105310509F465C0BB27A32F922F812FDB
:10028000109270002091B60020622093B600109268
:10029000B0001092B1001092B2002091B60030E090
:1002A0002F71307021153105C1F727E027BB20934E
:1002B000B1005FEF47E001C000E01092100200972C
:1002C00019F05093B30020C0002319F00093B3003D
:1002D0001BC08091B60090E08F7190700097C9F7B5
:1002E000109270001092B10083B5826083BD80913E
:1002F000B60090E08F7190700097C9F78091B600BA
:100300008F7D8093B6001DC02091700022602093E5
:1003100070002091B60030E02F713070211531054A
:10032000C1F743BF889513BE3FB7F89420911002E0
:100330003FBF222309F4C1CF009709F4BDCF019735
:10034000BCCF1F910F9108951F920F920FB60F927D
:1003500011248F9381E0809310028F910F900FBE34
:100360000F901F90189510929E0780E197E290934E
:10037000A9008093A800E1EAF0E088E08083808112
:1003800082608083E2E7F0E080818260808308956C
:100390001F920F920FB60F9211248F9380919E0798
:1003A0008F5F80939E078F910F900FBE0F901F90CD
:1003B00018951F920F920FB60F9211248F9381E020
:1003C000809311028F910F900FBE0F901F90189580
:1003D0000F931F939B01AC01E4E0220F331F441FD6
:1003E000551FEA95D1F760E074E284EF90E00E9437
:1003F000320E89019A010150104020403040BB2745
:10040000A32F922F812F8093C5000093C40082E018
:100410008093C00088E98093C10086E08093C20089
:1004200088E292E0909327028093260284E690E08F
:1004300090932302809322021092250210922402AC
:10044000EEE1F2E011821082138212828CE192E0DE
:100450002DE832E030931D0220931C02FC013497FA
:1004600021E030E031832083FC0132971182108239
:10047000FC013897118210821382128281E08093EE
:100480001302109212021F910F910895609124029D
:100490007091250240912202509123026417750742
:1004A000F1F02091200230912102E0912602F0919A
:1004B0002702E20FF31F80832F5F3F4F309321020B
:1004C000209320022417350721F410922102109264
:1004D00020026F5F7F4F709325026093240208957E
:1004E0009FB7F894E0911C02F0911D022091140234
:1004F00030911502E20FF31F80812F5F3F4F309341
:10050000150220931402409114025091150220917B
:100510001802309119024217530721F41092150264
:100520001092140220911A0230911B022150304087
:1005300030931B0220931A029FBF08951F920F92BF
:100540000FB60F920BB60F9211248F93EF93FF9378
:1005500081E080931302E1ECF0E080818F7D808365
:10056000FF91EF918F910F900BBE0F900FBE0F90E8
:100570001F9018951F920F920FB60F920BB60F9205
:1005800011242F933F934F938F939F93EF93FF9358
:100590008091C0004091C6008C71B1F520911A0283
:1005A00030911B0280911802909119022817390787
:1005B00059F1E0911C02F0911D0280911602909178
:1005C0001702E80FF91F408301969093170280935A
:1005D0001602209116023091170280911802909114
:1005E00019022817390721F41092170210921602E7
:1005F00080911A0290911B02019690931B028093A6
:100600001A0281E080931202FF91EF919F918F91E6
:100610004F913F912F910F900BBE0F900FBE0F90F7
:100620001F9018958091240290912502009789F1DE
:1006300020911302222369F120911E0230911F02A2
:10064000E0912602F0912702E20FF31F60812F5FF5
:100650003F4F30931F0220931E024091220250917F
:1006600023022417350721F410921F0210921E0254
:10067000019790932502809324029FB7F89460938A
:10068000C6008091C10080628093C1001092130265
:100690009FBF3FB7F89420911202109212028091EE
:1006A0001A0290911B023FBF222311F00E94D40C2A
:1006B00008951092A3071092A407EFE9F7E01182C2
:1006C00010821782168211861086138612860E9467
:1006D000B3080E944B060E9466040E94CA030E944F
:1006E000F00408959093A00780939F070E945F0AEB
:1006F00008959093A2078093A1070E94550A089538
:10070000E82FF0E0EE0FFF1FEB55F84F7183608389
:1007100008950E94A006882359F40E94770988232F
:1007200039F40E94CF03882331F40E94690A0895A6
:1007300081E090E0089581E090E008950E94790AB8
:1007400008950E94850A08950E94A7060E949A09AA
:100750000E94D9030895E0918F02F091900215C094
:10076000228133812817390769F4DC01A158BF4F72
:100770002C912787DC01AE57BF4F2C91208B22E0B4
:10078000248305C00190F081E02D309749F70E9445
:10079000930408951092900210928F02089581E0C0
:1007A00020918F02309190022115310509F480E0EB
:1007B00008950F931F93CF93DF93E0918F02F091F1
:1007C0009002EF017BC08C81882321F0823009F0F8
:1007D00072C058C08C850E946D048C01009721F472
:1007E00082E08C838F876DC09B838A8381E08C83BA
:1007F000F801ED57FF4F8BEA93E091838083F80176
:10080000EE57FF4F998581E092FF80E080839985C4
:100810009170F80183858E7F892B8387998581E08C
:1008200093FF80E0982F990F990FF80183858370CB
:10083000892B83878091A3078F5F8093A307848789
:1008400080919F079091A007968785878D819E81D3
:10085000908B878798859F708189807F892B818B7A
:100860009F819295907F8F70892B818BC8014296D2
:100870004C856A857B8550E00E94B90EC8010E94B4
:10088000CE081FC0EC17FD0741F488819981909331
:10089000900280938F020AC0FC01808191818C17A5
:1008A0009D07D1F78881998191838083ED85FE85AD
:1008B000CE01099506C00990D881C02D209709F076
:1008C00082CFDF91CF911F910F91089510929102E5
:1008D0001092160310929B03089590919102992310
:1008E00059F090911603992351F090919B0399230D
:1008F000B9F422E030E005C020E030E002C021E0A1
:1009000030E045E850E0249FF001259FF00D349F32
:10091000F00D1124EF56FD4F805F8183CF010895C4
:1009200080E090E00895FC0110820895482F50E087
:1009300025E830E0429FC001439F900D529F900DEB
:1009400011248F569D4F0895FC01DC01A158BF4F23
:100950001C92DC01A058BF4F1D921C92DC01AE57C7
:10096000BF4F1C92DC01AD57BF4F11961C921E92D7
:1009700013868091A3078F5F8093A307848780915C
:100980009F079091A00796878587108A1786118AFE
:100990000895E0E2F4E020E04081518148175907D2
:1009A00059F430E0C901880F991F820F931F880FF7
:1009B000991F805E9B4F08952F5F3696243661F70E
:1009C0002FEF8F3F920719F482E796E0089580E0B9
:1009D00090E008950E94930408950E94930408955E
:1009E000E0E2F4E024E68FEF9FEF918380832150D3
:1009F00036962223D1F708950E94C904009729F062
:100A00002FEF3FEFFC01318320830895EF92FF9297
:100A10000F931F93CF93DF93EC0109851A8517FF7E
:100A200005C08D859E850817190751F58D819E811A
:100A30002FEF8F3F920721F1ED84FE84C7010E94C2
:100A4000C904FC01009769F08281938180179107A6
:100A500099F0DE01A158BF4F9C918581891760F400
:100A600007C08FEF9FEF0E94C904FC01F182E08272
:100A70001383028383E08483C158DF4F8881858399
:100A8000DF91CF911F910F91FF90EF9008950F93F9
:100A90001F93CF93DF9300D000D000D0CDB7DEB747
:100AA0008C01DC011F968D919C9150970E94C90486
:100AB000FC010097D1F1D801A158BF4F8C91882338
:100AC00019F483E084830AC084818150848388235D
:100AD00029F48FEF9FEF9183808327C0CF0180524D
:100AE0009440863091050CF1CE010196AF0146503D
:100AF000504026E0DA010D90AD01DC010D92CD01F0
:100B00002150C1F7CF010697AF0126E0DA010D9021
:100B1000AD01DC010D92CD012150C1F7DE0111962E
:100B200086E00D9001928150E1F726960FB6F89479
:100B3000DEBF0FBECDBFDF91CF911F910F91089502
:100B40002FEF8F3F9207F1F0E0E2F4E040E050E059
:100B5000208131812817390761F4FA01EE0FFF1F58
:100B6000E40FF51FEE0FFF1FE05EFB4F82819381C4
:100B700008954F5F5F4F36964436510549F78FEF22
:100B80009FEF08958FEF9FEF0895CF92DF92EF923E
:100B9000FF920F931F93CF93DF938C01FC01C784C7
:100BA000D088C6010E94A005FFEF8F3F9F0781F00C
:100BB000F801ED57FF4F8DEE94E091838083F801AB
:100BC000EE57FF4F82E08083C8010E94CE0820C00C
:100BD000F801E584F68485E00E946D04EC0100973D
:100BE000A1F00E94A404FE01ED57FF4F8AEE94E0AD
:100BF00091838083F88AEF8681E08A8BFC8AEB8A76
:100C0000DE8ACD8ACE010E94CE08C8010E949304DC
:100C1000DF91CF911F910F91FF90EF90DF90CF90D8
:100C20000895DC011596ED91FC91169783819481CE
:100C30000E94FC0408950E94A00508950E94930458
:100C40000895ECE7F6E04AE050E02081318121157B
:100C5000310529F0215030403183208351E041504B
:100C60003596442391F7552311F00E94110C0895F5
:100C7000DC011596ED91FC9116972081222319F441
:100C80000E94530904C0213021F40E94110681E022
:100C9000089580E00895ECE7F6E08AE01182108282
:100CA000815035968823D1F71092AB0684E190E00D
:100CB000A0E0B0E08093B2069093B306A093B40690
:100CC000B093B5061092B60681E296E09093B8060E
:100CD0008093B70680E068E376E00E948003089581
:100CE000CF93DF93EC01E881F9818181883829F580
:100CF0008081813611F0813401F58A818031E8F0FC
:100D000080510E946D040097C1F020E2FC01208315
:100D10002B81E158FF4F20832C81FC01E058FF4FCD
:100D2000208302964A816881798150E00E94B90E41
:100D30008091AB068F5F8093AB06DF91CF910895D2
:100D400081E09091AB06992309F480E008958F9299
:100D50009F92AF92BF92CF92DF92EF92FF920F934A
:100D60001F93CF93DF93CDB7DEB72A970FB6F894D2
:100D7000DEBF0FBECDBF8091AB06882309F4ADC1A5
:100D8000DD2444E2C42E5EE1852E56E0952E62E21B
:100D9000B62E73E2A72E8D2D0E9496047C01DC01F5
:100DA0008C91823209F4D9C0833220F4803209F068
:100DB0008FC107C0833209F47FC1843209F088C132
:100DC0007FC1F701C08287859089FFEF8F3F9F0722
:100DD00031F4D7011B968C911B9780FD79C120912E
:100DE0009F073091A007F701858596852817390759
:100DF00009F46EC1838581FD6BC1C7010E940605A0
:100E0000E9E7F6E040E050E06FEF238134812115FF
:100E1000310581F1D7011D968D919C911E972081FE
:100E200031818217930739F51C968C91FA01EE0FE8
:100E3000FF1FEE0FFF1FE40FF51FE758F94F9281D8
:100E4000B82FB91B1B1634F4828387E990E0948392
:100E5000838339C020919F073091A007F7018781D4
:100E600090852817390709F033C1878590890E943A
:100E7000FC042EC1642F4F5F5F4F35964A305105F9
:100E800021F66F3F09F424C1862F992787FD90959D
:100E9000FC01EE0FFF1FEE0FFF1FE80FF91FE758D1
:100EA000F94FD7011D968D919C911E979183808358
:100EB0001C968C91828387E990E0948383838CEAEB
:100EC00096E00E94110CF70187819085FFEF8F3F1C
:100ED0009F07D9F420919F073091A007D7011F9653
:100EE0008D919C9150972817390779F015968D911F
:100EF0009C911697BFEF8F3F9B0739F0F7018385D1
:100F000082FD03C0C7010E940B0980919F07909149
:100F1000A007D7011F962D913C91509782179307F8
:100F200021F0BFEF2F3F3B0719F4F701B082D0C08B
:100F3000D70117962D913C9118978217930709F0C6
:100F4000C7C015968D919C911697BFEF8F3F9B0759
:100F500009F4BEC0F701A082BBC010927806D70189
:100F600051968C91519782958F70E82FF0E0E43084
:100F7000F1050CF05EC0EE0FFF1FEB55F84F4081FE
:100F800051814115510509F454C01D962D913C9194
:100F90001E973A83298351969C9151979F709B830A
:100FA0008C83C70142969F838E8311968C911197F3
:100FB00080518887F701E158FF4F80818987F701C9
:100FC000E058FF4F80818A87F7017385672F637030
:100FD00072FF02C080E201C080E0762F782BD7013B
:100FE0001F968D919C915097BFEF8F3F9B0711F4F7
:100FF00064E001C060E0672BF701818592852817C6
:10100000390711F498E001C090E0692BD7011596DB
:101010008D919C911697BFEF8F3F9B0711F480E154
:1010200001C080E0862B8D83CE010196FA010995DF
:1010300001C080E0F70127813085FFEF2F3F3F0798
:1010400071F461E070E020919F073091A007D70113
:101050001F964D915C9150972417350711F060E071
:1010600070E0F701938590FF02C0882319F46115A1
:101070007105F9F083E00E946D048C010097C9F0BE
:101080000E94A404F801ED57FF4F91828082D7019E
:101090001D968D919C911E97F801908B8787128ADF
:1010A00080917806848B1C968C91838BC8010E945A
:1010B000CE08D701CC920CC0C7010E94C50503C061
:1010C000C7010E9493048091AB0681508093AB06C8
:1010D000D394B3E0DB1609F05ECE2A960FB6F894EF
:1010E000DEBF0FBECDBFDF91CF911F910F91FF905B
:1010F000EF90DF90CF90BF90AF909F908F9008952A
:101100000E9493040895EF92FF921F93CF93DF9371
:101110007C018091BB06882301F1C0E0D5E110E19C
:101120008C2F0E949604DC018C91843181F4FD01A6
:10113000E058FF4F2081318121503040318320839E
:101140002115310521F4DC93A158BF4F1C93CF5FCB
:10115000C33031F7C7010E94110CDF91CF911F916D
:10116000FF90EF9008951092BA061092B90610926F
:10117000BB0682E390E0A0E0B0E08093C2069093CB
:10118000C306A093C406B093C5061092C60683E8B2
:1011900098E09093C8068093C7060895CF93DF9395
:1011A000EC01FC01EE57FF4F808191E19883FE0135
:1011B000E158FF4F108280FF03C08FEF9FEF04C004
:1011C0008091A1079091A2079E838D838F85988936
:1011D0000E94A00598878F8320919F073091A007D8
:1011E0003A8729872091A4072F5F2093A4072C8397
:1011F0002FEF8F3F920719F481E498E802C081E64F
:1012000098E89B838A838091BB068F5F8093BB069F
:10121000DF91CF9108950F931F93CF93DF938C01AC
:10122000FC01818180510E946D04EC010097B1F1B5
:10123000FC01ED57FF4F80E898E091838083CE0159
:101240000296F8014181B8016E5F7F4F50E00E9425
:10125000B90E81E18883FE01E158FF4F108281E4DD
:1012600098E89B838A838FEF9FEF98878F83809185
:10127000A1079091A2079E838D8380919F079091F3
:10128000A0079A8789878091A4078F5F8093A4071E
:101290008C838091BB068F5F8093BB06DF91CF91DB
:1012A0001F910F9108951F93CF93DF93FC01C58188
:1012B000D6818091BB068823B1F010E0812F0E9477
:1012C0009604FC018081843159F4948589819817B2
:1012D00039F485E180838A81EE57FF4F808303C014
:1012E0001F5F133059F7DF91CF911F91089581E06F
:1012F0009091BB06992309F480E00895E091B90626
:10130000F091BA06833030F0833031F0853031F41B
:1013100081E205C080E003C080E201C081E0DF011E
:10132000A158BF4F8C9383E180831092BA0610922C
:10133000B9060895CF92DF92EF92FF920F931F9319
:10134000CF93DF938091BB06882309F455C010E04A
:1013500005E184E1F82E95E1C92ED12C22E1E22E9F
:10136000812F0E949604EC018881833199F08531A8
:1013700079F18131E9F50E94690A8823C9F5D09392
:10138000BA06C093B906E882CE01029669810E942E
:10139000900A2EC0FE01E158FF4F80818823B1F4EE
:1013A0002D853E8580919F079091A00728173907CA
:1013B00069F48B8580FF0AC0F882C058DF4FD9825C
:1013C000C8828CEB96E00E94110C12C0088310C0FA
:1013D000CE010E944705FE01ED57FF4F0190F081BD
:1013E000E02DCE0109958091BB0681508093BB060C
:1013F0001F5F133009F0B4CFDF91CF911F910F9190
:10140000FF90EF90DF90CF90089593E0909342018A
:1014100080934201909141019F718917D9F70895F6
:101420008091D306882311F086E101C088E00E94F4
:10143000050A0895E9E3F1E080818160808388E016
:101440000E94050AEEE6F1E080818062808380815F
:101450008F7E80838FEF80934F01EEE4F1E08081F7
:1014600088608083808180648083ECE4F1E0808107
:101470008068808381E180936D011092CD06109287
:10148000D30681E08093CC0608959091CD069860B4
:101490009093CD068093D30608959091CD069160E8
:1014A0009093CD068093CE0608952091CD062260BC
:1014B0002093CD069093D0068093CF060895209177
:1014C000CD0624602093CD069093D2068093D1065A
:1014D00008958091CC06813049F481E090E020911C
:1014E000CD06222329F480E090E0089581E090E089
:1014F000089588E00E94050AE9E3F1E080818260B6
:10150000808382E08093CC060895E9E3F1E0808156
:101510008D7F80830E94100A81E08093CC0608951D
:101520001F93CF93DF9300D0CDB7DEB7182F89E19B
:1015300069839A830E94050A6981862F8E5F809352
:101540008001E12F9A81F92FA1E8B1E002C08191D9
:101550008D938E2F811B8617D0F382E080934201FA
:1015600083E08093CC060F900F90DF91CF911F9175
:1015700008951F920F920FB60F920BB60F9211247F
:101580002F933F934F935F936F937F938F939F938B
:10159000AF93BF93EF93FF93809141018F71893196
:1015A00069F489E00E94050A84E08093CC0680916A
:1015B00042018295869587708093CB06FF91EF91CB
:1015C000BF91AF919F918F917F916F915F914F915B
:1015D0003F912F910F900BBE0F900FBE0F901F9059
:1015E00018951F920F920FB60F9211248F9389E0D6
:1015F00080934201809147018093CA0680917B01CC
:101600008093C90685E08093CC068F910F900FBE22
:101610000F901F9018951F93CF93DF9300D000D0A9
:101620000F92CDB7DEB78091CC068430B1F1853012
:1016300009F447C0813009F06EC01091CD06112326
:1016400009F469C088E00E94050A10FF09C0909162
:10165000CE069F7180914801807E892B809348013E
:101660008091CD0681FF08C08091CF0680936201F2
:101670008091D006809363018091CD0682FF08C0DF
:101680008091D106809360018091D20680936101A0
:101690000E94100A1092CD063EC08091CB060E9497
:1016A0007E09809141018F718930D9F72FC0FC01EB
:1016B000E058FE4F20818C52994FFC0120834F5FF0
:1016C00001C040E02091C906842F90E030E0281747
:1016D00039076CF784ED96E09A8389838091C90677
:1016E00082508B83E091C906F0E0EC52F94F808183
:1016F0008C838091CA068A558D83CE0101960E9403
:101700007006809141018F718930D9F781E0809313
:10171000CC060E94100A0F900F900F900F900F9020
:10172000DF91CF911F9108950E9418010E94FB0B39
:101730000E941A0A0E94590308950E940B0B0E94EE
:10174000A4030E941E0C08950F931F93CF93DF9361
:10175000FC0100915407109155073681278190852F
:10176000818501151105C1F1432F522F692F782F63
:10177000E80120E030E001C0EC018A819B81AC816E
:10178000BD81481759076A077B0748F4841B950BEE
:10179000A60BB70B8A839B83AC83BD8309C0481B10
:1017A000590B6A0B7B0B888199819E01009721F769
:1017B00042835383648375832115310551F0D90128
:1017C0008D919C911197918380831196FC93EE9358
:1017D0000DC01183008306C01182108232832383DF
:1017E00094838583F0935507E0935407DF91CF915D
:1017F0001F910F9108951092550710925407089564
:10180000E0915407F091550706C0E817F90739F041
:101810000190F081E02D3097C1F780E0089581E0DC
:101820000895CF93DF93EC010E94000C882319F4F4
:10183000CE010E94A40BDF91CF910895CF92DF9249
:10184000EF92FF92CF93DF9380919E07882309F454
:101850003EC08FB7F89460919E0710929E078FBF8D
:1018600070E080E090E02AE030E040E050E00E944C
:10187000130E6B017C0114C0C81AD90AEA0AFB0ACC
:101880008881998190935507809354078A85813088
:1018900019F4CE010E94A40BEB85FC85CE010995BD
:1018A000C0915407D0915507209789F08A819B8178
:1018B000AC81BD81C816D906EA06FB06E8F68C198C
:1018C0009D09AE09BF098A839B83AC83BD83DF91E9
:1018D000CF91FF90EF90DF90CF900895AF92BF929D
:1018E000DF92EF92FF920F931F93CF93DF930F92AC
:1018F000CDB7DEB7F82ED62E80E199830E9446023E
:1019000082E00E9446020F2D9981192FEE2411C00A
:101910005801F8018081803121F40E944602F0E1F3
:10192000EF0EF80181918F010E944602F50180813E
:10193000E80E802F8F198D1558F380E10E94460222
:1019400083E00E9446028E2D8B5D0E9446020F901E
:10195000DF91CF911F910F91FF90EF90DF90BF909B
:10196000AF900895FC01A581B68185B190E18927EA
:1019700085B9808559968C93599781855A968C9311
:101980008581968167810E946E0C81E00895809127
:101990005607843021F481E08093560708958DE83E
:1019A00097E00E94110C08950F931F93CF93DF933C
:1019B0008C01C0E0D0E003C00E9470022196C017E5
:1019C000D107D1F785B190E1892785B9DF91CF9112
:1019D0001F910F9108950E94940B60E076E980E0DA
:1019E00090E00E94E8010E94B10086E180939D078B
:1019F00088E280939C0710929B0784B7805D0E94C9
:101A0000460217E006E0C9E5D7E0C12C81E0D82EF8
:101A100081E0E82E81E0F82E812C20E8922EA12C86
:101A2000B12C34E3432E32E1532E4FE0742E57ECA9
:101A3000252E5CE0352E0E949D0B0E9412038091A2
:101A40005607833009F4C5C0843028F4882361F038
:101A5000813089F791C0863009F4CDC0873009F410
:101A6000D8C0853041F7BDC081E080935707109200
:101A700058071092590719821A821B821C821D82F4
:101A80001E821F821092620710926107C092630744
:101A9000D0926407E0926507F0926607809267072C
:101AA00090926807A0926907B0926A0750926C07FB
:101AB00040926B0770926D0710926F0710926E073D
:101AC0001092700710927107809372078CE08093D8
:101AD0007307109274071092750710927607109290
:101AE0007707109278071092790710927A07109270
:101AF0007B0710927C0710927D0710927E07109250
:101B00007F0780E2809380078BE080938107E2E883
:101B1000F7E0A0E0B2E00D9001928150E1F780ED96
:101B20008AB980EC8BB9249A2C9A80E090E00E94CC
:101B3000720384E392E10E9479038FE00E944D0AD0
:101B400081E00E94450A81E062EB7CE00E94800314
:101B500080ED97E0A0E0B0E0809393079093940726
:101B6000A0939507B0939607109297073092990724
:101B7000209298072C9A55C080E090E00E941B06A6
:101B800090936F0780936E070E94A90EAA2797FD76
:101B9000A095BA2F8093740790937507A09376074A
:101BA000B09377070E94A90EAA2797FDA095BA2F98
:101BB0008F779070A070B0708093780790937907BA
:101BC000A0937A07B0937B0787E597E066E30E94CE
:101BD0006E0C8DE897E00E94110C84E0809356070C
:101BE0002ACF0E948903882309F025CF0E949E03F3
:101BF0000093560720CF24982C9880E00E94450A35
:101C000060ED77E080E090E00E9425011093560798
:101C100012CF0E94A103249A2C9A2C9A81E00E9450
:101C2000450A81E0DBCF629FD001739FF001829F64
:101C3000E00DF11D649FE00DF11D929FF00D839F5B
:101C4000F00D749FF00D659FF00D9927729FB00DF8
:101C5000E11DF91F639FB00DE11DF91FBD01CF010B
:101C600011240895A1E21A2EAA1BBB1BFD010DC071
:101C7000AA1FBB1FEE1FFF1FA217B307E407F5073C
:101C800020F0A21BB30BE40BF50B661F771F881F18
:101C9000991F1A9469F760957095809590959B01AE
:101CA000AC01BD01CF0108958F929F92AF92BF9278
:101CB000CF92DF92EF92FF92CF93DF93EC01888176
:101CC0009981AA81BB810097A105B10521F484E225
:101CD00099EDABE5B7E0BC01CD012DE133EF41E07B
:101CE00050E00E94C20E49015A0127EA31E440E067
:101CF00050E00E94130E6B017C01C501B4012CEE73
:101D000034EF4FEF5FEF0E94130EDC01CB01C80EE2
:101D1000D91EEA1EFB1EF7FE08C08FEF9FEFAFEF44
:101D2000BFE7C80ED91EEA1EFB1EC882D982EA820E
:101D3000FB82C6019F77DF91CF91FF90EF90DF90FC
:101D4000CF90BF90AF909F908F9008950E94540EB7
:101D500008958CE092E00E94540E0895A0E0B0E057
:101D600080930C0290930D02A0930E02B0930F0289
:101D70000895FB01DC0102C001900D9241505040DA
:101D8000D8F7089597FB092E05260ED057FD04D0ED
:101D900069DF0AD0001C38F45095409530952195A4
:101DA0003F4F4F4F5F4F0895F6F790958095709590
:0E1DB00061957F4F8F4F9F4F0895F894FFCF9E
:101DBE00436F6F7264696E61746F72000100000090
:00000001FF
