:100000000C9490000C94AF000C94AF000C94AF00D3
:100010000C94AF000C94AF000C94AF000C94AF00A4
:100020000C94AF000C94AF000C94AF000C94AF0094
:100030000C94AF000C9400020C94AF000C94490196
:100040000C94AF000C94AF000C94AF000C94AF0074
:100050000C94AF000C94AF000C94AF000C94AF0064
:100060000C94AF000C9477030C945B030C94AF00DA
:100070000C94AF000C94AF000C94AF000C94AF0044
:100080000C94AF000C94AF000C94AF000C94AF0034
:100090000C94AF000C94AF000C94AF000C94AF0024
:1000A0000C94AF000C94AF000C9458020C946902AD
:1000B0000C94AF000C94AF000C94AF000C94AF0004
:1000C0000C94AF000C94AF000C94AF000C94AF00F4
:1000D0000C94AF000C94AF000C94AF000C94AF00E4
:1000E0000C94AF000C94AF000C94AF000C94AF00D4
:1000F0000C94020C0C94AF000C94AF000C94CA0B3F
:100100000C94AF000C94AF000C94AF000C94AF00B3
:100110000C94AF000C94AF000C94AF000C94AF00A3
:1001200011241FBECFEFD1E4DEBFCDBF12E0A0E0AF
:10013000B2E0EEE7F2E200E00BBF02C007900D92E2
:10014000AE38B107D9F719E1AEE8B2E001C01D92AF
:10015000A033B107E1F70E94910E0C943D110C946D
:10016000000080938D02089590918D02883040F4B4
:100170009295990F990F907C982B90937C0008C0D2
:10018000892F8295880F880F807C896280937C00FC
:1001900080917A00806880937A0084E190E00E94E8
:1001A0007D0180917A00876480937A0080917A0043
:1001B00086FDFCCF8091780090917900392F20E066
:1001C00090E0822B932B0895809170008A7F80931A
:1001D00070008091B6008F738093B6008091B60056
:1001E00080628093B6001092B20085E08093B100E7
:1001F0008091B60090E0877090700097C9F7809169
:10020000700081608093700078940895CF93DF939D
:10021000EC0187E2C031D80750F0CE0160E177E20F
:100220000E944D10CB01C0960E94D40204C083E00E
:10023000C83ED80750F0CE0168EE73E00E944D1022
:10024000CB01C0960E94D40203C0C436D10550F041
:10025000CE0164E670E00E944D10CB01C0960E9472
:10026000D40203C0CA30D10548F0CE016AE070E084
:100270000E944D10CB01C0960E94D402CE016AE0CC
:1002800070E00E944D10C0960E94D402DF91CF9181
:1002900008951F920F920FB60F9211248F938091A1
:1002A0002D198F5F80932D198C33A1F410922D1985
:1002B00080912E198F5F80932E198C3359F41092F0
:1002C0002E1980912F198F5F80932F19883111F487
:1002D00010922F198F910F900FBE0F901F901895AD
:1002E00014BE88E10FB6F89480936000109260000D
:1002F0000FBE78940E940F02089590E00E9424029D
:1003000008950F931F932FE0660F771F881F991F83
:100310002A95D1F720E030EA4FE050E00E946110CA
:1003200089019A01011511052105310509F465C0FE
:10033000BB27A32F922F812F109270002091B6001F
:1003400020622093B6001092B0001092B10010927B
:10035000B2002091B60030E02F71307021153105C8
:10036000C1F727E027BB2093B1005FEF47E001C052
:1003700000E010928E02009719F05093B30020C055
:10038000002319F00093B3001BC08091B60090E0E9
:100390008F7190700097C9F7109270001092B100A1
:1003A00083B5826083BD8091B60090E08F719070BC
:1003B0000097C9F78091B6008F7D8093B6001DC06D
:1003C000209170002260209370002091B60030E0F0
:1003D0002F71307021153105C1F743BF889513BEC9
:1003E0003FB7F89420918E023FBF222309F4C1CF7A
:1003F000009709F4BDCF0197BCCF1F910F910895CD
:100400001F920F920FB60F9211248F9381E0809369
:100410008E028F910F900FBE0F901F901895109223
:10042000CD0880E197E29093A9008093A800E1EACB
:10043000F0E088E08083808182608083E2E7F0E002
:1004400080818260808308952091A4003091A5006E
:10045000280F391F3093AB002093AA002091AA00E7
:100460003091AB008091A8009091A900821793076A
:1004700070F48091AA009091AB002091A800309177
:10048000A900821B930B9093AB008093AA0010925B
:100490008F028091720084608093720080918F023D
:1004A0008823E1F3809172008B7F8093720008951E
:1004B0001F920F920FB60F9211248F938091CD0847
:1004C0008F5F8093CD088F910F900FBE0F901F907C
:1004D00018951F920F920FB60F9211248F9381E0FF
:1004E00080938F028F910F900FBE0F901F901895E1
:1004F0000F931F939B01AC01E4E0220F331F441FB5
:10050000551FEA95D1F760E074E284EF90E00E9415
:10051000611089019A010150104020403040BB27F2
:10052000A32F922F812F8093C5000093C40082E0F7
:100530008093C00088E98093C10086E08093C20068
:1005400086EA92E09093A5028093A40220E830E02E
:100550003093A1022093A0021092A3021092A20253
:10056000ECE9F2E011821082138212828AE992E0B1
:1005700047E253E050939B0240939A02FC01349768
:1005800031832083FC01329711821082FC0138975D
:10059000118210821382128281E080939102109264
:1005A00090021F910F9108956091A2027091A30291
:1005B0004091A0025091A10264177507F1F02091BB
:1005C0009E0230919F02E091A402F091A502E20FF9
:1005D000F31F80832F5F3F4F30939F0220939E0233
:1005E0002417350721F410929F0210929E026F5F2C
:1005F0007F4F7093A3026093A2020895CF92DF927F
:10060000FF920F931F93CF93DF930F92CDB7DEB777
:10061000F82E082F192FCC24DD240AC0F80181916F
:100620008F0199830E94D4020894C11CD11C998126
:10063000AF2DB92FFD0101900020E9F73197EA1B9A
:10064000FB0BCE16DF0650F30F90DF91CF911F9179
:100650000F91FF90DF90CF9008959FB7F894E091AD
:100660009A02F0919B022091920230919302E20F44
:10067000F31F80812F5F3F4F3093930220939202AC
:1006800040919202509193022091960230919702EC
:100690004217530721F41092930210929202209174
:1006A0009802309199022150304030939902209362
:1006B00098029FBF08951F920F920FB60F920BB62C
:1006C0000F9211248F93EF93FF9381E08093910217
:1006D000E1ECF0E080818F7D8083FF91EF918F913D
:1006E0000F900BBE0F900FBE0F901F9018951F928A
:1006F0000F920FB60F920BB60F9211242F933F93C8
:100700004F938F939F93EF93FF938091C0004091FD
:10071000C6008C71B1F520919802309199028091B8
:100720009602909197022817390759F1E0919A02A1
:10073000F0919B028091940290919502E80FF91F2D
:1007400040830196909395028093940220919402A5
:10075000309195028091960290919702281739075F
:1007600021F4109295021092940280919802909137
:1007700099020196909399028093980281E0809368
:100780009002FF91EF919F918F914F913F912F9107
:100790000F900BBE0F900FBE0F901F901895809179
:1007A000A2029091A302009789F120919102222345
:1007B00069F120919C0230919D02E091A402F09198
:1007C000A502E20FF31F60812F5F3F4F30939D0220
:1007D00020939C024091A0025091A102241735075A
:1007E00021F410929D0210929C0201979093A30213
:1007F0008093A2029FB7F8946093C6008091C100D5
:1008000080628093C100109291029FBF3FB7F8941D
:1008100020919002109290028091980290919902FA
:100820003FBF222311F00E94770E08951092D20844
:100830001092D308EEECF8E0118210821782168233
:1008400011861086138612860E9485090E941D0754
:100850000E9438050E9487040E94C2050895909363
:10086000CF088093CE080E946A0B08959093D10818
:100870008093D0080E94600B0895E82FF0E0EE0FFF
:10088000FF1FEC52F74F7183608308950E94720737
:10089000882359F40E94490A882339F40E94A1044C
:1008A000882331F40E94740B089581E090E008954C
:1008B00081E090E008950E94840B08950E94900BBF
:1008C00008950E9479070E946C0A0E94AB04089563
:1008D000E091A803F091A90315C022813381281764
:1008E000390769F4DC01A158BF4F2C912787DC013F
:1008F000AE57BF4F2C91208B22E0248305C001907E
:10090000F081E02D309749F70E9465050895109217
:10091000A9031092A8030895FC011482178613827C
:1009200012828091A8039091A903009719F4118273
:10093000108202C091838083F093A903E093A803FF
:10094000089581E02091A8033091A9032115310574
:1009500009F480E008950F931F93CF93DF93E09104
:10096000A803F091A903EF017BC08C81882321F0BB
:10097000823009F072C058C08C850E943F058C01FE
:10098000009721F482E08C838F876DC09B838A83DC
:1009900081E08C83F801ED57FF4F88E694E0918366
:1009A0008083F801EE57FF4F998581E092FF80E048
:1009B000808399859170F80183858E7F892B838749
:1009C000998581E093FF80E0982F990F990FF801A6
:1009D00083858370892B83878091D2088F5F809372
:1009E000D20884878091CE089091CF08968785871A
:1009F0008D819E81908B878798859F708189807F6C
:100A0000892B818B9F819295907F8F70892B818B11
:100A1000C80142964C856A857B8550E00E94E810AB
:100A2000C8010E94A0091FC0EC17FD0741F488818E
:100A300099819093A9038093A8030AC0FC01808147
:100A400091818C179D07D1F788819981918380834B
:100A5000ED85FE85CE01099506C00990D881C02D8F
:100A6000209709F082CFDF91CF911F910F910895C8
:100A70001092AA0310922F041092B404089590913A
:100A8000AA03992359F090912F04992351F0909142
:100A9000B4049923B9F422E030E005C020E030E04E
:100AA00002C021E030E045E850E0249FF001259F9E
:100AB000F00D349FF00D1124E655FC4F805F8183CB
:100AC000CF01089580E090E00895FC011082089520
:100AD000482F50E025E830E0429FC001439F900D31
:100AE000529F900D112486559C4F0895FC01DC0106
:100AF000A158BF4F1C92DC01A058BF4F1D921C9201
:100B0000DC01AE57BF4F1C92DC01AD57BF4F1196B1
:100B10001C921E9213868091D2088F5F8093D20818
:100B200084878091CE089091CF0896878587108A18
:100B30001786118A0895E9E3F5E020E040815181AC
:100B40004817590759F430E0C901880F991F820FDF
:100B5000931F880F991F875C9A4F08952F5F3696D1
:100B6000243661F72FEF8F3F920719F48BE897E057
:100B7000089580E090E008950E94650508950E9420
:100B800065050895E9E3F5E024E68FEF9FEF918393
:100B90008083215036962223D1F708950E949B0529
:100BA000009729F02FEF3FEFFC0131832083089558
:100BB000EF92FF920F931F93CF93DF93EC01098580
:100BC0001A8517FF05C08D859E850817190751F5F1
:100BD0008D819E812FEF8F3F920721F1ED84FE845E
:100BE000C7010E949B05FC01009769F082819381F7
:100BF0008017910799F0DE01A158BF4F9C91858124
:100C0000891760F407C08FEF9FEF0E949B05FC01DE
:100C1000F182E0821383028383E08483C158DF4F33
:100C200088818583DF91CF911F910F91FF90EF9085
:100C300008950F931F93CF93DF9300D000D000D07F
:100C4000CDB7DEB78C01DC011F968D919C9150973A
:100C50000E949B05FC010097D1F1D801A158BF4F1C
:100C60008C91882319F483E084830AC084818150A5
:100C70008483882329F48FEF9FEF9183808327C09B
:100C8000CF0189539540863091050CF1CE01019634
:100C9000AF014650504026E0DA010D90AD01DC0175
:100CA0000D92CD012150C1F7CF010697AF0126E08B
:100CB000DA010D90AD01DC010D92CD012150C1F79B
:100CC000DE01119686E00D9001928150E1F72696A3
:100CD0000FB6F894DEBF0FBECDBFDF91CF911F914D
:100CE0000F9108952FEF8F3F9207F1F0E9E3F5E0C0
:100CF00040E050E0208131812817390761F4FA0182
:100D0000EE0FFF1FE40FF51FEE0FFF1FE75CFA4F1A
:100D10008281938108954F5F5F4F36964436510527
:100D200049F78FEF9FEF08958FEF9FEF0895CF92D0
:100D3000DF92EF92FF920F931F93CF93DF938C017B
:100D4000FC01C784D088C6010E947206FFEF8F3F66
:100D50009F0781F0F801ED57FF4F8FEB95E09183EE
:100D60008083F801EE57FF4F82E08083C8010E9424
:100D7000A00920C0F801E584F68485E00E943F05C3
:100D8000EC010097A1F00E947605FE01ED57FF4FA0
:100D90008CEB95E091838083F88AEF8681E08A8BE3
:100DA000FC8AEB8ADE8ACD8ACE010E94A009C801A6
:100DB0000E946505DF91CF911F910F91FF90EF90F9
:100DC000DF90CF900895DC011596ED91FC91169778
:100DD000838194810E94CE0508950E947206089531
:100DE0000E9465050895E5E9F7E04AE050E02081BA
:100DF00031812115310529F0215030403183208384
:100E000051E041503596442391F7552311F00E944B
:100E1000630D0895DC011596ED91FC9116972081E4
:100E2000222319F40E94250A04C0213021F40E94D3
:100E3000E30681E0089580E00895E5E9F7E08AE0BF
:100E400011821082815035968823D1F71092C40701
:100E500084E190E0A0E0B0E08093CB079093CC07D2
:100E6000A093CD07B093CE071092CF0783EF96E003
:100E70009093D1078093D00780E06AE077E00E94EA
:100E80003D040895CF93DF93EC01E881F9818181DE
:100E9000883829F58081813611F0813401F58A8105
:100EA0008031E8F080510E943F050097C1F020E2B8
:100EB000FC0120832B81E158FF4F20832C81FC0112
:100EC000E058FF4F208302964A816881798150E083
:100ED0000E94E8108091C4078F5F8093C407DF9160
:100EE000CF91089581E09091C407992309F480E09F
:100EF00008958F929F92AF92BF92CF92DF92EF921E
:100F0000FF920F931F93CF93DF93CDB7DEB72A974E
:100F10000FB6F894DEBF0FBECDBF8091C407882303
:100F200009F4ADC1DD2444E2C42E50EF852E56E015
:100F3000952E62E2B62E73E2A72E8D2D0E946805D3
:100F40007C01DC018C91823209F4D9C0833220F417
:100F5000803209F08FC107C0833209F47FC1843227
:100F600009F088C17FC1F701C08287859089FFEFB2
:100F70008F3F9F0731F4D7011B968C911B9780FD03
:100F800079C12091CE083091CF08F70185859685EB
:100F90002817390709F46EC1838581FD6BC1C7012C
:100FA0000E94D805E2E9F7E040E050E06FEF2381CE
:100FB00034812115310581F1D7011D968D919C91C8
:100FC0001E97208131818217930739F51C968C91E9
:100FD000FA01EE0FFF1FEE0FFF1FE40FF51FEE5695
:100FE000F84F9281B82FB91B1B1634F4828387E91E
:100FF00090E09483838339C02091CE083091CF084C
:10100000F701878190852817390709F033C1878553
:1010100090890E94CE052EC1642F4F5F5F4F359699
:101020004A30510521F66F3F09F424C1862F9927D4
:1010300087FD9095FC01EE0FFF1FEE0FFF1FE80FDD
:10104000F91FEE56F84FD7011D968D919C911E9772
:10105000918380831C968C91828387E990E09483AE
:10106000838385EC97E00E94630DF701878190856B
:10107000FFEF8F3F9F07D9F42091CE083091CF0822
:10108000D7011F968D919C9150972817390779F0B9
:1010900015968D919C911697BFEF8F3F9B0739F066
:1010A000F701838582FD03C0C7010E94DD0980919D
:1010B000CE089091CF08D7011F962D913C91509763
:1010C0008217930721F0BFEF2F3F3B0719F4F70179
:1010D000B082D0C0D70117962D913C9118978217F6
:1010E000930709F0C7C015968D919C911697BFEF95
:1010F0008F3F9B0709F4BEC0F701A082BBC01092CE
:101100009107D70151968C91519782958F70E82F56
:10111000F0E0E430F1050CF05EC0EE0FFF1FEC5282
:10112000F74F408151814115510509F454C01D9676
:101130002D913C911E973A83298351969C9151970A
:101140009F709B838C83C70142969F838E831196E9
:101150008C91119780518887F701E158FF4F80816A
:101160008987F701E058FF4F80818A87F7017385EF
:10117000672F637072FF02C080E201C080E0762FAB
:10118000782BD7011F968D919C915097BFEF8F3F81
:101190009B0711F464E001C060E0672BF7018185D3
:1011A00092852817390711F498E001C090E0692B67
:1011B000D70115968D919C911697BFEF8F3F9B0796
:1011C00011F480E101C080E0862B8D83CE01019671
:1011D000FA01099501C080E0F70127813085FFEF12
:1011E0002F3F3F0771F461E070E02091CE0830910D
:1011F000CF08D7011F964D915C9150972417350762
:1012000011F060E070E0F701938590FF02C0882341
:1012100019F461157105F9F083E00E943F058C0116
:101220000097C9F00E947605F801ED57FF4F9182B3
:101230008082D7011D968D919C911E97F801908B0D
:101240008787128A80919107848B1C968C91838B5F
:10125000C8010E94A009D701CC920CC0C7010E940E
:10126000970603C0C7010E9465058091C40781509D
:101270008093C407D394B3E0DB1609F05ECE2A96C0
:101280000FB6F894DEBF0FBECDBFDF91CF911F9197
:101290000F91FF90EF90DF90CF90BF90AF909F9015
:1012A0008F9008950E9465050895EF92FF921F9315
:1012B000CF93DF937C018091D407882301F1C0E0B4
:1012C000D5E110E18C2F0E946805DC018C918431FE
:1012D00081F4FD01E058FF4F2081318121503040E1
:1012E000318320832115310521F4DC93A158BF4FB0
:1012F0001C93CF5FC33031F7C7010E94630DDF91AC
:10130000CF911F91FF90EF9008951092D307109204
:10131000D2071092D40782E390E0A0E0B0E080937F
:10132000DB079093DC07A093DD07B093DE071092F4
:10133000DF0785E599E09093E1078093E007089542
:10134000CF93DF93EC01FC01EE57FF4F808191E1D9
:101350009883FE01E158FF4F108280FF03C08FEF9A
:101360009FEF04C08091D0089091D1089E838D8317
:101370008F8598890E94720698878F832091CE0866
:101380003091CF083A8729872091D3082F5F209387
:10139000D3082C832FEF8F3F920719F481E498E84C
:1013A00002C081E698E89B838A838091D4078F5F8F
:1013B0008093D407DF91CF9108950F931F93CF931C
:1013C000DF938C01FC01818180510E943F05EC017B
:1013D0000097B1F1FC01ED57FF4F82E599E0918351
:1013E0008083CE010296F8014181B8016E5F7F4F84
:1013F00050E00E94E81081E18883FE01E158FF4F30
:10140000108281E498E89B838A838FEF9FEF98870F
:101410008F838091D0089091D1089E838D83809195
:10142000CE089091CF089A8789878091D3088F5FE3
:101430008093D3088C838091D4078F5F8093D407E7
:10144000DF91CF911F910F9108951F93CF93DF9359
:10145000FC01C581D6818091D4078823B1F010E0CA
:10146000812F0E946805FC018081843159F49485A4
:101470008981981739F485E180838A81EE57FF4F7F
:10148000808303C01F5F133059F7DF91CF911F9105
:10149000089581E09091D407992309F480E008959C
:1014A000E091D207F091D307833030F0833031F0F0
:1014B000853031F481E205C080E003C080E201C0E4
:1014C00081E0DF01A158BF4F8C9383E180831092AC
:1014D000D3071092D2070895CF92DF92EF92FF9236
:1014E0000F931F93CF93DF938091D407882309F440
:1014F00055C010E005E184E1F82E95E1C92ED12C0C
:1015000022E1E22E812F0E946805EC01888183315F
:1015100099F0853179F18131E9F50E94740B8823C6
:10152000C9F5D093D307C093D207E882CE010296C3
:1015300069810E949B0B2EC0FE01E158FF4F808104
:101540008823B1F42D853E858091CE089091CF08F7
:101550002817390769F48B8580FF0AC0F882C058C4
:10156000DF4FD982C88285ED97E00E94630D12C0DB
:10157000088310C0CE010E941906FE01ED57FF4FEF
:101580000190F081E02DCE0109958091D407815022
:101590008093D4071F5F133009F0B4CFDF91CF9150
:1015A0001F910F91FF90EF90DF90CF90089593E0FF
:1015B0009093420180934201909141019F7189175C
:1015C000D9F708958091EC07882311F086E101C0D6
:1015D00088E00E94D70A08950F931F93CF93DF935B
:1015E00010924E0186E00E94D70AC0E0D0E000E0F1
:1015F00010E081E00E947D018091460182958695F0
:10160000837090E00C2E02C0880F991F0A94E2F7B5
:10161000082B192B2296C031D10559F788E00E947A
:10162000D70A8FEF80934F0180914E01886080939D
:101630004E0180914E01806480934E01C801DF917C
:10164000CF911F910F910895E9E3F1E080818160CE
:10165000808388E00E94D70AEEE6F1E08081806214
:10166000808380818F7E80838FEF80934F01EEE4B3
:10167000F1E0808188608083808180648083ECE4F5
:10168000F1E08081806880830E94EC0A80936D0184
:101690001092E6071092EC0781E08093E507089529
:1016A0009091E60798609093E6078093EC07089581
:1016B0009091E60791609093E6078093E70708957D
:1016C0002091E60722602093E6079093E907809334
:1016D000E80708952091E60724602093E607909399
:1016E000EB078093EA0708958091E507813049F47C
:1016F00081E090E02091E607222329F480E090E049
:10170000089581E090E0089588E00E94D70AE9E317
:10171000F1E080818260808382E08093E507089514
:10172000E9E3F1E080818D7F80830E94E20A81E01D
:101730008093E50708951F93CF93DF9300D0CDB733
:10174000DEB7182F89E169839A830E94D70A6981DD
:10175000862F8E5F80938001E12F9A81F92FA1E877
:10176000B1E002C081918D938E2F811B8617D0F33B
:1017700082E08093420183E08093E5070F900F9011
:10178000DF91CF911F9108958091E607806180934A
:10179000E60708951F920F920FB60F920BB60F92A5
:1017A00011242F933F934F935F936F937F938F9366
:1017B0009F93AF93BF93EF93FF93809141018F71FC
:1017C000893169F489E00E94D70A84E08093E507B3
:1017D000809142018295869587708093E407FF91FE
:1017E000EF91BF91AF919F918F917F916F915F9199
:1017F0004F913F912F910F900BBE0F900FBE0F9006
:101800001F9018951F920F920FB60F9211248F936D
:1018100089E080934201809147018093E3078091A2
:101820007B018093E20785E08093E5078F910F901D
:101830000FBE0F901F9018951F93CF93DF9300D08A
:1018400000D00F92CDB7DEB78091E5078430F1F17B
:10185000853009F44FC0813009F076C01091E60759
:10186000112309F471C088E00E94D70A10FF09C053
:101870009091E7079F7180914801807E892B80932A
:1018800048018091E60781FF08C08091E8078093B6
:1018900062018091E907809363018091E60782FFEE
:1018A00008C08091EA07809360018091EB078093E4
:1018B00061018091E60784FF04C00E94EC0A0E9447
:1018C0008E0E0E94E20A1092E6073EC08091E40765
:1018D0000E94500A809141018F718930D9F72FC041
:1018E000FC01E058FE4F20818351984FFC0120837A
:1018F0004F5F01C040E02091E207842F90E030E08C
:10190000281739076CF78DEE97E09A8389838091C9
:10191000E20782508B83E091E207F0E0E351F84F59
:1019200080818C838091E3078A558D83CE01019657
:101930000E944207809141018F718930D9F781E07F
:101940008093E5070E94E20A0F900F900F900F908E
:101950000F90DF91CF911F9108950E9470010E9416
:10196000140D0E94240B0E94160408950E941C0C62
:101970000E9461040E94700D08950F931F93CF93EE
:10198000DF93FC0100916D0810916E08368127816C
:101990009085818501151105C1F1432F522F692FC3
:1019A000782FE80120E030E001C0EC018A819B81C2
:1019B000AC81BD81481759076A077B0748F4841B2F
:1019C000950BA60BB70B8A839B83AC83BD8309C0A1
:1019D000481B590B6A0B7B0B888199819E010097EC
:1019E00021F742835383648375832115310551F0B8
:1019F000D9018D919C911197918380831196FC93CD
:101A0000EE930DC01183008306C0118210823283D1
:101A1000238394838583F0936E08E0936D08DF91B0
:101A2000CF911F910F91089510926E0810926D083A
:101A30000895CF93DF93EC01E0916D08F0916E086B
:101A4000A0E0B0E02AC0EC17FD0711F5808191817C
:101A5000109721F011969C938E9304C090936E087A
:101A600080936D080190F081E02D3097C1F0828164
:101A70009381A481B5814A815B816C817D81840FD2
:101A8000951FA61FB71F82839383A483B58307C0C6
:101A900090818181DF01E92FF82F3097A1F6DF9146
:101AA000CF910895E0916D08F0916E0806C0E81797
:101AB000F90739F00190F081E02D3097C1F780E00F
:101AC000089581E00895CF93DF93EC010E94520DB9
:101AD000882319F4CE010E94BD0CDF91CF910895A7
:101AE000CF92DF92EF92FF92CF93DF938091CD0858
:101AF000882309F43EC08FB7F8946091CD08109206
:101B0000CD088FBF70E080E090E02AE030E040E058
:101B100050E00E942E106B017C0114C0C81AD90A33
:101B2000EA0AFB0A8881998190936E0880936D0878
:101B30008A85813019F4CE010E94BD0CEB85FC85AD
:101B4000CE010995C0916D08D0916E08209789F05B
:101B50008A819B81AC81BD81C816D906EA06FB0645
:101B6000E8F68C199D09AE09BF098A839B83AC8373
:101B7000BD83DF91CF91FF90EF90DF90CF900895DC
:101B800085B190E1892785B9089580916F088430E7
:101B900021F481E080936F08089580E798E00E9427
:101BA000630D0895DF92EF92FF920F931F93CF93EF
:101BB000DF93FC01A581B68185B190E1892785B9C4
:101BC000808559968C93599781855A968C93E58098
:101BD000C681D78080E10E94D40282E00E94D402B4
:101BE0000E2D1C2FFF240FC0E8018881803121F4C5
:101BF0000E94D40280E1F80EF80181918F010E94C9
:101C0000D4028881F80E802F8E198D1568F380E13B
:101C10000E94D40283E00E94D4028F2D8B5D0E942B
:101C2000D40281E0DF91CF911F910F91FF90EF904F
:101C3000DF900895CF93DF93EC012C988F8582304D
:101C4000A1F0833028F4882351F08130D1F40AC008
:101C5000803289F0813291F0803199F409C080E0BE
:101C600092E011C08DE092E00EC088E192E00BC0DE
:101C70008BE292E008C087E392E005C083E592E042
:101C800002C086E692E00E94FE028F852091AE0897
:101C9000882359F4222329F52C9A8FEA98E00E9490
:101CA000190D81E08093AE081CC08091A20890912C
:101CB000A308A091A408B091A5080196A11DB11D8B
:101CC0008093A2089093A308A093A408B093A508BA
:101CD000222339F02C988FEA98E00E94630D10922D
:101CE000AE0883E080936F08DF91CF9108950F9342
:101CF0001F93CF93DF938C01C0E0D0E003C00E941C
:101D00002D032196C017D107D1F785B190E189271E
:101D100085B9DF91CF911F910F9108950E94DD1039
:101D200008950E94AD0C60E076E980E090E00E94AA
:101D300078020E94E40010922F198AE180932E19F4
:101D40008EE180932D190FE718E085ECE82E8DE0E9
:101D5000F82E20ECC22E2DE0D22E3EEFA32E3FEF28
:101D6000B32EA00EB11E4AE1842E4EE0942E0E94A6
:101D7000B60C0E94CF03C0916F08C33009F446C16E
:101D8000C43028F4CC2361F0C13089F7BDC0C6301F
:101D900009F44BC1C73009F455C1C53041F73CC106
:101DA00021E020937D0820937E0882E080937F08C5
:101DB00080E4F801818312821382148215821682D4
:101DC000178282E090E4909388088093870880E0EF
:101DD00091E0A1E0B1E08093890890938A08A093F4
:101DE0008B08B0938C0880E090E8A0E0B0E080938E
:101DF0008D0890938E08A0938F08B093900884E389
:101E000092E190939208809391088FE080939308D9
:101E100010929508109294081092960810929708C4
:101E2000209398088CE08093990810929A08109259
:101E30009B0810929C0810929D0810929E08109288
:101E40009F081092A0081092A1081092A208109268
:101E5000A3081092A4081092A50880E28093A60817
:101E600086E08093A708E8EAF8E0A3E7B2E00D90E7
:101E700001928150E1F7249A2C9A82E090E40E942A
:101E80002F0484E392E10E9436048FE00E94580BF5
:101E900081E00E94500B81E062ED7DE00E943D04F4
:101EA00080ED97E0A0E0B0E080937608909377080B
:101EB000A0937808B093790810927A08F0927C0881
:101EC000E0927B081092AE0884EF91E0A0E0B0E0D1
:101ED0008093B5089093B608A093B708B093B8085C
:101EE000C1E0C093B908D092BB08C092BA088FEA8B
:101EF00098E00E94630D8AE792E00E94FE020E9431
:101F0000C40BC0936F0833CF80E090E00E94ED06D1
:101F100090939508809394080E94D810AA2797FD63
:101F2000A095BA2F80939A0890939B08A0939C0841
:101F3000B0939D080E94D810AA2797FDA095BA2FAC
:101F40008F779070A070B07080939E0890939F08D8
:101F5000A093A008B093A1081092C2081092C108E3
:101F6000C093C308C093C40883E08093C508B092AF
:101F7000C708A092C60881E38093C8089092CA0857
:101F80008092C9082C9A8CEB98E00E948C04809176
:101F90002F1990E00E9406018AE30E94D4028091EA
:101FA0002E1990E00E9406018AE30E94D4028091DB
:101FB0002D1990E00E9406018AE00E94D40281E07F
:101FC0000E94B10084E00E94B4009093DC088093EA
:101FD000DB0882E892E00E94FE028091DB0890918B
:101FE000DC086DED78E04AE050E00E94F1108DEDE4
:101FF00098E00E94FE028AEB0E94D40283E40E94D1
:10200000D4028AE00E94D40282E025C080E798E0F2
:102010000E94630D84E01FC00E944604882309F0DB
:10202000A6CE0E945B0486E016C024982C9880E01F
:102030000E94500B60ED77E080E090E00E9481010B
:1020400087E009C00E945E04249A2C9A2C9A81E0B1
:102050000E94500B81E080936F0889CE629FD0016F
:10206000739FF001829FE00DF11D649FE00DF11D53
:10207000929FF00D839FF00D749FF00D659FF00D02
:102080009927729FB00DE11DF91F639FB00DE11DEF
:10209000F91FBD01CF0111240895AA1BBB1B51E1FB
:1020A00007C0AA1FBB1FA617B70710F0A61BB70BC8
:1020B000881F991F5A95A9F780959095BC01CD016D
:1020C0000895A1E21A2EAA1BBB1BFD010DC0AA1F79
:1020D000BB1FEE1FFF1FA217B307E407F50720F091
:1020E000A21BB30BE40BF50B661F771F881F991F0C
:1020F0001A9469F760957095809590959B01AC0155
:10210000BD01CF0108958F929F92AF92BF92CF925F
:10211000DF92EF92FF92CF93DF93EC018881998158
:10212000AA81BB810097A105B10521F484E299ED54
:10213000ABE5B7E0BC01CD012DE133EF41E050E06C
:102140000E94221149015A0127EA31E440E050E09F
:102150000E942E106B017C01C501B4012CEE34EFFE
:102160004FEF5FEF0E942E10DC01CB01C80ED91E8D
:10217000EA1EFB1EF7FE08C08FEF9FEFAFEFBFE731
:10218000C80ED91EEA1EFB1EC882D982EA82FB82D3
:10219000C6019F77DF91CF91FF90EF90DF90CF90B6
:1021A000BF90AF909F908F9008950E9483100895E4
:1021B00089E892E00E9483100895A0E0B0E0809347
:1021C000890290938A02A0938B02B0938C020895A7
:1021D000FB01DC0102C001900D9241505040D8F744
:1021E0000895FB019F01E8944230C4F04532B4F4F5
:1021F0004A3029F497FB1EF4909581959F4F642FE8
:1022000077270E944D10805D8A330CF0895D8193A1
:10221000CB010097A1F716F45DE251931082C9013A
:102220000C941211DC01FC01672F71917723E1F707
:10223000329704C07C916D9370836291AE17BF0793
:10224000C8F3089597FB092E05260ED057FD04D03C
:1022500038DF0AD0001C38F4509540953095219510
:102260003F4F4F4F5F4F0895F6F7909580957095CB
:0E22700061957F4F8F4F9F4F0895F894FFCFD9
:10227E004E574B5F535543434553530A004E574BEE
:10228E005F4552524F520A004E574B5F4F55545FA7
:10229E004F465F4D454D4F52590A004E574B5F4EBC
:1022AE004F5F41434B0A005048595F4348414E4EE1
:1022BE00454C5F4143434553535F4641494C55524C
:1022CE00450A005048595F4E4F5F41434B5F535490
:1022DE00415455530A004E4F5420535045435445D4
:1022EE00440A00526F7574657200524F5554455230
:0E22FE000A0054454D503A2000010000000136
:00000001FF
