:100000000C9490000C94AF000C94AF000C94AF00D3
:100010000C94AF000C94AF000C94AF000C94AF00A4
:100020000C94AF000C94AF000C94AF000C94AF0094
:100030000C94AF000C94E3020C94AF000C949B0161
:100040000C94AF000C94AF000C94AF000C94AF0074
:100050000C94AF000C94AF000C94AF000C94AF0064
:100060000C94AF000C945A040C943E040C94AF0012
:100070000C94AF000C94AF000C94AF000C94AF0044
:100080000C94AF000C94AF000C94AF000C94AF0034
:100090000C94AF000C94AF000C94AF000C94AF0024
:1000A0000C94AF000C94AF000C943B030C944C03E5
:1000B0000C94AF000C94AF000C94AF000C94AF0004
:1000C0000C94AF000C94AF000C94AF000C94AF00F4
:1000D0000C94AF000C94AF000C94AF000C94AF00E4
:1000E0000C94AF000C94AF000C94AF000C94AF00D4
:1000F0000C94E50C0C94AF000C94AF000C94AD0C78
:100100000C94AF000C94AF000C94AF000C94AF00B3
:100110000C94AF000C94AF000C94AF000C94AF00A3
:1001200011241FBECFEFD1E4DEBFCDBF12E0A0E0AF
:10013000B2E0E8E6F4E200E00BBF02C007900D92E7
:10014000AC3AB107D9F719E1ACEAB2E001C01D92AF
:10015000A630B107E1F70E94740F0C9432120C9490
:100160000000DC01EC91E150E33028F4F0E0E855C8
:10017000FD4F808108958FEF0895CF93DF93EC01B9
:1001800080E092E00E94E103898190E00E94B70341
:10019000888199810E94B7038A8190E00E94B70309
:1001A00088E192E00E94E103DF91CF91089580936E
:1001B000A70208959091A702883040F49295990F74
:1001C000990F907C982B90937C0008C0892F829582
:1001D000880F880F807C896280937C0080917A00F0
:1001E000806880937A0084E190E00E9460028091B0
:1001F0007A00876480937A0080917A0086FDFCCF34
:100200008091780090917900392F20E090E0822B46
:10021000932B089583E099E060E070E042E350E0C2
:100220000E94F7110895809170008A7F809370007A
:100230008091B6008F738093B6008091B600806283
:100240008093B6001092B20085E08093B100809157
:10025000B60090E0877090700097C9F780917000A9
:1002600081608093700078941092FB080895CF937A
:10027000DF93EC0187E2C031D80750F0CE0160E196
:1002800077E20E943211CB01C0960E94B70304C0EE
:1002900083E0C83ED80750F0CE0168EE73E00E94BC
:1002A0003211CB01C0960E94B70303C0C436D105FA
:1002B00050F0CE0164E670E00E943211CB01C0968E
:1002C0000E94B70303C0CA30D10548F0CE016AE0EE
:1002D00070E00E943211CB01C0960E94B703CE019C
:1002E0006AE070E00E943211C0960E94B703DF916D
:1002F000CF910895CF93DF9300D000D000D0CDB739
:10030000DEB7481760F0841740F0371740F07317D6
:1003100020F0261720F0621720F48FEF03C081E051
:1003200001C080E026960FB6F894DEBF0FBECDBFA9
:10033000DF91CF9108951F920F920FB60F920BB6D7
:100340000F9211240F931F932F933F934F935F931B
:100350006F937F938F939F93AF93BF93CF93DF93CD
:10036000EF93FF93809103198F5F809303198C3370
:10037000A1F410920319809104198F5F80930419DE
:100380008C3359F410920419809105198F5F809372
:100390000519883111F4109205198091FB08882302
:1003A00009F056C069C08091790990E03091AC02A3
:1003B0008D5F964FFC01E156FF4F2081230F26955C
:1003C00026952695820F911D80569F4FFC018081B6
:1003D00090E0A801431B5109042E02C09595879512
:1003E0000A94E2F780FF03C0CE010E94BD00C091D5
:1003F000EC08D091ED08CE0105960E94B10090E086
:100400009C01220F331F280F391F220F331F2C5D31
:100410003F4F2C0F3D1F3093ED082093EC08809147
:10042000AC028F5F8093AC02205C304080917809F1
:1004300090E02817390770F08091770990E087588D
:10044000964F9093ED088093EC081092AC0202C096
:1004500008E010E0C091EC08D091ED086881798146
:100460008A812091031930910419409105190E9445
:100470007A01882309F497CFFF91EF91DF91CF9113
:10048000BF91AF919F918F917F916F915F914F91AC
:100490003F912F911F910F910F900BBE0F900FBEA8
:1004A0000F901F90189514BE88E10FB6F8948093B2
:1004B0006000109260000FBE78940E94F2020895CE
:1004C00090E00E94070308950F931F932FE0660F9B
:1004D000771F881F991F2A95D1F720E030EA4FE057
:1004E00050E00E94461189019A010115110521056C
:1004F000310509F465C0BB27A32F922F812F1092DD
:1005000070002091B60020622093B6001092B000D7
:100510001092B1001092B2002091B60030E02F711D
:10052000307021153105C1F727E027BB2093B100BA
:100530005FEF47E001C000E01092AD02009719F0B4
:100540005093B30020C0002319F00093B3001BC0E8
:100550008091B60090E08F7190700097C9F710926B
:1005600070001092B10083B5826083BD8091B600A7
:1005700090E08F7190700097C9F78091B6008F7DE1
:100580008093B6001DC020917000226020937000FF
:100590002091B60030E02F71307021153105C1F780
:1005A00043BF889513BE3FB7F8942091AD023FBF7B
:1005B000222309F4C1CF009709F4BDCF0197BCCF26
:1005C0001F910F9108951F920F920FB60F92112451
:1005D0008F9381E08093AD028F910F900FBE0F90AB
:1005E0001F9018951092EE0880E197E29093A90071
:1005F0008093A800E1EAF0E088E080838081826057
:100600008083E2E7F0E0808182608083089520911A
:10061000A4003091A500280F391F3093AB00209320
:10062000AA002091AA003091AB008091A80090917F
:10063000A9008217930770F48091AA009091AB00F3
:100640002091A8003091A900821B930B9093AB00DE
:100650008093AA001092AE02809172008460809311
:1006600072008091AE028823E1F3809172008B7F4B
:100670008093720008951F920F920FB60F9211246B
:100680008F938091EE088F5F8093EE088F910F908B
:100690000FBE0F901F9018951F920F920FB60F92DA
:1006A00011248F9381E08093AE028F910F900FBE43
:1006B0000F901F9018950F931F939B01AC01E4E0DE
:1006C000220F331F441F551FEA95D1F760E074E2F3
:1006D00084EF90E00E94461189019A010150104078
:1006E00020403040BB27A32F922F812F8093C5003D
:1006F0000093C40082E08093C00088E98093C10029
:1007000086E08093C20085EC92E09093C4028093CF
:10071000C30220E830E03093C0022093BF02109261
:10072000C2021092C102EBEBF2E01182108213823E
:10073000128289EB92E046E453E05093BA02409370
:10074000B902FC01349731832083FC013297118276
:100750001082FC013897118210821382128281E08C
:100760008093B0021092AF021F910F910895609193
:10077000C1027091C2024091BF025091C002641741
:100780007507F1F02091BD023091BE02E091C302E5
:10079000F091C402E20FF31F80832F5F3F4F30932D
:1007A000BE022093BD022417350721F41092BE0229
:1007B0001092BD026F5F7F4F7093C2026093C102BF
:1007C0000895CF92DF92FF920F931F93CF93DF9301
:1007D0000F92CDB7DEB7F82E082F192FCC24DD24C9
:1007E0000AC0F80181918F0199830E94B703089490
:1007F000C11CD11C9981AF2DB92FFD0101900020A2
:10080000E9F73197EA1BFB0BCE16DF0650F30F908A
:10081000DF91CF911F910F91FF90DF90CF900895BE
:100820009FB7F894E091B902F091BA022091B10219
:100830003091B202E20FF31F80812F5F3F4F309360
:10084000B2022093B1024091B1025091B2022091C4
:10085000B5023091B6024217530721F41092B2024A
:100860001092B1022091B7023091B802215030406D
:100870003093B8022093B7029FBF08951F920F9242
:100880000FB60F920BB60F9211248F93EF93FF9335
:1008900081E08093B002E1ECF0E080818F7D808385
:1008A000FF91EF918F910F900BBE0F900FBE0F90A5
:1008B0001F9018951F920F920FB60F920BB60F92C2
:1008C00011242F933F934F938F939F93EF93FF9315
:1008D0008091C0004091C6008C71B1F52091B702A3
:1008E0003091B8028091B5029091B602281739076D
:1008F00059F1E091B902F091BA028091B30290915E
:10090000B402E80FF91F408301969093B4028093DC
:10091000B3022091B3023091B4028091B50290915C
:10092000B6022817390721F41092B4021092B302CC
:100930008091B7029091B80201969093B80280938B
:10094000B70281E08093AF02FF91EF919F918F9169
:100950004F913F912F910F900BBE0F900FBE0F90B4
:100960001F9018958091C1029091C202009789F161
:100970002091B002222369F12091BB023091BC0288
:10098000E091C302F091C402E20FF31F60812F5F78
:100990003F4F3093BC022093BB024091BF02509165
:1009A000C0022417350721F41092BC021092BB023A
:1009B00001979093C2028093C1029FB7F89460930D
:1009C000C6008091C10080628093C1001092B00285
:1009D0009FBF3FB7F8942091AF021092AF02809171
:1009E000B7029091B8023FBF222311F00E945A0F24
:1009F00008951092F3081092F408EFEEF8E01182D7
:100A000010821782168211861086138612860E9423
:100A1000680A0E9400080E941B060E946A050E9444
:100A2000A50608959093F0088093EF080E944D0C5E
:100A300008959093F2088093F1080E94430C089562
:100A4000E82FF0E0EE0FFF1FEB50F74F718360834C
:100A500008950E945508882359F40E942C0B88237E
:100A600039F40E948405882331F40E94570C0895BC
:100A700081E090E0089581E090E008950E94670C85
:100A800008950E94730C08950E945C080E944F0B09
:100A90000E948E050895E091C703F091C80315C028
:100AA000228133812817390769F4DC01A158BF4F2F
:100AB0002C912787DC01AE57BF4F2C91208B22E071
:100AC000248305C00190F081E02D309749F70E9402
:100AD000480608951092C8031092C7030895FC01B8
:100AE00014821786138212828091C7039091C803E3
:100AF000009719F41182108202C091838083F093D1
:100B0000C803E093C703089581E02091C7033091A3
:100B1000C8032115310509F480E008950F931F9350
:100B2000CF93DF93E091C703F091C803EF017BC03F
:100B30008C81882321F0823009F072C058C08C85E6
:100B40000E9422068C01009721F482E08C838F871B
:100B50006DC09B838A8381E08C83F801ED57FF4F42
:100B60008BE495E091838083F801EE57FF4F9985E0
:100B700081E092FF80E0808399859170F801838500
:100B80008E7F892B8387998581E093FF80E0982F62
:100B9000990F990FF80183858370892B8387809142
:100BA000F3088F5F8093F30884878091EF0890911A
:100BB000F008968785878D819E81908B87879885A1
:100BC0009F708189807F892B818B9F819295907FF7
:100BD0008F70892B818BC80142964C856A857B85F5
:100BE00050E00E94CD11C8010E94830A1FC0EC177B
:100BF000FD0741F4888199819093C8038093C703CE
:100C00000AC0FC01808191818C179D07D1F78881F2
:100C1000998191838083ED85FE85CE01099506C07B
:100C20000990D881C02D209709F082CFDF91CF9114
:100C30001F910F9108951092C90310924E041092C3
:100C4000D30408959091C903992359F090914E04CB
:100C5000992351F09091D3049923B9F422E030E024
:100C600005C020E030E002C021E030E045E850E07F
:100C7000249FF001259FF00D349FF00D1124E753C0
:100C8000FC4F805F8183CF01089580E090E008955C
:100C9000FC0110820895482F50E025E830E0429F83
:100CA000C001439F900D529F900D112487539C4F7C
:100CB0000895FC01DC01A158BF4F1C92DC01A05833
:100CC000BF4F1D921C92DC01AE57BF4F1C92DC013E
:100CD000AD57BF4F11961C921E9213868091F30858
:100CE0008F5F8093F30884878091EF089091F008DC
:100CF00096878587108A1786118A0895E8E5F5E0BA
:100D000020E0408151814817590759F430E0C9016A
:100D1000880F991F820F931F880F991F885A9A4F27
:100D200008952F5F3696243661F72FEF8F3F920795
:100D300019F48AEA97E0089580E090E008950E940F
:100D4000480608950E9448060895E8E5F5E024E67F
:100D50008FEF9FEF91838083215036962223D1F726
:100D600008950E947E06009729F02FEF3FEFFC01C7
:100D7000318320830895EF92FF920F931F93CF93B7
:100D8000DF93EC0109851A8517FF05C08D859E85C7
:100D90000817190751F58D819E812FEF8F3F92071C
:100DA00021F1ED84FE84C7010E947E06FC010097BC
:100DB00069F0828193818017910799F0DE01A15833
:100DC000BF4F9C918581891760F407C08FEF9FEF1B
:100DD0000E947E06FC01F182E0821383028383E09D
:100DE0008483C158DF4F88818583DF91CF911F9124
:100DF0000F91FF90EF9008950F931F93CF93DF9380
:100E000000D000D000D0CDB7DEB78C01DC011F963A
:100E10008D919C9150970E947E06FC010097D1F124
:100E2000D801A158BF4F8C91882319F483E08483A3
:100E30000AC0848181508483882329F48FEF9FEF37
:100E40009183808327C0CF018855954086309105D6
:100E50000CF1CE010196AF014650504026E0DA0178
:100E60000D90AD01DC010D92CD012150C1F7CF01F4
:100E70000697AF0126E0DA010D90AD01DC010D927D
:100E8000CD012150C1F7DE01119686E00D9001924F
:100E90008150E1F726960FB6F894DEBF0FBECDBFA6
:100EA000DF91CF911F910F9108952FEF8F3F920700
:100EB000F1F0E8E5F5E040E050E0208131812817CD
:100EC000390761F4FA01EE0FFF1FE40FF51FEE0F73
:100ED000FF1FE85AFA4F8281938108954F5F5F4F59
:100EE00036964436510549F78FEF9FEF08958FEFFF
:100EF0009FEF0895CF92DF92EF92FF920F931F938F
:100F0000CF93DF938C01FC01C784D088C6010E9477
:100F10005507FFEF8F3F9F0781F0F801ED57FF4F17
:100F200082EA96E091838083F801EE57FF4F82E0DA
:100F30008083C8010E94830A20C0F801E584F684FA
:100F400085E00E942206EC010097A1F00E9459065C
:100F5000FE01ED57FF4F8FE996E091838083F88A79
:100F6000EF8681E08A8BFC8AEB8ADE8ACD8ACE010D
:100F70000E94830AC8010E944806DF91CF911F9109
:100F80000F91FF90EF90DF90CF900895DC011596C0
:100F9000ED91FC911697838194810E94B10608958A
:100FA0000E94550708950E9448060895E4EBF7E073
:100FB0004AE050E0208131812115310529F021508E
:100FC00030403183208351E041503596442391F7DE
:100FD000552311F00E94460E0895DC011596ED91FF
:100FE000FC9116972081222319F40E94080B04C05B
:100FF000213021F40E94C60781E0089580E0089521
:10100000E4EBF7E08AE01182108281503596882364
:10101000D1F71092E30784E190E0A0E0B0E0809384
:10102000EA079093EB07A093EC07B093ED071092BB
:10103000EE0786ED97E09093F0078093EF0780E04E
:101040006DEE77E00E9420050895CF93DF93EC01C9
:10105000E881F9818181883829F58081813611F014
:10106000813401F58A818031E8F080510E942206A6
:101070000097C1F020E2FC0120832B81E158FF4F53
:1010800020832C81FC01E058FF4F208302964A8187
:101090006881798150E00E94CD118091E3078F5FD4
:1010A0008093E307DF91CF91089581E09091E3076A
:1010B000992309F480E008958F929F92AF92BF9296
:1010C000CF92DF92EF92FF920F931F93CF93DF9314
:1010D000CDB7DEB72A970FB6F894DEBF0FBECDBFEF
:1010E0008091E307882309F4ADC1DD2444E2C42ED6
:1010F00053ED852E57E0952E62E2B62E73E2A72EB1
:101100008D2D0E944B067C01DC018C91823209F40A
:10111000D9C0833220F4803209F08FC107C08332F6
:1011200009F47FC1843209F088C17FC1F701C08210
:1011300087859089FFEF8F3F9F0731F4D7011B967A
:101140008C911B9780FD79C12091EF083091F008B8
:10115000F701858596852817390709F46EC18385BF
:1011600081FD6BC1C7010E94BB06E1EBF7E040E0E7
:1011700050E06FEF238134812115310581F1D701D2
:101180001D968D919C911E97208131818217930726
:1011900039F51C968C91FA01EE0FFF1FEE0FFF1F21
:1011A000E40FF51FEF54F84F9281B82FB91B1B16AF
:1011B00034F4828387E990E09483838339C020915B
:1011C000EF083091F008F7018781908528173907DB
:1011D00009F033C1878590890E94B1062EC1642F22
:1011E0004F5F5F4F35964A30510521F66F3F09F446
:1011F00024C1862F992787FD9095FC01EE0FFF1FD4
:10120000EE0FFF1FE80FF91FEF54F84FD7011D969F
:101210008D919C911E97918380831C968C918283E3
:1012200087E990E09483838384EE97E00E94460EE2
:10123000F70187819085FFEF8F3F9F07D9F42091B9
:10124000EF083091F008D7011F968D919C9150972F
:101250002817390779F015968D919C911697BFEF55
:101260008F3F9B0739F0F701838582FD03C0C701DB
:101270000E94C00A8091EF089091F008D7011F9654
:101280002D913C9150978217930721F0BFEF2F3F8C
:101290003B0719F4F701B082D0C0D70117962D9102
:1012A0003C9118978217930709F0C7C015968D9146
:1012B0009C911697BFEF8F3F9B0709F4BEC0F701C3
:1012C000A082BBC01092B007D70151968C91519764
:1012D00082958F70E82FF0E0E430F1050CF05EC0ED
:1012E000EE0FFF1FEB50F74F408151814115510523
:1012F00009F454C01D962D913C911E973A83298381
:1013000051969C9151979F709B838C83C701429605
:101310009F838E8311968C91119780518887F70156
:10132000E158FF4F80818987F701E058FF4F8081A6
:101330008A87F7017385672F637072FF02C080E2AE
:1013400001C080E0762F782BD7011F968D919C915C
:101350005097BFEF8F3F9B0711F464E001C060E03E
:10136000672BF701818592852817390711F498E0DA
:1013700001C090E0692BD70115968D919C9116972D
:10138000BFEF8F3F9B0711F480E101C080E0862B07
:101390008D83CE010196FA01099501C080E0F70125
:1013A00027813085FFEF2F3F3F0771F461E070E048
:1013B0002091EF083091F008D7011F964D915C9174
:1013C00050972417350711F060E070E0F70193851E
:1013D00090FF02C0882319F461157105F9F083E0CC
:1013E0000E9422068C010097C9F00E945906F8015C
:1013F000ED57FF4F91828082D7011D968D919C9170
:101400001E97F801908B8787128A8091B007848B92
:101410001C968C91838BC8010E94830AD701CC92C1
:101420000CC0C7010E947A0703C0C7010E9448068A
:101430008091E30781508093E307D394B3E0DB16F8
:1014400009F05ECE2A960FB6F894DEBF0FBECDBF70
:10145000DF91CF911F910F91FF90EF90DF90CF9090
:10146000BF90AF909F908F9008950E944806089576
:10147000EF92FF921F93CF93DF937C018091F3074C
:10148000882301F1C0E0D5E110E18C2F0E944B06CA
:10149000DC018C91843181F4FD01E058FF4F208103
:1014A000318121503040318320832115310521F4D1
:1014B000DC93A158BF4F1C93CF5FC33031F7C701F6
:1014C0000E94460EDF91CF911F91FF90EF900895FB
:1014D0001092F2071092F1071092F30782E390E066
:1014E000A0E0B0E08093FA079093FB07A093FC077D
:1014F000B093FD071092FE0788E39AE090930008EE
:101500008093FF070895CF93DF93EC01FC01EE5722
:10151000FF4F808191E19883FE01E158FF4F1082D7
:1015200080FF03C08FEF9FEF04C08091F10890917E
:10153000F2089E838D838F8598890E94550798872E
:101540008F832091EF083091F0083A872987209106
:10155000F4082F5F2093F4082C832FEF8F3F92071E
:1015600019F481E498E802C081E698E89B838A83B5
:101570008091F3078F5F8093F307DF91CF910895F8
:101580000F931F93CF93DF938C01FC0181818051D6
:101590000E942206EC010097B1F1FC01ED57FF4FCC
:1015A00085E39AE091838083CE010296F801418120
:1015B000B8016E5F7F4F50E00E94CD1181E18883BA
:1015C000FE01E158FF4F108281E498E89B838A83F3
:1015D0008FEF9FEF98878F838091F1089091F208A9
:1015E0009E838D838091EF089091F0089A87898778
:1015F0008091F4088F5F8093F4088C838091F307C7
:101600008F5F8093F307DF91CF911F910F91089522
:101610001F93CF93DF93FC01C581D6818091F3079F
:101620008823B1F010E0812F0E944B06FC018081DD
:10163000843159F494858981981739F485E1808340
:101640008A81EE57FF4F808303C01F5F133059F725
:10165000DF91CF911F91089581E09091F307992335
:1016600009F480E00895E091F107F091F2078330EA
:1016700030F0833031F0853031F481E205C080E014
:1016800003C080E201C081E0DF01A158BF4F8C930D
:1016900083E180831092F2071092F1070895CF92B0
:1016A000DF92EF92FF920F931F93CF93DF9380917E
:1016B000F307882309F455C010E005E184E1F82E12
:1016C00095E1C92ED12C22E1E22E812F0E944B06FA
:1016D000EC018881833199F0853179F18131E9F527
:1016E0000E94570C8823C9F5D093F207C093F107E5
:1016F000E882CE01029669810E947E0C2EC0FE0116
:10170000E158FF4F80818823B1F42D853E8580917B
:10171000EF089091F0082817390769F48B8580FF4E
:101720000AC0F882C058DF4FD982C88284EF97E0A0
:101730000E94460E12C0088310C0CE010E94FC0613
:10174000FE01ED57FF4F0190F081E02DCE0109958C
:101750008091F30781508093F3071F5F133009F0E6
:10176000B4CFDF91CF911F910F91FF90EF90DF9059
:10177000CF90089593E0909342018093420190911D
:1017800041019F718917D9F7089580910B0888232B
:1017900011F086E101C088E00E94BA0B08950F9312
:1017A0001F93CF93DF9310924E0186E00E94BA0BF5
:1017B000C0E0D0E000E010E081E00E946002809193
:1017C000460182958695837090E00C2E02C0880FAA
:1017D000991F0A94E2F7082B192B2296C031D105E4
:1017E00059F788E00E94BA0B8FEF80934F018091E8
:1017F0004E01886080934E0180914E0180648093F9
:101800004E01C801DF91CF911F910F910895E9E337
:10181000F1E080818160808388E00E94BA0BEEE66F
:10182000F1E080818062808380818F7E80838FEF72
:1018300080934F01EEE4F1E08081886080838081B5
:1018400080648083ECE4F1E08081806880830E9482
:10185000CF0B80936D011092050810920B0881E068
:101860008093040808959091050898609093050866
:1018700080930B0808959091050891609093050856
:10188000809306080895209105082260209305089A
:101890009093080880930708089520910508246014
:1018A0002093050890930A08809309080895809171
:1018B0000408813049F481E090E02091050822235A
:1018C00029F480E090E0089581E090E0089588E0B8
:1018D0000E94BA0BE9E3F1E080818260808382E0BC
:1018E000809304080895E9E3F1E080818D7F80838F
:1018F0000E94C50B81E08093040808951F93CF9345
:10190000DF9300D0CDB7DEB7182F89E169839A83C2
:101910000E94BA0B6981862F8E5F80938001E12F30
:101920009A81F92FA1E8B1E002C081918D938E2FA9
:10193000811B8617D0F382E08093420183E080937D
:1019400004080F900F90DF91CF911F91089580911F
:10195000050880618093050808951F920F920FB6C5
:101960000F920BB60F9211242F933F934F935F93D7
:101970006F937F938F939F93AF93BF93EF93FF9357
:10198000809141018F71893169F489E00E94BA0B1D
:1019900084E0809304088091420182958695877047
:1019A00080930308FF91EF91BF91AF919F918F9129
:1019B0007F916F915F914F913F912F910F900BBE4F
:1019C0000F900FBE0F901F9018951F920F920FB699
:1019D0000F9211248F9389E08093420180914701F7
:1019E0008093020880917B018093010885E08093B9
:1019F00004088F910F900FBE0F901F9018951F93A2
:101A0000CF93DF9300D000D00F92CDB7DEB7809197
:101A100004088430F1F1853009F44FC0813009F0B9
:101A200076C010910508112309F471C088E00E9466
:101A3000BA0B10FF09C0909106089F718091480170
:101A4000807E892B809348018091050881FF08C022
:101A50008091070880936201809108088093630158
:101A60008091050882FF08C0809109088093600179
:101A700080910A08809361018091050884FF04C069
:101A80000E94CF0B0E94710F0E94C50B1092050897
:101A90003EC0809103080E94330B809141018F71F9
:101AA0008930D9F72FC0FC01E058FE4F2081845FB8
:101AB000974FFC0120834F5F01C040E02091010857
:101AC000842F90E030E0281739076CF78CE098E01D
:101AD0009A8389838091010882508B83E091010869
:101AE000F0E0E45FF74F80818C83809102088A5593
:101AF0008D83CE0101960E942508809141018F714E
:101B00008930D9F781E0809304080E94C50B0F90BB
:101B10000F900F900F900F90DF91CF911F9108952C
:101B20000E9453020E94F70D0E94070C0E94F904C4
:101B300008950E94FF0C0E9444050E94530E0895D0
:101B40000F931F93CF93DF93FC0100918C081091AA
:101B50008D08368127819085818501151105C1F198
:101B6000432F522F692F782FE80120E030E001C089
:101B7000EC018A819B81AC81BD81481759076A07B6
:101B80007B0748F4841B950BA60BB70B8A839B83BA
:101B9000AC83BD8309C0481B590B6A0B7B0B888142
:101BA00099819E01009721F7428353836483758353
:101BB0002115310551F0D9018D919C911197918397
:101BC00080831196FC93EE930DC01183008306C0B1
:101BD000118210823283238394838583F0938D084E
:101BE000E0938C08DF91CF911F910F91089510928F
:101BF0008D0810928C080895CF93DF93EC01E0914B
:101C00008C08F0918D08A0E0B0E02AC0EC17FD0729
:101C100011F580819181109721F011969C938E93FC
:101C200004C090938D0880938C080190F081E02D82
:101C30003097C1F082819381A481B5814A815B8113
:101C40006C817D81840F951FA61FB71F82839383AC
:101C5000A483B58307C090818181DF01E92FF82F2C
:101C60003097A1F6DF91CF910895E0918C08F09123
:101C70008D0806C0E817F90739F00190F081E02DD2
:101C80003097C1F780E0089581E00895CF93DF9306
:101C9000EC010E94350E882319F4CE010E94A00D9C
:101CA000DF91CF910895CF92DF92EF92FF92CF9381
:101CB000DF938091EE08882309F43EC08FB7F89433
:101CC0006091EE081092EE088FBF70E080E090E027
:101CD0002AE030E040E050E00E9413116B017C01EB
:101CE00014C0C81AD90AEA0AFB0A8881998190931C
:101CF0008D0880938C088A85813019F4CE010E946A
:101D0000A00DEB85FC85CE010995C0918C08D09182
:101D10008D08209789F08A819B81AC81BD81C8168E
:101D2000D906EA06FB06E8F68C199D09AE09BF093B
:101D30008A839B83AC83BD83DF91CF91FF90EF902B
:101D4000DF90CF90089585B190E1892785B90895F6
:101D500080918E08843021F481E080938E0808956C
:101D60008FE898E00E94460E0895DF92EF92FF926E
:101D70000F931F93CF93DF93FC01A581B68185B1AB
:101D800090E1892785B9808559968C9359978185EB
:101D90005A968C93E580C681D78080E10E94B70374
:101DA00082E00E94B7030E2D1C2FFF240FC0E80114
:101DB0008881803121F40E94B70380E1F80EF80198
:101DC00081918F010E94B7038881F80E802F8E19B0
:101DD0008D1568F380E10E94B70383E00E94B7038A
:101DE0008F2D8B5D0E94B70381E0DF91CF911F9112
:101DF0000F91FF90EF90DF900895CF93DF93EC0168
:101E00002C988F858230A1F0833028F4882351F0FC
:101E10008130D1F40AC0803289F0813291F0803172
:101E200099F409C08AE192E011C087E292E00EC005
:101E300082E392E00BC085E492E008C081E592E085
:101E400005C08DE692E002C080E892E00E94E103C6
:101E50008F852091CD08882359F4222329F52C9AC7
:101E60008EEC98E00E94FC0D81E08093CD081CC0B0
:101E70008091C1089091C208A091C308B091C40894
:101E80000196A11DB11D8093C1089093C208A09333
:101E9000C308B093C408222339F02C988EEC98E044
:101EA0000E94460E1092CD0883E080938E08DF9149
:101EB000CF9108950F931F93CF93DF938C01C0E0D0
:101EC000D0E003C00E9410042196C017D107D1F7BB
:101ED00085B190E1892785B9DF91CF911F910F914D
:101EE00008950E94C21108950E94900D60E076E965
:101EF00080E090E00E945B030E941301109205199C
:101F00008AE1809304198EE1809303190E940A01EB
:101F10000EE918E088EAE82E8EE0F82E23EAC22EB9
:101F20002EE0D22E3EEFA32E3FEFB32EA00EB11E19
:101F30004DEF842E4EE0942E0E94990D0E94B20423
:101F4000C0918E08C33009F446C1C43028F4CC23B4
:101F500061F0C13089F7BDC0C63009F44BC1C7304C
:101F600009F455C1C53041F73CC121E020939C08DC
:101F700020939D0882E080939E0880E4F80181838D
:101F800012821382148215821682178282E090E4F4
:101F90009093A7088093A60880E091E0A1E0B1E0CB
:101FA0008093A8089093A908A093AA08B093AB08BF
:101FB00080E090E8A0E0B0E08093AC089093AD089A
:101FC000A093AE08B093AF0884E392E19093B10878
:101FD0008093B0088FE08093B2081092B4081092FA
:101FE000B3081092B5081092B6082093B7088CE099
:101FF0008093B8081092B9081092BA081092BB08E2
:102000001092BC081092BD081092BE081092BF0832
:102010001092C0081092C1081092C2081092C30812
:102020001092C40880E28093C50886E08093C608B9
:10203000E7ECF8E0ADE8B2E00D9001928150E1F7F5
:10204000249A2C9A82E090E40E94120584E392E1A3
:102050000E9419058FE00E943B0C81E00E94330C26
:1020600081E065EB7EE00E94200580ED97E0A0E036
:10207000B0E08093950890939608A0939708B0934A
:10208000980810929908F0929B08E0929A08109292
:10209000CD0884EF91E0A0E0B0E08093D408909365
:1020A000D508A093D608B093D708C1E0C093D8084C
:1020B000D092DA08C092D9088EEC98E00E94460EC1
:1020C00084E992E00E94E1030E94A70CC0938E086D
:1020D00033CF80E090E00E94D0079093B4088093C3
:1020E000B3080E94BD11AA2797FDA095BA2F80932F
:1020F000B9089093BA08A093BB08B093BC080E949B
:10210000BD11AA2797FDA095BA2F8F779070A07068
:10211000B0708093BD089093BE08A093BF08B093A1
:10212000C0081092E1081092E008C093E208C09342
:10213000E30883E08093E408B092E608A092E50803
:1021400081E38093E7089092E9088092E8082C9A4E
:102150008BED98E00E946F058091051990E00E9438
:1021600037018AE30E94B7038091041990E00E942E
:1021700037018AE30E94B7038091031990E00E941F
:1021800037018AE00E94B70381E00E94D70084E013
:102190000E94DA009093FD088093FC088CE992E09D
:1021A0000E94E1038091FC089091FD086EEF78E0B9
:1021B0004AE050E00E94D6118EEF98E00E94E103C1
:1021C0008AEB0E94B70383E40E94B7038AE00E946F
:1021D000B70382E025C08FE898E00E94460E84E0B5
:1021E0001FC00E942905882309F0A6CE0E943E0543
:1021F00086E016C024982C9880E00E94330C60ED95
:1022000077E080E090E00E94640287E009C00E94CD
:102210004105249A2C9A2C9A81E00E94330C81E08B
:1022200080938E0889CE629FD001739FF001829FB8
:10223000E00DF11D649FE00DF11D929FF00D839F55
:10224000F00D749FF00D659FF00D9927729FB00DF2
:10225000E11DF91F639FB00DE11DF91FBD01CF0105
:1022600011240895AA1BBB1B51E107C0AA1FBB1F65
:10227000A617B70710F0A61BB70B881F991F5A9512
:10228000A9F780959095BC01CD010895A1E21A2E81
:10229000AA1BBB1BFD010DC0AA1FBB1FEE1FFF1F0A
:1022A000A217B307E407F50720F0A21BB30BE40B5A
:1022B000F50B661F771F881F991F1A9469F76095A1
:1022C0007095809590959B01AC01BD01CF0108955B
:1022D0008F929F92AF92BF92CF92DF92EF92FF9236
:1022E000CF93DF93EC0188819981AA81BB8100970C
:1022F000A105B10521F484E299EDABE5B7E0BC019D
:10230000CD012DE133EF41E050E00E941712490169
:102310005A0127EA31E440E050E00E9413116B01BA
:102320007C01C501B4012CEE34EF4FEF5FEF0E944A
:102330001311DC01CB01C80ED91EEA1EFB1EF7FEED
:1023400008C08FEF9FEFAFEFBFE7C80ED91EEA1EA0
:10235000FB1EC882D982EA82FB82C6019F77DF9189
:10236000CF91FF90EF90DF90CF90BF90AF909F9074
:102370008F9008950E946811089583EA92E00E9468
:1023800068110895A0E0B0E08093A3029093A402A6
:10239000A093A502B093A6020895FB01DC0102C040
:1023A00001900D9241505040D8F70895FB019F01D4
:1023B000E8944230C4F04532B4F44A3029F497FB33
:1023C0001EF4909581959F4F642F77270E943211BC
:1023D000805D8A330CF0895D8193CB010097A1F772
:1023E00016F45DE251931082C9010C940712DC01CE
:1023F000CB01FC01F999FECF06C0F2BDE1BDF89A10
:10240000319600B40D9241505040B8F70895DC0168
:10241000FC01672F71917723E1F7329704C07C911B
:102420006D9370836291AE17BF07C8F3089597FB51
:10243000092E05260ED057FD04D028DF0AD0001C37
:1024400038F450954095309521953F4F4F4F5F4F51
:102450000895F6F790958095709561957F4F8F4F11
:082460009F4F0895F894FFCF8F
:1024680052462053656E64204576656E7420526529
:1024780071756573743A20000A004E574B5F5355C7
:1024880043434553530A004E574B5F4552524F52F0
:102498000A004E574B5F4F55545F4F465F4D454DB1
:1024A8004F52590A004E574B5F4E4F5F41434B0AFC
:1024B800005048595F4348414E4E454C5F414343A5
:1024C8004553535F4641494C5552450A00504859B7
:1024D8005F4E4F5F41434B5F5354415455530A007D
:1024E8004E4F5420535045435445440A00526F758B
:1024F80074657200524F555445520A0054454D5068
:0C2508003A200001000000010103020065
:00000001FF
