:100000000C9490000C94AF000C94AF000C94AF00D3
:100010000C94AF000C94AF000C94AF000C94AF00A4
:100020000C94AF000C94AF000C94AF000C94AF0094
:100030000C94AF000C944E030C94AF000C943E0251
:100040000C94AF000C94AF000C94AF000C94AF0074
:100050000C94AF000C94AF000C94AF000C94AF0064
:100060000C94AF000C94C5040C94A9040C94AF003C
:100070000C94AF000C94AF000C94AF000C94AF0044
:100080000C94AF000C94AF000C94AF000C94AF0034
:100090000C94AF000C94AF000C94AF000C94AF0024
:1000A0000C94AF000C94AF000C94A6030C94B7030F
:1000B0000C94AF000C94AF000C94AF000C94AF0004
:1000C0000C94AF000C94AF000C94AF000C94AF00F4
:1000D0000C94AF000C94AF000C94AF000C94AF00E4
:1000E0000C94AF000C94AF000C94AF000C94AF00D4
:1000F0000C94500D0C94AF000C94AF000C94180DA0
:100100000C94AF000C94AF000C94AF000C94AF00B3
:100110000C94AF000C94AF000C94AF000C94AF00A3
:1001200011241FBECFEFD1E4DEBFCDBF12E0A0E0AF
:10013000B2E0E8E4F5E200E00BBF02C007900D92E8
:10014000A63BB107D9F719E1A6EBB2E001C01D92B9
:10015000A131B107E1F70E94DF0F0C94A2120C94B9
:100160000000FC018081823091F0833018F48130EE
:1001700061F405C0833029F08F3F39F404C081E079
:10018000089582E0089584E008958FEF089583E054
:100190000895DF92EF92FF920F931F93CF93DF9317
:1001A00000D0CDB7DEB79A83898380E092E00E94C9
:1001B0004C04E981FA81808191810E94980188E153
:1001C00092E00E944C04E981FA81828190E00E94D1
:1001D000980188E192E00E944C0489819A810296FC
:1001E0000E94B100D82E03E010E07E010894E11CCB
:1001F000F11C0EC0F092F608E092F508E981FA8150
:10020000E00FF11F808190E00E9498010F5F1F4F67
:10021000802F83508D1570F38AE192E00E944C0488
:100220000F900F90DF91CF911F910F91FF90EF9062
:10023000DF9008958093B50208959091B5028830BB
:1002400040F49295990F990F907C982B90937C0095
:1002500008C0892F8295880F880F807C89628093DF
:100260007C0080917A00806880937A0084E190E03D
:100270000E94CB0280917A00876480937A008091FB
:100280007A0086FDFCCF8091780090917900392F1B
:1002900020E090E0822B932B08958EE099E060E0BF
:1002A00070E04CE050E00E94671240910F095091BD
:1002B0001009CA0101972FEF8E3F920730F48EE0AC
:1002C00099E060E070E00E946712089580917000EC
:1002D0008A7F809370008091B6008F738093B60000
:1002E0008091B60080628093B6001092B20085E0E3
:1002F0008093B1008091B60090E087709070009775
:10030000C9F780917000816080937000789410929A
:1003100006090895FC01AEE0B9E183E00D90019279
:100320008150E1F70E94FD0181E080930609089564
:10033000CF93DF93EC0187E2C031D80750F0CE01B4
:1003400060E177E20E94A211EC01CB01C0960E940D
:10035000220483E0C83ED80750F0CE0168EE73E077
:100360000E94A211EC01CB01C0960E942204C43667
:10037000D10550F0CE0164E670E00E94A211EC01BC
:10038000CB01C0960E942204CA30D10550F0CE01A4
:100390006AE070E00E94A211EC01CB01C0960E94BD
:1003A0002204CE016AE070E00E94A211C0960E9471
:1003B0002204DF91CF910895CF93DF9300D000D036
:1003C00000D0CDB7DEB7261760F0621740F03717C0
:1003D00040F0731720F0481720F0841720F48FEFB7
:1003E00003C081E001C080E026960FB6F894DEBF1E
:1003F0000FBECDBFDF91CF9108951F93CF93DF93B1
:10040000C091DA09D0E021C0CE018052964F90937E
:10041000F8088093F70805960E94B100182FE09124
:10042000F708F091F80860817181828120910E199E
:1004300030910F19409110190E94DC0187FF0BC009
:10044000812F90E00696C80FD91F8091DC0990E0BB
:10045000C817D907C8F28091DC0990E0C817D907FE
:1004600048F08091DA0990E08052964F9093F80816
:100470008093F708DF91CF911F9108951F920F92FB
:100480000FB60F920BB60F9211242F933F934F93F9
:100490005F936F937F938F939F93AF93BF93CF930C
:1004A000DF93EF93FF93809110198F5F8093101962
:1004B0008C33A1F41092101980910F198F5F8093E3
:1004C0000F198C3359F410920F1980910E198F5F08
:1004D00080930E19883111F410920E19809106093B
:1004E000882331F536C0CE0103960E94C900C09121
:1004F000F708D091F808CE0105960E94B100269623
:10050000C80FD11DD093F808C093F7088091DC097B
:1005100090E08052964FC817D90750F08091DA09C1
:1005200090E08052964F9093F8088093F70811C09E
:10053000C091F708D091F808688179818A8120916B
:100540000E1930910F19409110190E94DC01882377
:1005500051F2FF91EF91DF91CF91BF91AF919F91B8
:100560008F917F916F915F914F913F912F910F905C
:100570000BBE0F900FBE0F901F90189514BE88E110
:100580000FB6F89480936000109260000FBE7894CC
:100590000E945D03089590E00E94720308950F93F6
:1005A0001F932FE0660F771F881F991F2A95D1F799
:1005B00020E030EA4FE050E00E94B61189019A0134
:1005C000011511052105310509F465C0BB27A32FCD
:1005D000922F812F109270002091B60020622093FC
:1005E000B6001092B0001092B1001092B2002091AB
:1005F000B60030E02F71307021153105C1F727E0CA
:1006000027BB2093B1005FEF47E001C000E01092EC
:10061000B602009719F05093B30020C0002319F0E0
:100620000093B3001BC08091B60090E08F71907072
:100630000097C9F7109270001092B10083B58260E4
:1006400083BD8091B60090E08F7190700097C9F7DC
:100650008091B6008F7D8093B6001DC02091700000
:100660002260209370002091B60030E02F7130702E
:1006700021153105C1F743BF889513BE3FB7F894E4
:100680002091B6023FBF222309F4C1CF009709F49D
:10069000BDCF0197BCCF1F910F9108951F920F926C
:1006A0000FB60F9211248F9381E08093B6028F9141
:1006B0000F900FBE0F901F9018951092F90880E1CF
:1006C00097E29093A9008093A800E1EAF0E088E027
:1006D0008083808182608083E2E7F0E080818260B5
:1006E000808308952091A4003091A500280F391F20
:1006F0003093AB002093AA002091AA003091AB0068
:100700008091A8009091A9008217930770F48091BE
:10071000AA009091AB002091A8003091A900821B03
:10072000930B9093AB008093AA001092B702809134
:1007300072008460809372008091B7028823E1F395
:10074000809172008B7F8093720008951F920F92A8
:100750000FB60F9211248F938091F9088F5F8093C9
:10076000F9088F910F900FBE0F901F9018951F9250
:100770000F920FB60F9211248F9381E08093B702EE
:100780008F910F900FBE0F901F9018950F931F938E
:100790009B01AC01E4E0220F331F441F551FEA9573
:1007A000D1F760E074E284EF90E00E94B611890115
:1007B0009A010150104020403040BB27A32F922FB8
:1007C000812F8093C5000093C40082E08093C00015
:1007D00088E98093C10086E08093C2008EEC92E0AD
:1007E0009093CD028093CC0220E830E03093C90290
:1007F0002093C8021092CB021092CA02E4ECF2E0FD
:10080000118210821382128282EC92E04FE453E054
:100810005093C3024093C202FC013497318320837A
:10082000FC01329711821082FC01389711821082EC
:100830001382128281E08093B9021092B8021F9154
:100840000F9108956091CA027091CB024091C80245
:100850005091C90264177507F1F02091C6023091DA
:10086000C702E091CC02F091CD02E20FF31F80832A
:100870002F5F3F4F3093C7022093C60224173507DE
:1008800021F41092C7021092C6026F5F7F4F7093DF
:10089000CB026093CA020895CF92DF92FF920F932A
:1008A0001F93CF93DF930F92CDB7DEB7F82E082FAB
:1008B000192FCC24DD240AC0F80181918F0199837E
:1008C0000E9422040894C11CD11C9981AF2DB92F1C
:1008D000FD0101900020E9F73197EA1BFB0BCE16D2
:1008E000DF0650F30F90DF91CF911F910F91FF9092
:1008F000DF90CF9008959FB7F894E091C202F091F5
:10090000C3022091BA023091BB02E20FF31F808133
:100910002F5F3F4F3093BB022093BA024091BA023F
:100920005091BB022091BE023091BF024217530783
:1009300021F41092BB021092BA022091C0023091B1
:10094000C102215030403093C1022093C0029FBFAA
:1009500008951F920F920FB60F920BB60F921124AB
:100960008F93EF93FF9381E08093B902E1ECF0E085
:1009700080818F7D8083FF91EF918F910F900BBECF
:100980000F900FBE0F901F9018951F920F920FB6E9
:100990000F920BB60F9211242F933F934F938F9387
:1009A0009F93EF93FF938091C0004091C6008C719C
:1009B000B1F52091C0023091C1028091BE029091A8
:1009C000BF022817390759F1E091C202F091C30222
:1009D0008091BC029091BD02E80FF91F40830196FF
:1009E0009093BD028093BC022091BC023091BD0265
:1009F0008091BE029091BF022817390721F410920E
:100A0000BD021092BC028091C0029091C102019679
:100A10009093C1028093C00281E08093B802FF915D
:100A2000EF919F918F914F913F912F910F900BBE1E
:100A30000F900FBE0F901F9018958091CA02909151
:100A4000CB02009789F12091B902222369F120910C
:100A5000C4023091C502E091CC02F091CD02E20FC8
:100A6000F31F60812F5F3F4F3093C5022093C40274
:100A70004091C8025091C9022417350721F4109201
:100A8000C5021092C40201979093CB028093CA02D0
:100A90009FB7F8946093C6008091C10080628093F4
:100AA000C1001092B9029FBF3FB7F8942091B802DD
:100AB0001092B8028091C0029091C1023FBF2223E0
:100AC00011F00E94C50F08951092FE081092FF08C1
:100AD000EAEFF8E0118210821782168211861086E2
:100AE000138612860E94D30A0E946B080E94860613
:100AF0000E94D5050E94100708959093FB088093EB
:100B0000FA080E94B80C08959093FD088093FC08A1
:100B10000E94AE0C0895E82FF0E0EE0FFF1FE050AA
:100B2000F74F7183608308950E94C008882359F4A9
:100B30000E94970B882339F40E94EF05882331F433
:100B40000E94C20C089581E090E0089581E090E059
:100B500008950E94D20C08950E94DE0C08950E9410
:100B6000C7080E94BA0B0E94F9050895E091D003CE
:100B7000F091D10315C0228133812817390769F418
:100B8000DC01A158BF4F2C912787DC01AE57BF4F26
:100B90002C91208B22E0248305C00190F081E02D70
:100BA000309749F70E94B30608951092D10310922E
:100BB000D0030895FC01148217861382128280915B
:100BC000D0039091D103009719F41182108202C0D2
:100BD00091838083F093D103E093D003089581E063
:100BE0002091D0033091D1032115310509F480E023
:100BF00008950F931F93CF93DF93E091D003F0916B
:100C0000D103EF017BC08C81882321F0823009F071
:100C100072C058C08C850E948D068C01009721F40B
:100C200082E08C838F876DC09B838A8381E08C8375
:100C3000F801ED57FF4F86EB95E091838083F80133
:100C4000EE57FF4F998581E092FF80E08083998580
:100C50009170F80183858E7F892B8387998581E048
:100C600093FF80E0982F990F990FF8018385837087
:100C7000892B83878091FE088F5F8093FE0884878D
:100C80008091FA089091FB08968785878D819E81D7
:100C9000908B878798859F708189807F892B818B36
:100CA0009F819295907F8F70892B818BC80142968E
:100CB0004C856A857B8550E00E943D12C8010E94E8
:100CC000EE0A1FC0EC17FD0741F4888199819093CB
:100CD000D1038093D0030AC0FC01808191818C17DD
:100CE0009D07D1F78881998191838083ED85FE8569
:100CF000CE01099506C00990D881C02D209709F032
:100D000082CFDF91CF911F910F9108951092D2035E
:100D1000109257041092DC0408959091D203992305
:100D200059F090915704992351F09091DC04992344
:100D3000B9F422E030E005C020E030E002C021E05C
:100D400030E045E850E0249FF001259FF00D349FEE
:100D5000F00D1124EE52FC4F805F8183CF01089586
:100D600080E090E00895FC0110820895482F50E043
:100D700025E830E0429FC001439F900D529F900DA7
:100D800011248E529C4F0895FC01DC01A158BF4FE5
:100D90001C92DC01A058BF4F1D921C92DC01AE5783
:100DA000BF4F1C92DC01AD57BF4F11961C921E9293
:100DB00013868091FE088F5F8093FE088487809160
:100DC000FA089091FB0896878587108A1786118A02
:100DD0000895E1E6F5E020E0408151814817590788
:100DE00059F430E0C901880F991F820F931F880FB3
:100DF000991F8F599A4F08952F5F3696243661F7C1
:100E00002FEF8F3F920719F483EB97E0089580E06E
:100E100090E008950E94B30608950E94B3060895D5
:100E2000E1E6F5E024E68FEF9FEF91838083215088
:100E300036962223D1F708950E94E906009729F0FB
:100E40002FEF3FEFFC01318320830895EF92FF9253
:100E50000F931F93CF93DF93EC0109851A8517FF3A
:100E600005C08D859E850817190751F58D819E81D6
:100E70002FEF8F3F920721F1ED84FE84C7010E947E
:100E8000E906FC01009769F0828193818017910740
:100E900099F0DE01A158BF4F9C918581891760F4BC
:100EA00007C08FEF9FEF0E94E906FC01F182E0820C
:100EB0001383028383E08483C158DF4F8881858355
:100EC000DF91CF911F910F91FF90EF9008950F93B5
:100ED0001F93CF93DF9300D000D000D0CDB7DEB703
:100EE0008C01DC011F968D919C9150970E94E90620
:100EF000FC010097D1F1D801A158BF4F8C918823F4
:100F000019F483E084830AC0848181508483882318
:100F100029F48FEF9FEF9183808327C0CF01815603
:100F20009540863091050CF1CE010196AF014650F7
:100F3000504026E0DA010D90AD01DC010D92CD01AB
:100F40002150C1F7CF010697AF0126E0DA010D90DD
:100F5000AD01DC010D92CD012150C1F7DE011196EA
:100F600086E00D9001928150E1F726960FB6F89435
:100F7000DEBF0FBECDBFDF91CF911F910F910895BE
:100F80002FEF8F3F9207F1F0E1E6F5E040E050E00F
:100F9000208131812817390761F4FA01EE0FFF1F14
:100FA000E40FF51FEE0FFF1FEF59FA4F8281938177
:100FB00008954F5F5F4F36964436510549F78FEFDE
:100FC0009FEF08958FEF9FEF0895CF92DF92EF92FA
:100FD000FF920F931F93CF93DF938C01FC01C78483
:100FE000D088C6010E94C007FFEF8F3F9F0781F0A6
:100FF000F801ED57FF4F8DE097E091838083F80172
:10100000EE57FF4F82E08083C8010E94EE0A20C0A5
:10101000F801E584F68485E00E948D06EC010097D6
:10102000A1F00E94C406FE01ED57FF4F8AE097E051
:1010300091838083F88AEF8681E08A8BFC8AEB8A31
:10104000DE8ACD8ACE010E94EE0AC8010E94B30654
:10105000DF91CF911F910F91FF90EF90DF90CF9094
:101060000895DC011596ED91FC911697838194818A
:101070000E941C0708950E94C00708950E94B306AD
:101080000895EDEBF7E04AE050E020813181211531
:10109000310529F0215030403183208351E0415007
:1010A0003596442391F7552311F00E94B10E08950F
:1010B000DC011596ED91FC9116972081222319F4FD
:1010C0000E94730B04C0213021F40E94310881E09A
:1010D000089580E00895EDEBF7E08AE01182108238
:1010E000815035968823D1F71092EC0784E190E087
:1010F000A0E0B0E08093F3079093F407A093F50786
:10110000B093F6071092F70781E498E09093F907FF
:101110008093F80780E068E578E00E948B050895E9
:10112000CF93DF93EC01E881F9818181883829F53B
:101130008081813611F0813401F58A818031E8F0B7
:1011400080510E948D060097C1F020E2FC012083AF
:101150002B81E158FF4F20832C81FC01E058FF4F89
:10116000208302964A816881798150E00E943D1275
:101170008091EC078F5F8093EC07DF91CF9108950A
:1011800081E09091EC07992309F480E008958F9213
:101190009F92AF92BF92CF92DF92EF92FF920F9306
:1011A0001F93CF93DF93CDB7DEB72A970FB6F8948E
:1011B000DEBF0FBECDBF8091EC07882309F4ADC11F
:1011C000DD2444E2C42E5EE3852E58E0952E62E2D3
:1011D000B62E73E2A72E8D2D0E94B6067C01DC018F
:1011E0008C91823209F4D9C0833220F4803209F024
:1011F0008FC107C0833209F47FC1843209F088C1EE
:101200007FC1F701C08287859089FFEF8F3F9F07DD
:1012100031F4D7011B968C911B9780FD79C12091E9
:10122000FA083091FB08F70185859685281739075C
:1012300009F46EC1838581FD6BC1C7010E94260739
:10124000EAEBF7E040E050E06FEF238134812115B5
:10125000310581F1D7011D968D919C911E972081BA
:1012600031818217930739F51C968C91FA01EE0FA4
:10127000FF1FEE0FFF1FE40FF51FE654F84F92819A
:10128000B82FB91B1B1634F4828387E990E094834E
:10129000838339C02091FA083091FB08F7018781D8
:1012A00090852817390709F033C1878590890E94F6
:1012B0001C072EC1642F4F5F5F4F35964A30510592
:1012C00021F66F3F09F424C1862F992787FD909559
:1012D000FC01EE0FFF1FEE0FFF1FE80FF91FE65492
:1012E000F84FD7011D968D919C911E979183808315
:1012F0001C968C91828387E990E0948383838DEEA2
:1013000097E00E94B10EF70187819085FFEF8F3F34
:101310009F07D9F42091FA083091FB08D7011F9656
:101320008D919C9150972817390779F015968D91DA
:101330009C911697BFEF8F3F9B0739F0F70183858C
:1013400082FD03C0C7010E942B0B8091FA08909187
:10135000FB08D7011F962D913C9150978217930758
:1013600021F0BFEF2F3F3B0719F4F701B082D0C047
:10137000D70117962D913C9118978217930709F082
:10138000C7C015968D919C911697BFEF8F3F9B0715
:1013900009F4BEC0F701A082BBC01092B907D70103
:1013A00051968C91519782958F70E82FF0E0E43040
:1013B000F1050CF05EC0EE0FFF1FE050F74F4081CB
:1013C00051814115510509F454C01D962D913C9150
:1013D0001E973A83298351969C9151979F709B83C6
:1013E0008C83C70142969F838E8311968C911197AF
:1013F00080518887F701E158FF4F80818987F70185
:10140000E058FF4F80818A87F7017385672F6370EB
:1014100072FF02C080E201C080E0762F782BD701F6
:101420001F968D919C915097BFEF8F3F9B0711F4B2
:1014300064E001C060E0672BF70181859285281781
:10144000390711F498E001C090E0692BD701159697
:101450008D919C911697BFEF8F3F9B0711F480E110
:1014600001C080E0862B8D83CE010196FA0109959B
:1014700001C080E0F70127813085FFEF2F3F3F0754
:1014800071F461E070E02091FA083091FB08D70117
:101490001F964D915C9150972417350711F060E02D
:1014A00070E0F701938590FF02C0882319F461155D
:1014B0007105F9F083E00E948D068C010097C9F058
:1014C0000E94C406F801ED57FF4F91828082D70138
:1014D0001D968D919C911E97F801908B8787128A9B
:1014E0008091B907848B1C968C91838BC8010E94D4
:1014F000EE0AD701CC920CC0C7010E94E50703C0D9
:10150000C7010E94B3068091EC0781508093EC07DD
:10151000D394B3E0DB1609F05ECE2A960FB6F894AA
:10152000DEBF0FBECDBFDF91CF911F910F91FF9016
:10153000EF90DF90CF90BF90AF909F908F900895E5
:101540000E94B3060895EF92FF921F93CF93DF930B
:101550007C018091FC07882301F1C0E0D5E110E116
:101560008C2F0E94B606DC018C91843181F4FD0140
:10157000E058FF4F2081318121503040318320835A
:101580002115310521F4DC93A158BF4F1C93CF5F87
:10159000C33031F7C7010E94B10EDF91CF911F9187
:1015A000FF90EF9008951092FB071092FA071092A7
:1015B000FC0782E390E0A0E0B0E080930308909302
:1015C0000408A0930508B09306081092070883EA60
:1015D0009AE090930908809308080895CF93DF93C9
:1015E000EC01FC01EE57FF4F808191E19883FE01F1
:1015F000E158FF4F108280FF03C08FEF9FEF04C0C0
:101600008091FC089091FD089E838D838F85988939
:101610000E94C00798878F832091FA083091FB08B9
:101620003A8729872091FF082F5F2093FF082C839A
:101630002FEF8F3F920719F481E498E802C081E60A
:1016400098E89B838A838091FC078F5F8093FC07D7
:10165000DF91CF9108950F931F93CF93DF938C0168
:10166000FC01818180510E948D06EC010097B1F14F
:10167000FC01ED57FF4F80EA9AE091838083CE0111
:101680000296F8014181B8016E5F7F4F50E00E94E1
:101690003D1281E18883FE01E158FF4F108281E411
:1016A00098E89B838A838FEF9FEF98878F83809141
:1016B000FC089091FD089E838D838091FA0890919B
:1016C000FB089A8789878091FF088F5F8093FF08C6
:1016D0008C838091FC078F5F8093FC07DF91CF9113
:1016E0001F910F9108951F93CF93DF93FC01C58144
:1016F000D6818091FC078823B1F010E0812F0E94F1
:10170000B606FC018081843159F49485898198174B
:1017100039F485E180838A81EE57FF4F808303C0CF
:101720001F5F133059F7DF91CF911F91089581E02A
:101730009091FC07992309F480E00895E091FA075D
:10174000F091FB07833030F0833031F0853031F495
:1017500081E205C080E003C080E201C081E0DF01DA
:10176000A158BF4F8C9383E180831092FB071092A6
:10177000FA070895CF92DF92EF92FF920F931F9393
:10178000CF93DF938091FC07882309F455C010E0C4
:1017900005E184E1F82E95E1C92ED12C22E1E22E5B
:1017A000812F0E94B606EC018881833199F0853142
:1017B00079F18131E9F50E94C20C8823C9F5D093F3
:1017C000FB07C093FA07E882CE01029669810E9466
:1017D000E90C2EC0FE01E158FF4F80818823B1F44F
:1017E0002D853E858091FA089091FB0828173907CE
:1017F00069F48B8580FF0AC0F882C058DF4FD98218
:10180000C8828DEF97E00E94B10E12C0088310C00D
:10181000CE010E946707FE01ED57FF4F0190F08156
:10182000E02DCE0109958091FC0781508093FC0743
:101830001F5F133009F0B4CFDF91CF911F910F914B
:10184000FF90EF90DF90CF90089593E09093420146
:1018500080934201909141019F718917D9F70895B2
:1018600080911408882311F086E101C088E00E946D
:10187000250C08950F931F93CF93DF9310924E0181
:1018800086E00E94250CC0E0D0E000E010E081E09E
:101890000E94CB028091460182958695837090E0EC
:1018A0000C2E02C0880F991F0A94E2F7082B192BFF
:1018B0002296C031D10559F788E00E94250C8FEFA0
:1018C00080934F0180914E01886080934E018091FA
:1018D0004E01806480934E01C801DF91CF911F912A
:1018E0000F910895E9E3F1E080818160808388E0D1
:1018F0000E94250CEEE6F1E0808180628083808189
:101900008F7E80838FEF80934F01EEE4F1E0808142
:1019100088608083808180648083ECE4F1E0808152
:10192000806880830E943A0C80936D0110920E08AB
:101930001092140881E080930D08089590910E088C
:10194000986090930E0880931408089590910E0863
:10195000916090930E0880930F08089520910E08CF
:10196000226020930E089093110880931008089528
:1019700020910E08246020930E0890931308809302
:101980001208089580910D08813049F481E090E0BB
:1019900020910E08222329F480E090E0089581E050
:1019A00090E0089588E00E94250CE9E3F1E0808151
:1019B0008260808382E080930D080895E9E3F1E07E
:1019C00080818D7F80830E94300C81E080930D08A0
:1019D00008951F93CF93DF9300D0CDB7DEB7182FB4
:1019E00089E169839A830E94250C6981862F8E5F25
:1019F00080938001E12F9A81F92FA1E8B1E002C024
:101A000081918D938E2F811B8617D0F382E0809376
:101A1000420183E080930D080F900F90DF91CF91EA
:101A20001F91089580910E08806180930E0808959B
:101A30001F920F920FB60F920BB60F9211242F9395
:101A40003F934F935F936F937F938F939F93AF9346
:101A5000BF93EF93FF93809141018F71893169F4B6
:101A600089E00E94250C84E080930D08809142015A
:101A700082958695877080930C08FF91EF91BF91B6
:101A8000AF919F918F917F916F915F914F913F9116
:101A90002F910F900BBE0F900FBE0F901F901895B7
:101AA0001F920F920FB60F9211248F9389E08093AB
:101AB00042018091470180930B0880917B018093C4
:101AC0000A0885E080930D088F910F900FBE0F904C
:101AD0001F9018951F93CF93DF9300D000D00F92E3
:101AE000CDB7DEB780910D088430F1F1853009F46F
:101AF0004FC0813009F076C010910E08112309F40F
:101B000071C088E00E94250C10FF09C090910F0859
:101B10009F7180914801807E892B8093480180913C
:101B20000E0881FF08C080911008809362018091A7
:101B300011088093630180910E0882FF08C0809194
:101B40001208809360018091130880936101809155
:101B50000E0884FF04C00E943A0C0E94DC0F0E9411
:101B6000300C10920E083EC080910C080E949E0B13
:101B7000809141018F718930D9F72FC0FC01E05865
:101B8000FE4F20818B5E974FFC0120834F5F01C089
:101B900040E020910A08842F90E030E028173907B0
:101BA0006CF785E198E09A83898380910A088250D6
:101BB0008B83E0910A08F0E0EB5EF74F80818C8325
:101BC00080910B088A558D83CE0101960E94900862
:101BD000809141018F718930D9F781E080930D08A0
:101BE0000E94300C0F900F900F900F900F90DF918C
:101BF000CF911F9108950E94BE020E94620E0E9422
:101C0000720C0E94640508950E946A0D0E94AF053F
:101C10000E94BE0E08950F931F93CF93DF93FC0194
:101C200000919508109196083681278190858185CD
:101C300001151105C1F1432F522F692F782FE801AB
:101C400020E030E001C0EC018A819B81AC81BD8144
:101C5000481759076A077B0748F4841B950BA60BA6
:101C6000B70B8A839B83AC83BD8309C0481B590B88
:101C70006A0B7B0B888199819E01009721F7428333
:101C80005383648375832115310551F0D9018D91FA
:101C90009C911197918380831196FC93EE930DC0D4
:101CA0001183008306C011821082328323839483C0
:101CB0008583F0939608E0939508DF91CF911F916B
:101CC0000F91089510929608109295080895CF9359
:101CD000DF93EC01E0919508F0919608A0E0B0E068
:101CE0002AC0EC17FD0711F580819181109721F032
:101CF00011969C938E9304C09093960880939508B8
:101D00000190F081E02D3097C1F082819381A48110
:101D1000B5814A815B816C817D81840F951FA61FEF
:101D2000B71F82839383A483B58307C09081818189
:101D3000DF01E92FF82F3097A1F6DF91CF910895B9
:101D4000E0919508F091960806C0E817F90739F078
:101D50000190F081E02D3097C1F780E0089581E097
:101D60000895CF93DF93EC010E94A00E882319F40D
:101D7000CE010E940B0EDF91CF910895CF92DF929A
:101D8000EF92FF92CF93DF938091F908882309F4B3
:101D90003EC08FB7F8946091F9081092F9088FBF90
:101DA00070E080E090E02AE030E040E050E00E9407
:101DB00083116B017C0114C0C81AD90AEA0AFB0A14
:101DC0008881998190939608809395088A858130BF
:101DD00019F4CE010E940B0EEB85FC85CE0109950E
:101DE000C0919508D0919608209789F08A819B81AF
:101DF000AC81BD81C816D906EA06FB06E8F68C1947
:101E00009D09AE09BF098A839B83AC83BD83DF91A3
:101E1000CF91FF90EF90DF90CF90089585B190E142
:101E2000892785B9089580919708843021F481E04D
:101E300080939708089588E998E00E94B10E08956C
:101E4000DF92EF92FF920F931F93CF93DF93FC01EA
:101E5000A581B68185B190E1892785B9808559969C
:101E60008C93599781855A968C93E580C681D7804B
:101E700080E10E94220482E00E9422040E2D1C2F89
:101E8000FF240FC0E8018881803121F40E942204E0
:101E900080E1F80EF80181918F010E94220488816F
:101EA000F80E802F8E198D1568F380E10E942204B0
:101EB00083E00E9422048F2D8B5D0E94220481E02A
:101EC000DF91CF911F910F91FF90EF90DF900895D8
:101ED000CF93DF93EC012C988F858230A1F0833073
:101EE00028F4882351F08130D1F40AC0803289F07F
:101EF000813291F0803199F409C08DE192E011C0F6
:101F00008BE292E00EC087E392E00BC08BE492E09C
:101F100008C088E592E005C085E792E002C089E844
:101F200092E00E944C048F852091D608882359F4B2
:101F3000222329F52C9A87ED98E00E94670E81E014
:101F40008093D6081CC08091CA089091CB08A091BC
:101F5000CC08B091CD080196A11DB11D8093CA088F
:101F60009093CB08A093CC08B093CD08222339F0EE
:101F70002C9887ED98E00E94B10E1092D60883E06D
:101F800080939708DF91CF9108950F931F93CF937C
:101F9000DF938C01C0E0D0E003C00E947B04219657
:101FA000C017D107D1F785B190E1892785B9DF91B5
:101FB000CF911F910F9108950E94321208950E94AF
:101FC000FB0D60E076E980E090E00E94C6030E948D
:101FD00066018BE080930E1980930F1910921019EF
:101FE0000E944D018EE099E10E948A0107EA18E003
:101FF00083E1E82E8FE0F82E9EE0C92E9FE0D92ED7
:102000002EEFA22E2FEFB22EA00EB11E38E6832E99
:102010003FE0932E0E94040E0E941D05C091970878
:10202000C33009F448C1C43028F4CC2361F0C13076
:1020300089F7BDC0C63009F44DC1C73009F457C196
:10204000C53041F73EC121E02093A5082093A608A2
:1020500082E08093A70880E4F801818312821382D2
:10206000148215821682178282E090E49093B00861
:102070008093AF0880E091E0A1E0B1E08093B108E7
:102080009093B208A093B308B093B40880E090E8AE
:10209000A0E0B0E08093B5089093B608A093B7088D
:1020A000B093B80884E392E19093BA088093B9089A
:1020B0008FE08093BB081092BD081092BC0810926C
:1020C000BE081092BF082093C0088CE08093C1081E
:1020D0001092C2081092C3081092C4081092C5084A
:1020E0001092C6081092C7081092C8081092C9082A
:1020F0001092CA081092CB081092CC081092CD080A
:1021000080E28093CE0886E08093CF08E0EDF8E08F
:10211000A7E9B2E00D9001928150E1F7249A2C9A40
:1021200082E090E40E947D0584E392E10E948405B0
:102130008FE00E94A60C81E00E949E0C81E060E28C
:102140007FE00E948B0580ED97E0A0E0B0E08093F7
:102150009E0890939F08A093A008B093A1081092A6
:10216000A208F092A408E092A3081092D60884EF87
:1021700091E0A0E0B0E08093DD089093DE08A093AA
:10218000DF08B093E008C1E0C093E108D092E30813
:10219000C092E20887ED98E00E94B10E8EE992E0CD
:1021A0000E944C040E94120DC093970833CF80E028
:1021B00090E00E943B089093BD088093BC080E9469
:1021C0002D12AA2797FDA095BA2F8093C20890934D
:1021D000C308A093C408B093C5080E942D12AA2773
:1021E00097FDA095BA2F8F779070A070B0708093F4
:1021F000C6089093C708A093C808B093C908109266
:10220000EA081092E908C093EB08C093EC0883E059
:102210008093ED08B092EF08A092EE0881E38093DE
:10222000F0089092F2088092F1082C9A84EE98E0DF
:102230000E94DA0580910E1990E00E9498018AE3CD
:102240000E94220480910F1990E00E9498018AE375
:102250000E9422048091101990E00E94980187EA60
:1022600092E00E944C0481E00E941A0184E00E94E6
:102270001D0190930809809307098AEA92E00E9461
:102280004C04809107099091080969E079E04AE0DF
:1022900050E00E94461289E099E00E944C048AEBCB
:1022A0000E94220483E40E94220487EA92E00E94B2
:1022B0004C0482E025C088E998E00E94B10E84E0D9
:1022C0001FC00E949405882309F0A4CE0E94A9058E
:1022D00086E016C024982C9880E00E949E0C60ED49
:1022E00077E080E090E00E94CF0287E009C00E9482
:1022F000AC05249A2C9A2C9A81E00E949E0C81E0D5
:102300008093970887CE629FD001739FF001829FD0
:10231000E00DF11D649FE00DF11D929FF00D839F74
:10232000F00D749FF00D659FF00D9927729FB00D11
:10233000E11DF91F639FB00DE11DF91FBD01CF0124
:1023400011240895AA1BBB1B51E107C0AA1FBB1F84
:10235000A617B70710F0A61BB70B881F991F5A9531
:10236000A9F780959095BC01CD010895A1E21A2EA0
:10237000AA1BBB1BFD010DC0AA1FBB1FEE1FFF1F29
:10238000A217B307E407F50720F0A21BB30BE40B79
:10239000F50B661F771F881F991F1A9469F76095C0
:1023A0007095809590959B01AC01BD01CF0108957A
:1023B0008F929F92AF92BF92CF92DF92EF92FF9255
:1023C000CF93DF93EC0188819981AA81BB8100972B
:1023D000A105B10521F484E299EDABE5B7E0BC01BC
:1023E000CD012DE133EF41E050E00E948712490119
:1023F0005A0127EA31E440E050E00E9483116B016A
:102400007C01C501B4012CEE34EF4FEF5FEF0E9469
:102410008311DC01CB01C80ED91EEA1EFB1EF7FE9C
:1024200008C08FEF9FEFAFEFBFE7C80ED91EEA1EBF
:10243000FB1EC882D982EA82FB82C6019F77DF91A8
:10244000CF91FF90EF90DF90CF90BF90AF909F9093
:102450008F9008950E94D811089581EB92E00E9418
:10246000D8110895A0E0B0E08093B1029093B20239
:10247000A093B302B093B4020895FB01DC0102C043
:1024800001900D9241505040D8F70895FB019F01F3
:10249000E8944230C4F04532B4F44A3029F497FB52
:1024A0001EF4909581959F4F642F77270E94A2116B
:1024B000805D8A330CF0895D8193CB010097A1F791
:1024C00016F45DE251931082C9010C947712DC017D
:1024D000CB01FC01F999FECF06C0F2BDE1BDF89A2F
:1024E000319600B40D9241505040B8F70895DC0188
:1024F000FC01672F71917723E1F7329704C07C913B
:102500006D9370836291AE17BF07C8F3089597FB70
:10251000092E05260ED057FD04D028DF0AD0001C56
:1025200038F450954095309521953F4F4F4F5F4F70
:102530000895F6F790958095709561957F4F8F4F30
:082540009F4F0895F894FFCFAE
:1025480052462053656E64204576656E7420526548
:1025580071756573743A200009000D0A004E574BD7
:102568005F535543434553530D0A004E574B5F4540
:1025780052524F520D0A004E574B5F4F55545F4F02
:10258800465F4D454D4F52590D0A004E574B5F4E11
:102598004F5F41434B0D0A005048595F4348414E35
:1025A8004E454C5F4143434553535F4641494C5563
:1025B80052450D0A005048595F4E4F5F41434B5FEB
:1025C8005354415455530D0A004E4F54205350450F
:1025D800435445440D0A00526F7574657200524F9A
:1025E800555445520D0A000D0A0054454D503A20E5
:0625F800000100000001DB
:00000001FF
