:100000000C9490000C94AF000C94AF000C94AF00D3
:100010000C94AF000C94AF000C94AF000C94AF00A4
:100020000C94AF000C94AF000C94AF000C94AF0094
:100030000C94AF000C94AD020C94AF000C94A7018B
:100040000C94AF000C94AF000C94AF000C94AF0074
:100050000C94AF000C94AF000C94AF000C94AF0064
:100060000C94AF000C9424040C9408040C94AF007E
:100070000C94AF000C94AF000C94AF000C94AF0044
:100080000C94AF000C94AF000C94AF000C94AF0034
:100090000C94AF000C94AF000C94AF000C94AF0024
:1000A0000C94AF000C94AF000C9405030C94160351
:1000B0000C94AF000C94AF000C94AF000C94AF0004
:1000C0000C94AF000C94AF000C94AF000C94AF00F4
:1000D0000C94AF000C94AF000C94AF000C94AF00E4
:1000E0000C94AF000C94AF000C94AF000C94AF00D4
:1000F0000C94AF0C0C94AF000C94AF000C94770CE4
:100100000C94AF000C94AF000C94AF000C94AF00B3
:100110000C94AF000C94AF000C94AF000C94AF00A3
:1001200011241FBECFEFD1E4DEBFCDBF12E0A0E0AF
:10013000B2E0ECEFF3E200E00BBF02C007900D92DB
:10014000AC3AB107D9F719E1ACEAB2E001C01D92AF
:10015000A530B107E1F70E943E0F0C94FC110C94FE
:100160000000DC01EC91E150E33028F4F0E0E855C8
:10017000FD4F808108958FEF0895CF93DF93EC01B9
:1001800080E092E00E94AB03898190E00E948103AD
:10019000888199810E9481038A8190E00E94810375
:1001A00088E192E00E94AB03DF91CF9108958093A4
:1001B000A70208959091A702883040F49295990F74
:1001C000990F907C982B90937C0008C0892F829582
:1001D000880F880F807C896280937C0080917A00F0
:1001E000806880937A0084E190E00E942A028091E6
:1001F0007A00876480937A0080917A0086FDFCCF34
:100200008091780090917900392F20E090E0822B46
:10021000932B0895CF93DF93C2E0D9E0CE0160E045
:1002200070E04CE050E00E94C111CE0160E070E04F
:100230004CEC50E00E94C111DF91CF910895809164
:1002400070008A7F809370008091B6008F738093D6
:10025000B6008091B60080628093B6001092B20022
:1002600085E08093B1008091B60090E08770907037
:100270000097C9F780917000816080937000789436
:100280001092FA080895CF93DF93EC0187E2C03112
:10029000D80750F0CE0160E177E20E94FC10CB015C
:1002A000C0960E94810304C083E0C83ED80750F086
:1002B000CE0168EE73E00E94FC10CB01C0960E9454
:1002C000810303C0C436D10550F0CE0164E670E06E
:1002D0000E94FC10CB01C0960E94810303C0CA306B
:1002E000D10548F0CE016AE070E00E94FC10CB011D
:1002F000C0960E948103CE016AE070E00E94FC106B
:10030000C0960E948103DF91CF910895CF93DF9330
:1003100000D000D000D0CDB7DEB7261760F062174E
:1003200040F0371740F0731720F0481720F084177B
:1003300020F48FEF03C081E001C080E026960FB665
:10034000F894DEBF0FBECDBFDF91CF9108951F920D
:100350000F920FB60F920BB60F9211242F933F936B
:100360004F935F936F937F938F939F93AF93BF93BD
:10037000CF93DF93EF93FF93809104198F5F809366
:1003800004198C33A1F410920419809103198F5F22
:10039000809303198C3359F4109203198091021938
:1003A0008F5F80930219883111F4109202198091A5
:1003B000FA088823E1F42CC0CE010E94BD00C09150
:1003C000EB08D091EC08CE0105960E94B10090E0B8
:1003D0009C01220F331F280F391F220F331F2C5D62
:1003E0003F4F2C0F3D1F3093EC082093EB08C0913A
:1003F000EB08D091EC08688179818A8120910219FB
:1004000030910319409104190E9486018823A1F2BA
:10041000FF91EF91DF91CF91BF91AF919F918F911C
:100420007F916F915F914F913F912F910F900BBEF4
:100430000F900FBE0F901F90189514BE88E10FB655
:10044000F89480936000109260000FBE78940E9430
:10045000BC02089590E00E94D10208950F931F936B
:100460002FE0660F771F881F991F2A95D1F720E08C
:1004700030EA4FE050E00E94101189019A01011505
:1004800011052105310509F465C0BB27A32F922F63
:10049000812F109270002091B60020622093B60048
:1004A0001092B0001092B1001092B2002091B600EC
:1004B00030E02F71307021153105C1F727E027BBDF
:1004C0002093B1005FEF47E001C000E01092AC0262
:1004D000009719F05093B30020C0002319F0009347
:1004E000B3001BC08091B60090E08F7190700097B0
:1004F000C9F7109270001092B10083B5826083BD7D
:100500008091B60090E08F7190700097C9F780914C
:10051000B6008F7D8093B6001DC0209170002260D0
:10052000209370002091B60030E02F7130702115BB
:100530003105C1F743BF889513BE3FB7F8942091AA
:10054000AC023FBF222309F4C1CF009709F4BDCF0D
:100550000197BCCF1F910F9108951F920F920FB674
:100560000F9211248F9381E08093AC028F910F90B2
:100570000FBE0F901F9018951092ED0880E197E242
:100580009093A9008093A800E1EAF0E088E08083DE
:10059000808182608083E2E7F0E0808182608083F6
:1005A00008952091A4003091A500280F391F3093A1
:1005B000AB002093AA002091AA003091AB0080915B
:1005C000A8009091A9008217930770F48091AA0067
:1005D0009091AB002091A8003091A900821B930B51
:1005E0009093AB008093AA001092AD0280917200AC
:1005F0008460809372008091AD028823E1F3809142
:1006000072008B7F8093720008951F920F920FB635
:100610000F9211248F938091ED088F5F8093ED08E6
:100620008F910F900FBE0F901F9018951F920F92F1
:100630000FB60F9211248F9381E08093AD028F91BA
:100640000F900FBE0F901F9018950F931F939B0153
:10065000AC01E4E0220F331F441F551FEA95D1F788
:1006600060E074E284EF90E00E94101189019A0129
:100670000150104020403040BB27A32F922F812FE4
:100680008093C5000093C40082E08093C00088E995
:100690008093C10086E08093C20084EC92E0909346
:1006A000C3028093C20220E830E03093BF0220935F
:1006B000BE021092C1021092C002EAEBF2E0118277
:1006C00010821382128288EB92E045E453E050934B
:1006D000B9024093B802FC01349731832083FC01B6
:1006E000329711821082FC01389711821082138296
:1006F000128281E08093AF021092AE021F910F919F
:1007000008956091C0027091C1024091BE02509163
:10071000BF0264177507F1F02091BC023091BD0251
:10072000E091C202F091C302E20FF31F80832F5FBA
:100730003F4F3093BD022093BC022417350721F4AC
:100740001092BD021092BC026F5F7F4F7093C10286
:100750006093C0020895CF92DF92FF920F931F9390
:10076000CF93DF930F92CDB7DEB7F82E082F192F56
:10077000CC24DD240AC0F80181918F0199830E9465
:1007800081030894C11CD11C9981AF2DB92FFD01A3
:1007900001900020E9F73197EA1BFB0BCE16DF062C
:1007A00050F30F90DF91CF911F910F91FF90DF9049
:1007B000CF9008959FB7F894E091B802F091B902F4
:1007C0002091B0023091B102E20FF31F80812F5FC0
:1007D0003F4F3093B1022093B0024091B00250914C
:1007E000B1022091B4023091B5024217530721F4AF
:1007F0001092B1021092B0022091B6023091B7026D
:10080000215030403093B7022093B6029FBF089525
:100810001F920F920FB60F920BB60F9211248F9367
:10082000EF93FF9381E08093AF02E1ECF0E08081F1
:100830008F7D8083FF91EF918F910F900BBE0F9072
:100840000FBE0F901F9018951F920F920FB60F9228
:100850000BB60F9211242F933F934F938F939F9337
:10086000EF93FF938091C0004091C6008C71B1F569
:100870002091B6023091B7028091B4029091B502F6
:100880002817390759F1E091B802F091B902809127
:10089000B2029091B302E80FF91F40830196909342
:1008A000B3028093B2022091B2023091B3028091E0
:1008B000B4029091B5022817390721F41092B302BF
:1008C0001092B2028091B6029091B7020196909375
:1008D000B7028093B60281E08093AE02FF91EF9160
:1008E0009F918F914F913F912F910F900BBE0F9041
:1008F0000FBE0F901F9018958091C0029091C10279
:10090000009789F12091AF02222369F12091BA0268
:100910003091BB02E091C202F091C302E20FF31FDB
:1009200060812F5F3F4F3093BB022093BA0240910A
:10093000BE025091BF022417350721F41092BB026A
:100940001092BA0201979093C1028093C0029FB7A0
:10095000F8946093C6008091C10080628093C100CA
:100960001092AF029FBF3FB7F8942091AE02109251
:10097000AE028091B6029091B7023FBF222311F0E0
:100980000E94240F08951092F2081092F308EEEEE0
:10099000F8E0118210821782168211861086138663
:1009A00012860E94320A0E94CA070E94E5050E9430
:1009B00034050E946F0608959093EF088093EE0827
:1009C0000E94170C08959093F1088093F0080E94FC
:1009D0000D0C0895E82FF0E0EE0FFF1FEC50F74FDD
:1009E0007183608308950E941F08882359F40E9430
:1009F000F60A882339F40E944E05882331F40E94B8
:100A0000210C089581E090E0089581E090E0089540
:100A10000E94310C08950E943D0C08950E94260802
:100A20000E94190B0E9458050895E091C603F091A9
:100A3000C70315C0228133812817390769F4DC0107
:100A4000A158BF4F2C912787DC01AE57BF4F2C9187
:100A5000208B22E0248305C00190F081E02D3097A7
:100A600049F70E94120608951092C7031092C60318
:100A70000895FC0114821786138212828091C603A6
:100A80009091C703009719F41182108202C09183DC
:100A90008083F093C703E093C603089581E020911B
:100AA000C6033091C7032115310509F480E008958C
:100AB0000F931F93CF93DF93E091C603F091C70389
:100AC000EF017BC08C81882321F0823009F072C055
:100AD00058C08C850E94EC058C01009721F482E0BF
:100AE0008C838F876DC09B838A8381E08C83F80120
:100AF000ED57FF4F85E195E091838083F801EE5734
:100B0000FF4F998581E092FF80E080839985917005
:100B1000F80183858E7F892B8387998581E093FFF8
:100B200080E0982F990F990FF80183858370892BA6
:100B300083878091F2088F5F8093F2088487809189
:100B4000EE089091EF08968785878D819E81908B26
:100B5000878798859F708189807F892B818B9F8172
:100B60009295907F8F70892B818BC80142964C851E
:100B70006A857B8550E00E949711C8010E944D0A4A
:100B80001FC0EC17FD0741F4888199819093C7033A
:100B90008093C6030AC0FC01808191818C179D0758
:100BA000D1F78881998191838083ED85FE85CE017F
:100BB000099506C00990D881C02D209709F082CFF1
:100BC000DF91CF911F910F9108951092C803109259
:100BD0004D041092D20408959091C803992359F0BE
:100BE00090914D04992351F09091D2049923B9F436
:100BF00022E030E005C020E030E002C021E030E03B
:100C000045E850E0249FF001259FF00D349FF00D42
:100C10001124E853FC4F805F8183CF01089580E069
:100C200090E00895FC0110820895482F50E025E8D7
:100C300030E0429FC001439F900D529F900D1124C0
:100C400088539C4F0895FC01DC01A158BF4F1C92B2
:100C5000DC01A058BF4F1D921C92DC01AE57BF4F64
:100C60001C92DC01AD57BF4F11961C921E92138649
:100C70008091F2088F5F8093F20884878091EE085C
:100C80009091EF0896878587108A1786118A0895B4
:100C9000E7E5F5E020E0408151814817590759F414
:100CA00030E0C901880F991F820F931F880F991F89
:100CB000895A9A4F08952F5F3696243661F72FEFA1
:100CC0008F3F920719F489EA97E0089580E090E059
:100CD00008950E94120608950E9412060895E7E5FD
:100CE000F5E024E68FEF9FEF9183808321503696C5
:100CF0002223D1F708950E944806009729F02FEF8C
:100D00003FEFFC01318320830895EF92FF920F9310
:100D10001F93CF93DF93EC0109851A8517FF05C058
:100D20008D859E850817190751F58D819E812FEFBE
:100D30008F3F920721F1ED84FE84C7010E9448068F
:100D4000FC01009769F0828193818017910799F0E7
:100D5000DE01A158BF4F9C918581891760F407C0BF
:100D60008FEF9FEF0E944806FC01F182E08213831F
:100D7000028383E08483C158DF4F88818583DF91BC
:100D8000CF911F910F91FF90EF9008950F931F93B4
:100D9000CF93DF9300D000D000D0CDB7DEB78C0169
:100DA000DC011F968D919C9150970E944806FC0192
:100DB0000097D1F1D801A158BF4F8C91882319F425
:100DC00083E084830AC0848181508483882329F44A
:100DD0008FEF9FEF9183808327C0CF018755954088
:100DE000863091050CF1CE010196AF01465050407E
:100DF00026E0DA010D90AD01DC010D92CD0121500C
:100E0000C1F7CF010697AF0126E0DA010D90AD01E1
:100E1000DC010D92CD012150C1F7DE01119686E073
:100E20000D9001928150E1F726960FB6F894DEBF3F
:100E30000FBECDBFDF91CF911F910F9108952FEF7E
:100E40008F3F9207F1F0E7E5F5E040E050E02081C8
:100E500031812817390761F4FA01EE0FFF1FE40F03
:100E6000F51FEE0FFF1FE95AFA4F82819381089513
:100E70004F5F5F4F36964436510549F78FEF9FEF2E
:100E800008958FEF9FEF0895CF92DF92EF92FF9238
:100E90000F931F93CF93DF938C01FC01C784D088FD
:100EA000C6010E941F07FFEF8F3F9F0781F0F801E7
:100EB000ED57FF4F8CE696E091838083F801EE5763
:100EC000FF4F82E08083C8010E944D0A20C0F801D4
:100ED000E584F68485E00E94EC05EC010097A1F022
:100EE0000E942306FE01ED57FF4F89E696E09183AD
:100EF0008083F88AEF8681E08A8BFC8AEB8ADE8A1F
:100F0000CD8ACE010E944D0AC8010E941206DF91CF
:100F1000CF911F910F91FF90EF90DF90CF900895A8
:100F2000DC011596ED91FC911697838194810E94C6
:100F30007B0608950E941F0708950E9412060895D7
:100F4000E3EBF7E04AE050E02081318121153105E3
:100F500029F0215030403183208351E041503596B3
:100F6000442391F7552311F00E94100E0895DC01DF
:100F70001596ED91FC9116972081222319F40E9479
:100F8000D20A04C0213021F40E94900781E0089524
:100F900080E00895E3EBF7E08AE01182108281504F
:100FA00035968823D1F71092E20784E190E0A0E023
:100FB000B0E08093E9079093EA07A093EB07B09322
:100FC000EC071092ED0780EA97E09093EF0780938B
:100FD000EE0780E067EB77E00E94EA040895CF9384
:100FE000DF93EC01E881F9818181883829F58081DE
:100FF000813611F0813401F58A818031E8F0805129
:101000000E94EC050097C1F020E2FC0120832B81B7
:10101000E158FF4F20832C81FC01E058FF4F2083D3
:1010200002964A816881798150E00E9497118091EF
:10103000E2078F5F8093E207DF91CF91089581E00F
:101040009091E207992309F480E008958F929F928E
:10105000AF92BF92CF92DF92EF92FF920F931F93C6
:10106000CF93DF93CDB7DEB72A970FB6F894DEBFE4
:101070000FBECDBF8091E207882309F4ADC1DD2406
:1010800044E2C42E5DE9852E57E0952E62E2B62E2D
:1010900073E2A72E8D2D0E9415067C01DC018C9138
:1010A000823209F4D9C0833220F4803209F08FC132
:1010B00007C0833209F47FC1843209F088C17FC13F
:1010C000F701C08287859089FFEF8F3F9F0731F43A
:1010D000D7011B968C911B9780FD79C12091EE085A
:1010E0003091EF08F701858596852817390709F4AF
:1010F0006EC1838581FD6BC1C7010E948506E0EB4F
:10110000F7E040E050E06FEF238134812115310595
:1011100081F1D7011D968D919C911E97208131817F
:101120008217930739F51C968C91FA01EE0FFF1F79
:10113000EE0FFF1FE40FF51FE055F84F9281B82F17
:10114000B91B1B1634F4828387E990E09483838370
:1011500039C02091EE083091EF08F7018781908522
:101160002817390709F033C1878590890E947B06CB
:101170002EC1642F4F5F5F4F35964A30510521F6DF
:101180006F3F09F424C1862F992787FD9095FC01B4
:10119000EE0FFF1FEE0FFF1FE80FF91FE055F84F8E
:1011A000D7011D968D919C911E97918380831C96EB
:1011B0008C91828387E990E09483838383EE97E028
:1011C0000E94100EF70187819085FFEF8F3F9F07E8
:1011D000D9F42091EE083091EF08D7011F968D9138
:1011E0009C9150972817390779F015968D919C910D
:1011F0001697BFEF8F3F9B0739F0F701838582FD7C
:1012000003C0C7010E948A0A8091EE089091EF08FE
:10121000D7011F962D913C9150978217930721F08B
:10122000BFEF2F3F3B0719F4F701B082D0C0D701C1
:1012300017962D913C9118978217930709F0C7C014
:1012400015968D919C911697BFEF8F3F9B0709F4E0
:10125000BEC0F701A082BBC01092AF07D701519664
:101260008C91519782958F70E82FF0E0E430F10572
:101270000CF05EC0EE0FFF1FEC50F74F4081518124
:101280004115510509F454C01D962D913C911E97AE
:101290003A83298351969C9151979F709B838C83AD
:1012A000C70142969F838E8311968C91119780512E
:1012B0008887F701E158FF4F80818987F701E0585F
:1012C000FF4F80818A87F7017385672F637072FFF4
:1012D00002C080E201C080E0762F782BD7011F96F4
:1012E0008D919C915097BFEF8F3F9B0711F464E065
:1012F00001C060E0672BF7018185928528173907C7
:1013000011F498E001C090E0692BD70115968D91FA
:101310009C911697BFEF8F3F9B0711F480E101C0AE
:1013200080E0862B8D83CE010196FA01099501C0DC
:1013300080E0F70127813085FFEF2F3F3F0771F4F1
:1013400061E070E02091EE083091EF08D7011F9620
:101350004D915C9150972417350711F060E070E0D3
:10136000F701938590FF02C0882319F46115710578
:10137000F9F083E00E94EC058C010097C9F00E940F
:101380002306F801ED57FF4F91828082D7011D9609
:101390008D919C911E97F801908B8787128A80917E
:1013A000AF07848B1C968C91838BC8010E944D0AD9
:1013B000D701CC920CC0C7010E94440703C0C701EB
:1013C0000E9412068091E20781508093E207D39435
:1013D000B3E0DB1609F05ECE2A960FB6F894DEBFB6
:1013E0000FBECDBFDF91CF911F910F91FF90EF9076
:1013F000DF90CF90BF90AF909F908F9008950E9404
:1014000012060895EF92FF921F93CF93DF937C0112
:101410008091F207882301F1C0E0D5E110E18C2F23
:101420000E941506DC018C91843181F4FD01E058A5
:10143000FF4F20813181215030403183208321159D
:10144000310521F4DC93A158BF4F1C93CF5FC3300B
:1014500031F7C7010E94100EDF91CF911F91FF90CD
:10146000EF9008951092F1071092F0071092F20792
:1014700082E390E0A0E0B0E08093F9079093FA0750
:10148000A093FB07B093FC071092FD0782E09AE05F
:101490009093FF078093FE070895CF93DF93EC01AD
:1014A000FC01EE57FF4F808191E19883FE01E158E6
:1014B000FF4F108280FF03C08FEF9FEF04C0809129
:1014C000F0089091F1089E838D838F8598890E9402
:1014D0001F0798878F832091EE083091EF083A8795
:1014E00029872091F3082F5F2093F3082C832FEF97
:1014F0008F3F920719F481E498E802C081E698E8EA
:101500009B838A838091F2078F5F8093F207DF913C
:10151000CF9108950F931F93CF93DF938C01FC011C
:10152000818180510E94EC05EC010097B1F1FC0132
:10153000ED57FF4F8FEF99E091838083CE010296A4
:10154000F8014181B8016E5F7F4F50E00E94971112
:1015500081E18883FE01E158FF4F108281E498E821
:101560009B838A838FEF9FEF98878F838091F0080A
:101570009091F1089E838D838091EE089091EF0801
:101580009A8789878091F3088F5F8093F3088C8313
:101590008091F2078F5F8093F207DF91CF911F91C7
:1015A0000F9108951F93CF93DF93FC01C581D681DE
:1015B0008091F2078823B1F010E0812F0E94150678
:1015C000FC018081843159F494858981981739F41C
:1015D00085E180838A81EE57FF4F808303C01F5FC0
:1015E000133059F7DF91CF911F91089581E09091C9
:1015F000F207992309F480E00895E091F007F09153
:10160000F107833030F0833031F0853031F481E2FE
:1016100005C080E003C080E201C081E0DF01A15885
:10162000BF4F8C9383E180831092F1071092F007F3
:101630000895CF92DF92EF92FF920F931F93CF9373
:10164000DF938091F207882309F455C010E005E18B
:1016500084E1F82E95E1C92ED12C22E1E22E812FD2
:101660000E941506EC018881833199F0853179F16A
:101670008131E9F50E94210C8823C9F5D093F10747
:10168000C093F007E882CE01029669810E94480C5F
:101690002EC0FE01E158FF4F80818823B1F42D85D3
:1016A0003E858091EE089091EF082817390769F47C
:1016B0008B8580FF0AC0F882C058DF4FD982C8826C
:1016C00083EF97E00E94100E12C0088310C0CE0175
:1016D0000E94C606FE01ED57FF4F0190F081E02DFC
:1016E000CE0109958091F20781508093F2071F5F28
:1016F000133009F0B4CFDF91CF911F910F91FF907C
:10170000EF90DF90CF90089593E090934201809303
:101710004201909141019F718917D9F708958091F5
:101720000A08882311F086E101C088E00E94840B3A
:1017300008950F931F93CF93DF9310924E0186E08D
:101740000E94840BC0E0D0E000E010E081E00E9445
:101750002A028091460182958695837090E00C2E36
:1017600002C0880F991F0A94E2F7082B192B2296C2
:10177000C031D10559F788E00E94840B8FEF809328
:101780004F0180914E01886080934E0180914E01FF
:10179000806480934E01C801DF91CF911F910F911A
:1017A0000895E9E3F1E080818160808388E00E9410
:1017B000840BEEE6F1E080818062808380818F7E01
:1017C00080838FEF80934F01EEE4F1E080818860A9
:1017D0008083808180648083ECE4F1E08081806894
:1017E00080830E94990B80936D01109204081092DF
:1017F0000A0881E080930308089590910408986096
:101800009093040880930A080895909104089160C9
:10181000909304088093050808952091040822609D
:101820002093040890930708809306080895209158
:101830000408246020930408909309088093080802
:10184000089580910308813049F481E090E020916F
:101850000408222329F480E090E0089581E090E0DC
:10186000089588E00E94840BE9E3F1E080818260C2
:10187000808382E0809303080895E9E3F1E08081AA
:101880008D7F80830E948F0B81E0809303080895F1
:101890001F93CF93DF9300D0CDB7DEB7182F89E128
:1018A00069839A830E94840B6981862F8E5F80935F
:1018B0008001E12F9A81F92FA1E8B1E002C0819166
:1018C0008D938E2F811B8617D0F382E08093420187
:1018D00083E0809303080F900F90DF91CF911F91C9
:1018E00008958091040880618093040808951F92F0
:1018F0000F920FB60F920BB60F9211242F933F93B6
:101900004F935F936F937F938F939F93AF93BF9307
:10191000EF93FF93809141018F71893169F489E0E0
:101920000E94840B84E08093030880914201829599
:101930008695877080930208FF91EF91BF91AF91D8
:101940009F918F917F916F915F914F913F912F91D7
:101950000F900BBE0F900FBE0F901F9018951F9207
:101960000F920FB60F9211248F9389E0809342015A
:10197000809147018093010880917B01809300084A
:1019800085E0809303088F910F900FBE0F901F90FA
:1019900018951F93CF93DF9300D000D00F92CDB74F
:1019A000DEB7809103088430F1F1853009F44FC02F
:1019B000813009F076C010910408112309F471C038
:1019C00088E00E94840B10FF09C0909105089F7168
:1019D00080914801807E892B809348018091040882
:1019E00081FF08C0809106088093620180910708FA
:1019F000809363018091040882FF08C080910808E9
:101A000080936001809109088093610180910408AE
:101A100084FF04C00E94990B0E943B0F0E948F0B11
:101A2000109204083EC0809102080E94FD0A809135
:101A300041018F718930D9F72FC0FC01E058FE4F6A
:101A40002081855F974FFC0120834F5F01C040E0FC
:101A500020910008842F90E030E0281739076CF7B8
:101A60008BE098E09A8389838091000882508B8371
:101A7000E0910008F0E0E55FF74F80818C83809172
:101A800001088A558D83CE0101960E94EF0780914F
:101A900041018F718930D9F781E0809303080E945A
:101AA0008F0B0F900F900F900F900F90DF91CF91B1
:101AB0001F9108950E941D020E94C10D0E94D10B2A
:101AC0000E94C30408950E94C90C0E940E050E9442
:101AD0001D0E08950F931F93CF93DF93FC01009188
:101AE0008B0810918C08368127819085818501159E
:101AF0001105C1F1432F522F692F782FE80120E003
:101B000030E001C0EC018A819B81AC81BD81481726
:101B100059076A077B0748F4841B950BA60BB70B84
:101B20008A839B83AC83BD8309C0481B590B6A0B16
:101B30007B0B888199819E01009721F74283538313
:101B4000648375832115310551F0D9018D919C91E4
:101B50001197918380831196FC93EE930DC01183AE
:101B6000008306C01182108232832383948385838D
:101B7000F0938C08E0938B08DF91CF911F910F9128
:101B8000089510928C0810928B080895CF93DF93DC
:101B9000EC01E0918B08F0918C08A0E0B0E02AC045
:101BA000EC17FD0711F580819181109721F01196B6
:101BB0009C938E9304C090938C0880938B08019023
:101BC000F081E02D3097C1F082819381A481B581AD
:101BD0004A815B816C817D81840F951FA61FB71F91
:101BE00082839383A483B58307C090818181DF01C1
:101BF000E92FF82F3097A1F6DF91CF910895E0916A
:101C00008B08F0918C0806C0E817F90739F00190AD
:101C1000F081E02D3097C1F780E0089581E00895CC
:101C2000CF93DF93EC010E94FF0D882319F4CE01BE
:101C30000E946A0DDF91CF910895CF92DF92EF92CB
:101C4000FF92CF93DF938091ED08882309F43EC083
:101C50008FB7F8946091ED081092ED088FBF70E097
:101C600080E090E02AE030E040E050E00E94DD10AB
:101C70006B017C0114C0C81AD90AEA0AFB0A8881E0
:101C8000998190938C0880938B088A85813019F410
:101C9000CE010E946A0DEB85FC85CE010995C091AD
:101CA0008B08D0918C08209789F08A819B81AC8128
:101CB000BD81C816D906EA06FB06E8F68C199D090F
:101CC000AE09BF098A839B83AC83BD83DF91CF912B
:101CD000FF90EF90DF90CF90089585B190E1892734
:101CE00085B9089580918D08843021F481E0809336
:101CF0008D0808958EE898E00E94100E0895DF92F6
:101D0000EF92FF920F931F93CF93DF93FC01A58176
:101D1000B68185B190E1892785B9808559968C93E4
:101D2000599781855A968C93E580C681D78080E14A
:101D30000E94810382E00E9481030E2D1C2FFF244C
:101D40000FC0E8018881803121F40E94810380E185
:101D5000F80EF80181918F010E9481038881F80EAD
:101D6000802F8E198D1568F380E10E94810383E036
:101D70000E9481038F2D8B5D0E94810381E0DF91A2
:101D8000CF911F910F91FF90EF90DF900895CF9327
:101D9000DF93EC012C988F858230A1F0833028F4FA
:101DA000882351F08130D1F40AC0803289F0813229
:101DB00091F0803199F409C08AE192E011C087E284
:101DC00092E00EC082E392E00BC085E492E008C08E
:101DD00081E592E005C08DE692E002C080E892E0E5
:101DE0000E94AB038F852091CC08882359F42223CD
:101DF00029F52C9A8DEC98E00E94C60D81E0809325
:101E0000CC081CC08091C0089091C108A091C20864
:101E1000B091C3080196A11DB11D8093C008909395
:101E2000C108A093C208B093C308222339F02C98AC
:101E30008DEC98E00E94100E1092CC0883E0809305
:101E40008D08DF91CF9108950F931F93CF93DF9368
:101E50008C01C0E0D0E003C00E94DA032196C017D5
:101E6000D107D1F785B190E1892785B9DF91CF916D
:101E70001F910F9108950E948C1108950E945A0D90
:101E800060E076E980E090E00E9425030E941F0157
:101E9000109202198AE1809303198EE1809304194C
:101EA0000E940A010DE918E082E7E82E8EE0F82E84
:101EB0002DE6C22E2EE0D22E3EEFA32E3FEFB32E04
:101EC000A00EB11E47EC842E4EE0942E0E94630DAE
:101ED0000E947C04C0918D08C33009F446C1C4300F
:101EE00028F4CC2361F0C13089F7BDC0C63009F4B5
:101EF0004BC1C73009F455C1C53041F73CC121E0A1
:101F000020939B0820939C0882E080939D0880E4A6
:101F1000F80181831282138214821582168217823D
:101F200082E090E49093A6088093A50880E091E079
:101F3000A1E0B1E08093A7089093A808A093A90816
:101F4000B093AA0880E090E8A0E0B0E08093AB08EE
:101F50009093AC08A093AD08B093AE0884E392E1EF
:101F60009093B0088093AF088FE08093B1081092EF
:101F7000B3081092B2081092B4081092B5082093DA
:101F8000B6088CE08093B7081092B8081092B90890
:101F90001092BA081092BB081092BC081092BD08AB
:101FA0001092BE081092BF081092C0081092C1088B
:101FB0001092C2081092C30880E28093C40886E0A1
:101FC0008093C508E6ECF8E0ADE8B2E00D90019230
:101FD0008150E1F7249A2C9A82E090E40E94DC047C
:101FE00084E392E10E94E3048FE00E94050C81E00B
:101FF0000E94FD0B81E06FE77EE00E94EA0480ED25
:1020000097E0A0E0B0E08093940890939508A093A7
:102010009608B093970810929808F0929A08E09268
:1020200099081092CC0884EF91E0A0E0B0E0809392
:10203000D3089093D408A093D508B093D608C1E0F4
:10204000C093D708D092D908C092D8088DEC98E0F8
:102050000E94100E84E992E00E94AB030E94710C72
:10206000C0938D0833CF80E090E00E949A07909350
:10207000B3088093B2080E948711AA2797FDA09504
:10208000BA2F8093B8089093B908A093BA08B09378
:10209000BB080E948711AA2797FDA095BA2F8F77BA
:1020A0009070A070B0708093BC089093BD08A0930E
:1020B000BE08B093BF081092E0081092DF08C093EA
:1020C000E108C093E20883E08093E308B092E5085A
:1020D000A092E40881E38093E6089092E808809259
:1020E000E7082C9A8AED98E00E9439058091021940
:1020F00090E00E9443018AE30E94810380910319CA
:1021000090E00E9443018AE30E94810380910419B8
:1021100090E00E9443018AE00E94810381E00E94D6
:10212000D70084E00E94DA009093FC088093FB08BB
:102130008CE992E00E94AB038091FB089091FC082F
:102140006DEF78E04AE050E00E94A0118DEF98E03A
:102150000E94AB038AEB0E94810383E40E94810307
:102160008AE00E94810382E025C08EE898E00E9408
:10217000100E84E01FC00E94F304882309F0A6CE4D
:102180000E94080586E016C024982C9880E00E94E2
:10219000FD0B60ED77E080E090E00E942E0287E08A
:1021A00009C00E940B05249A2C9A2C9A81E00E9467
:1021B000FD0B81E080938D0889CE629FD001739FD3
:1021C000F001829FE00DF11D649FE00DF11D929FD3
:1021D000F00D839FF00D749FF00D659FF00D992712
:1021E000729FB00DE11DF91F639FB00DE11DF91F36
:1021F000BD01CF0111240895AA1BBB1B51E107C0EB
:10220000AA1FBB1FA617B70710F0A61BB70B881F86
:10221000991F5A95A9F780959095BC01CD01089515
:10222000A1E21A2EAA1BBB1BFD010DC0AA1FBB1FDA
:10223000EE1FFF1FA217B307E407F50720F0A21B4C
:10224000B30BE40BF50B661F771F881F991F1A94B9
:1022500069F760957095809590959B01AC01BD01E3
:10226000CF0108958F929F92AF92BF92CF92DF924B
:10227000EF92FF92CF93DF93EC0188819981AA813D
:10228000BB810097A105B10521F484E299EDABE58E
:10229000B7E0BC01CD012DE133EF41E050E00E94F9
:1022A000E11149015A0127EA31E440E050E00E947F
:1022B000DD106B017C01C501B4012CEE34EF4FEF52
:1022C0005FEF0E94DD10DC01CB01C80ED91EEA1EB3
:1022D000FB1EF7FE08C08FEF9FEFAFEFBFE7C80E02
:1022E000D91EEA1EFB1EC882D982EA82FB82C60181
:1022F0009F77DF91CF91FF90EF90DF90CF90BF90CD
:10230000AF909F908F9008950E943211089583EAB4
:1023100092E00E9432110895A0E0B0E08093A30201
:102320009093A402A093A502B093A6020895FB0186
:10233000DC0102C001900D9241505040D8F7089541
:10234000FB019F01E8944230C4F04532B4F44A30B6
:1023500029F497FB1EF4909581959F4F642F772762
:102360000E94FC10805D8A330CF0895D8193CB0163
:102370000097A1F716F45DE251931082C9010C9405
:10238000D111DC01CB01FC01F999FECF06C0F2BDF1
:10239000E1BDF89A319600B40D9241505040B8F723
:1023A0000895DC01FC01672F71917723E1F73297E3
:1023B00004C07C916D9370836291AE17BF07C8F320
:1023C000089597FB092E05260ED057FD04D028DF6F
:1023D0000AD0001C38F450954095309521953F4F18
:1023E0004F4F5F4F0895F6F79095809570956195E2
:0C23F0007F4F8F4F9F4F0895F894FFCF50
:1023FC0052462053656E64204576656E7420526596
:10240C0071756573743A20000A004E574B5F535533
:10241C0043434553530A004E574B5F4552524F525C
:10242C000A004E574B5F4F55545F4F465F4D454D1D
:10243C004F52590A004E574B5F4E4F5F41434B0A68
:10244C00005048595F4348414E4E454C5F41434311
:10245C004553535F4641494C5552450A0050485923
:10246C005F4E4F5F41434B5F5354415455530A00E9
:10247C004E4F5420535045435445440A00526F75F7
:10248C0074657200524F555445520A0054454D50D4
:0C249C003A2000010000000101030200D2
:00000001FF
