:100000000C9490000C94AF000C94AF000C94AF00D3
:100010000C94AF000C94AF000C94AF000C94AF00A4
:100020000C94AF000C94AF000C94AF000C94AF0094
:100030000C94AF000C94180E0C94AF000C94EA0AC8
:100040000C94AF000C94AF000C94AF000C94AF0074
:100050000C94AF000C94AF000C94AF000C94AF0064
:100060000C94AF000C948F0F0C94730F0C94AF0092
:100070000C94AF000C94AF000C94AF000C94AF0044
:100080000C94AF000C94AF000C94AF000C94AF0034
:100090000C94AF000C94AF000C94AF000C94AF0024
:1000A0000C94AF000C94AF000C94700E0C94810E65
:1000B0000C94AF000C94AF000C94AF000C94AF0004
:1000C0000C94AF000C94AF000C94AF000C94AF00F4
:1000D0000C94AF000C94AF000C94AF000C94AF00E4
:1000E0000C94AF000C94AF000C94AF000C94AF00D4
:1000F0000C941A180C94AF000C94AF000C94E217F7
:100100000C94AF000C94AF000C94AF000C94AF00B3
:100110000C94AF000C94AF000C94AF000C94AF00A3
:1001200011241FBECFEFD1E4DEBFCDBF14E0A0E0AD
:10013000B2E0E8ECFBE300E00BBF02C007900D92D9
:10014000A436B107D9F71CE1A4E6B4E001C01D92C2
:10015000AD3BB107E1F70E94AB1A0C94E21D0C9481
:100160000000CF92DF92EF92FF920F931F936B01EB
:100170007C0120E030E040E05FE40E949F0387FDC7
:1001800011C0C701B60120E030E040E05FE40E940A
:1001900066020E94D0038B019C0100501040204059
:1001A000304806C0C701B6010E94D0038B019C01F4
:1001B000B801C9011F910F91FF90EF90DF90CF9090
:1001C0000895A0E0B0E0E7EEF0E00C94E31CEC0151
:1001D0004B01FA018881823008F43EC1DB019C9119
:1001E000923008F436C1843059F4943009F034C1A7
:1001F000998111968C911197981709F027C12CC1FC
:10020000943009F426C19230A9F4823009F024C157
:10021000CE0128E0DC010D90CD01DA010D92AD0197
:100220002150C1F7D40111968C911197998189239E
:10023000818311C1823009F40CC1AA80BB80DB012B
:1002400012964D915C911397CC80DD80EE80FF80FB
:1002500014960D911D912D913C911797C501841B0A
:10026000950BDC0197FF04C0AA27BB27A81BB90B7D
:10027000A032B1050CF067C01816190684F52801E4
:1002800039010A2E04C076946794579447940A94CF
:10029000D2F741E050E060E070E004C0440F551F29
:1002A000661F771FAA95D2F74150504060407040BA
:1002B000402351236223732381E090E0A0E0B0E06B
:1002C000411551056105710519F480E090E0DC01EC
:1002D0008C019D0104291529262937293FC0009743
:1002E000E9F1AA0EBB1E260137010A2E04C076943E
:1002F0006794579447940A94D2F741E050E060E045
:1003000070E004C0440F551F661F771FAA95D2F7EF
:1003100041505040604070404C215D216E217F2152
:1003200081E090E0A0E0B0E0411551056105710564
:1003300019F480E090E0DC016C017D01C428D5282F
:10034000E628F7280BC04A155B0524F400E010E00E
:10035000980104C05A01CC24DD2476018981D4019E
:1003600011969C911197891709F445C0882329F0AB
:100370000C191D092E093F0908C0D701C601801BB1
:10038000910BA20BB30B8C019D0137FD04C01182B0
:10039000B382A2820BC081E08183B382A2823095B6
:1003A0002095109501951F4F2F4F3F4F04831583C4
:1003B000268337830DC0880F991FAA1FBB1F848314
:1003C0009583A683B78382819381019793838283E8
:1003D00084819581A681B781AC01BD014150504017
:1003E000604070404F3F2FEF52072FEF62072FE31F
:1003F000720708F30BC08183B382A2820C0D1D1D0E
:100400002E1D3F1D048315832683378383E080835D
:10041000448155816681778177FF1DC0DB01CA0168
:1004200081709070A070B0707695679557954795DC
:10043000842B952BA62BB72B84839583A683B78318
:100440008281938101969383828305C0CAE0D3E0C1
:1004500003C0E40101C0EF01CE01CDB7DEB7E0E19A
:100460000C94FF1CA0E2B0E0E8E3F2E00C94F11C75
:10047000DC01CB018D839E83AF83B88729833A83C8
:100480004B835C83CE010596BE01675E7F4F0E9461
:10049000C805CE010196BE016F5E7F4F0E94C80560
:1004A000CE014996BE016F5E7F4FAE01475F5F4F41
:1004B0000E94E1000E94F104462F572F682F792FE8
:1004C000CB01BA01A096E2E00C940D1DA0E2B0E0D1
:1004D000ECE6F2E00C94F11CDC01CB018D839E83F1
:1004E000AF83B88729833A834B835C83CE0105961B
:1004F000BE01675E7F4F0E94C805CE010196BE0116
:100500006F5E7F4F0E94C8058A8991E089278A8B98
:10051000CE014996BE016F5E7F4FAE01475F5F4FD0
:100520000E94E1000E94F104462F572F682F792F77
:10053000CB01BA01A096E2E00C940D1DA0E2B0E060
:10054000E4EAF2E00C94E31CDC01CB018D839E8392
:10055000AF83B88729833A834B835C83CE010596AA
:10056000BE01675E7F4F0E94C805CE010196BE01A5
:100570006F5E7F4F0E94C805998D923078F089890F
:100580008230C0F0943019F4823041F4CAC0843013
:1005900019F4923079F4C5C0923051F481E02A8D7B
:1005A0009A89291709F480E08A8FCE014996BBC049
:1005B000823051F481E02A8D9A89291709F480E06C
:1005C0008A8BCE014196AFC04D8C5E8C6F8C78A02B
:1005D0000D891E892F89388DE0E2F0E040E050E07F
:1005E000BA01882499245401CC24DD247601C20167
:1005F000817090700097D1F0C00ED11EE21EF31EE4
:10060000DB01CA01880D991DAA1DBB1D41E050E008
:1006100060E070E0C016D106E206F30618F040E094
:1006200050E0BA01480F591F6A1F7B1F880C991CA4
:10063000AA1CBB1C37FF08C081E090E0A0E0B0E03E
:10064000882A992AAA2ABB2A000F111F221F331FAA
:100650007694679457944794319749F68B8D9C8D87
:100660002B893C89820F931F02969C878B8781E0A0
:100670002A8D9A89291709F480E08A872B853C8581
:1006800017C0CA0181709070009761F0F694E794EA
:10069000D794C79480E090E0A0E0B0E8C82AD92AB7
:1006A000EA2AFB2A76956795579547952F5F3F4F26
:1006B00077FDE7CFC9010BC0440F551F661F771F99
:1006C000F7FC4160CC0CDD1CEE1CFF1C0197403098
:1006D000A0E05A07A0E06A07A0E47A0768F38B87D6
:1006E0009C87DB01CA018F779070A070B070803456
:1006F0009105A105B10561F447FD0AC0C114D104FB
:10070000E104F10429F0405C5F4F6F4F7F4F407868
:100710004D875E876F87788B83E08987CE01099646
:1007200002C08AE093E00E94F104462F572F682F01
:10073000792FCB01BA01A096E0E10C94FF1CA8E14F
:10074000B0E0E5EAF3E00C94F11CDC01CB018D8311
:100750009E83AF83B88729833A834B835C83CE0122
:100760000596BE016F5E7F4F0E94C805CE010196BF
:10077000BE01675F7F4F0E94C8058989823058F0AB
:100780008985823040F0CE014196BE01675F7F4F80
:100790000E94310601C08FEF6896E2E00C940D1DB7
:1007A000ACE0B0E0E6EDF3E00C94EF1CDC01CB0133
:1007B00089839A83AB83BC83CE010196BE016B5FB4
:1007C0007F4F0E94C8058D81823069F1823058F1D7
:1007D000843039F02F81388537FD25C02F31310520
:1007E00044F08E81882319F100E010E020E030E829
:1007F00022C08EE190E0821B930B09851A852B8520
:100800003C8504C036952795179507958A95D2F7AC
:100810008E81882381F030952095109501951F4F8A
:100820002F4F3F4F08C000E010E0980104C00FEFC9
:100830001FEF2FEF3FE7B801C9012C96E4E00C94BD
:100840000B1DA8E0B0E0E7E2F4E00C94EB1C6B01B8
:100850007C011A82611571058105910519F482E008
:1008600089835EC083E089830EE110E01C830B83E3
:10087000CD82DE82EF82F886C701B6010E949E0417
:100880009C012150304037FF38C0EE27FF27E21B84
:10089000F30B81E090E0A0E0B0E00E2E04C0880FE2
:1008A000991FAA1FBB1F0A94D2F70197A109B1098A
:1008B0008C219D21AE21BF2141E050E060E070E03D
:1008C0000097A105B10519F440E050E0BA0104C059
:1008D000F694E794D794C794EA95D2F7C42AD52A18
:1008E000E62AF72ACD82DE82EF82F8868EE190E05A
:1008F000821B930B9C838B8313C02115310581F0E0
:10090000022E04C0CC0CDD1CEE1CFF1C0A94D2F796
:10091000CD82DE82EF82F886021B130B1C830B83D1
:10092000CE0101960E94F104462F572F682F792F90
:10093000CB01BA012896E8E00C94071DCF92DF9214
:10094000EF92FF920F931F938B019C01003080E088
:10095000180781E0280780E0380750F40F3F1105A1
:100960002105310509F088F480E090E0DC0116C033
:100970000030E0E01E07E0E02E07E1E03E0750F423
:1009800080E190E0A0E0B0E009C088E090E0A0E065
:10099000B0E004C088E190E0A0E0B0E040E250E0C8
:1009A00060E070E0481B590B6A0B7B0B6801790112
:1009B00004C0F694E794D794C7948A95D2F7D701E8
:1009C000C6018E5E9C4FFC018081481B5109610964
:1009D0007109CA011F910F91FF90EF90DF90CF90A6
:1009E0000895CF92DF92EF92FF920F931F93DC0155
:1009F00014964D915D916D917C9117971196EC91A4
:100A000011978C91823020F460618FEF90E0A5C047
:100A1000843009F49DC0823009F494C04115510519
:100A20006105710509F491C012968D919C911397FF
:100A30002FEF823892070CF059C022E83FEF281BB5
:100A4000390B2A31310564F56A017B01022E04C09D
:100A5000F694E794D794C7940A94D2F781E090E093
:100A6000A0E0B0E004C0880F991FAA1FBB1F2A9501
:100A7000D2F70197A109B10984239523A623B723AF
:100A800041E050E060E070E00097A105B10519F485
:100A900040E050E0BA014C295D296E297F2903C04E
:100AA00040E050E0BA01DB01CA018F779070A0707E
:100AB000B07080349105A105B10539F447FF09C034
:100AC000405C5F4F6F4F7F4F04C0415C5F4F6F4F83
:100AD0007F4F81E090E0403020E0520720E0620745
:100AE00020E4720738F580E090E024C0803891055A
:100AF0007CF58A019B010F771070207030700034F4
:100B000011052105310539F447FF09C0405C5F4FED
:100B10006F4F7F4F04C0415C5F4F6F4F7F4F77FD3A
:100B200003C081589F4F06C07695679557954795A6
:100B300080589F4F97E076956795579547959A957A
:100B4000D1F70BC080E090E005C080E090E005C0E8
:100B50008FEF90E040E050E0BA01982F97959927E9
:100B60009795A62FAF77E795EE27E79586953A2FCD
:100B7000392B282F2E2B842F952FA32FB22FBC017A
:100B8000CD011F910F91FF90EF90DF90CF900895CE
:100B9000DC01FB014C9111965C91119712968C919E
:100BA0001297682F6F7770E0982F991F9927991FD8
:100BB00013962C911397822F880F892B90E0221F78
:100BC0002227221F2183009739F541155105610520
:100BD000710511F482E029C082E89FEF938382833C
:100BE00027E0440F551F661F771F2A95D1F783E032
:100BF000808309C0440F551F661F771F8281938130
:100C0000019793838283403080E0580780E0680733
:100C100080E4780778F320C08F3F910579F441157F
:100C200051056105710519F484E08083089564FF1E
:100C300003C081E0808310C010820EC08F579040A7
:100C40009383828383E0808387E0440F551F661F70
:100C5000771F8A95D1F770644483558366837783C1
:100C60000895CF93FC01DB019081923008F44CC0D1
:100C70008C91823008F448C0943069F4218184302A
:100C800039F411968C91119790E0821B910944C020
:100C90002223D1F13FC0843021F0923041F48230E0
:100CA000B1F111968C9111978823A1F12DC0C181CA
:100CB000823001F111968C911197C817D9F4828175
:100CC000938112962D913C9113972817390794F030
:100CD00082179307BCF04481558166817781149611
:100CE0008D919D910D90BC91A02D84179507A6071D
:100CF000B70718F4CC2341F00DC0481759076A070D
:100D00007B0728F4CC2331F081E090E005C080E03F
:100D100090E002C08FEF9FEFCF910895CF93DF93C4
:100D2000DC01EC91EF3F89F0F0E0EF01CA5EDB4FB0
:100D30008881E75DFB4F882331F0808111969C917B
:100D40001197890F03C0808101C084E0DF91CF91AA
:100D50000895DC011296EC91F0E0EE0FFF1FE45CC9
:100D6000FB4F0190F081E02D09950895EF92FF92DD
:100D70000F931F93CF93DF938C0180E092E00E944A
:100D8000160FF801808191810E94AA0B8BE192E0FD
:100D90000E94160FF801828190E00E94AA0B83E264
:100DA00092E00E94160FC80102960E948E06E82E5D
:100DB000E8012396FF2409C0899190E00E94AA0BC4
:100DC00080E290E00E94EC0EF394FE14A9F78BE20F
:100DD00092E00E94160FF80182818F3F69F08081B6
:100DE0009181009731F4C80160E070E00E94A9068B
:100DF00003C0C8010E94D208DF91CF911F910F91CB
:100E0000FF90EF9008954F925F926F927F928F9232
:100E10009F92AF92BF92CF92DF92EF92FF920F9389
:100E20001F93CF93DF9329EE822E2AE0922E10E0BB
:100E300031E0632E712C1330F9F0143028F41130A6
:100E400079F0123039F412C0153011F11530D0F0AC
:100E5000163009F1D0B10091DB0C8091DC0C20C080
:100E6000D3B10091E00C8091E10C1AC0D6B1009191
:100E7000E50C8091E60C14C0D9B10091EA0C809188
:100E8000EB0C0EC0DCB10091EF0C8091F00C08C0AF
:100E9000DFB180E005C0D2B30091F90C8091FA0C6B
:100EA00091EEC92E9AE0D92EEE24FF24A02EBB2469
:100EB000A094B094482E5524CE2D10936604E09251
:100EC0006504D09364044E2DC5010E2C02C0959587
:100ED00087950A94E2F780FF9FC0C2010E2C02C0E2
:100EE000959587950A94E2F780FF57C02091670493
:100EF000E22FF0E08D2F90E00E2C02C095958795A3
:100F00000A94E2F78170E755F54F9081990F982B7D
:100F100090839F3F49F4C3010E2C02C0880F991F94
:100F20000A94E2F7D82B09C0C3010E2C02C0880F27
:100F3000991F0A94E2F78095D8232F5F20936704C6
:100F4000F401808190E0042E02C0959587950A9463
:100F5000E2F78170907021E0C73009F020E031E0C5
:100F6000133009F030E0232330E0282339238D2F7C
:100F700090E002C0959587954A95E2F78170907050
:100F800080959095282339232115310509F444C013
:100F90008EE292E00E94160F3FC08E2D0E94CE0975
:100FA000C430D9F0C53038F4C23089F0C33090F481
:100FB000C13039F409C0C630B1F0C63088F0C7304E
:100FC000A9F02091060D14C02091080D11C02091A8
:100FD0000A0D0EC020910C0D0BC020910E0D08C003
:100FE0002091100D05C02091120D02C02091140D0A
:100FF00090916204992371F4F601408150E0481BFE
:10100000510957FF03C0509541955F4F30E042179B
:10101000530714F0F60180830894E11CF11C089436
:10102000C11CD11CF8E0EF16F10409F045CFF40122
:10103000D1934F011F5F173009F0FDCE109262046B
:1010400010926704DF91CF911F910F91FF90EF9065
:10105000DF90CF90BF90AF909F908F907F906F90D8
:101060005F904F90089520916804213009F053C09B
:10107000E091F10AF091F20A8091F30A9091F40A5A
:101080008E1B9F0B181619063CF4EE0FFF1FEB503A
:10109000F54F8081918113C02091860B3091870B91
:1010A0008091880B9091890B821B930B181619065F
:1010B0007CF52A57344FF901848190E022E0209397
:1010C0006904FC012081318130937B0B20937A0BE2
:1010D00021E020937C0B20937D0B23E020937E0B5B
:1010E0009093800B80937F0B02960E948E068D5FFB
:1010F0008093810B8CE898E09093830B8093820B14
:1011000082E08093680485E79BE00E94A41003C0FE
:101110001092690408950895CF93DF93FC018785A9
:10112000882341F41092F00A81E0809368040E94C1
:10113000330835C08091F00A8F5F8093F00A8AE807
:101140009CE00E947B198091F00A853041F5109255
:10115000F00A80916904813051F48091F10A9091F4
:10116000F20A01969093F20A8093F10A15C0823038
:1011700099F4C091860BD091870BFE01EA57F44F8A
:10118000848190E002960E948E062396C80FD11D9E
:10119000D093870BC093860B81E080936804DF9126
:1011A000CF9108959C018091F30A9091F40A4091A7
:1011B000F10A5091F20ABC01641B750B1616170652
:1011C00084F4FC01EE0FFF1FEB50F54F31832083B9
:1011D00001969093F40A8093F30A0E94330881E009
:1011E000089580E00895559A5D9887EB9BE00197FC
:1011F000F1F700C0000055985D985D9A95E89A95C2
:10120000F1F7000099B1EFECF2E03197F1F700C08F
:10121000000081E095FF80E0089528E030E0559AD5
:101220005D9880FF0EC09AE19A95F1F700C055983D
:101230005D985D9AE7ECF0E03197F1F700C00000AF
:101240000DC0E7ECF0E03197F1F700C000005598D1
:101250005D985D9AFAE1FA95F1F700C021503040AF
:1012600011F08695DCCF089528E030E080E0559AB3
:101270005D9800140014001455985D985D9A90E5EF
:101280009A95F1F74D99806890EA9A95F1F7215077
:10129000304009F408958695EACFFC0190E04CE8CF
:1012A0000AC0319128E0532F5927969550FD942775
:1012B00036952150C1F72E2F281B261790F3892F22
:1012C0000895CF92DF92EF92FF920F931F93CF93E7
:1012D000DF93CDB7DEB727970FB6F894DEBF0FBE0A
:1012E000CDBF8091970C882309F043C055985D9835
:1012F0005D9A8FE798E3A1E081509040A040E1F72C
:1013000000C000000E94F3088823A9F5F89483E345
:101310000E940D090E943409898382E0E82EF12C95
:10132000EC0EFD1E670101E010E00E943409D601B9
:101330008D936D010F5F1F4F07301105B1F70E94AC
:101340003409082F7894CE01019667E00E944D0978
:101350009981913081F4801771F49093970CEEE9A4
:10136000FCE0D7018D917D018293BCE0E839FB0759
:10137000C1F781E001C080E027960FB6F894DEBF88
:101380000FBECDBFDF91CF911F910F91FF90EF90D6
:10139000DF90CF9008958093630408959091630443
:1013A000883040F49295990F990F907C982B9093E8
:1013B0007C0008C0892F8295880F880F807C896205
:1013C00080937C0080917A00806880937A0084E129
:1013D00090E00E94950D80917A00876480937A0056
:1013E00080917A0086FDFCCF809178009091790001
:1013F000392F20E090E0822B932B08950F931F93B9
:10140000CF93DF938AEB9CE060E070E04CE050E02B
:101410000E94A71DC091BB0CD091BC0C0091BD0CCB
:101420001091BE0CCE0101972FEF8E3F920708F06E
:1014300038C08AEB9CE060E070E0AE010E94A71D1E
:101440001092BE0C1092BD0CEAEBFCE080E090E044
:1014500020E030E041912427422F42954227042E7C
:10146000469546954025042E469540254770022E08
:10147000232F469507944795302D242706944795AA
:101480003025242701968C179D0721F781E002174C
:10149000130709F080E08093B90C1093BE0C009301
:1014A000BD0CDF91CF911F910F9108958091700035
:1014B0008A7F809370008091B6008F738093B6000E
:1014C0008091B60080628093B6001092B20085E0F1
:1014D0008093B1008091B60090E087709070009783
:1014E000C9F78091700081608093700078941092A9
:1014F000B10C0895FC01AAEBBCE183E00D900192D0
:101500008150E1F70E94A90A81E08093B10C08950F
:10151000CF93DF9300D000D000D0CDB7DEB7261731
:1015200060F0621740F0371740F0731720F048174B
:1015300020F0841720F48FEF03C081E001C080E029
:1015400026960FB6F894DEBF0FBECDBFDF91CF91C8
:1015500008951F93CF93DF93C091860DD0E021C0F3
:10156000CE018457924F90939F0C80939E0C0596CA
:101570000E948E06182FE0919E0CF0919F0C6081C6
:10158000718182812091BA1C3091BB1C4091BC1C9E
:101590000E94880A87FF0BC0812F90E00696C80F33
:1015A000D91F8091880D90E0C817D907C8F28091A3
:1015B000880D90E0C817D90748F08091860D90E01B
:1015C0008457924F90939F0C80939E0CDF91CF9104
:1015D0001F9108951F920F920FB60F920BB60F92A4
:1015E00011242F933F934F935F936F937F938F9328
:1015F0009F93AF93BF93CF93DF93EF93FF9380912C
:10160000BC1C8F5F8093BC1C8C33A1F41092BC1C5B
:101610008091BB1C8F5F8093BB1C8C3359F410925C
:10162000BB1C8091BA1C8F5F8093BA1C883111F467
:101630001092BA1C8091B10C882331F536C0CE01CE
:1016400003960E94B606C0919E0CD0919F0CCE01CD
:1016500005960E948E062696C80FD11DD0939F0C2A
:10166000C0939E0C8091880D90E08457924FC817CC
:10167000D90750F08091860D90E08457924F909357
:101680009F0C80939E0C11C0C0919E0CD0919F0C1A
:10169000688179818A812091BA1C3091BB1C40916C
:1016A000BC1C0E94880A882351F2FF91EF91DF91C0
:1016B000CF91BF91AF919F918F917F916F915F91EA
:1016C0004F913F912F910F900BBE0F900FBE0F9037
:1016D0001F901895CF93DF93EC0187E2C031D807B4
:1016E00050F0CE0160E177E20E94AB1CEC01CB012F
:1016F000C0960E94EC0E83E0C83ED80750F0CE01A1
:1017000068EE73E00E94AB1CEC01CB01C0960E9416
:10171000EC0EC436D10550F0CE0164E670E00E94B4
:10172000AB1CEC01CB01C0960E94EC0ECA30D10577
:1017300050F0CE016AE070E00E94AB1CEC01CB01DE
:10174000C0960E94EC0ECE01C0960E94EC0EDF9176
:10175000CF9108950F931F93CF93DF938C018FE365
:1017600092E00E94160FE801CE01807F907024E085
:10177000959587952A95E1F7282F90E02A3010F467
:10178000C09601C0C7960E94EC0E2C2F2F70822F9E
:1017900090E02A3010F4C09601C0C7960E94EC0E6B
:1017A000CD2FDD0FDD0B2097F9F6DF91CF911F9143
:1017B0000F910895EF920F93CF93DF9300D000D055
:1017C0000F92CDB7DEB7002329F05223E1E0521784
:1017D00069F40DC0A22FB0E0652F70E060957095A0
:1017E0006A237B23E1E06A177B0709F0E0E08E2F94
:1017F000EE2079F030E050E040955095422353239D
:10180000E1E0F0E04217530711F0E0E0F0E08E2352
:1018100008C0422361E070E0421711F060E070E020
:1018200086230F900F900F900F900F90DF91CF9124
:101830000F91EF900895DF92EF92FF920F931F9315
:10184000CF93DF93D82EC62FF42E122FD02F83E004
:10185000D81609F475C08D1538F081E0D81681F1DD
:101860008D1508F44DC00CC085E0D81609F4A8C049
:10187000D81608F485C086E0D81609F0DDC0BEC0D1
:101880004091DB0C5091DC0C6091DD0C7091DE0C12
:101890008091DF0C2C2F01E0EF2C0E94DA0B8823C3
:1018A00009F4CAC0FF2009F0D0C092B1812F8C2367
:1018B000892B82B982B1C095C12BC823C2B9CEC0D1
:1018C0004091E00C5091E10C6091E20C7091E30CBE
:1018D0008091E40C2C2F01E0EF2C0E94DA0B88237E
:1018E00009F4AAC0FF2009F0B0C095B1812F8C2364
:1018F000892B85B985B1C095C12BC823C5B9AEC0A8
:101900004091E50C5091E60C6091E70C7091E80C69
:101910008091E90C2C2F01E0EF2C0E94DA0B882338
:1019200009F48AC0FF2009F090C098B1812F8C2360
:10193000892B88B988B1C095C12BC823C8B98EC07E
:101940004091EA0C5091EB0C6091EC0C7091ED0C15
:101950008091EE0C2C2F01E0EF2C0E94DA0B8823F3
:1019600009F46AC0FF2009F070C09BB1812F8C235D
:10197000892B8BB98BB1C095C12BC823CBB96EC055
:101980004091EF0C5091F00C6091F10C7091F20CC1
:101990008091F30C2C2F01E0EF2C0E94DA0B8823AE
:1019A00009F44AC0FF2009F050C09EB1812F8C235A
:1019B000892B8EB98EB1C095C12BC823CEB94EC02C
:1019C0004091F40C5091F50C6091F60C7091F70C6D
:1019D0008091F80C2C2F01E0EF2C0E94DA0B882369
:1019E00059F1FF2091F591B3812F8C23892B81BB75
:1019F00081B3C095C12BC823C1BB30C04091F90C45
:101A00005091FA0C6091FB0C7091FC0C8091FD0CD4
:101A10002C2F01E0EF2C0E94DA0B882369F0FF20C5
:101A2000A1F494B3812F8C23892B84BB84B3C095FC
:101A3000C12BC823C4BB12C080E0DF91CF911F919E
:101A40000F91FF90EF90DF900895ED2DF0E0E751BA
:101A5000F54F80818093A30CD093A20C81E0EDCF51
:101A60000F931F938B01FC018281803141F480919F
:101A700011006091120040E02091130015C08131E7
:101A800061F480911200E82FF0E0E751F54F2081DA
:101A900020956091130040E007C0823139F48091B5
:101AA000130060E041E020E00E941B0C1F910F91A9
:101AB00008950F931F938B01FC018281853041F4BF
:101AC000809106006091070040E0209108001AC054
:101AD000863061F480910700E82FF0E0E751F54F80
:101AE000208120956091080040E00CC0873019F4F7
:101AF0008091080004C0883039F48091090060E0CA
:101B000041E020E00E941B0C1F910F910895089561
:101B100014BE88E10FB6F8948093600010926000C4
:101B20000FBE78940E94270E089590E00E943C0E0C
:101B300008950F931F932FE0660F771F881F991F3B
:101B40002A95D1F720E030EA4FE050E00E94BF1C18
:101B500089019A01011511052105310509F465C0B6
:101B6000BB27A32F922F812F109270002091B600D7
:101B700020622093B6001092B0001092B100109233
:101B8000B2002091B60030E02F7130702115310580
:101B9000C1F727E027BB2093B1005FEF47E001C00A
:101BA00000E010926A04009719F05093B30020C02F
:101BB000002319F00093B3001BC08091B60090E0A1
:101BC0008F7190700097C9F7109270001092B10059
:101BD00083B5826083BD8091B60090E08F71907074
:101BE0000097C9F78091B6008F7D8093B6001DC025
:101BF000209170002260209370002091B60030E0A8
:101C00002F71307021153105C1F743BF889513BE80
:101C10003FB7F89420916A043FBF222309F4C1CF53
:101C2000009709F4BDCF0197BCCF1F910F91089584
:101C30001F920F920FB60F9211248F9381E0809321
:101C40006A048F910F900FBE0F901F9018951092FD
:101C5000A40C80E197E29093A9008093A800E1EAA8
:101C6000F0E088E08083808182608083E2E7F0E0BA
:101C700080818260808308952091A4003091A50026
:101C8000280F391F3093AB002093AA002091AA009F
:101C90003091AB008091A8009091A9008217930722
:101CA00070F48091AA009091AB002091A80030912F
:101CB000A900821B930B9093AB008093AA00109213
:101CC0006B048091720084608093720080916B0439
:101CD0008823E1F3809172008B7F809372000895D6
:101CE0001F920F920FB60F9211248F938091A40C24
:101CF0008F5F8093A40C8F910F900FBE0F901F9059
:101D000018951F920F920FB60F9211248F9381E0B6
:101D100080936B048F910F900FBE0F901F901895BA
:101D20000F931F939B01AC01E4E0220F331F441F6C
:101D3000551FEA95D1F760E074E284EF90E00E94CD
:101D4000BF1C89019A010150104020403040BB2740
:101D5000A32F922F812F8093C5000093C40082E0AF
:101D60008093C00088E98093C10086E08093C20020
:101D700082E894E0909381048093800420E830E02E
:101D800030937D0420937C0410927F0410927E0493
:101D9000E8E7F4E0118210821382128286E794E071
:101DA00043E055E05093770440937604FC01349768
:101DB00031832083FC01329711821082FC01389715
:101DC000118210821382128281E080936D0410923E
:101DD0006C041F910F91089560917E0470917F04AF
:101DE00040917C0450917D0464177507F1F02091B7
:101DF0007A0430917B04E0918004F0918104E20F39
:101E0000F31F80832F5F3F4F30937B0420937A042E
:101E10002417350721F410927B0410927A046F5F27
:101E20007F4F70937F0460937E040895CF92DF927A
:101E3000FF920F931F93CF93DF930F92CDB7DEB72F
:101E4000F82E082F192FCC24DD240AC0F801819127
:101E50008F0199830E94EC0E0894C11CD11C9981BA
:101E6000AF2DB92FFD0101900020E9F73197EA1B52
:101E7000FB0BCE16DF0650F30F90DF91CF911F9131
:101E80000F91FF90DF90CF9008959FB7F894E09165
:101E90007604F091770420916E0430916F04E20F84
:101EA000F31F80812F5F3F4F30936F0420936E04A8
:101EB00040916E0450916F0420917204309173042C
:101EC0004217530721F410926F0410926E04209170
:101ED0007404309175042150304030937504209380
:101EE00074049FBF08951F920F920FB60F920BB606
:101EF0000F9211248F93EF93FF9381E080936D04F1
:101F0000E1ECF0E080818F7D8083FF91EF918F91F4
:101F10000F900BBE0F900FBE0F901F9018951F9241
:101F20000F920FB60F920BB60F9211242F933F937F
:101F30004F938F939F93EF93FF938091C0004091B5
:101F4000C6008C71B1F520917404309175048091B4
:101F50007204909173042817390759F1E0917604BF
:101F6000F09177048091700490917104E80FF91F4B
:101F700040830196909371048093700420917004C3
:101F8000309171048091720490917304281739077D
:101F900021F4109271041092700480917404909155
:101FA00075040196909375048093740481E0809386
:101FB0006C04FF91EF919F918F914F913F912F91E1
:101FC0000F900BBE0F900FBE0F901F901895809131
:101FD0007E0490917F04009789F120916D04222363
:101FE00069F12091780430917904E0918004F091B6
:101FF0008104E20FF31F60812F5F3F4F309379041C
:102000002093780440917C0450917D042417350777
:1020100021F41092790410927804019790937F0430
:1020200080937E049FB7F8946093C6008091C100AE
:1020300080628093C10010926D049FBF3FB7F894F7
:1020400020916C0410926C0480917404909175043A
:102050003FBF222311F00E948F1A08951092A90CFD
:102060001092AA0CE5EAFCE0118210821782168217
:1020700011861086138612860E949D150E943513C4
:102080000E9450110E949F100E94DA1108959093AF
:10209000A60C8093A50C0E94821708959093A80C1B
:1020A0008093A70C0E9478170895E82FF0E0EE0FB8
:1020B000FF1FE555F34F7183608308950E948A13D3
:1020C000882359F40E946116882339F40E94B910BC
:1020D000882331F40E948C17089581E090E00895E0
:1020E00081E090E008950E949C1708950E94A8172F
:1020F00008950E9491130E9484160E94C3100895AF
:10210000E0918405F091850515C02281338128175F
:10211000390769F4DC01A158BF4F2C912787DC01F6
:10212000AE57BF4F2C91208B22E0248305C0019035
:10213000F081E02D309749F70E947D1108951092AB
:102140008505109284050895FC0114821786138278
:1021500012828091840590918505009719F411826F
:10216000108202C091838083F0938505E0938405FB
:10217000089581E020918405309185052115310570
:1021800009F480E008950F931F93CF93DF93E091BC
:102190008405F0918505EF017BC08C81882321F0B7
:1021A000823009F072C058C08C850E9457118C0192
:1021B000009721F482E08C838F876DC09B838A8394
:1021C00081E08C83F801ED57FF4F80E890E1918327
:1021D0008083F801EE57FF4F998581E092FF80E000
:1021E000808399859170F80183858E7F892B838701
:1021F000998581E093FF80E0982F990F990FF8015E
:1022000083858370892B83878091A90C8F5F80934E
:10221000A90C84878091A50C9091A60C9687858740
:102220008D819E81908B878798859F708189807F23
:10223000892B818B9F819295907F8F70892B818BC9
:10224000C80142964C856A857B8550E00E947D1DC1
:10225000C8010E94B8151FC0EC17FD0741F4888122
:10226000998190938505809384050AC0FC01808143
:1022700091818C179D07D1F7888199819183808303
:10228000ED85FE85CE01099506C00990D881C02D47
:10229000209709F082CFDF91CF911F910F91089580
:1022A0001092860510920B06109290060895909158
:1022B0008605992359F090910B06992351F090913E
:1022C00090069923B9F422E030E005C020E030E028
:1022D00002C021E030E045E850E0249FF001259F56
:1022E000F00D349FF00D1124EA57FA4F805F81837F
:1022F000CF01089580E090E00895FC0110820895D8
:10230000482F50E025E830E0429FC001439F900DE8
:10231000529F900D11248A579A4F0895FC01DC01B9
:10232000A158BF4F1C92DC01A058BF4F1D921C92B8
:10233000DC01AE57BF4F1C92DC01AD57BF4F119669
:102340001C921E9213868091A90C8F5F8093A90C1A
:1023500084878091A50C9091A60C96878587108A1A
:102360001786118A0895E5E1F7E020E04081518168
:102370004817590759F430E0C901880F991F820F97
:10238000931F880F991F8B5E984F08952F5F369685
:10239000243661F72FEF8F3F920719F487E699E013
:1023A000089580E090E008950E947D1108950E94B4
:1023B0007D110895E5E1F7E024E68FEF9FEF91832B
:1023C0008083215036962223D1F708950E94B311BD
:1023D000009729F02FEF3FEFFC0131832083089510
:1023E000EF92FF920F931F93CF93DF93EC01098538
:1023F0001A8517FF05C08D859E850817190751F5A9
:102400008D819E812FEF8F3F920721F1ED84FE8415
:10241000C7010E94B311FC01009769F0828193818A
:102420008017910799F0DE01A158BF4F9C918581DB
:10243000891760F407C08FEF9FEF0E94B311FC0172
:10244000F182E0821383028383E08483C158DF4FEB
:1024500088818583DF91CF911F910F91FF90EF903D
:1024600008950F931F93CF93DF9300D000D000D037
:10247000CDB7DEB78C01DC011F968D919C915097F2
:102480000E94B311FC010097D1F1D801A158BF4FB0
:102490008C91882319F483E084830AC0848181505D
:1024A0008483882329F48FEF9FEF9183808327C053
:1024B000CF0185519740863091050CF1CE010196F0
:1024C000AF014650504026E0DA010D90AD01DC012D
:1024D0000D92CD012150C1F7CF010697AF0126E043
:1024E000DA010D90AD01DC010D92CD012150C1F753
:1024F000DE01119686E00D9001928150E1F726965B
:102500000FB6F894DEBF0FBECDBFDF91CF911F9104
:102510000F9108952FEF8F3F9207F1F0E5E1F7E07B
:1025200040E050E0208131812817390761F4FA0139
:10253000EE0FFF1FE40FF51FEE0FFF1FEB5EF84FCE
:102540008281938108954F5F5F4F369644365105DF
:1025500049F78FEF9FEF08958FEF9FEF0895CF9288
:10256000DF92EF92FF920F931F93CF93DF938C0133
:10257000FC01C784D088C6010E948A12FFEF8F3FFA
:102580009F0781F0F801ED57FF4F87ED91E19183AF
:102590008083F801EE57FF4F82E08083C8010E94DC
:1025A000B81520C0F801E584F68485E00E94571133
:1025B000EC010097A1F00E948E11FE01ED57FF4F34
:1025C00084ED91E191838083F88AEF8681E08A8BA4
:1025D000FC8AEB8ADE8ACD8ACE010E94B815C8013A
:1025E0000E947D11DF91CF911F910F91FF90EF908D
:1025F000DF90CF900895DC011596ED91FC91169730
:10260000838194810E94E61108950E948A120895A0
:102610000E947D110895E1E7F9E04AE050E0208151
:1026200031812115310529F021503040318320833B
:1026300051E041503596442391F7552311F00E9403
:102640007B190895DC011596ED91FC911697208178
:10265000222319F40E943D1604C0213021F40E9467
:10266000FB1281E0089580E00895E1E7F9E08AE057
:1026700011821082815035968823D1F71092A009DB
:1026800084E190E0A0E0B0E08093A7099093A809CE
:10269000A093A909B093AA091092AB098BE093E12A
:1026A0009093AD098093AC0980E062E273E10E94EF
:1026B00055100895CF93DF93EC01E881F981818172
:1026C000883829F58081813611F0813401F58A81BD
:1026D0008031E8F080510E9457110097C1F020E24C
:1026E000FC0120832B81E158FF4F20832C81FC01CA
:1026F000E058FF4F208302964A816881798150E03B
:102700000E947D1D8091A0098F5F8093A009DF91B9
:10271000CF91089581E09091A009992309F480E078
:1027200008958F929F92AF92BF92CF92DF92EF92D5
:10273000FF920F931F93CF93DF93CDB7DEB72A9706
:102740000FB6F894DEBF0FBECDBF8091A0098823DD
:1027500009F4ADC1DD2444E2C42E58E0852E53E1D6
:10276000952E62E2B62E73E2A72E8D2D0E94801167
:102770007C01DC018C91823209F4D9C0833220F4CF
:10278000803209F08FC107C0833209F47FC18432DF
:1027900009F088C17FC1F701C08287859089FFEF6A
:1027A0008F3F9F0731F4D7011B968C911B9780FDBB
:1027B00079C12091A50C3091A60CF70185859685ED
:1027C0002817390709F46EC1838581FD6BC1C701E4
:1027D0000E94F011EEE6F9E040E050E06FEF238157
:1027E00034812115310581F1D7011D968D919C9180
:1027F0001E97208131818217930739F51C968C91A1
:10280000FA01EE0FFF1FEE0FFF1FE40FF51FE25955
:10281000F64F9281B82FB91B1B1634F4828387E9D7
:1028200090E09483838339C02091A50C3091A60C4D
:10283000F701878190852817390709F033C187850B
:1028400090890E94E6112EC1642F4F5F5F4F35962D
:102850004A30510521F66F3F09F424C1862F99278C
:1028600087FD9095FC01EE0FFF1FEE0FFF1FE80F95
:10287000F91FE259F64FD7011D968D919C911E9735
:10288000918380831C968C91828387E990E0948366
:10289000838381EA99E00E947B19F7018781908503
:1028A000FFEF8F3F9F07D9F42091A50C3091A60C24
:1028B000D7011F968D919C9150972817390779F071
:1028C00015968D919C911697BFEF8F3F9B0739F01E
:1028D000F701838582FD03C0C7010E94F515809131
:1028E000A50C9091A60CD7011F962D913C91509765
:1028F0008217930721F0BFEF2F3F3B0719F4F70131
:10290000B082D0C0D70117962D913C9118978217AD
:10291000930709F0C7C015968D919C911697BFEF4C
:102920008F3F9B0709F4BEC0F701A082BBC0109285
:102930006D09D70151968C91519782958F70E82F30
:10294000F0E0E430F1050CF05EC0EE0FFF1FE5553E
:10295000F34F408151814115510509F454C01D9632
:102960002D913C911E973A83298351969C915197C2
:102970009F709B838C83C70142969F838E831196A1
:102980008C91119780518887F701E158FF4F808122
:102990008987F701E058FF4F80818A87F7017385A7
:1029A000672F637072FF02C080E201C080E0762F63
:1029B000782BD7011F968D919C915097BFEF8F3F39
:1029C0009B0711F464E001C060E0672BF70181858B
:1029D00092852817390711F498E001C090E0692B1F
:1029E000D70115968D919C911697BFEF8F3F9B074E
:1029F00011F480E101C080E0862B8D83CE01019629
:102A0000FA01099501C080E0F70127813085FFEFC9
:102A10002F3F3F0771F461E070E02091A50C3091E9
:102A2000A60CD7011F964D915C915097241735073E
:102A300011F060E070E0F701938590FF02C08823F9
:102A400019F461157105F9F083E00E9457118C01AA
:102A50000097C9F00E948E11F801ED57FF4F918247
:102A60008082D7011D968D919C911E97F801908BC5
:102A70008787128A80916D09848B1C968C91838B39
:102A8000C8010E94B815D701CC920CC0C7010E94A2
:102A9000AF1203C0C7010E947D118091A00981502F
:102AA0008093A009D394B3E0DB1609F05ECE2A969A
:102AB0000FB6F894DEBF0FBECDBFDF91CF911F914F
:102AC0000F91FF90EF90DF90CF90BF90AF909F90CD
:102AD0008F9008950E947D110895EF92FF921F93A9
:102AE000CF93DF937C018091B009882301F1C0E08E
:102AF000D5E110E18C2F0E948011DC018C91843192
:102B000081F4FD01E058FF4F208131812150304098
:102B1000318320832115310521F4DC93A158BF4F67
:102B20001C93CF5FC33031F7C7010E947B19DF913F
:102B3000CF911F91FF90EF9008951092AF091092DE
:102B4000AE091092B00982E390E0A0E0B0E080937B
:102B5000B7099093B809A093B909B093BA09109234
:102B6000BB098DE695E19093BD098093BC0908955A
:102B7000CF93DF93EC01FC01EE57FF4F808191E191
:102B80009883FE01E158FF4F108280FF03C08FEF52
:102B90009FEF04C08091A70C9091A80C9E838D8319
:102BA0008F8598890E948A1298878F832091A50C1F
:102BB0003091A60C3A8729872091AA0C2F5F209389
:102BC000AA0C2C832FEF8F3F920719F481E498E829
:102BD00002C081E698E89B838A838091B0098F5F69
:102BE0008093B009DF91CF9108950F931F93CF93F6
:102BF000DF938C01FC01818180510E945711EC010F
:102C00000097B1F1FC01ED57FF4F8AE695E1918302
:102C10008083CE010296F8014181B8016E5F7F4F3B
:102C200050E00E947D1D81E18883FE01E158FF4F45
:102C3000108281E498E89B838A838FEF9FEF9887C7
:102C40008F838091A70C9091A80C9E838D83809197
:102C5000A50C9091A60C9A8789878091AA0C8F5F0A
:102C60008093AA0C8C838091B0098F5F8093B00908
:102C7000DF91CF911F910F9108951F93CF93DF9311
:102C8000FC01C581D6818091B0098823B1F010E0A4
:102C9000812F0E948011FC018081843159F4948538
:102CA0008981981739F485E180838A81EE57FF4F37
:102CB000808303C01F5F133059F7DF91CF911F91BD
:102CC000089581E09091B009992309F480E0089576
:102CD000E091AE09F091AF09833030F0833031F0EC
:102CE000853031F481E205C080E003C080E201C09C
:102CF00081E0DF01A158BF4F8C9383E18083109264
:102D0000AF091092AE090895CF92DF92EF92FF9231
:102D10000F931F93CF93DF938091B009882309F419
:102D200055C010E005E184E1F82E95E1C92ED12CC3
:102D300022E1E22E812F0E948011EC0188818331F3
:102D400099F0853179F18131E9F50E948C1788235A
:102D5000C9F5D093AF09C093AE09E882CE010296BF
:102D600069810E94B3172EC0FE01E158FF4F808198
:102D70008823B1F42D853E858091A50C9091A60CF9
:102D80002817390769F48B8580FF0AC0F882C0587C
:102D9000DF4FD982C88281EB99E00E947B1912C073
:102DA000088310C0CE010E943112FE01ED57FF4F83
:102DB0000190F081E02DCE0109958091B0098150FC
:102DC0008093B0091F5F133009F0B4CFDF91CF912A
:102DD0001F910F91FF90EF90DF90CF90089593E0B7
:102DE0009093420180934201909141019F71891714
:102DF000D9F708958091C809882311F086E101C0B0
:102E000088E00E94EF1608950F931F93CF93DF93EE
:102E100010924E0186E00E94EF16C0E0D0E000E084
:102E200010E081E00E94950D809146018295869583
:102E3000837090E00C2E02C0880F991F0A94E2F76D
:102E4000082B192B2296C031D10559F788E00E9432
:102E5000EF168FEF80934F0180914E018860809331
:102E60004E0180914E01806480934E01C801DF9134
:102E7000CF911F910F910895E9E3F1E08081816086
:102E8000808388E00E94EF16EEE6F1E080818062A8
:102E9000808380818F7E80838FEF80934F01EEE46B
:102EA000F1E0808188608083808180648083ECE4AD
:102EB000F1E08081806880830E94041780936D0117
:102EC0001092C2091092C80981E08093C109089547
:102ED0009091C20998609093C2098093C80908959F
:102EE0009091C20991609093C2098093C30908959B
:102EF0002091C20922602093C2099093C509809352
:102F0000C40908952091C20924602093C2099093B6
:102F1000C7098093C60908958091C109813049F499
:102F200081E090E02091C209222329F480E090E022
:102F3000089581E090E0089588E00E94EF16E9E3AB
:102F4000F1E080818260808382E08093C1090895EE
:102F5000E9E3F1E080818D7F80830E94FA1681E0B1
:102F60008093C10908951F93CF93DF9300D0CDB70D
:102F7000DEB7182F89E169839A830E94EF16698171
:102F8000862F8E5F80938001E12F9A81F92FA1E82F
:102F9000B1E002C081918D938E2F811B8617D0F3F3
:102FA00082E08093420183E08093C1090F900F90EB
:102FB000DF91CF911F9108958091C2098061809324
:102FC000C20908951F920F920FB60F920BB60F927F
:102FD00011242F933F934F935F936F937F938F931E
:102FE0009F93AF93BF93EF93FF93809141018F71B4
:102FF000893169F489E00E94EF1684E08093C10969
:10300000809142018295869587708093C009FF91D7
:10301000EF91BF91AF919F918F917F916F915F9150
:103020004F913F912F910F900BBE0F900FBE0F90BD
:103030001F9018951F920F920FB60F9211248F9325
:1030400089E080934201809147018093BF0980917C
:103050007B018093BE0985E08093C1098F910F9019
:103060000FBE0F901F9018951F93CF93DF9300D042
:1030700000D00F92CDB7DEB78091C1098430F1F155
:10308000853009F44FC0813009F076C01091C20933
:10309000112309F471C088E00E94EF1610FF09C0E7
:1030A0009091C3099F7180914801807E892B809304
:1030B00048018091C20981FF08C08091C4098093B2
:1030C00062018091C509809363018091C20982FFEA
:1030D00008C08091C609809360018091C7098093E0
:1030E00061018091C20984FF04C00E9404170E94FC
:1030F000A81A0E94FA161092C2093EC08091C00917
:103100000E946816809141018F718930D9F72FC0D4
:10311000FC01E058FE4F20818753964FFC0120832D
:103120004F5F01C040E02091BE09842F90E030E065
:10313000281739076CF789EC99E09A838983809185
:10314000BE0982508B83E091BE09F0E0E753F64F51
:1031500080818C838091BF098A558D83CE01019631
:103160000E945A13809141018F718930D9F781E013
:103170008093C1090E94FA160F900F900F900F9044
:103180000F90DF91CF911F9108950E94880D0E94AA
:103190002C190E943C170E942E1008950E9434188A
:1031A0000E9479100E94881908950F931F93CF935E
:1031B000DF93FC010091490A10914A0A3681278168
:1031C0009085818501151105C1F1432F522F692F7B
:1031D000782FE80120E030E001C0EC018A819B817A
:1031E000AC81BD81481759076A077B0748F4841BE7
:1031F000950BA60BB70B8A839B83AC83BD8309C059
:10320000481B590B6A0B7B0B888199819E010097A3
:1032100021F742835383648375832115310551F06F
:10322000D9018D919C911197918380831196FC9384
:10323000EE930DC01183008306C011821082328389
:10324000238394838583F0934A0AE093490ADF91AC
:10325000CF911F910F91089510924A0A1092490A36
:103260000895CF93DF93EC01E091490AF0914A0A67
:10327000A0E0B0E02AC0EC17FD0711F58081918134
:10328000109721F011969C938E9304C090934A0A54
:103290008093490A0190F081E02D3097C1F082813E
:1032A0009381A481B5814A815B816C817D81840F8A
:1032B000951FA61FB71F82839383A483B58307C07E
:1032C00090818181DF01E92FF82F3097A1F6DF91FE
:1032D000CF910895E091490AF0914A0A06C0E81793
:1032E000F90739F00190F081E02D3097C1F780E0C7
:1032F000089581E00895CF93DF93EC010E946A194D
:10330000882319F4CE010E94D518DF91CF9108953A
:10331000CF92DF92EF92FF92CF93DF938091A40C34
:10332000882309F43EC08FB7F8946091A40C1092E2
:10333000A40C8FBF70E080E090E02AE030E040E035
:1033400050E00E948C1C6B017C0114C0C81AD90A81
:10335000EA0AFB0A8881998190934A0A8093490A74
:103360008A85813019F4CE010E94D518EB85FC8541
:10337000CE010995C091490AD0914A0A209789F057
:103380008A819B81AC81BD81C816D906EA06FB06FD
:10339000E8F68C199D09AE09BF098A839B83AC832B
:1033A000BD83DF91CF91FF90EF90DF90CF90089594
:1033B0008BB190E489278BB90895DF92EF92FF9249
:1033C0000F931F93CF93DF93FC01A581B6818BB13F
:1033D00090E489278BB9808559968C93599781857C
:1033E0005A968C93E580C681D78080E10E94EC0ECE
:1033F00082E00E94EC0E0E2D1C2FFF240FC0E8016E
:103400008881803121F40E94EC0E80E1F80EF801F1
:1034100081918F010E94EC0E8881F80E802F8E1909
:103420008D1568F380E10E94EC0E83E00E94EC0EA3
:103430008F2D8B5D0E94EC0E81E0DF91CF911F916B
:103440000F91FF90EF90DF90089580914B0A8430A8
:1034500021F481E080934B0A08958CE49AE00E9465
:103460007B190895CF93DF93EC015E988F858230AE
:10347000A1F0833028F4882351F08130D1F40AC0C0
:10348000803289F0813291F0803199F409C082E470
:1034900092E011C080E592E00EC08CE592E00BC096
:1034A00080E792E008C08DE792E005C08AE992E0EB
:1034B00002C08EEA92E00E94160F8F8520918A0A40
:1034C000882359F4222329F55E9A8BE89AE00E941A
:1034D000311981E080938A0A1CC080917E0A909104
:1034E0007F0AA091800AB091810A0196A11DB11DA9
:1034F00080937E0A90937F0AA093800AB093810AFA
:10350000222339F05E988BE89AE00E947B19109292
:103510008A0A83E080934B0ADF91CF9108950F933D
:103520001F93CF93DF938C01C0E0D0E005C00E94D1
:10353000450F0E94EC0E2196C017D107C1F78BB141
:1035400090E489278BB9DF91CF911F910F91089556
:103550000E94721D08950E94C51860E076E980E01F
:1035600090E00E94900E0E94560A8BE08093BA1C55
:103570008093BB1C1092BC1C0E94FE098AEB9CE14C
:103580000E947A0A0E9461098823E9F08CEB92E09C
:103590000E94160F08E91CE0C0E0D0E0F80181911C
:1035A0008F0190E00E94AA0B8DE20E94EC0E219602
:1035B000C530D10599F780919D0C90E00E94AA0B2F
:1035C0008CEC92E002C081ED92E00E94160F0BE5B8
:1035D0001AE025E2E22E2AE1F22E38EDC32E39E17F
:1035E000D32E4EEFA42E4FEFB42EA00EB11E52E3F9
:1035F000852E5AE1952E0E94CE180E94E70FC091A9
:103600004B0AC33009F45FC1C43030F4CC2371F0ED
:10361000C13009F07EC1BEC0C63009F462C1C730F6
:1036200009F46CC1C53009F074C153C121E0209385
:10363000590A20935A0A83E080935B0A80E4F801D8
:10364000818312821382148215821682178283E08C
:1036500090E49093640A8093630A80E091E0A1E093
:10366000B1E08093650A9093660AA093670AB093CD
:10367000680A80E090E8A0E0B0E08093690A909347
:103680006A0AA0936B0AB0936C0A84E392E1909368
:103690006E0A80936D0A8FE080936F0A1092710A10
:1036A0001092700A1092720A1092730A2093740A90
:1036B0008CE08093750A1092760A1092770A109225
:1036C000780A1092790A10927A0A10927B0A109264
:1036D0007C0A10927D0A10927E0A10927F0A109244
:1036E000800A1092810A80E28093820A86E08093A9
:1036F000830AE4E8FAE0A0EFB2E00D900192815075
:10370000E1F7569A5E9A83E090E40E94471084E3C2
:1037100092E10E944E108FE00E94701781E00E949B
:10372000681781E06DED79E10E94551080ED97E01A
:10373000A0E0B0E08093520A9093530AA093540AF9
:10374000B093550A1092560AF092580AE092570A1E
:1037500010928A0A84EF91E0A0E0B0E08093910A91
:103760009093920AA093930AB093940AC1E0C093F5
:10377000950AD092970AC092960A8BE89AE00E9426
:103780007B1987EF92E00E94160F0E94DC17C0930E
:103790004B0ABFC080E090E00E9405139093710A2D
:1037A0008093700A0E946D1DAA2797FDA095BA2FDD
:1037B0008093760A9093770AA093780AB093790A57
:1037C0000E946D1DAA2797FDA095BA2F8F77907044
:1037D000A070B07080937A0A90937B0AA0937C0AC1
:1037E000B0937D0A10929E0A10929D0AC0939F0A80
:1037F000C093A00A83E08093A10AB092A30AA0928A
:10380000A20A81E38093A40A9092A60A8092A50A54
:103810005E9A88E99AE00E94A4108091BA1C90E018
:103820000E946A0B8AE30E94EC0E8091BB1C90E020
:103830000E946A0B8AE30E94EC0E8091BC1C90E00F
:103840000E946A0B80E093E00E94160F83E00E94C2
:10385000CB0989E20E94CE09BC0180E090E00E9481
:10386000210427ED33EA40E95FE30E949E0226E649
:1038700036E648E853E40E9466020E94B100DC018B
:10388000CB019093B30C8093B20C83E093E00E9441
:10389000160F8091B20C9091B30C64EB7CE04AE07F
:1038A00050E00E94861D84EB9CE00E94160F8AEB7C
:1038B0000E94EC0E83E40E94EC0E80E093E00E94F4
:1038C000160F82E024C08CE49AE00E947B1984E009
:1038D0001EC00E945E108823E1F40E94731086E0EF
:1038E00016C056985E9880E00E94681760ED77E0F9
:1038F00080E090E00E94990D87E009C00E94761058
:10390000569A5E9A5E9A81E00E94681781E08093E1
:103910004B0A0E9403076FCE629FD001739FF00194
:10392000829FE00DF11D649FE00DF11D929FF00D4F
:10393000839FF00D749FF00D659FF00D9927729F86
:10394000B00DE11DF91F639FB00DE11DF91FBD0111
:10395000CF0111240895AA1BBB1B51E107C0AA1F68
:10396000BB1FA617B70710F0A61BB70B881F991F20
:103970005A95A9F780959095BC01CD010895A1E2D3
:103980001A2EAA1BBB1BFD010DC0AA1FBB1FEE1FD9
:10399000FF1FA217B307E407F50720F0A21BB30B24
:1039A000E40BF50B661F771F881F991F1A9469F7A0
:1039B00060957095809590959B01AC01BD01CF01FC
:1039C00008952F923F924F925F926F927F928F92C3
:1039D0009F92AF92BF92CF92DF92EF92FF920F939E
:1039E0001F93CF93DF93CDB7DEB7CA1BDB0B0FB6A8
:1039F000F894DEBF0FBECDBF09942A883988488865
:103A00005F846E847D848C849B84AA84B984C884FA
:103A1000DF80EE80FD800C811B81AA81B981CE0FF1
:103A2000D11D0FB6F894DEBF0FBECDBFED010895D6
:103A30008F929F92AF92BF92CF92DF92EF92FF92BE
:103A4000CF93DF93EC0188819981AA81BB81009794
:103A5000A105B10521F484E299EDABE5B7E0BC0125
:103A6000CD012DE133EF41E050E00E94C71D490137
:103A70005A0127EA31E440E050E00E948C1C6B01BF
:103A80007C01C501B4012CEE34EF4FEF5FEF0E94D3
:103A90008C1CDC01CB01C80ED91EEA1EFB1EF7FEF2
:103AA00008C08FEF9FEFAFEFBFE7C80ED91EEA1E29
:103AB000FB1EC882D982EA82FB82C6019F77DF9112
:103AC000CF91FF90EF90DF90CF90BF90AF909F90FD
:103AD0008F9008950E94181D089582E194E00E943D
:103AE000181D0895A0E0B0E0809312049093130491
:103AF000A0931404B09315040895FB01DC0102C0E7
:103B000001900D9241505040D8F70895FB019F015C
:103B1000E8944230C4F04532B4F44A3029F497FBBB
:103B20001EF4909581959F4F642F77270E94AB1CC0
:103B3000805D8A330CF0895D8193CB010097A1F7FA
:103B400016F45DE251931082C9010C94B71DDC019B
:103B5000CB01FC01F999FECF06C0F2BDE1BDF89A98
:103B6000319600B40D9241505040B8F70895DC01F1
:103B7000FC01672F71917723E1F7329704C07C91A4
:103B80006D9370836291AE17BF07C8F3089597FBDA
:103B9000092E05260ED057FD04D0F1DE0AD0001CF8
:103BA00038F450954095309521953F4F4F4F5F4FDA
:103BB0000895F6F790958095709561957F4F8F4F9A
:083BC0009F4F0895F894FFCF18
:103BC80050524F434553534947204F504552415453
:103BD800494F4E203E3E20544F3A000920434F445F
:103BE800453A000920415247533A000D0A00425510
:103BF80054544F4E20505245535345440D0A0030FB
:103C080078004E574B5F535543434553530D0A00B5
:103C18004E574B5F4552524F520D0A004E574B5F5D
:103C28004F55545F4F465F4D454D4F52590D0A0051
:103C38004E574B5F4E4F5F41434B0D0A005048595A
:103C48005F4348414E4E454C5F4143434553535FA4
:103C58004641494C5552450D0A005048595F4E4F50
:103C68005F41434B5F5354415455530D0A004E4F27
:103C78005420535045435445440D0A005345524976
:103C8800414C204E554D4245523A20000D0A0D0A2E
:103C98000053455249414C204E554D4245523A2019
:103CA8004E4F54204445544543544544210D0A0081
:103CB800526F7574657200524F555445520D0A0083
:103CC8000D0A0054454D503A200000000000000045
:103CD80000000001020203030303040404040404B3
:103CE800040405050505050505050505050505057E
:103CF800050506060606060606060606060606065E
:103D0800060606060606060606060606060606064B
:103D1800060607070707070707070707070707072D
:103D2800070707070707070707070707070707071B
:103D3800070707070707070707070707070707070B
:103D480007070707070707070707070707070707FB
:103D580007070808080808080808080808080808DD
:103D680008080808080808080808080808080808CB
:103D780008080808080808080808080808080808BB
:103D880008080808080808080808080808080808AB
:103D9800080808080808080808080808080808089B
:103DA800080808080808080808080808080808088B
:103DB800080808080808080808080808080808087B
:103DC800080808080808080808080808080808086B
:103DD80008080100000000000100000000000000C9
:103DE80000000000000000000000000200000605BE
:103DF8000102000000000000000501020000870D1C
:103E0800870D00000000590D590D590D590D00007E
:103E1800000000000000000000000000300D300D20
:043E2800300D010157
:00000001FF
