:100000000C9490000C94AF000C94AF000C94AF00D3
:100010000C94AF000C94AF000C94AF000C94AF00A4
:100020000C94AF000C94AF000C94AF000C94AF0094
:100030000C94AF000C948C0E0C94AF000C94D70B66
:100040000C94AF000C94AF000C94AF000C94AF0074
:100050000C94AF000C94AF000C94AF000C94AF0064
:100060000C94AF000C9403100C94E70F0C94AF00A9
:100070000C94AF000C94AF000C94AF000C94AF0044
:100080000C94AF000C94AF000C94AF000C94AF0034
:100090000C94AF000C94AF000C94AF000C94AF0024
:1000A0000C94AF000C94AF000C94E40E0C94F50E7D
:1000B0000C94AF000C94AF000C94AF000C94AF0004
:1000C0000C94AF000C94AF000C94AF000C94AF00F4
:1000D0000C94AF000C94AF000C94AF000C94AF00E4
:1000E0000C94AF000C94AF000C94AF000C94AF00D4
:1000F0000C943E180C94AF000C94AF000C940618AE
:100100000C94AF000C94AF000C94AF000C94AF00B3
:100110000C94AF000C94AF000C94AF000C94AF00A3
:1001200011241FBECFEFD1E4DEBFCDBF13E0A0E0AE
:10013000B2E0E0E3F7E300E00BBF02C007900D92EE
:10014000A03EB107D9F71BE1A0EEB3E001C01D92BC
:10015000A63DB107E1F70E94DF190C94961B0C94A1
:100160000000CF92DF92EF92FF920F931F936B01EB
:100170007C0120E030E040E05FE40E949F0387FDC7
:1001800011C0C701B60120E030E040E05FE40E940A
:1001900066020E94D0038B019C0100501040204059
:1001A000304806C0C701B6010E94D0038B019C01F4
:1001B000B801C9011F910F91FF90EF90DF90CF9090
:1001C0000895A0E0B0E0E7EEF0E00C94C81AEC016E
:1001D0004B01FA018881823008F43EC1DB019C9119
:1001E000923008F436C1843059F4943009F034C1A7
:1001F000998111968C911197981709F027C12CC1FC
:10020000943009F426C19230A9F4823009F024C157
:10021000CE0128E0DC010D90CD01DA010D92AD0197
:100220002150C1F7D40111968C911197998189239E
:10023000818311C1823009F40CC1AA80BB80DB012B
:1002400012964D915C911397CC80DD80EE80FF80FB
:1002500014960D911D912D913C911797C501841B0A
:10026000950BDC0197FF04C0AA27BB27A81BB90B7D
:10027000A032B1050CF067C01816190684F52801E4
:1002800039010A2E04C076946794579447940A94CF
:10029000D2F741E050E060E070E004C0440F551F29
:1002A000661F771FAA95D2F74150504060407040BA
:1002B000402351236223732381E090E0A0E0B0E06B
:1002C000411551056105710519F480E090E0DC01EC
:1002D0008C019D0104291529262937293FC0009743
:1002E000E9F1AA0EBB1E260137010A2E04C076943E
:1002F0006794579447940A94D2F741E050E060E045
:1003000070E004C0440F551F661F771FAA95D2F7EF
:1003100041505040604070404C215D216E217F2152
:1003200081E090E0A0E0B0E0411551056105710564
:1003300019F480E090E0DC016C017D01C428D5282F
:10034000E628F7280BC04A155B0524F400E010E00E
:10035000980104C05A01CC24DD2476018981D4019E
:1003600011969C911197891709F445C0882329F0AB
:100370000C191D092E093F0908C0D701C601801BB1
:10038000910BA20BB30B8C019D0137FD04C01182B0
:10039000B382A2820BC081E08183B382A2823095B6
:1003A0002095109501951F4F2F4F3F4F04831583C4
:1003B000268337830DC0880F991FAA1FBB1F848314
:1003C0009583A683B78382819381019793838283E8
:1003D00084819581A681B781AC01BD014150504017
:1003E000604070404F3F2FEF52072FEF62072FE31F
:1003F000720708F30BC08183B382A2820C0D1D1D0E
:100400002E1D3F1D048315832683378383E080835D
:10041000448155816681778177FF1DC0DB01CA0168
:1004200081709070A070B0707695679557954795DC
:10043000842B952BA62BB72B84839583A683B78318
:100440008281938101969383828305C0C5E8D2E0BF
:1004500003C0E40101C0EF01CE01CDB7DEB7E0E19A
:100460000C94E41AA0E2B0E0E8E3F2E00C94D61AAF
:10047000DC01CB018D839E83AF83B88729833A83C8
:100480004B835C83CE010596BE01675E7F4F0E9461
:10049000C805CE010196BE016F5E7F4F0E94C80560
:1004A000CE014996BE016F5E7F4FAE01475F5F4F41
:1004B0000E94E1000E94F104462F572F682F792FE8
:1004C000CB01BA01A096E2E00C94F21AA0E2B0E0EF
:1004D000ECE6F2E00C94D61ADC01CB018D839E830E
:1004E000AF83B88729833A834B835C83CE0105961B
:1004F000BE01675E7F4F0E94C805CE010196BE0116
:100500006F5E7F4F0E94C8058A8991E089278A8B98
:10051000CE014996BE016F5E7F4FAE01475F5F4FD0
:100520000E94E1000E94F104462F572F682F792F77
:10053000CB01BA01A096E2E00C94F21AA0E2B0E07E
:10054000E4EAF2E00C94C81ADC01CB018D839E83AF
:10055000AF83B88729833A834B835C83CE010596AA
:10056000BE01675E7F4F0E94C805CE010196BE01A5
:100570006F5E7F4F0E94C805998D923078F089890F
:100580008230C0F0943019F4823041F4CAC0843013
:1005900019F4923079F4C5C0923051F481E02A8D7B
:1005A0009A89291709F480E08A8FCE014996BBC049
:1005B000823051F481E02A8D9A89291709F480E06C
:1005C0008A8BCE014196AFC04D8C5E8C6F8C78A02B
:1005D0000D891E892F89388DE0E2F0E040E050E07F
:1005E000BA01882499245401CC24DD247601C20167
:1005F000817090700097D1F0C00ED11EE21EF31EE4
:10060000DB01CA01880D991DAA1DBB1D41E050E008
:1006100060E070E0C016D106E206F30618F040E094
:1006200050E0BA01480F591F6A1F7B1F880C991CA4
:10063000AA1CBB1C37FF08C081E090E0A0E0B0E03E
:10064000882A992AAA2ABB2A000F111F221F331FAA
:100650007694679457944794319749F68B8D9C8D87
:100660002B893C89820F931F02969C878B8781E0A0
:100670002A8D9A89291709F480E08A872B853C8581
:1006800017C0CA0181709070009761F0F694E794EA
:10069000D794C79480E090E0A0E0B0E8C82AD92AB7
:1006A000EA2AFB2A76956795579547952F5F3F4F26
:1006B00077FDE7CFC9010BC0440F551F661F771F99
:1006C000F7FC4160CC0CDD1CEE1CFF1C0197403098
:1006D000A0E05A07A0E06A07A0E47A0768F38B87D6
:1006E0009C87DB01CA018F779070A070B070803456
:1006F0009105A105B10561F447FD0AC0C114D104FB
:10070000E104F10429F0405C5F4F6F4F7F4F407868
:100710004D875E876F87788B83E08987CE01099646
:1007200002C085E892E00E94F104462F572F682FFF
:10073000792FCB01BA01A096E0E10C94E41AA8E16C
:10074000B0E0E5EAF3E00C94D61ADC01CB018D832E
:100750009E83AF83B88729833A834B835C83CE0122
:100760000596BE016F5E7F4F0E94C805CE010196BF
:10077000BE01675F7F4F0E94C8058989823058F0AB
:100780008985823040F0CE014196BE01675F7F4F80
:100790000E94310601C08FEF6896E2E00C94F21AD5
:1007A000ACE0B0E0E6EDF3E00C94D41ADC01CB0150
:1007B00089839A83AB83BC83CE010196BE016B5FB4
:1007C0007F4F0E94C8058D81823069F1823058F1D7
:1007D000843039F02F81388537FD25C02F31310520
:1007E00044F08E81882319F100E010E020E030E829
:1007F00022C08EE190E0821B930B09851A852B8520
:100800003C8504C036952795179507958A95D2F7AC
:100810008E81882381F030952095109501951F4F8A
:100820002F4F3F4F08C000E010E0980104C00FEFC9
:100830001FEF2FEF3FE7B801C9012C96E4E00C94BD
:10084000F01AA8E0B0E0E7E2F4E00C94D01A6B01F3
:100850007C011A82611571058105910519F482E008
:1008600089835EC083E089830EE110E01C830B83E3
:10087000CD82DE82EF82F886C701B6010E949E0417
:100880009C012150304037FF38C0EE27FF27E21B84
:10089000F30B81E090E0A0E0B0E00E2E04C0880FE2
:1008A000991FAA1FBB1F0A94D2F70197A109B1098A
:1008B0008C219D21AE21BF2141E050E060E070E03D
:1008C0000097A105B10519F440E050E0BA0104C059
:1008D000F694E794D794C794EA95D2F7C42AD52A18
:1008E000E62AF72ACD82DE82EF82F8868EE190E05A
:1008F000821B930B9C838B8313C02115310581F0E0
:10090000022E04C0CC0CDD1CEE1CFF1C0A94D2F796
:10091000CD82DE82EF82F886021B130B1C830B83D1
:10092000CE0101960E94F104462F572F682F792F90
:10093000CB01BA012896E8E00C94EC1ACF92DF9232
:10094000EF92FF920F931F938B019C01003080E088
:10095000180781E0280780E0380750F40F3F1105A1
:100960002105310509F088F480E090E0DC0116C033
:100970000030E0E01E07E0E02E07E1E03E0750F423
:1009800080E190E0A0E0B0E009C088E090E0A0E065
:10099000B0E004C088E190E0A0E0B0E040E250E0C8
:1009A00060E070E0481B590B6A0B7B0B6801790112
:1009B00004C0F694E794D794C7948A95D2F7D701E8
:1009C000C60183579D4FFC018081481B5109610975
:1009D0007109CA011F910F91FF90EF90DF90CF90A6
:1009E0000895CF92DF92EF92FF920F931F93DC0155
:1009F00014964D915D916D917C9117971196EC91A4
:100A000011978C91823020F460618FEF90E0A5C047
:100A1000843009F49DC0823009F494C04115510519
:100A20006105710509F491C012968D919C911397FF
:100A30002FEF823892070CF059C022E83FEF281BB5
:100A4000390B2A31310564F56A017B01022E04C09D
:100A5000F694E794D794C7940A94D2F781E090E093
:100A6000A0E0B0E004C0880F991FAA1FBB1F2A9501
:100A7000D2F70197A109B10984239523A623B723AF
:100A800041E050E060E070E00097A105B10519F485
:100A900040E050E0BA014C295D296E297F2903C04E
:100AA00040E050E0BA01DB01CA018F779070A0707E
:100AB000B07080349105A105B10539F447FF09C034
:100AC000405C5F4F6F4F7F4F04C0415C5F4F6F4F83
:100AD0007F4F81E090E0403020E0520720E0620745
:100AE00020E4720738F580E090E024C0803891055A
:100AF0007CF58A019B010F771070207030700034F4
:100B000011052105310539F447FF09C0405C5F4FED
:100B10006F4F7F4F04C0415C5F4F6F4F7F4F77FD3A
:100B200003C081589F4F06C07695679557954795A6
:100B300080589F4F97E076956795579547959A957A
:100B4000D1F70BC080E090E005C080E090E005C0E8
:100B50008FEF90E040E050E0BA01982F97959927E9
:100B60009795A62FAF77E795EE27E79586953A2FCD
:100B7000392B282F2E2B842F952FA32FB22FBC017A
:100B8000CD011F910F91FF90EF90DF90CF900895CE
:100B9000DC01FB014C9111965C91119712968C919E
:100BA0001297682F6F7770E0982F991F9927991FD8
:100BB00013962C911397822F880F892B90E0221F78
:100BC0002227221F2183009739F541155105610520
:100BD000710511F482E029C082E89FEF938382833C
:100BE00027E0440F551F661F771F2A95D1F783E032
:100BF000808309C0440F551F661F771F8281938130
:100C0000019793838283403080E0580780E0680733
:100C100080E4780778F320C08F3F910579F441157F
:100C200051056105710519F484E08083089564FF1E
:100C300003C081E0808310C010820EC08F579040A7
:100C40009383828383E0808387E0440F551F661F70
:100C5000771F8A95D1F770644483558366837783C1
:100C60000895CF93FC01DB019081923008F44CC0D1
:100C70008C91823008F448C0943069F4218184302A
:100C800039F411968C91119790E0821B910944C020
:100C90002223D1F13FC0843021F0923041F48230E0
:100CA000B1F111968C9111978823A1F12DC0C181CA
:100CB000823001F111968C911197C817D9F4828175
:100CC000938112962D913C9113972817390794F030
:100CD00082179307BCF04481558166817781149611
:100CE0008D919D910D90BC91A02D84179507A6071D
:100CF000B70718F4CC2341F00DC0481759076A070D
:100D00007B0728F4CC2331F081E090E005C080E03F
:100D100090E002C08FEF9FEFCF910895CF93DF93C4
:100D2000DC01EC91EF3F89F0F0E0EF01CF56DC4FB2
:100D30008881EC55FC4F882331F0808111969C917D
:100D40001197890F03C0808101C084E0DF91CF91AA
:100D50000895DC011296EC91F0E0EE0FFF1FE954CC
:100D6000FC4F0190F081E02D09950895EF92FF92DC
:100D70000F931F93CF93DF938C0180E092E00E944A
:100D80008A0FF801808191810E94970C8BE192E09B
:100D90000E948A0FF801828190E00E94970C83E202
:100DA00092E00E948A0FC80102960E948E06E82EE9
:100DB000E8012396FF2409C0899190E00E94970CD6
:100DC00080E290E00E94600FF394FE14A9F78BE29A
:100DD00092E00E948A0FF80182818F3F69F0808142
:100DE0009181009731F4C80160E070E00E94A9068B
:100DF00003C0C8010E94F908DF91CF911F910F91A4
:100E0000FF90EF9008954F925F926F927F928F9232
:100E10009F92AF92BF92CF92DF92EF92FF920F9389
:100E20001F93CF93DF9326E0822E2AE0922E10E0CC
:100E300031E0632E712C1330F9F0143028F41130A6
:100E400079F0123039F412C0153011F11530D0F0AC
:100E5000163009F1D0B10091F40B8091F50B20C050
:100E6000D3B10091F90B8091FA0B1AC0D6B1009161
:100E7000FE0B8091FF0B14C0D9B10091030C80913F
:100E8000040C0EC0DCB10091080C8091090C08C064
:100E9000DFB180E005C0D2B30091120C8091130C39
:100EA0009EEFC92E99E0D92EEE24FF24A02EBB245C
:100EB000A094B094482E5524CE2D1093E203E092D6
:100EC000E103D093E0034E2DC5010E2C02C0959591
:100ED00087950A94E2F780FF9FC0C2010E2C02C0E2
:100EE000959587950A94E2F780FF57C02091E30318
:100EF000E22FF0E08D2F90E00E2C02C095958795A3
:100F00000A94E2F78170EA53F64F9081990F982B7B
:100F100090839F3F49F4C3010E2C02C0880F991F94
:100F20000A94E2F7D82B09C0C3010E2C02C0880F27
:100F3000991F0A94E2F78095D8232F5F2093E3034B
:100F4000F401808190E0042E02C0959587950A9463
:100F5000E2F78170907021E0C73009F020E031E0C5
:100F6000133009F030E0232330E0282339238D2F7C
:100F700090E002C0959587954A95E2F78170907050
:100F800080959095282339232115310509F444C013
:100F90008EE292E00E948A0F3FC08E2D0E94F909D6
:100FA000C430D9F0C53038F4C23089F0C33090F481
:100FB000C13039F409C0C630B1F0C63088F0C7304E
:100FC000A9F020911F0C14C02091210C11C0209178
:100FD000230C0EC02091250C0BC02091270C08C0BB
:100FE0002091290C05C020912B0C02C020912D0CC2
:100FF0009091DD03992371F4F601408150E0481B84
:10100000510957FF03C0509541955F4F30E042179B
:10101000530714F0F60180830894E11CF11C089436
:10102000C11CD11CF8E0EF16F10409F045CFF40122
:10103000D1934F011F5F173009F0FDCE1092DD03F1
:101040001092E303DF91CF911F910F91FF90EF90EA
:10105000DF90CF90BF90AF909F908F907F906F90D8
:101060005F904F900895089582E99AE00E94FD10E4
:10107000089510920D0A84EF91E0A0E0B0E0809313
:10108000AD0B9093AE0BA093AF0BB093B00B10923F
:10109000B10B84E398E09093B30B8093B20B83E0A1
:1010A00090E40E94BB1084E392E10E94C2108FE0A2
:1010B00090E00E94B11781E090E00E94A91781E0C2
:1010C00063E378E00E94C91081E08093E40308950F
:1010D000CF93DF938091E403813009F065C0E09104
:1010E0000E0AF0910F0A8091100A9091110AE817E8
:1010F000F907C1F0EE0FFF1FEE5EF54FC081D18101
:10110000CE0102960E948E068D5F20910E0A3091CC
:101110000F0A2F5F3F4F2F73307030930F0A2093C9
:101120000E0A20C08091A30A9091A40A2091A50ADA
:101130003091A60A82179307C1F18D55954FFC0196
:10114000C481D0E0CE0102960E948E068D5F209170
:10115000A30A3091A40A280F311D30703093A40ADD
:101160002093A30A288139813093980A2093970A03
:1011700091E09093990A90939A0A93E090939B0A36
:10118000D0939D0AC0939C0A80939E0A88ED98E0B4
:101190009093A00A80939F0A82E08093E40382E9FF
:1011A0009AE00E94FD1001C0FFCFDF91CF9108951A
:1011B000FC018785882341F410920D0A81E0809319
:1011C000E4030E946808089580910D0A8F5F809360
:1011D0000D0A87EA9BE00E94661980910D0A85300E
:1011E00039F410920D0A81E08093E4030E946808AC
:1011F00008959C0140910E0A50910F0A8091100AA7
:101200009091110A8417950710F0405C5F4F481BBE
:10121000590B91F0FC01EE0FFF1FEE5EF54F31838D
:10122000208301968F7390709093110A8093100A17
:101230000E94680881E0089580E00895559A5D98BD
:1012400087EB9BE00197F1F700C0000055985D988F
:101250005D9A95E89A95F1F7000099B1EFECF2E00C
:101260003197F1F700C0000081E095FF80E008951C
:1012700028E030E0559A5D9880FF0EC09AE19A957B
:10128000F1F700C055985D985D9AE7ECF0E0319772
:10129000F1F700C000000DC0E7ECF0E03197F1F786
:1012A00000C0000055985D985D9AFAE1FA95F1F753
:1012B00000C02150304011F08695DCCF089528E021
:1012C00030E080E0559A5D980014001400145598A1
:1012D0005D985D9A90E59A95F1F74D99806890EA4E
:1012E0009A95F1F72150304009F408958695EACF98
:1012F000FC0190E04CE80AC0319128E0532F5927B7
:10130000969550FD942736952150C1F72E2F281B16
:10131000261790F3892F0895CF92DF92EF92FF92D4
:101320000F931F93CF93DF93CDB7DEB727970FB6F9
:10133000F894DEBF0FBECDBF8091B40B882309F0B7
:1013400043C055985D985D9A8FE798E3A1E081507E
:101350009040A040E1F700C000000E941E098823D1
:10136000A9F5F89483E30E9438090E945F098983F4
:1013700082E0E82EF12CEC0EFD1E670101E010E08A
:101380000E945F09D6018D936D010F5F1F4F0730DB
:101390001105B1F70E945F09082F7894CE010196DC
:1013A00067E00E9478099981913081F4801771F487
:1013B0009093B40BEBEBFBE0D7018D917D01829311
:1013C000BBE0E53BFB07C1F781E001C080E0279669
:1013D0000FB6F894DEBF0FBECDBFDF91CF911F9146
:1013E0000F91FF90EF90DF90CF9008958093DE03F0
:1013F00008959091DE03883040F49295990F990FEB
:10140000907C982B90937C0008C0892F8295880F40
:10141000880F807C896280937C0080917A0080684C
:1014200080937A0084E190E00E94880E80917A0097
:10143000876480937A0080917A0086FDFCCF80914A
:10144000780090917900392F20E090E0822B932B47
:1014500008950F931F93CF93DF9383ED9BE060E09C
:1014600070E04CE050E00E946B1BC091D40BD09117
:10147000D50B0091D60B1091D70BCE0101972FEF12
:101480008E3F920708F038C083ED9BE060E070E08B
:10149000AE010E946B1B1092D70B1092D60BE3ED9E
:1014A000FBE080E090E020E030E041912427422FF3
:1014B00042954227042E469546954025042E469592
:1014C00040254770022E232F469507944795302DCF
:1014D0002427069447953025242701968C179D07CD
:1014E00021F781E00217130709F080E08093D20B07
:1014F0001093D70B0093D60BDF91CF911F910F91D3
:1015000008952C9A962F96959695969590FF02C0E1
:101510002B9A01C02B98962F9695969590FF02C016
:101520002A9A01C02A98962F969590FF02C0299A70
:1015300001C0299860FF02C0289A01C0289888231A
:1015400011F42D9A01C02D982C9808951F93CF93D4
:10155000DF93C82F162F12951F70D62FDF708823A8
:1015600071F48091BB0B803151F481E060EC0E94FA
:10157000A60A83EC99E00197F1F700C0000095E816
:101580009A95F1F700008C2F612F0E94810A8C2F11
:101590006D2F0E94810ACC2399F48091BB0B8F5F41
:1015A0008093BB0B803261F481E060E80E94A60A60
:1015B00083EC99E00197F1F700C000001092BB0B9B
:1015C000DF91CF911F9108951092BB0B209A219A21
:1015D000229A239A249A259A8FE295E70197F1F7A8
:1015E00000C0000081E063E00E94810A8FE097E282
:1015F0000197F1F700C0000081E063E00E94810ADA
:101600008FE097E20197F1F700C0000081E063E00E
:101610000E94810A8FE097E20197F1F700C0000075
:1016200081E062E00E94810A8FE097E20197F1F782
:1016300000C0000081E068E20E94A60A8FE895E6FB
:101640000197F1F700C0000081E068E00E94A60A5F
:101650008FE895E60197F1F700C0000081E061E0B6
:101660000E94A60A8FE895E60197F1F700C00000F6
:1016700081E06FE00E94A60A8FE895E60197F1F7F6
:1016800000C000000895809170008A7F80937000F0
:101690008091B6008F738093B6008091B60080620F
:1016A0008093B6001092B20085E08093B1008091E3
:1016B000B60090E0877090700097C9F78091700035
:1016C00081608093700078941092CF0B0895FC0194
:1016D000A3EDBBE183E00D9001928150E1F70E9400
:1016E000960B81E08093CF0B0895CF93DF9300D0CA
:1016F00000D000D0CDB7DEB7261760F0621740F0FB
:10170000371740F0731720F0481720F0841720F4A3
:101710008FEF03C081E001C080E026960FB6F894F9
:10172000DEBF0FBECDBFDF91CF9108951F93CF9342
:10173000DF93C0919F0CD0E021C0CE018B55934F19
:101740009093BD0B8093BC0B05960E948E06182FBC
:10175000E091BC0BF091BD0B608171818281209181
:10176000D31B3091D41B4091D51B0E94750B87FF72
:101770000BC0812F90E00696C80FD91F8091A10C55
:1017800090E0C817D907C8F28091A10C90E0C81763
:10179000D90748F080919F0C90E08B55934F909320
:1017A000BD0B8093BC0BDF91CF911F9108951F92C9
:1017B0000F920FB60F920BB60F9211242F933F93F7
:1017C0004F935F936F937F938F939F93AF93BF9349
:1017D000CF93DF93EF93FF938091D51B8F5F80931F
:1017E000D51B8C33A1F41092D51B8091D41B8F5F35
:1017F0008093D41B8C3359F41092D41B8091D31B4B
:101800008F5F8093D31B883111F41092D31B80918A
:10181000CF0B882331F536C0CE0103960E94B60661
:10182000C091BC0BD091BD0BCE0105960E948E06D7
:101830002696C80FD11DD093BD0BC093BC0B8091D1
:10184000A10C90E08B55934FC817D90750F08091A9
:101850009F0C90E08B55934F9093BD0B8093BC0BE6
:1018600011C0C091BC0BD091BD0B688179818A8178
:101870002091D31B3091D41B4091D51B0E94750B36
:10188000882351F2FF91EF91DF91CF91BF91AF91FA
:101890009F918F917F916F915F914F913F912F9188
:1018A0000F900BBE0F900FBE0F901F901895CF9307
:1018B000DF93EC0187E2C031D80750F0CE0160E140
:1018C00077E20E94901AEC01CB01C0960E94600F53
:1018D00083E0C83ED80750F0CE0168EE73E00E9466
:1018E000901AEC01CB01C0960E94600FC436D1055E
:1018F00050F0CE0164E670E00E94901AEC01CB013A
:10190000C0960E94600FCA30D10550F0CE016AE047
:1019100070E00E94901AEC01CB01C0960E94600F0B
:10192000CE01C0960E94600FDF91CF9108950F9372
:101930001F93CF93DF938C018FE392E00E948A0F75
:10194000E801CE01807F907024E0959587952A95D7
:10195000E1F7282F90E02A3010F4C09601C0C79616
:101960000E94600F2C2F2F70822F90E02A3010F4ED
:10197000C09601C0C7960E94600FCD2FDD0FDD0B12
:101980002097F9F6DF91CF911F910F910895EF9273
:101990000F93CF93DF9300D000D00F92CDB7DEB777
:1019A000002329F05223E1E0521769F40DC0A22F61
:1019B000B0E0652F70E0609570956A237B23E1E0CD
:1019C0006A177B0709F0E0E08E2FEE2079F030E017
:1019D00050E04095509542235323E1E0F0E0421758
:1019E000530711F0E0E0F0E08E2308C0422361E0ED
:1019F00070E0421711F060E070E086230F900F90C6
:101A00000F900F900F90DF91CF910F91EF9008956D
:101A1000DF92EF92FF920F931F93CF93DF93D82E15
:101A2000C62FF42E122FD02F83E0D81609F475C0DC
:101A30008D1538F081E0D81681F18D1508F44DC070
:101A40000CC085E0D81609F4A8C0D81608F485C0E3
:101A500086E0D81609F0DDC0BEC04091F40B50916D
:101A6000F50B6091F60B7091F70B8091F80B2C2F12
:101A700001E0EF2C0E94C70C882309F4CAC0FF20A4
:101A800009F0D0C092B1812F8C23892B82B982B109
:101A9000C095C12BC823C2B9CEC04091F90B50915B
:101AA000FA0B6091FB0B7091FC0B8091FD0B2C2FBE
:101AB00001E0EF2C0E94C70C882309F4AAC0FF2084
:101AC00009F0B0C095B1812F8C23892B85B985B1E0
:101AD000C095C12BC823C5B9AEC04091FE0B509133
:101AE000FF0B6091000C7091010C8091020C2C2F67
:101AF00001E0EF2C0E94C70C882309F48AC0FF2064
:101B000009F090C098B1812F8C23892B88B988B1B6
:101B1000C095C12BC823C8B98EC04091030C509109
:101B2000040C6091050C7091060C8091070C2C2F11
:101B300001E0EF2C0E94C70C882309F46AC0FF2043
:101B400009F070C09BB1812F8C23892B8BB98BB18D
:101B5000C095C12BC823CBB96EC04091080C5091E1
:101B6000090C60910A0C70910B0C80910C0C2C2FBD
:101B700001E0EF2C0E94C70C882309F44AC0FF2023
:101B800009F050C09EB1812F8C23892B8EB98EB164
:101B9000C095C12BC823CEB94EC040910D0C5091B9
:101BA0000E0C60910F0C7091100C8091110C2C2F69
:101BB00001E0EF2C0E94C70C882359F1FF2091F51A
:101BC00091B3812F8C23892B81BB81B3C095C12B0D
:101BD000C823C1BB30C04091120C5091130C6091CE
:101BE000140C7091150C8091160C2C2F01E0EF2C29
:101BF0000E94C70C882369F0FF20A1F494B3812FC1
:101C00008C23892B84BB84B3C095C12BC823C4BB50
:101C100012C080E0DF91CF911F910F91FF90EF9064
:101C2000DF900895ED2DF0E0EA5FF54F808180931D
:101C3000C10BD093C00B81E0EDCF0F931F938B01AD
:101C4000FC018281803141F4809111006091120089
:101C500040E02091130015C0813161F480911200A1
:101C6000E82FF0E0EA5FF54F2081209560911300A6
:101C700040E007C0823139F48091130060E041E018
:101C800020E00E94080D1F910F9108950F931F935C
:101C90008B01FC018281853041F4809106006091C6
:101CA000070040E0209108001AC0863061F480915E
:101CB0000700E82FF0E0EA5FF54F20812095609162
:101CC000080040E00CC0873019F48091080004C07F
:101CD000883039F48091090060E041E020E00E9402
:101CE000080D1F910F910895FC018281813011F43C
:101CF0000E945413089514BE88E10FB6F89480939F
:101D00006000109260000FBE78940E949B0E0895B0
:101D100090E00E94B00E08951F920F920FB60F929E
:101D200011248F9381E08093E5038F910F900FBE74
:101D30000F901F9018951092C20B80E197E290933C
:101D4000A9008093A800E1EAF0E088E08083808128
:101D500082608083E2E7F0E0808182608083089582
:101D60002091A4003091A500280F391F3093AB00BB
:101D70002093AA002091AA003091AB008091A80086
:101D80009091A9008217930770F48091AA00909116
:101D9000AB002091A8003091A900821B930B909377
:101DA000AB008093AA001092E603809172008460D9
:101DB000809372008091E6038823E1F380917200A2
:101DC0008B7F8093720008951F920F920FB60F922F
:101DD00011248F938091C20B8F5F8093C20B8F91E0
:101DE0000F900FBE0F901F9018951F920F920FB675
:101DF0000F9211248F9381E08093E6038F910F90CF
:101E00000FBE0F901F9018950F931F939B01AC016D
:101E1000E4E0220F331F441F551FEA95D1F760E01D
:101E200074E284EF90E00E94A41A89019A010150A3
:101E3000104020403040BB27A32F922F812F80934A
:101E4000C5000093C40082E08093C00088E98093BD
:101E5000C10086E08093C2008DEF93E09093FC0375
:101E60008093FB0320E830E03093F8032093F703DE
:101E70001092FA031092F903E3EFF3E0118210825B
:101E80001382128281EF93E04EE754E05093F20305
:101E90004093F103FC01349731832083FC01329796
:101EA00011821082FC0138971182108213821282F3
:101EB00081E08093E8031092E7031F910F9108954A
:101EC0006091F9037091FA034091F7035091F80380
:101ED00064177507F1F02091F5033091F603E09156
:101EE000FB03F091FC03E20FF31F80832F5F3F4F52
:101EF0003093F6032093F5032417350721F410924D
:101F0000F6031092F5036F5F7F4F7093FA036093AF
:101F1000F9030895CF92DF92FF920F931F93CF930F
:101F2000DF930F92CDB7DEB7F82E082F192FCC24F0
:101F3000DD240AC0F80181918F0199830E94600F0E
:101F40000894C11CD11C9981AF2DB92FFD010190BE
:101F50000020E9F73197EA1BFB0BCE16DF0650F3A2
:101F60000F90DF91CF911F910F91FF90DF90CF9055
:101F700008959FB7F894E091F103F091F203209156
:101F8000E9033091EA03E20FF31F80812F5F3F4F97
:101F90003093EA032093E9034091E9035091EA0367
:101FA0002091ED033091EE034217530721F4109274
:101FB000EA031092E9032091EF033091F0032150DE
:101FC00030403093F0032093EF039FBF08951F929A
:101FD0000F920FB60F920BB60F9211248F93EF93BF
:101FE000FF9381E08093E803E1ECF0E080818F7D56
:101FF0008083FF91EF918F910F900BBE0F900FBEDA
:102000000F901F9018951F920F920FB60F920BB65C
:102010000F9211242F933F934F938F939F93EF939E
:10202000FF938091C0004091C6008C71B1F5209162
:10203000EF033091F0038091ED039091EE032817A8
:10204000390759F1E091F103F091F2038091EB032C
:102050009091EC03E80FF91F408301969093EC03F5
:102060008093EB032091EB033091EC038091ED031F
:102070009091EE032817390721F41092EC03109287
:10208000EB038091EF039091F00301969093F0039E
:102090008093EF0381E08093E703FF91EF919F919D
:1020A0008F914F913F912F910F900BBE0F900FBECC
:1020B0000F901F9018958091F9039091FA03009763
:1020C00089F12091E803222369F12091F3033091F3
:1020D000F403E091FB03F091FC03E20FF31F608136
:1020E0002F5F3F4F3093F4032093F3034091F703A6
:1020F0005091F8032417350721F41092F40310923D
:10210000F30301979093FA038093F9039FB7F89430
:102110006093C6008091C10080628093C1001092DC
:10212000E8039FBF3FB7F8942091E7031092E703BD
:102130008091EF039091F0033FBF222311F00E94A2
:10214000C31908951092C70B1092C80BE3ECFBE083
:1021500011821082178216821186108613861286CB
:102160000E94E5150E9484130E949F110E94F8109E
:102170000E94291208959093C40B8093C30B0E9470
:10218000C31708959093C60B8093C50B0E94B9178F
:102190000895E82FF0E0EE0FFF1FE753F44F71832F
:1021A000608308950E94D9130E94C5160E941211DF
:1021B0000895E091FF04F091000515C0228133815C
:1021C0002817390769F4DC01A158BF4F2C912787E4
:1021D000DC01AE57BF4F2C91208B22E0248305C039
:1021E0000190F081E02D309749F70E94CC110895BD
:1021F000109200051092FF040895FC0114821786C6
:10220000138212828091FF0490910005009719F4C7
:102210001182108202C091838083F0930005E093C5
:10222000FF0408950F931F93CF93DF93E091FF0472
:10223000F0910005EF017BC08C81882321F0823072
:1022400009F072C058C08C850E94A6118C010097BD
:1022500021F482E08C838F876DC09B838A8381E029
:102260008C83F801ED57FF4F89ED90E191838083D6
:10227000F801EE57FF4F998581E092FF80E080835F
:1022800099859170F80183858E7F892B8387998545
:1022900081E093FF80E0982F990F990FF8018385D3
:1022A0008370892B83878091C70B8F5F8093C70BC7
:1022B00084878091C30B9091C40B968785878D810D
:1022C0009E81908B878798859F708189807F892BDD
:1022D000818B9F819295907F8F70892B818BC80114
:1022E00042964C856A857B8550E00E94621BC8013E
:1022F0000E9400161FC0EC17FD0741F488819981E8
:10230000909300058093FF040AC0FC0180819181B5
:102310008C179D07D1F78881998191838083ED8502
:10232000FE85CE01099506C00990D881C02D209761
:1023300009F082CFDF91CF911F910F9108951092F4
:1023400001051092860510920B06089590910105E3
:10235000992359F090918605992351F090910B069D
:102360009923B9F422E030E005C020E030E002C05B
:1023700021E030E045E850E0249FF001259FF00D7A
:10238000349FF00D1124EF5FFA4F805F8183CF01FE
:10239000089580E090E00895FC0110820895482F90
:1023A00050E025E830E0429FC001439F900D529FCE
:1023B000900D11248F5F9A4F0895FC01DC01A15804
:1023C000BF4F1C92DC01A058BF4F1D921C92DC0134
:1023D000AE57BF4F1C92DC01AD57BF4F11961C92F8
:1023E0001E9213868091C70B8F5F8093C70B8487E3
:1023F0008091C30B9091C40B96878587108A1786AE
:10240000118A0895E0E9F6E020E040815181481703
:10241000590759F430E0C901880F991F820F931FA3
:10242000880F991F8057994F08952F5F369624364D
:1024300061F72FEF8F3F920719F482EE98E008952D
:1024400080E090E008950E94CC1108950E94CC1184
:102450000895E0E9F6E024E68FEF9FEF9183808313
:10246000215036962223D1F708950E940212009738
:1024700029F02FEF3FEFFC01318320830895EF9285
:10248000FF920F931F93CF93DF93EC0109851A8579
:1024900017FF05C08D859E850817190751F58D8199
:1024A0009E812FEF8F3F920721F1ED84FE84C701BB
:1024B0000E940212FC01009769F0828193818017CB
:1024C000910799F0DE01A158BF4F9C918581891732
:1024D00060F407C08FEF9FEF0E940212FC01F182AF
:1024E000E0821383028383E08483C158DF4F8881B5
:1024F0008583DF91CF911F910F91FF90EF90089509
:102500000F931F93CF93DF9300D000D000D0CDB7AF
:10251000DEB78C01DC011F968D919C9150970E9433
:102520000212FC010097D1F1D801A158BF4F8C9144
:10253000882319F483E084830AC0848181508483D2
:10254000882329F48FEF9FEF9183808327C0CF01E9
:1025500080599640863091050CF1CE010196AF016D
:102560004650504026E0DA010D90AD01DC010D929D
:10257000CD012150C1F7CF010697AF0126E0DA0166
:102580000D90AD01DC010D92CD012150C1F7DE01AE
:10259000119686E00D9001928150E1F726960FB6D4
:1025A000F894DEBF0FBECDBFDF91CF911F910F9189
:1025B00008952FEF8F3F9207F1F0E0E9F6E040E059
:1025C00050E0208131812817390761F4FA01EE0FBC
:1025D000FF1FE40FF51FEE0FFF1FE057F94F828139
:1025E000938108954F5F5F4F36964436510549F702
:1025F0008FEF9FEF08958FEF9FEF0895CF92DF92B7
:10260000EF92FF920F931F93CF93DF938C01FC0106
:10261000C784D088C6010E94D912FFEF8F3F9F0761
:1026200081F0F801ED57FF4F86E292E191838083BC
:10263000F801EE57FF4F82E08083C8010E94001628
:1026400020C0F801E584F68485E00E94A611EC0123
:102650000097A1F00E94DD11FE01ED57FF4F83E2CC
:1026600092E191838083F88AEF8681E08A8BFC8AED
:10267000EB8ADE8ACD8ACE010E940016C8010E9434
:10268000CC11DF91CF911F910F91FF90EF90DF90D0
:10269000CF900895DC011596ED91FC9116978381FA
:1026A00094810E943512089580E996E008950E9471
:1026B000CC110895ECEEF8E04AE050E02081318141
:1026C0002115310529F0215030403183208351E01C
:1026D00041503596442391F7552311F00E94661915
:1026E0000895DC011596ED91FC9116972081222327
:1026F00019F40E94851604C0213021F40E944A1367
:1027000081E0089580E00895ECEEF8E08AE011821F
:102710001082815035968823D1F710921B0984E1ED
:1027200090E0A0E0B0E08093220990932309A09369
:102730002409B0932509109226098AE593E1909324
:1027400028098093270980E061E773E10E94C9109E
:102750000895CF93DF93EC01E881F9818181883876
:1027600029F58081813611F0813401F58A8180312B
:10277000E8F080510E94A6110097C1F020E2FC0110
:1027800020832B81E158FF4F20832C81FC01E058EE
:10279000FF4F208302964A816881798150E00E9430
:1027A000621B80911B098F5F80931B09DF91CF9182
:1027B00008958F929F92AF92BF92CF92DF92EF9245
:1027C000FF920F931F93CF93DF93CDB7DEB72A9776
:1027D0000FB6F894DEBF0FBECDBF80911B098823D2
:1027E00009F4ADC1DD2444E2C42E57E5852E53E142
:1027F000952E62E2B62E73E2A72E8D2D0E94CF1188
:102800007C01DC018C91823209F4D9C0833220F43E
:10281000803209F08FC107C0833209F47FC184324E
:1028200009F088C17FC1F701C08287859089FFEFD9
:102830008F3F9F0731F4D7011B968C911B9780FD2A
:1028400079C12091C30B3091C40BF7018585968522
:102850002817390709F46EC1838581FD6BC1C70153
:102860000E943F12E9EEF8E040E050E06FEF238174
:1028700034812115310581F1D7011D968D919C91EF
:102880001E97208131818217930739F51C968C9110
:10289000FA01EE0FFF1FEE0FFF1FE40FF51FE751C8
:1028A000F74F9281B82FB91B1B1634F4828387E946
:1028B00090E09483838339C02091C30B3091C40B83
:1028C000F701878190852817390709F033C187857B
:1028D00090890E9435122EC1642F4F5F5F4F35964D
:1028E0004A30510521F66F3F09F424C1862F9927FC
:1028F00087FD9095FC01EE0FFF1FEE0FFF1FE80F05
:10290000F91FE751F74FD7011D968D919C911E97A6
:10291000918380831C968C91828387E990E09483D5
:1029200083838CE199E00E946619F7018781908585
:10293000FFEF8F3F9F07D9F42091C30B3091C40B59
:10294000D7011F968D919C9150972817390779F0E0
:1029500015968D919C911697BFEF8F3F9B0739F08D
:10296000F701838582FD03C0C7010E943D16809157
:10297000C30B9091C40BD7011F962D913C9150979A
:102980008217930721F0BFEF2F3F3B0719F4F701A0
:10299000B082D0C0D70117962D913C91189782171D
:1029A000930709F0C7C015968D919C911697BFEFBC
:1029B0008F3F9B0709F4BEC0F701A082BBC01092F5
:1029C000E808D70151968C91519782958F70E82F26
:1029D000F0E0E430F1050CF05EC0EE0FFF1FE753AE
:1029E000F44F408151814115510509F454C01D96A1
:1029F0002D913C911E973A83298351969C91519732
:102A00009F709B838C83C70142969F838E83119610
:102A10008C91119780518887F701E158FF4F808191
:102A20008987F701E058FF4F80818A87F701738516
:102A3000672F637072FF02C080E201C080E0762FD2
:102A4000782BD7011F968D919C915097BFEF8F3FA8
:102A50009B0711F464E001C060E0672BF7018185FA
:102A600092852817390711F498E001C090E0692B8E
:102A7000D70115968D919C911697BFEF8F3F9B07BD
:102A800011F480E101C080E0862B8D83CE01019698
:102A9000FA01099501C080E0F70127813085FFEF39
:102AA0002F3F3F0771F461E070E02091C30B30913C
:102AB000C40BD7011F964D915C9150972417350791
:102AC00011F060E070E0F701938590FF02C0882369
:102AD00019F461157105F9F083E00E94A6118C01CB
:102AE0000097C9F00E94DD11F801ED57FF4F918268
:102AF0008082D7011D968D919C911E97F801908B35
:102B00008787128A8091E808848B1C968C91838B2E
:102B1000C8010E940016D701CC920CC0C7010E94C8
:102B2000FE1203C0C7010E94CC1180911B09815085
:102B300080931B09D394B3E0DB1609F05ECE2A968E
:102B40000FB6F894DEBF0FBECDBFDF91CF911F91BE
:102B50000F91FF90EF90DF90CF90BF90AF909F903C
:102B60008F9008950E94CC110895EF92FF921F93C9
:102B7000CF93DF937C0180912B09882301F1C0E082
:102B8000D5E110E18C2F0E94CF11DC018C918431B2
:102B900081F4FD01E058FF4F208131812150304008
:102BA000318320832115310521F4DC93A158BF4FD7
:102BB0001C93CF5FC33031F7C7010E946619DF91C4
:102BC000CF911F91FF90EF90089510922A091092D3
:102BD000290910922B0982E390E0A0E0B0E08093F5
:102BE000320990933309A0933409B09335091092B8
:102BF000360985EB95E1909338098093370908955C
:102C0000CF93DF93EC01FC01EE57FF4F808191E100
:102C10009883FE01E158FF4F108280FF03C08FEFC1
:102C20009FEF04C08091C50B9091C60B9E838D834E
:102C30008F8598890E94D91298878F832091C30B22
:102C40003091C40B3A8729872091C80B2F5F2093BE
:102C5000C80B2C832FEF8F3F920719F481E498E87B
:102C600002C081E698E89B838A8380912B098F5F5D
:102C700080932B09DF91CF9108950F931F93CF93EA
:102C8000DF938C01FC01818180510E94A611EC012F
:102C90000097B1F1FC01ED57FF4F82EB95E1918375
:102CA0008083CE010296F8014181B8016E5F7F4FAB
:102CB00050E00E94621B81E18883FE01E158FF4FD2
:102CC000108281E498E89B838A838FEF9FEF988737
:102CD0008F838091C50B9091C60B9E838D838091CD
:102CE000C30B9091C40B9A8789878091C80B8F5F23
:102CF0008093C80B8C8380912B098F5F80932B0965
:102D0000DF91CF911F910F9108951F93CF93DF9380
:102D1000FC01C581D68180912B098823B1F010E098
:102D2000812F0E94CF11FC018081843159F4948558
:102D30008981981739F485E180838A81EE57FF4FA6
:102D4000808303C01F5F133059F7DF91CF911F912C
:102D50000895E0912909F0912A09833030F08330F9
:102D600031F0853031F481E205C080E003C080E2BB
:102D700001C081E0DF01A158BF4F8C9383E18083C4
:102D800010922A09109229090895CF92DF92EF92AA
:102D9000FF920F931F93CF93DF9380912B0988238A
:102DA00009F455C010E005E184E1F82E95E1C92E43
:102DB000D12C22E1E22E812F0E94CF11EC018881DB
:102DC000833199F0853179F18131E9F50E94CD1790
:102DD0008823C9F5D0932A09C0932909E882CE0136
:102DE000029669810E94DD172EC0FE01E158FF4F57
:102DF00080818823B1F42D853E858091C30B90910D
:102E0000C40B2817390769F48B8580FF0AC0F88244
:102E1000C058DF4FD982C8828CE299E00E946619BF
:102E200012C0088310C0CE010E948012FE01ED572F
:102E3000FF4F0190F081E02DCE01099580912B0983
:102E4000815080932B091F5F133009F0B4CFDF91BD
:102E5000CF911F910F91FF90EF90DF90CF90089549
:102E600093E09093420180934201909141019F71C0
:102E70008917D9F7089580914309882311F086E1D5
:102E800001C088E00E94301708950F931F93CF93DD
:102E9000DF9310924E0186E00E943017C0E0D0E030
:102EA00000E010E081E00E94880E8091460182954A
:102EB0008695837090E00C2E02C0880F991F0A94AB
:102EC000E2F7082B192B2296C031D10559F788E07B
:102ED0000E9430178FEF80934F0180914E018860E0
:102EE00080934E0180914E01806480934E01C80111
:102EF000DF91CF911F910F910895E9E3F1E0808177
:102F00008160808388E00E943017EEE6F1E08081E6
:102F10008062808380818F7E80838FEF80934F01DA
:102F2000EEE4F1E08081886080838081806480832A
:102F3000ECE4F1E08081806880830E9445178093F3
:102F40006D0110923D091092430981E080933C0984
:102F5000089590913D09986090933D0980934309AD
:102F6000089590913D09916090933D0980933E09A9
:102F7000089520913D09226020933D0990934009D6
:102F800080933F09089520913D09246020933D09D5
:102F90009093420980934109089580913C098130C2
:102FA00049F481E090E020913D09222329F480E05A
:102FB00090E0089581E090E008951F93CF93DF9310
:102FC00000D0CDB7DEB7182F89E169839A830E94BC
:102FD00030176981862F8E5F80938001E12F9A815F
:102FE000F92FA1E8B1E002C081918D938E2F811B52
:102FF0008617D0F382E08093420183E080933C09FE
:103000000F900F90DF91CF911F9108951F920F9213
:103010000FB60F920BB60F9211242F933F934F933D
:103020005F936F937F938F939F93AF93BF93EF9330
:10303000FF93809141018F71893169F489E00E9489
:10304000301784E080933C098091420182958695F7
:10305000877080933B09FF91EF91BF91AF919F9152
:103060008F917F916F915F914F913F912F910F9031
:103070000BBE0F900FBE0F901F9018951F920F92CE
:103080000FB60F9211248F9389E0809342018091B3
:10309000470180933A0980917B018093390985E04B
:1030A00080933C098F910F900FBE0F901F90189541
:1030B0001F93CF93DF9300D000D00F92CDB7DEB730
:1030C00080913C098430F1F1853009F44FC08130A2
:1030D00009F076C010913D09112309F471C088E010
:1030E0000E94301710FF09C090913E099F71809196
:1030F0004801807E892B8093480180913D0981FFA2
:1031000008C080913F0980936201809140098093BB
:10311000630180913D0982FF08C08091410980933D
:103120006001809142098093610180913D0984FF93
:1031300004C00E9445170E94DC190E943B171092A0
:103140003D093EC080913B090E94A9168091410132
:103150008F718930D9F72FC0FC01E058FE4F2081D4
:103160008C5B964FFC0120834F5F01C040E02091B3
:103170003909842F90E030E0281739076CF784E490
:1031800099E09A8389838091390982508B83E091F9
:103190003909F0E0EC5BF64F80818C8380913A092D
:1031A0008A558D83CE0101960E94A9138091410119
:1031B0008F718930D9F781E080933C090E943B17D9
:1031C0000F900F900F900F900F90DF91CF911F9164
:1031D00008950E947B0E0E9450190E947D170E9444
:1031E000A21008950E9458180E94D2100E947319CC
:1031F00008950F931F93CF93DF93FC010091C409AF
:103200001091C509368127819085818501151105A9
:10321000C1F1432F522F692F782FE80120E030E0D1
:1032200001C0EC018A819B81AC81BD81481759079F
:103230006A077B0748F4841B950BA60BB70B8A83A0
:103240009B83AC83BD8309C0481B590B6A0B7B0B66
:10325000888199819E01009721F74283538364837B
:1032600075832115310551F0D9018D919C911197EC
:10327000918380831196FC93EE930DC0118300839C
:1032800006C0118210823283238394838583F09356
:10329000C509E093C409DF91CF911F910F91089563
:1032A0001092C5091092C4090895E091C409F091E3
:1032B000C50906C0E817F90739F00190F081E02D43
:1032C0003097C1F780E0089581E00895CF93DF93B0
:1032D000EC010E945519882319F4CE010E94F918B7
:1032E000DF91CF910895CF92DF92EF92FF92CF932B
:1032F000DF938091C20B882309F43EC08FB7F89406
:103300006091C20B1092C20B8FBF70E080E090E022
:103310002AE030E040E050E00E94711A6B017C012D
:1033200014C0C81AD90AEA0AFB0A888199819093C5
:10333000C5098093C4098A85813019F4CE010E94A1
:10334000F918EB85FC85CE010995C091C409D0918F
:10335000C509209789F08A819B81AC81BD81C816FF
:10336000D906EA06FB06E8F68C199D09AE09BF09E5
:103370008A839B83AC83BD83DF91CF91FF90EF90D5
:10338000DF90CF9008950F931F93CF93DF938C011D
:10339000C0E0D0E005C00E94B90F0E94600F2196E6
:1033A000C017D107C1F78BB190E489278BB9DF91A2
:1033B000CF911F910F9108950E94571B08950E946D
:1033C000E91860E076E980E090E00E94040F0E9436
:1033D000430B8BE08093D31B8093D41B1092D51B9F
:1033E0000E94290A83ED9BE10E94670B0E948C09D1
:1033F0008823E9F082E492E00E948A0F05EB1BE04B
:10340000C0E0D0E0F80181918F0190E00E94970C1C
:103410008DE20E94600F2196C530D10599F7809109
:10342000BA0B90E00E94970C82E592E002C087E51B
:1034300092E00E948A0F0E9439080E94E40A0E94CA
:10344000F2180E945B108091DF03882309F446C0C4
:103450008091D31B90E00E94570C8AE30E94600F7A
:103460008091D41B90E00E94570C8AE30E94600F69
:103470008091D51B90E00E94570C86E792E00E9455
:103480008A0F83E00E94F60989E20E94F909BC01D3
:1034900080E090E00E94210427ED33EA40E95FE3F9
:1034A0000E949E0226E636E648E853E40E94660241
:1034B0000E94B100DC01CB019093D10B8093D00B23
:1034C00089E792E00E948A0F8091D00B9091D10BF6
:1034D0000E94570C80E892E00E948A0F0E94030726
:1034E000AECF629FD001739FF001829FE00DF11D6E
:1034F000649FE00DF11D929FF00D839FF00D749F6E
:10350000F00D659FF00D9927729FB00DE11DF91F19
:10351000639FB00DE11DF91FBD01CF011124089576
:10352000AA1BBB1B51E107C0AA1FBB1FA617B707E9
:1035300010F0A61BB70B881F991F5A95A9F7809505
:103540009095BC01CD010895A1E21A2EAA1BBB1BC8
:10355000FD010DC0AA1FBB1FEE1FFF1FA217B3075F
:10356000E407F50720F0A21BB30BE40BF50B661F75
:10357000771F881F991F1A9469F760957095809539
:1035800090959B01AC01BD01CF0108952F923F9210
:103590004F925F926F927F928F929F92AF92BF9263
:1035A000CF92DF92EF92FF920F931F93CF93DF930F
:1035B000CDB7DEB7CA1BDB0B0FB6F894DEBF0FBE6C
:1035C000CDBF09942A88398848885F846E847D84B9
:1035D0008C849B84AA84B984C884DF80EE80FD80BB
:1035E0000C811B81AA81B981CE0FD11D0FB6F89431
:1035F000DEBF0FBECDBFED0108958F929F92AF92B7
:10360000BF92CF92DF92EF92FF92CF93DF93EC01C4
:1036100088819981AA81BB810097A105B10521F418
:1036200084E299EDABE5B7E0BC01CD012DE133EFCC
:1036300041E050E00E947B1B49015A0127EA31E436
:1036400040E050E00E94711A6B017C01C501B40199
:103650002CEE34EF4FEF5FEF0E94711ADC01CB01CB
:10366000C80ED91EEA1EFB1EF7FE08C08FEF9FEFA3
:10367000AFEFBFE7C80ED91EEA1EFB1EC882D98273
:10368000EA82FB82C6019F77DF91CF91FF90EF9096
:10369000DF90CF90BF90AF909F908F9008950E9441
:1036A000FD1A08958DE893E00E94FD1A0895A0E0A8
:1036B000B0E080938D0390938E03A0938F03B0931B
:1036C00090030895FB01DC0102C001900D9241506E
:1036D0005040D8F70895DC01CB01FC01F999FECFE9
:1036E00006C0F2BDE1BDF89A319600B40D9241508A
:1036F0005040B8F7089597FB092E05260ED057FDC8
:1037000004D022DF0AD0001C38F450954095309543
:1037100021953F4F4F4F5F4F0895F6F79095809555
:10372000709561957F4F8F4F9F4F0895F894FFCF0D
:1037300050524F434553534947204F5045524154EF
:10374000494F4E203E3E20544F3A000920434F44FB
:10375000453A000920415247533A000D0A004255AC
:1037600054544F4E20505245535345440D0A003097
:10377000780053455249414C204E554D4245523AEE
:1037800020000D0A0D0A0053455249414C204E5568
:103790004D4245523A204E4F5420444554454354DF
:1037A0004544210D0A000D0A0054454D503A2000B1
:1037B000BA430D0A000000000000000000000102F2
:1037C00002030303030404040404040404050505BC
:1037D0000505050505050505050505050506060696
:1037E0000606060606060606060606060606060679
:1037F0000606060606060606060606060607070766
:103800000707070707070707070707070707070748
:103810000707070707070707070707070707070738
:103820000707070707070707070707070707070728
:103830000707070707070707070707070708080815
:1038400008080808080808080808080808080808F8
:1038500008080808080808080808080808080808E8
:1038600008080808080808080808080808080808D8
:1038700008080808080808080808080808080808C8
:1038800008080808080808080808080808080808B8
:1038900008080808080808080808080808080808A8
:1038A0000808080808080808080808080808080898
:1038B000080808080808080808080808080100009F
:1038C00000000001000000000000000000000000F7
:1038D00000000000000002000006050102000000D8
:1038E000000000000501020000740E740E000000CC
:1038F00000460E460E460E460E0000000000000078
:10390000000000000000001D0E1D0E1D0E01010133
:00000001FF
